:100000000C946F030C948C030C948C030C948C0351
:100010000C948C030C948C030C948C030C947B1622
:100020000C948C030C945A150C944E160C94F415E5
:100030000C9421160C948C030C949A150C94C715EF
:100040000C9407150C948C030C9447170C948C0398
:100050000C940F170C948C030C948C030C948C034D
:100060000C948C030C948C03520D550D5A0D5D0DA0
:10007000600D630D660D690D220022007D3C2F2569
:10008000643E003C25643E7B22636D64223A22007C
:10009000222C202264617461223A2000636F6D6D0E
:1000A000616E64206E6F7420666F756E64004552D9
:1000B000524F523A2000636D643E004F6E6557699F
:1000C0007265577269746542797465203D202564B4
:1000D0000A004F6E655769726552656164426974C2
:1000E000203D2025640A00746865726D5F72657337
:1000F00065742829203D2025640A005D0025642CB4
:100100002025642C20005D005B25642C25642C00D8
:100110005B00435243204572726F72005B223022B3
:100120002C302C305D5D00203A2000203A20002544
:1001300064203A20005B003100256400256400251E
:1001400064000D0A000D0A00203078257800307810
:10015000257825782030782578005B25642C22309E
:10016000782578225D00220022007D002C226C6F11
:10017000636174696F6E223A007B22534E223A000B
:10018000224552524F52202D20496E76616C69648F
:100190002073796E746178206C6162656C205B619C
:1001A0007C627C647C697C6C7C735D206465764ECB
:1001B000756D206C6162656C5F74657874220022D5
:1001C0004F4B2200224F4B2200226F77697265202D
:1001D00031352E31322E3135202D20444556220026
:1001E0006F7774656D70222C2264617461223A000D
:1001F0007770202020202020202020202020203A3E
:10020000207772697465206461746120746F207353
:10021000706563696669656420706167650A00726C
:1002200070202020202020202020202020203A2064
:1002300072656164207370656369666963207061CB
:1002400067652066726F6D203338323420646576BE
:100250006963650A006461746120202020202020E9
:10026000202020203A20726561642064617461203E
:1002700066726F6D20333832342064657669636549
:100280000A0074656D70202020202020202020206E
:10029000203A20726561642074656D7065726174C6
:1002A000757265730A0073746172742020202020B7
:1002B00020202020203A2073746172742074656DB0
:1002C0007065726174757265206D656173757265B4
:1002D0006D656E740A0073617665202020202020F1
:1002E00020202020203A207361766520736372619C
:1002F00074636870616420746F20656570726F6DDF
:100300000A00737020202020202020202020202080
:10031000203A2073686F772073637261746368207A
:100320007061640A006C6F6164202020202020200E
:10033000202020203A206C6F616420656570726F08
:100340006D20636F6E74656E740A00726F6D20208D
:10035000202020202020202020203A207265616467
:1003600020726F6D206F6620612073696E676C6507
:10037000206465766963650A000A0A4F6E657769CD
:10038000726520436F6D6D616E64733A0A00737419
:100390007265616D20202020202020202020203A1E
:1003A0002073746172742073747265616D696E6715
:1003B0000A00746573742020202020202020202033
:1003C0002020203A20746573742066756E6374690A
:1003D0006F6E0A00706F6B65205B7265675D205BF6
:1003E00076616C5D203A207365747320726567696D
:1003F000737465722076616C756520746F205B760E
:10040000616C5D200A007065656B205B7265675DDD
:10041000202020202020203A2072657475726E738F
:10042000206465632C2068657820616E64206269B1
:100430006E2076616C7565206F66207265676973E2
:100440007465720A007465737420202020202020B7
:100450002020202020203A20746573742066756E59
:100460006374696F6E0A0069646E2020202020206A
:1004700020202020202020203A207072696E747382
:100480002064657669636520494420616E64207646
:10049000657273696F6E20696E666F0A000A436F3A
:1004A0006D6D616E64733A0A005A2020202020206E
:1004B000202020202020202020203A2072657365F3
:1004C0007420636F6D6D616E64206E756D62657210
:1004D00020746F207A65726F0A005320202020203C
:1004E00020202020202020202020203A207065720B
:1004F000666F726D2062696E6172792073656172D8
:1005000063680A0052202020202020202020202064
:1005100020202020203A2073656E64207265736568
:10052000742070756C73650A004320202020202001
:10053000202020202020202020203A20636C65618C
:10054000722073637265656E0A00496E7374616E22
:100550007420636F6D6D616E64733A0A002E002221
:1005600000256400746865726D5F72657365742838
:10057000290A0025642E00224445565F4E4F545FE1
:10058000464F554E4422002D002D002E00220025FE
:10059000640044532E746865726D5F70696E20202C
:1005A0003D2025640A00504F525444202020202032
:1005B000202020203D2025640A0044532E746865C5
:1005C000726D5F706F7274203D2025640A00444490
:1005D0005244202020202020202020203D2025645F
:1005E0000A0044532E746865726D5F646472202043
:1005F0003D2025640A00303820745F726561645FB5
:10060000736C6F7420203A2025640A003037207400
:100610005F726561645F73616D7020203A202564AC
:100620000A00303620745F77726974655F736C6F8F
:1006300074203A2025640A00303520745F7772698F
:1006400074655F6C6F7720203A2025640A0030348F
:1006500020745F72657365745F64656C61793A20BC
:1006600025640A00303320745F72657365745F72AD
:10067000782020203A2025640A00303220745F72EE
:10068000657365745F74782020203A2025640A0021
:10069000303120745F636F6E762020202020202070
:1006A0003A2025640A000A31576972652054696D41
:1006B000696E670A005B005D002C00303132333414
:1006C0003536373839414243444546001B5B256483
:1006D0003B256448001B5B324A001B630000112469
:1006E0001FBECFEFD8E0DEBFCDBF12E0A0E0B1E08B
:1006F000E0E7F3E302C005900D92A43AB107D9F701
:1007000025E0A4EAB2E001C01D92A63BB207E1F7E2
:100710000E94210B0C94B6190C940000FC018FB7B9
:10072000F894718360835383428317821682158203
:1007300014828FBF0895FC019FB7F89444815581BE
:1007400041155105C9F026813781A081B181A20FE1
:10075000B31F8C912F5F3F4F378326836281738154
:100760002617370720F0261B370B37832683415087
:1007700051095583448301C080E09FBF0895FC0167
:10078000362F2FB7F894A481B58162817381A617A3
:10079000B70798F4868197818A0F9B1F0E94B41730
:1007A000A081B181A80FB91F3C93848195810196E6
:1007B000958384832FBF8FEF08952FBF80E0089526
:1007C00010927504109271041092760410927304C2
:1007D00010927204109274041092D2031092D303F8
:1007E0001092D4031092D5030895EF92FF921F93B5
:1007F000CF93DF937B0110917404C12FD0E09E0151
:1008000043E0220F331F4A95E1F7BC01C9018E5125
:100810009D4F0E942419CC0FDD1FCA55DD4FF98270
:10082000E8821F5F10937404DF91CF911F91FF90B6
:10083000EF9008959093A5028093A4020895CF931A
:10084000DF9380916F048823E9F08091D5038F9323
:100850008091D4038F938091D3038F938091D2039F
:100860008F9383E890E09F938F9381E08F930E9412
:1008700027148DB79EB707960FB6F8949EBF0FBE8C
:100880008DBF10C0C6EBD0E0CE01FE012491222323
:1008900049F02196FC018491E091A402F091A50217
:1008A0000995F2CFDF91CF9108951F93CF93DF93F6
:1008B000E091A402F091A5028DE009950E941F0429
:1008C00010917104C7E7D4E01C0F1C1739F0E091B8
:1008D000A402F091A50289910995F7CFDF91CF91FC
:1008E0001F910895882319F0813059F0089580915F
:1008F00077048823D1F067E774E087EC94E00C94E8
:10090000241967EC74E087E794E00E942419E7E774
:10091000F4E001900020E9F73197E757F440E093C5
:100920007104E09376040C9455040895E0917204E8
:10093000F0917304309739F0099510927304109276
:1009400072040C941F0408958091D2039091D303F4
:10095000A091D403B091D5030196A11DB11D809340
:10096000D2039093D303A093D403B093D5030895F7
:100970001092D2031092D3031092D4031092D50395
:10098000089580916F048823F9F08091D5038F93A7
:100990008091D4038F938091D3038F938091D2035E
:1009A0008F938CE790E09F938F9381E08F930E94C9
:1009B00027140E947C138DB79EB707960FB6F89444
:1009C0009EBF0FBE8DBF02C00E947C130C94A40476
:1009D000CF93DF9380916F048823E1F08091D5035A
:1009E0008F938091D4038F938091D3038F938091C1
:1009F000D2038F938AE790E09F938F9381E08F9348
:100A00000E9427148DB79EB707960FB6F8949EBF25
:100A10000FBE8DBFCEEAD0E0CE01FE01249122238D
:100A200049F02196FC018491E091A402F091A50285
:100A30000995F2CFC7E7D4E08991982F9F7DE09187
:100A4000A402F091A502992311F00995F5CF8AE34C
:100A50000995E091A402F091A50280E20995CCE904
:100A6000D0E0CE01FE012491222349F02196FC0121
:100A70008491E091A402F091A5020995F2CF8091B2
:100A80006F04882359F088E790E09F938F9381E06B
:100A90008F930E9427140F900F900F90DF91CF91AA
:100AA0000C94C104BF92CF92DF92EF92FF920F930A
:100AB0001F93CF93DF9380E00E94720480E0C82EE2
:100AC000D12CF601E958FB4F90819F7D11F08F5F8B
:100AD000F6CF90916F04811105C091113CC00E9426
:100AE0007C132EC0913029F480E990E00E946B13B2
:100AF00002C00E947C13B090740492EEE92E92E042
:100B0000F92E00E010E00B15C8F4E801A60167E734
:100B100074E0C7010E942B190F5F1F4F28E0E20EFF
:100B2000F11C892B81F7CC0FDD1FCA55DD4F888161
:100B3000998190937304809372040DC00E94E8041D
:100B4000DF91CF911F910F91FF90EF90DF90CF90A9
:100B5000BF900C941F04DF91CF911F910F91FF90D4
:100B6000EF90DF90CF90BF900895CF93C82F8091E2
:100B700075048230B9F5C33441F0C43409F1C1348D
:100B800071F581E00E9472042AC0809176049091F0
:100B90007104E091A402F091A5028917F0F48F5F2F
:100BA000809376048BE10995E091A402F091A5026F
:100BB0008BE50995E091A402F091A50283E40EC0B3
:100BC00080917604E091A402F091A502882329F097
:100BD00081508093760488E001C087E009951092E7
:100BE0007504CFC0813021F4CB3511F482E0C7C049
:100BF0001092750480EE8C0F8F3508F047C040913D
:100C0000760480917104481316C0E091A402F0911B
:100C1000A5028C2F0995E091760481E08E0F8093D8
:100C20007604F0E0E958FB4FC083809171048F5F38
:100C300080937104A6C08F5F80937104481760F49D
:100C4000A82FB0E0A958BB4F9D0121503109F901EF
:100C500090819C938150F2CF81E0840F8093760441
:100C6000E42FF0E0E958FB4FC0830E945504C09187
:100C7000760480917104C81708F083C0E091A40243
:100C8000F091A50288E00995CF5FF3CFCA3011F04B
:100C9000CD30B1F4E091710481E08E0F8093710446
:100CA000F0E0E958FB4F1082809176048F5F8093CB
:100CB00076040E945205109271041092760461C06D
:100CC000CF3719F0C83009F057C0809176048823D7
:100CD00009F44BC09091710489131DC0E091A402E6
:100CE000F091A50288E00995E091A402F091A50297
:100CF00080E20995E091A402F091A50288E00995AF
:100D000080917104815080937104809176048150A8
:100D10008093760436C091509093710481508093F3
:100D20007604891740F4E82FF0E0E958FB4F218161
:100D300020838F5FF6CF0E945504E091A402F091CA
:100D4000A50280E20995C09176048091710490E03B
:100D50002C2F30E082179307A4F0E091A402F091C9
:100D6000A50288E00995CF5FF0CFE091A402F09151
:100D7000A50287E0CF910994CB3119F481E08093EB
:100D80007504CF91089590E0E92FF0E0E958FB4F0A
:100D90002081203211F49F5FF7CF20E02817A1F0C7
:100DA000E92FF0E0E958FB4F30813F7D11F09F5F64
:100DB000F7CFE92FF0E0E958FB4F3081303211F4E2
:100DC0009F5FF7CF2F5FEACF892F90E089589B4F25
:100DD0000895CF93DF9300D0CDB7DEB70E94C3064E
:100DE0004AE050E0BE016F5F7F4F0E940A180F90EB
:100DF0000F90DF91CF910895CF93DF9300D0CDB7BF
:100E0000DEB70E94C30640E150E0BE016F5F7F4F36
:100E10000E940A180F900F90DF91CF9108958AE4F5
:100E200095E00E946B1389E295E00E946B1384E0C9
:100E300095E00E946B138AED94E00E946B1389EA9F
:100E400094E00E946B138DE994E00E946B1387E697
:100E500094E00E946B1385E494E00E946B1386E09B
:100E600094E00E946B1384ED93E00E946B1382EB7D
:100E700093E00E946B138EE893E00E946B1389E766
:100E800093E00E946B138BE493E00E946B1385E266
:100E900093E00E946B1382E093E00E946B1386ED57
:100EA00092E00E946B1386EA92E00E946B1382E844
:100EB00092E00E946B1385E592E00E946B138FE134
:100EC00092E00E946B1380EF91E00C946B1389EC1D
:100ED00091E00E946B130C94C1040E940F0E0E94BB
:100EE000880F87E391E00E946B130C94C10481E0AA
:100EF0000E94E90660936F0408950F931F93CF93A8
:100F0000DF93CDB7DEB764970FB6F894DEBF0FBEA0
:100F1000CDBF81E00E94C3068C0182E00E94E906F9
:100F200083E00E94C306BC01F80180818C3679F40D
:100F3000CE0101960E94241944E150E064E670E07D
:100F4000CE0101960E945A1984EC91E013C08337B8
:100F500079F4CE0101960E94241944E150E068E73B
:100F600070E0CE0101960E945A198FEB91E002C009
:100F700080E891E00E946B130E94C10464960FB652
:100F8000F894DEBF0FBECDBFDF91CF911F910F91BF
:100F9000089581E00E94E90682E00E94E9060C942F
:100FA000710DCF92DF92EF92FF9281E00E94FC06DA
:100FB0006B017C0182E00E94FC06F6016083FF90D9
:100FC000EF90DF90CF90089581E00E94FC06FB0136
:100FD00080811F928F931F928F938AE591E09F9358
:100FE0008F9381E08F930E9427148DB79EB7079649
:100FF0000FB6F8949EBF0FBE8DBF0C94C1048F92A4
:101000009F92AF92BF92CF92DF92EF92FF920F9397
:101010001F93CF93DF9381E00E94FC06EB0182E0F7
:101020000E94FC067B0110E088E4C82E81E0D82EE7
:1010300001E09EE4A92E91E0B92E25E4822E21E064
:10104000922EEC16FD0698F18881111116C01F92A0
:101050008F93CE0199279F938F931F92DF93BF9217
:10106000AF920F930E9427148DB79EB709960FB6C3
:10107000F8949EBF0FBE8DBF0CC01F928F93DF925E
:10108000CF920F930E9427140F900F900F900F9004
:101090000F901F5F183049F49F928F920F930E9418
:1010A00027140F900F900F9010E02196CACF82E482
:1010B00091E09F938F9381E08F930E9427140F906C
:1010C0000F900F90DF91CF911F910F91FF90EF90B4
:1010D000DF90CF90BF90AF909F908F90089581E068
:1010E0000E94E906609370041F926F938FE391E072
:1010F0009F938F9381E08F930E9427140F900F90FE
:101100000F900F900F900C94C1040E940F0E1F922D
:101110008F9387EE90E09F938F9381E08F930E944F
:1011200027140F900F900F900F900F90089581E06B
:101130000E94E90670936B0560936A05611571055D
:1011400081F41F921F928CE391E09F938F9381E033
:101150008F930E9427140F900F900F900F900F9075
:101160000895AB01BC01662777278CE890E00E94C8
:10117000721980916B058F9380916A058F9389E333
:1011800091E09F938F9381E08F930E9427140F909B
:101190000F900F900F900F900C94C10481E00E946B
:1011A000E906862F0C94B30CBF92CF92DF92EF9298
:1011B000FF920F931F93CF93DF93C0E0D0E08DEFAA
:1011C000E82E80E0F82E01E098E0C92E91E0D92EBB
:1011D000BC2E8C2F0E94B30C80916F04882321F0C9
:1011E00080E191E00E946B1310E0612F8B2D0E9433
:1011F000E20F8823D9F180916F048823C1F01F92F8
:101200001F93DF93CF93DF92CF920F930E94271407
:101210000E94E80E86E091E00E946B138DB79EB7A6
:1012200007960FB6F8949EBF0FBE8DBF15C01F92D4
:101230001F93DF93CF93FF92EF920F930E94271497
:101240000E94E80E0E947C138DB79EB707960FB6DA
:10125000F8949EBF0FBE8DBF80916F04882321F04C
:101260008BEF90E00E946B131F5FBFCF2196C330BE
:10127000D10509F0ADCFDF91CF911F910F91FF9074
:10128000EF90DF90CF90BF900C94C104EF92FF924B
:101290000F931F93CF93DF9300D000D0CDB7DEB76D
:1012A00080916F04882329F085E391E00E946B13FD
:1012B00002C00E947C1300E011E08FE2E82E81E082
:1012C000F82E612F80E00E94E20F8130B1F50F5FB0
:1012D00090916F04992399F00E94CF140E94E80E18
:1012E0000E94C714CE0101960E9437110E94C714B4
:1012F0000E94B80E0E94CB140E94C7141EC01F92F9
:101300000F93FF92EF928F930E9427140E94E80E92
:101310008BE291E00E946B13CE0101960E9437117F
:1013200087E291E00E946B130E94B80E0E947C132A
:101330000F900F900F900F900F901F5F153109F6CF
:1013400080916F04882339F08CE191E00E946B1347
:101350000E94C10402C00E947C130E94C1040F902D
:101360000F900F900F90DF91CF911F910F91FF90F1
:10137000EF9008950E94B80E0C94C1040E94D01002
:101380000C94C1040E942910882319F00E94E80ED1
:101390000DC00E94E80E82E191E09F938F9381E05F
:1013A0008F930E9427140F900F900F900C94C104FC
:1013B000CF92DF92EF92FF920F931F93CF93DF9321
:1013C000CDB7DEB728970FB6F894DEBF0FBECDBFFE
:1013D00081E00E94E906062FCE0101967C0112E011
:1013E0006C01812F0E94E906F70161937F011F5F65
:1013F0001A30B9F78981882319F0C6010E945E0F5F
:10140000802F0E94300F0E94D40828960FB6F894BF
:10141000DEBF0FBECDBFDF91CF911F910F91FF9027
:10142000EF90DF90CF90089581E00E94E906862F2B
:101430000E9489100E94B80E0C94C104CF9381E0E1
:101440000E94E906C62F82E00E94E9068C2F0E94C6
:101450002F128FE99FE00197F1F700C000008C2F59
:101460000E9489100E94B80ECF910C94C104CF93B2
:10147000DF930E945A12C0E08C2F0E94B30CD0E080
:101480000E944513882339F08D2F0E94300F0E944F
:101490006212DF5FF5CFCF5FC33071F7DF91CF917D
:1014A0000C94C1040C94D20CCF9381E00E94E90605
:1014B000C62F82E00E94E9068C2FCF910C94470D35
:1014C000CF92DF92EF92FF92CF9381E00E94E906E4
:1014D000C62F82E00E94E9066B017C018C2F0E94DE
:1014E000B30C4098C6010E94CD0C409ACF91FF905A
:1014F000EF90DF90CF900895CF93DF931F92CDB7F9
:10150000DEB781E00E94E90669830E94850889812F
:101510000F90DF91CF910C94B80D81E00E94E90605
:101520001F926F9382ED90E09F938F9381E08F9352
:101530000E9427140E9485080F900F900F900F9023
:101540000F900C944F0ECF93DF931F92CDB7DEB761
:1015500081E00E94E9061F926F938BEB90E09F93CE
:101560008F9381E08F9369830E9427140E948508DE
:101570006981862F0F900F900F900F900F900F9012
:10158000DF91CF910C94A50E0F931F930E94FE1430
:1015900020916A0530916B05890120E030E06017E9
:1015A0007107820793077CF080917004882359F0BB
:1015B0000E94F51481E080936E040E940F0E1F912B
:1015C0000F910C94880F1F910F910895CF93DF9383
:1015D0001F92CDB7DEB780916E04882381F0109200
:1015E0006E0480EE91E00E946B130E9446090E94F7
:1015F0001F0405C08981823549F40E948508CE0107
:1016000001960E94F5168111F5CF18C0833548F474
:10161000833489F40E948B1761E081E00E948F1768
:10162000E6CF833529F08A3531F40E94B804DFCF44
:101630000E94370AE4CF0E94B505E1CF0E949604CC
:10164000CACF0E94D21660E072EC81E090E00E9466
:10165000B8168CEE96E10E9447130E94E0038CEED0
:1016600096E10E941A040E9487170E948B17EEE6EB
:10167000F4E010821182128288EE93E090936B0561
:1016800080936A050E94D81464EC7AE080E00E949E
:10169000EA1485E00E94D31483E284B98CEF8BB9FD
:1016A0008FEF87B988B92D986FE077E080E091E0FF
:1016B0000E94F5036BE37CE085E091E00E94F50376
:1016C00067E677E089E091E00E94F5036DE777E057
:1016D0008FE091E00E94F50361E47CE085E191E018
:1016E0000E94F50369EC77E08BE191E00E94F5033D
:1016F00067E777E080E291E00E94F50361ED77E033
:1017000085E291E00E94F50364EE77E08AE291E0E1
:101710000E94F5036FEF77E08FE291E00E94F503FE
:101720006FE678E084E391E00E94F50367E978E0F2
:101730008BE391E00E94F50360E67AE084E491E0B7
:101740000E94F5036CE77AE08AE491E00E94F503D9
:101750006DE87AE08FE491E00E94F50363EA7AE0B5
:1017600084E591E00E94F50362EC79E08AE591E07E
:101770000E94F50365E878E08EE591E00E94F503AC
:1017800064ED78E084E691E00E94F5036AEB79E08D
:1017900089E691E00E94F50368ED79E08CE691E03E
:1017A0000E94F5036DE677E081E791E00E94F50382
:1017B00066E479E087E791E00E94F5036EEB79E05B
:1017C0008CE791E00E94F5036EEC78E081E891E00F
:1017D0000E94F50364E17AE085E891E00E94F50358
:1017E0006EE17AE088E891E00E94F50367E37AE031
:1017F0008BE891E00E94F50362E57AE085E991E0EB
:101800000E94F50364E57AE082E991E00E94F50325
:101810000E945B0C0E9467070E941F040E94E60A58
:101820000F931F93CF93DF93CDB7DEB764970FB6B7
:10183000F894DEBF0FBECDBF8C0188E691E00E9418
:101840006B1344E150E0B801CE0101960E943C19AF
:10185000CE0101960E945D1386E691E00E946B1313
:1018600064960FB6F894DEBF0FBECDBFDF91CF9167
:101870001F910F91089588E790E00E94100C0C943E
:10188000C10489E791E00E946B1388E790E00E9411
:10189000100C8CE691E00E946B1384E690E00E94AD
:1018A000100C0E94CB140E94CB148AE691E00E9497
:1018B0006B130C94C104ECE6F5E089E08E0F1192F5
:1018C0008E13FDCFE5E7F5E088E08E0F11928E13C1
:1018D000FDCF409A419A429A449A459A8BB180939F
:1018E00080058AB18093810589B18093830582E068
:1018F000809382058FE890E00E94541990938505AB
:101900008093840581E990E00E94541990938705A3
:101910008093860583E990E00E945419909389058D
:101920008093880585E990E00E94541990938B0577
:1019300080938A0587E990E00E944C1980938C057A
:1019400088E990E00E944C1980938D0589E990E028
:101950000E944C1980938E058AE990E00E944C19F0
:1019600080938F050895863058F49BB1909380053D
:101970009AB19093810599B1909383058E5F0AC0C7
:1019800095B19093800594B19093810593B1909314
:1019900083058650809382050895019710F000001A
:1019A000FCCF08951F93CF93DF9386EA96E09F9331
:1019B0008F9311E01F930E942714CCE6D5E0898D08
:1019C0008F93888D8F9380E996E09F938F931F93D9
:1019D0000E9427148B8D8F938A8D8F938AE796E0D0
:1019E0009F938F931F930E9427148D8D8F938C8DBF
:1019F0008F9384E696E09F938F931F930E94271402
:101A00008F8D8F938E8D8F938EE496E09F938F931F
:101A10001F930E94271488A11F928F9388E396E05A
:101A20009F938F931F930E94271489A11F928F93D6
:101A300082E296E09F938F931F930E9427148DB7A5
:101A40009EB781960FB6F8949EBF0FBE8DBF8AA138
:101A50001F928F938CE096E09F938F931F930E9429
:101A600027148BA11F928F9386EF95E09F938F93FE
:101A70001F930E9427148DB79EB70A960FB6F8944D
:101A80009EBF0FBE8DBFDF91CF911F910895F89437
:101A900090E0FC013197E830F105F8F4EC5CFF4F81
:101AA0000C94EA178FE890E002C081E990E00E9470
:101AB0007A1913C083E990E0FACF85E990E0F7CF77
:101AC00087E990E008C088E990E005C089E990E0E6
:101AD00002C08AE990E00E9464190E945B0C78942D
:101AE00008950F931F93CF930CE615E0F8018589B5
:101AF0001F928F9382EE95E09F938F93C1E0CF93D7
:101B00000E9427148AB11F928F938EEC95E09F93C9
:101B10008F93CF930E942714F80184891F928F938B
:101B20008AEB95E09F938F93CF930E9427148BB1FC
:101B30001F928F9386EA95E09F938F93CF930E9495
:101B40002714F80186891F928F9382E995E09F936D
:101B50008F93CF930E9427148DB79EB749960FB6E7
:101B6000F8949EBF0FBE8DBFCF911F910F91089526
:101B70001F93CF93DF93182F43989BB1C1E0D0E020
:101B80009E010090820502C0220F331F0A94E2F7E3
:101B9000822F809598239BB98AB1282B2AB98091EE
:101BA0008C0590E00E94CD0C112359F08AB1009071
:101BB000820502C0CC0FDD1F0A94E2F7C095C8234E
:101BC000CAB980918D0590E00E94CD0C439A2AB14C
:101BD00081E090E00090820502C0880F991F0A946E
:101BE000E2F7809582238AB9DF91CF911F91089502
:101BF00090E041E050E0815068F079B19A010090A6
:101C0000820502C0220F331F0A94E2F7272329B965
:101C1000920FF1CF81E0691708F080E00895CF932B
:101C2000DF9340982AB1C1E0D0E0CE010090820558
:101C300002C0880F991F0A94E2F7922F982B9AB945
:101C40009BB1809589238BB98091860590918705FA
:101C50000E94CD0C8AB10090820502C0CC0FDD1F1E
:101C60000A94E2F7C095C823CAB980918A05909179
:101C70008B050E94CD0C409A65E08AE00E94F80D29
:101C8000C82F409880918805909189050E94CD0CBD
:101C9000409A81E0C11180E0DF91CF9108950F93C8
:101CA0001F93CF93DF9341982BB10CE615E0C1E071
:101CB000D0E0CE01F801068802C0880F991F0A946F
:101CC000E2F7982F909592239BB99AB1892B8AB904
:101CD00081E090E00E94CD0C8AB1F801068802C034
:101CE000CC0FDD1F0A94E2F7C095C823CAB982A1C0
:101CF00090E00E94CD0C419A61E082E00E94F80DD4
:101D0000C82F4198F80183A190E00E94CD0C419A20
:101D10008C2FDF91CF911F910F910895CF93DF9377
:101D2000F8944298D9E0C0E0D15049F00E944F0E9B
:101D300020E8829FC0011124C695C82BF5CF429A96
:101D400078948C2FDF91CF910895CF93DF93D82F84
:101D5000F8944498C9E0C15031F08D2F81700E94F1
:101D6000B80DD695F8CF449A7894DF91CF91089525
:101D7000CF92DF92EF92FF920F931F93CF938CE954
:101D800091E00E945D138CE6C82E85E0D82EC0E05D
:101D9000F601E1906F01F12C00E010E020E240E05C
:101DA00063E08AE00E948713C83021F08EE991E059
:101DB0000E945D13CF5FC93059F780EA91E0CF915F
:101DC0001F910F91FF90EF90DF90CF900C945D13D7
:101DD000AF92BF92CF92DF92EF92FF921F93CF9379
:101DE000DF9382EA91E00E945D13C0E0D0E08FE8CB
:101DF000E82E85E0F82E11E09BE8C92E95E0D92E5B
:101E00002DE8A22E25E0B22EFE01E459FA4F81857D
:101E10001F928F93FF92EF921F930E9427140F90AF
:101E20000F900F900F900F90C730D10519F4BF920B
:101E3000AF9202C0DF92CF921F930E9427140F909F
:101E40000F900F902196C830D105F1F6DF91CF9118
:101E50001F91FF90EF90DF90CF90BF90AF900895CB
:101E6000FF920F931F93CF93DF93F894C0E0D0E0DD
:101E70003AE0F32E082F10E0FE01E459FA4F80916A
:101E800082059801F89E200D311D1124C90123E01F
:101E9000880F991F2A95E1F78C0F9D1F6185855644
:101EA0009F4F0E9464192196C830D10529F7789474
:101EB000DF91CF911F910F91FF900895E5E7F5E035
:101EC0009C01275F3F4FDC014D91CD014193A2174B
:101ED000B307C9F708951F93CF93DF9380917505DA
:101EE000811106C08CECDF91CF911F910C94A50E4F
:101EF00085E50E94A50EC5E7D5E01C2F185F8991E6
:101F00000E94A50E1C13FBCFDF91CF911F91089566
:101F10008CEC0E94A50E84E40C94A50E98E028E1B8
:101F2000362F382730FD02C0669503C062276695BC
:101F3000606886959150A1F7862F08958F929F92A1
:101F4000AF92BF92CF92DF92EF92FF920F931F93C7
:101F5000CF93DF931F92CDB7DEB74C017B01FB011E
:101F60001082C82E8C01D12C802F8C19841780F4FC
:101F70005801F7016081F80181918F0149830E9426
:101F80008E0FF7018083F5018081D80E4981ECCF57
:101F9000F401E40FF11D9081F7018081981303C0D3
:101FA00081E0D11001C080E00F90DF91CF911F91AF
:101FB0000F91FF90EF90DF90CF90BF90AF909F90E8
:101FC0008F900895CF92DF92EF92FF920F931F931D
:101FD000CF93DF931F92CDB7DEB7062F10E09AE0C4
:101FE000899F000D111D112483E0000F111F8A9598
:101FF000E1F7E12CF12CC12CD12C045F1F4FC8015B
:102000008E0D9F1D81579F4F0E944C19F701E45977
:10201000FA4F8187C80ED11C8FEFE81AF80A98E0B2
:10202000E916F10461F7CD2849F047E0BE016F5F82
:102030007F4F85E795E00E949E0F01C080E00F90E2
:10204000DF91CF911F910F91FF90EF90DF90CF9094
:102050000895FF920F931F93CF93DF931F92CDB7F5
:10206000DEB719820E940F0E8CEC0E94A50E0E9412
:102070000F0E83E30E94A50E05E715E088E0F82E19
:10208000F00E0E948E0EF80181938F01FE12F9CF9F
:1020900047E0BE016F5F7F4F85E795E00E949E0F8E
:1020A0000F90DF91CF911F910F91FF900895CF92E4
:1020B000DF92EF92FF921F93CF93DF931F92CDB7E2
:1020C000DEB7182F0E946B0F8EEB0E94A50E8CE6D8
:1020D000C82E85E0D82E76018E2D8C19811730F40C
:1020E0000E948E0EF70181937F01F6CF19824FEF88
:1020F000410FBE016F5F7F4F8CE695E00E949E0FFF
:102100000F90DF91CF911F91FF90EF90DF90CF90D4
:102110000895FF920F931F93CF93DF931F92CDB734
:10212000DEB7182F0E940F0E8CEC0E94A50E89EFCF
:1021300090E00197F1F700C0000088EB0E94A50E27
:10214000812F0E94A50E0E940F0E8CEC0E94A50EFE
:10215000E9EFF0E03197F1F700C000008EEB0E944C
:10216000A50E812F0E94A50E0CE615E089E0F82E41
:10217000F00E0E948E0EF80181938F01FE12F9CFAE
:10218000198248E0BE016F5F7F4F8CE695E00E94A8
:102190009E0F0F90DF91CF911F910F91FF900895A7
:1021A0000E940F0E8CEC0E94A50E84E40E94A50EE6
:1021B00089E698E10197F1F700C000000E940F0E38
:1021C0008CEC0E94A50E84EB0E94A50E89E698E196
:1021D0000197F1F700C0000080E00E9489100E9482
:1021E000B80E0C940F0EFF920F931F93CF93DF93B3
:1021F0001F92CDB7DEB70E940F0E0E946B0F89EFC2
:1022000090E00197F1F700C0000088EB0E94A50E56
:1022100080E00E94A50E0E940F0E0E946B0FE9EF56
:10222000F0E03197F1F700C000008EEB0E94A50EA0
:1022300080E00E94A50E0CE615E089E0F82EF00E75
:102240000E948E0EF80181938F01FE12F9CF198240
:1022500048E0BE016F5F7F4F8CE695E00E949E0FC5
:102260000F90DF91CF911F910F91FF900895DF9212
:10227000EF92FF920F931F93CF93DF93EC0187EEC2
:1022800093E0998388838FE097E29B838A830E94FF
:102290000F0E80917505803109F07BC089E00E94A6
:1022A0005710D82E20916D0530E0322F22278091D3
:1022B0006C05282B3983288380916D0535952795EA
:1022C00039832883409172058F3F19F54C3050F0C7
:1022D00021E732E0429FC001439F900D11248C54AE
:1022E0009D4154C02F5F3F4F398328836091720511
:1022F00041E752E0649FC001659F900D11248C530B
:10230000964F9B838A83232B09F083C089E895E04D
:1023100020C04D3090F121503109398328838091BC
:102320006C052091720581111EC041E752E0249F87
:10233000C001259F900D11248C549D419B838A835D
:1023400019821882809172058D3008F462C087E886
:1023500095E09F938F9381E08F930E9427140F90B5
:102360000F900F9056C04FE85DEF249FC001259F4E
:10237000900D1124845A9B4B09C02FE83DEF429FDA
:10238000C001439F900D1124845B924E9B838A83EE
:1023900040C0883201F589E00E945710D82E809104
:1023A0006D0590E0982F882720916C05822B34E0F2
:1023B000959587953A95E1F79983888380916C0587
:1023C0008F7041E752E0849F9001859F300D11246A
:1023D0003B832A831EC0863279F40E94F31088233F
:1023E000B1F080916E0590E09983888380916D05AE
:1023F00090E09B838A830BC087E795E09F938F9340
:1024000081E08F930E9427140F900F900F90DD248E
:10241000D39489818F9388818F9383E795E09F93ED
:102420008F9381E08F930E942714EA80FB800F2C0A
:10243000000C000B110B20E340E064E08AE00E94F6
:1024400087130F900F900F900F900F908D2DDF91AD
:10245000CF911F910F91FF90EF90DF900895CF9350
:10246000DF93D82FC62F0E940F0E8CEC0E94A50E72
:102470008EE40E94A50E8D2F0E94A50E8C2F0E9427
:10248000A50E81E08C0F0E94A50E83E08C0F0E94A8
:10249000A50E84E08C0F0E94A50E0E940F0E8CECFE
:1024A0000E94A50E88E40E94A50E8D2FDF91CF918A
:1024B0000C94A50EE5E7F5E088E08E0F11928E13DF
:1024C000FDCF0895AF92BF92CF92DF92EF92FF922D
:1024D0001F93CF93DF93C0E0D0E081E6E82E85E044
:1024E000F82E11E09DE5C92E95E0D92E2FE5A22EFC
:1024F00025E0B22EFE01E459FA4F81851F928F9399
:10250000FF92EF921F930E9427140F900F900F904D
:102510000F900F90C730D10519F4BF92AF9202C04F
:10252000DF92CF921F930E9427140F900F900F906D
:102530002196C830D105F1F6DF91CF911F91FF9020
:10254000EF90DF90CF90BF90AF900C947C13ACE6EF
:10255000B5E09796EC9197978E27E82FF0E0EC5531
:10256000FE4F808197968C930895FF920F931F934F
:10257000CF93DF931092930580919205811171C0E2
:102580000E940F0EC82F811112C084E695E09F9320
:102590008F9381E08F930E942714109290051092E0
:1025A0009205109291050F900F900F9067C080EFE9
:1025B0000E94A50ED1E010E0F12CC1E00E944F0E68
:1025C000082F0E944F0E013019F48130C1F43BC036
:1025D000212F30E008131DC080919005C81738F4F2
:1025E000F901E459FA4F81858D2349F402C0C817D7
:1025F00031F000E0C93060F4C093910509C0E12FCB
:10260000F0E0E459FA4F81858D2B818701E009C004
:10261000FC2EF901E459FA4F91858D2F809589237D
:102620008187802F0E94B80DCF5FDD0F49F4E12F25
:10263000F0E0E459FA4F81850E94A7121F5FD1E0B4
:10264000183008F4BBCFC13460F08091930581113C
:1026500008C0F0929005F1100CC08FEF80939205A6
:1026600008C0109290051092920510929105C0E05A
:1026700005C0809175058823A1F3CFEF8C2FDF91E2
:10268000CF911F910F91FF9008950C94B5129093E4
:10269000D7038093D6030895CF93C82F8A3031F49F
:1026A000E091D603F091D7038DE00995E091D60330
:1026B000F091D7038C2FCF910994CF93DF9300979C
:1026C00039F0EC018991882319F00E944C13FACF5C
:1026D000DF91CF910895CF93DF93009751F0FC01E4
:1026E0008491EF012196882321F00E944C13FE0172
:1026F000F7CFDF91CF9108958AE00C944C138F703F
:10270000E82FF0E0E554F94F84910C944C133F927C
:102710004F925F926F927F928F929F92AF92BF92F1
:10272000CF92DF92EF92FF920F931F93CF93DF939D
:10273000CDB7DEB7A0970FB6F894DEBF0FBECDBF02
:10274000482EC62E822E442351F017FF08C066275C
:102750007727CB016E197F09800B910B02C0C8014E
:10276000B70199249394411101C0912CDD24DA948E
:10277000DC0CD91818A2512C612C712CA3019201E8
:102780000E94C817FB01EF70FF27E554F94F6491D1
:102790006F8FB901CA015E012EE1A20EB11C3D2C62
:1027A0003A942FEF3216D1F061157105810591052C
:1027B00079F0A30192010E94C817FB01EF70FF2777
:1027C000E554F94F6491F5016083B901CA0102C073
:1027D000F5018082F1E0AF1AB108E2CFCE014F9649
:1027E0008D199109992069F0FC01319717FF02C0FA
:1027F0002DE205C0EF28E02AE12A39F02BE2208300
:10280000CF017C011C2D180F02C020E2F8CF1E154D
:1028100031F0F70181917F010E944C13F8CFA0960F
:102820000FB6F894DEBF0FBECDBFDF91CF911F91E1
:102830000F91FF90EF90DF90CF90BF90AF909F905F
:102840008F907F906F905F904F903F9008955F9230
:102850006F927F928F929F92AF92BF92CF92DF92B0
:10286000EF92FF920F931F93CF93DF931F92CDB7F9
:10287000DEB7EC89FD893E0126E1620E711C3AE06B
:10288000A32EB12C3B89332381F08F010F5F1F4FA3
:102890008491853289F0882309F466C00E944C1324
:1028A000630178013601F701EDCF8081853259F05F
:1028B0008F010F5F1F4FEFCF7F0182E0E80EF11C09
:1028C000F801849105C07F0122E0E20EF11C8181B4
:1028D0008436A1F0883761F0833631F4F3018081CA
:1028E00093012E5F3F4F39010E944C136301DACFF1
:1028F00020E1822E912C00E010E105C09AE0892EA3
:10290000912C00E117E2630132E0C30ED11CF30108
:10291000608071808436A1F477FE0FC07194619459
:1029200071088DE20E944C1308C0C801B5010E94D5
:10293000B4178B016230710518F060167106A8F3A8
:10294000C301B8010E94B417582E862F99830E94A4
:102950007F13652C9981792EC801B4010E94B417A8
:102960008B01672B69F79ECF80E090E00F90DF919D
:10297000CF911F910F91FF90EF90DF90CF90BF907C
:10298000AF909F908F907F906F905F90089589EBAC
:1029900096E00C946B1387EB96E00C946B1385EB2D
:1029A00096E00C946B1395B5987F892B85BD08959F
:1029B00082E00E94D31416BCEEE6F0E080818160D4
:1029C00080831092940510929505109296051092AE
:1029D000970508958A3040F4E82FF0E0EE0FFF1FCE
:1029E000E852FC4F71836083089510929405109211
:1029F000950510929605109297050895609194059B
:102A000070919505809196059091970508951F9274
:102A10000F920FB60F9211242F933F934F935F9312
:102A20006F937F938F939F93AF93BF93EF93FF9396
:102A30008091940590919505A0919605B091970588
:102A40000196A11DB11D8093940590939505A093C7
:102A50009605B09397058091980590919905A0915E
:102A60009A05B0919B050196A11DB11D8093980513
:102A700090939905A0939A05B0939B058091D803F4
:102A80009091D903892B29F0E091D803F091D903D3
:102A90000995FF91EF91BF91AF919F918F917F9198
:102AA0006F915F914F913F912F910F900FBE0F90BB
:102AB0001F9018951F920F920FB60F9211242F930B
:102AC0003F934F935F936F937F938F939F93AF93B6
:102AD000BF93EF93FF9380919C0590919D05A091EA
:102AE0009E05B0919F050196A11DB11D80939C0587
:102AF00090939D05A0939E05B0939F058091E6035A
:102B00009091E703892B29F0E091E603F091E70328
:102B10000995FF91EF91BF91AF919F918F917F9117
:102B20006F915F914F913F912F910F900FBE0F903A
:102B30001F9018951F920F920FB60F9211242F938A
:102B40003F934F935F936F937F938F939F93AF9335
:102B5000BF93EF93FF938091DA039091DB03892B6E
:102B600029F0E091DA03F091DB030995FF91EF91F1
:102B7000BF91AF919F918F917F916F915F914F9195
:102B80003F912F910F900FBE0F901F9018951F929D
:102B90000F920FB60F9211242F933F934F935F9391
:102BA0006F937F938F939F93AF93BF93EF93FF9315
:102BB0008091DC039091DD03892B29F0E091DC0307
:102BC000F091DD030995FF91EF91BF91AF919F9136
:102BD0008F917F916F915F914F913F912F910F90C6
:102BE0000FBE0F901F9018951F920F920FB60F9265
:102BF00011242F933F934F935F936F937F938F9302
:102C00009F93AF93BF93EF93FF938091E0039091D5
:102C1000E103892B29F0E091E003F091E1030995AC
:102C2000FF91EF91BF91AF919F918F917F916F91A4
:102C30005F914F913F912F910F900FBE0F901F907A
:102C400018951F920F920FB60F9211242F933F9356
:102C50004F935F936F937F938F939F93AF93BF93A4
:102C6000EF93FF938091E2039091E303892B29F086
:102C7000E091E203F091E3030995FF91EF91BF9199
:102C8000AF919F918F917F916F915F914F913F9104
:102C90002F910F900FBE0F901F9018951F920F92BB
:102CA0000FB60F9211242F933F934F935F936F931F
:102CB0007F938F939F93AF93BF93EF93FF938091F5
:102CC000E4039091E503892B29F0E091E403F0916E
:102CD000E5030995FF91EF91BF91AF919F918F917E
:102CE0007F916F915F914F913F912F910F900FBE08
:102CF0000F901F9018951F920F920FB60F921124EC
:102D00002F933F934F935F936F937F938F939F93F3
:102D1000AF93BF93EF93FF938091E8039091E90302
:102D2000892B29F0E091E803F091E9030995FF91DF
:102D3000EF91BF91AF919F918F917F916F915F9133
:102D40004F913F912F910F900FBE0F901F901895AC
:102D500040E450E06EE274E081EA95E00E948E0368
:102D600040E450E06EEE73E08AEA95E00C948E0346
:102D700022E02093C00028E92093C1009B01AC0110
:102D800083E0220F331F441F551F8A95D1F760E05F
:102D900074E284EF90E00E94C81721502093C40091
:102DA000789408950E94A8161092ED031092EC03F7
:102DB00088ED8093C10060E072EC81E090E00E94B9
:102DC000B8168FEF8093A0051092A9051092B30555
:102DD0001092B205789408959091C00095FFFCCFB1
:102DE0008093C6001092A0050895CF93DF932091A1
:102DF000A3053091A405232B71F02091A5053091F6
:102E0000A605232B41F0EC0181EA95E00E949B038B
:102E100088838FEF01C080E0DF91CF9108951F92EA
:102E20000F920FB60F9211242F933F934F935F93FE
:102E30006F937F938F939F93AF93BF93EF93FF9382
:102E40008091A905882379F08091AE059091AF0516
:102E5000892B39F08AEA95E00E949B038093C60093
:102E600005C01092A9058FEF8093A005FF91EF9107
:102E7000BF91AF919F918F917F916F915F914F9192
:102E80003F912F910F900FBE0F901F9018951F929A
:102E90000F920FB60F9211242F933F934F935F938E
:102EA0006F937F938F939F93AF93BF93EF93FF9312
:102EB0008091C6002091EC033091ED03232B31F07B
:102EC000E091EC03F091ED03099510C0682F81EAC1
:102ED00095E00E94BF03811109C08091B2059091D5
:102EE000B30501969093B3058093B205FF91EF91DE
:102EF000BF91AF919F918F917F916F915F914F9112
:102F00003F912F910F900FBE0F901F9018958AED53
:102F100096E00C946B1385ED96E00C946B131F9266
:102F20006F931F928F938CEC96E09F938F9381E029
:102F30008F930E9427148DB79EB707960FB6F8940B
:102F40009EBF0FBE8DBF0895DB018F939F930E949C
:102F5000F017BF91AF91A29F800D911DA39F900D7F
:102F6000B29F900D11240895AA1BBB1B51E107C00D
:102F7000AA1FBB1FA617B70710F0A61BB70B881F09
:102F8000991F5A95A9F780959095BC01CD01089598
:102F9000A1E21A2EAA1BBB1BFD010DC0AA1FBB1F5D
:102FA000EE1FFF1FA217B307E407F50720F0A21BCF
:102FB000B30BE40BF50B661F771F881F991F1A943C
:102FC00069F760957095809590959B01AC01BD0166
:102FD000CF010895EE0FFF1F0590F491E02D0994A5
:102FE0000E94FB17A59F900DB49F900DA49F800D8C
:102FF000911D11240895A29FB001B39FC001A39F0A
:10300000700D811D1124911DB29F700D811D112421
:10301000911D0895A0E0B0E0E0E1F8E10C947F1983
:103020005C016B017A016115710519F0FB01918357
:103030008083E114F10429F0C7010297839708F017
:10304000F1C0E5012196F5011081812F90E00E94E9
:103050001B19892B11F05E01F4CF1D3229F4219642
:10306000F501118101E007C01B3221F4E501229630
:10307000F501118100E0E114F10459F1F0E1EF16DE
:10308000F10461F41033E1F488818F7D883569F5AE
:1030900019812296026070E1E72EF12C88E0E81693
:1030A000F10439F12CF4F2E0EF16F104C9F12AC071
:1030B0008AE0E816F10479F0E0E1EE16F10411F58A
:1030C00050E1E52EF12C812C912CA12C68E0B62E3C
:1030D0002CC01033C9F23AE0E32EF12C4CEC842ED4
:1030E000982CA82C4CE0B42E20C010E3E114F1047D
:1030F000A9F698E0E92EF12C812C912CA12C20E14D
:10310000B22E13C060E070E080E090E897010F2CD1
:10311000000C440B550B0E94C81749015A0105C009
:10312000812C912CA12C80E4B82E60E020E030E0CE
:10313000A90127010F2C000C660877081E01E0ED9D
:10314000E10FEA3060F08FEB810F8A3110F4E9EC87
:1031500005C08FE9810F8A3128F5E9EAE10F8E2F4A
:1031600090E08E159F05F4F467FD18C08216930653
:10317000A406B50690F0C301B2010E94A4179B01FA
:10318000AC012E0F311D411D511D2130310541056E
:10319000F0E85F0710F461E001C06FEF2196F101E4
:1031A0001081CCCF802F8170C114D10471F06623BF
:1031B00029F02197F601D183C08307C001FF19C010
:1031C0002297F601D183C08314C067FF12C081111A
:1031D00005C02FEF3FEF4FEF5FE704C020E030E086
:1031E00040E050E882E290E09093B5058093B4050A
:1031F00016C0882341F050954095309521953F4F5A
:103200004F4F5F4F0CC057FF0AC082E290E090938F
:10321000B5058093B4052FEF3FEF4FEF5FE7B9019E
:10322000CA0104C060E070E080E090E0CDB7DEB796
:10323000E2E10C949B1991110C943919803219F028
:1032400089508550C8F70895FB01DC0101900D926B
:103250000020E1F70895FB01DC014150504030F0BF
:103260008D910190801919F40020B9F7881B990BF2
:103270000895992788270895DC01CB01FC01F9996D
:10328000FECF06C0F2BDE1BDF89A319600B40D92B2
:1032900041505040B8F70895F999FECF92BD81BDD5
:1032A000F89A992780B50895A8E1B0E042E050E08F
:1032B0000C943E19DC01CB0103C02D910E946519CD
:1032C00041505040D0F70895262FF999FECF1FBAEC
:1032D00092BD81BD20BD0FB6F894FA9AF99A0FBE3F
:1032E00001960895242F0E946519252F0E946519C3
:1032F0000C947A190E946419272F0C9465192F9247
:103300003F924F925F926F927F928F929F92AF9275
:10331000BF92CF92DF92EF92FF920F931F93CF93C2
:10332000DF93CDB7DEB7CA1BDB0B0FB6F894DEBF59
:103330000FBECDBF09942A88398848885F846E847F
:103340007D848C849B84AA84B984C884DF80EE80C9
:10335000FD800C811B81AA81B981CE0FD11D0FB6D2
:10336000F894DEBF0FBECDBFED010895F894FFCFF6
:1033700068656C700069646E0067657466770073D9
:103380006574736E00676574736E007465737400A2
:103390006A736F6E00706F6B65007065656B0064BB
:1033A000756D700073747265616D00696E7465721D
:1033B00076616C0064656C61790077626974007293
:1033C00062697400776279746500726F6D0072656E
:1033D000736574006C6F616400737000736176656F
:1033E0000073746172740074656D7000646174615F
:1033F0000070696E007270007770007365617263AF
:10340000680073657474696D696E67005B002C00F9
:103410005D002200005EBCE2613FDD83C29C7E2035
:10342000A3FD1F419DC3217FFCA2401E5F01E3BDA0
:103430003E6082DC237D9FC1421CFEA0E1BF5D0394
:1034400080DE3C62BEE0025CDF81633D7C22C09E88
:103450001D43A1FF4618FAA427799BC584DA386674
:10346000E5BB5907DB856739BAE406581947A5FB60
:103470007826C49A653BD987045AB8E6A7F91B4554
:10348000C6987A24F8A6441A99C7257B3A6486D848
:103490005B05E7B98CD2306EEDB3510F4E10F2AC34
:1034A0002F7193CD114FADF3702ECC92D38D6F3120
:1034B000B2EC0E50AFF1134DCE90722C6D33D18F14
:1034C0000C52B0EE326C8ED0530DEFB1F0AE4C1208
:1034D00091CF2D73CA947628ABF517490856B4EAF4
:1034E0006937D58B5709EBB536688AD495CB2977E0
:1034F000F4AA4816E9B7550B88D6346A2B7597C9D4
:103500004A14F6A8742AC896154BA9F7B6E80A54C7
:04351000D7896B35B7
:00000001FF
