:100000000C94A2030C94BF030C94BF030C94BF0385
:100010000C94BF030C94BF030C94BF030C94E6161E
:100020000C94BF030C94C5150C94B9160C945F1670
:100030000C948C160C94BF030C9405160C94321679
:100040000C9472150C94BF030C94B2170C94BF035C
:100050000C947A170C94BF030C94BF030C94BF0349
:100060000C94BF030C94BF03BD0DC00DC50DC80D8E
:10007000CB0DCE0DD10DD40D220022007D3C2F25BD
:10008000643E003C25643E7B22636D64223A22007C
:10009000222C202264617461223A2000636F6D6D0E
:1000A000616E64206E6F7420666F756E64004552D9
:1000B000524F523A2000636D643E004F6E6557699F
:1000C0007265577269746542797465203D202564B4
:1000D0000A004F6E655769726552656164426974C2
:1000E000203D2025640A00746865726D5F72657337
:1000F00065742829203D2025640A005D0025642CB4
:100100002025642C20005D005B25642C25642C00D8
:100110005B00435243204572726F72005B223022B3
:100120002C302C305D5D00203A2000203A20002544
:1001300064203A20005B003100256400256400251E
:1001400064000D0A000D0A00203078257800307810
:10015000257825782030782578005B25642C22309E
:10016000782578225D00220022007D002C226C6F11
:10017000636174696F6E223A007B22534E223A000B
:10018000224552524F52202D20496E76616C69648F
:100190002073796E746178206C6162656C205B619C
:1001A0007C627C647C697C6C7C735D206465764ECB
:1001B000756D206C6162656C5F74657874220022D5
:1001C0004F4B2200224F4B2200226F77697265202D
:1001D00031352E31322E313222006F7774656D70D9
:1001E000222C2264617461223A0077702020202042
:1001F0002020202020202020203A2077726974655A
:10020000206461746120746F20737065636966692E
:10021000656420706167650A0072702020202020CC
:1002200020202020202020203A2072656164207345
:100230007065636966696320706167652066726FC7
:100240006D2033383234206465766963650A006452
:1002500061746120202020202020202020203A20AE
:100260007265616420646174612066726F6D203311
:10027000383234206465766963650A0074656D7090
:1002800020202020202020202020203A207265617C
:10029000642074656D7065726174757265730A00AF
:1002A0007374617274202020202020202020203AA6
:1002B0002073746172742074656D706572617475F9
:1002C0007265206D6561737572656D656E740A0087
:1002D0007361766520202020202020202020203AD5
:1002E0002073617665207363726174636870616402
:1002F00020746F20656570726F6D0A007370202026
:1003000020202020202020202020203A2073686FE9
:10031000772073637261746368207061640A006C93
:100320006F616420202020202020202020203A20DF
:100330006C6F616420656570726F6D20636F6E74A1
:10034000656E740A00726F6D20202020202020200E
:10035000202020203A207265616420726F6D206F2A
:100360006620612073696E676C65206465766963D9
:10037000650A000A0A4F6E657769726520436F6DE2
:100380006D616E64733A0A0073747265616D20204A
:100390002020202020202020203A207374617274B5
:1003A0002073747265616D696E670A007465737499
:1003B000202020202020202020202020203A2074CF
:1003C0006573742066756E6374696F6E0A00706F72
:1003D0006B65205B7265675D205B76616C5D203AC2
:1003E0002073657473207265676973746572207613
:1003F000616C756520746F205B76616C5D200A000E
:100400007065656B205B7265675D20202020202071
:10041000203A2072657475726E73206465632C20B7
:1004200068657820616E642062696E2076616C7503
:1004300065206F662072656769737465720A00745F
:1004400065737420202020202020202020202020C0
:100450003A20746573742066756E6374696F6E0AF2
:100460000069646E202020202020202020202020D1
:1004700020203A207072696E747320646576696317
:100480006520494420616E642076657273696F6EE1
:1004900020696E666F0A000A436F6D6D616E64734A
:1004A0003A0A005A2020202020202020202020202E
:1004B000202020203A20726573657420636F6D6D73
:1004C000616E64206E756D62657220746F207A654E
:1004D000726F0A005320202020202020202020207E
:1004E00020202020203A20706572666F726D206295
:1004F000696E617279207365617263680A005220C7
:100500002020202020202020202020202020203AD1
:100510002073656E642072657365742070756C73EA
:10052000650A004320202020202020202020202099
:10053000202020203A20636C65617220736372650D
:10054000656E0A00496E7374616E7420636F6D6D21
:10055000616E64733A0A002E0022002564007468FC
:1005600065726D5F726573657428290A0025642EB3
:1005700000224445565F4E4F545F464F554E44222D
:10058000002D002D002E00220025640044532E74FF
:100590006865726D5F70696E20203D2025640A00D9
:1005A000504F5254442020202020202020203D2045
:1005B00025640A0044532E746865726D5F706F7213
:1005C00074203D2025640A00444452442020202009
:1005D0002020202020203D2025640A0044532E7432
:1005E0006865726D5F64647220203D2025640A0096
:1005F000303820745F726561645F736C6F742020A3
:100600003A2025640A00303720745F726561645FA8
:1006100073616D7020203A2025640A003036207402
:100620005F77726974655F736C6F74203A2025641C
:100630000A00303520745F77726974655F6C6F777C
:1006400020203A2025640A00303420745F726573DC
:1006500065745F64656C61793A2025640A00303303
:1006600020745F72657365745F72782020203A2071
:1006700025640A00303220745F72657365745F749C
:10068000782020203A2025640A00303120745F63EE
:100690006F6E76202020202020203A2025640A003A
:1006A0000A31576972652054696D696E670A0044A2
:1006B000532E746865726D5F70696E20203D202531
:1006C000640A0044532E746865726D5F706F7274B3
:1006D000203D2025640A0044532E746865726D5FC6
:1006E00064647220203D2025640A00536574746997
:1006F0006E672070696E20746F20504F52544220F4
:1007000025640053657474696E672070696E207487
:100710006F20504F5254442025640A005B005D0056
:100720002C00303132333435363738394142434486
:100730004546001B5B25643B256448001B5B324A31
:10074000001B630011241FBECFEFD8E0DEBFCDBF7A
:1007500012E0A0E0B1E0E6E4F4E302C005900D92FF
:10076000A43AB107D9F725E0A4EAB2E001C01D928E
:10077000A63BB207E1F70E94540B0C94211A0C948B
:100780000000FC018FB7F894718360835383428328
:1007900017821682158214828FBF0895FC019FB7BD
:1007A000F8944481558141155105C9F0268137815E
:1007B000A081B181A20FB31F8C912F5F3F4F378370
:1007C0002683628173812617370720F0261B370B9B
:1007D00037832683415051095583448301C080E00B
:1007E0009FBF0895FC01362F2FB7F894A481B581DF
:1007F00062817381A617B70798F4868197818A0F63
:100800009B1F0E941F18A081B181A80FB91F3C93A4
:10081000848195810196958384832FBF8FEF0895FE
:100820002FBF80E008951092750410927104109209
:100830007604109273041092720410927404109251
:10084000D2031092D3031092D4031092D5030895CB
:10085000EF92FF921F93CF93DF937B01109174046B
:10086000C12FD0E09E0143E0220F331F4A95E1F7EC
:10087000BC01C9018E519D4F0E948F19CC0FDD1F05
:10088000CA55DD4FF982E8821F5F10937404DF912F
:10089000CF911F91FF90EF9008959093A5028093C0
:1008A000A4020895CF93DF9380916F048823E9F029
:1008B0008091D5038F938091D4038F938091D3033C
:1008C0008F938091D2038F9383E890E09F938F93CF
:1008D00081E08F930E9492148DB79EB707960FB652
:1008E000F8949EBF0FBE8DBF10C0C6EBD0E0CE0106
:1008F000FE012491222349F02196FC018491E0918C
:10090000A402F091A5020995F2CFDF91CF9108954D
:100910001F93CF93DF93E091A402F091A5028DE0A5
:1009200009950E94520410917104C7E7D4E01C0F8E
:100930001C1739F0E091A402F091A5028991099564
:10094000F7CFDF91CF911F910895882319F081305F
:1009500059F00895809177048823D1F067E774E017
:1009600087EC94E00C948F1967EC74E087E794E0CF
:100970000E948F19E7E7F4E001900020E9F7319732
:10098000E757F440E0937104E09376040C948804F4
:100990000895E0917204F0917304309739F009954D
:1009A00010927304109272040C9452040895809172
:1009B000D2039091D303A091D403B091D5030196B3
:1009C000A11DB11D8093D2039093D303A093D403B0
:1009D000B093D50308951092D2031092D3031092CE
:1009E000D4031092D503089580916F048823F9F001
:1009F0008091D5038F938091D4038F938091D303FB
:100A00008F938091D2038F938CE790E09F938F9385
:100A100081E08F930E9492140E94E7138DB79EB7D6
:100A200007960FB6F8949EBF0FBE8DBF02C00E94FE
:100A3000E7130C94D704CF93DF9380916F0488233E
:100A4000E1F08091D5038F938091D4038F938091AF
:100A5000D3038F938091D2038F938AE790E09F9383
:100A60008F9381E08F930E9492148DB79EB7079663
:100A70000FB6F8949EBF0FBE8DBFCEEAD0E0CE0178
:100A8000FE012491222349F02196FC018491E091FA
:100A9000A402F091A5020995F2CFC7E7D4E08991AD
:100AA000982F9F7DE091A402F091A502992311F067
:100AB0000995F5CF8AE30995E091A402F091A5028A
:100AC00080E20995CCE9D0E0CE01FE0124912223F9
:100AD00049F02196FC018491E091A402F091A502D5
:100AE0000995F2CF80916F04882359F088E790E050
:100AF0009F938F9381E08F930E9492140F900F9099
:100B00000F90DF91CF910C94F404BF92CF92DF92BB
:100B1000EF92FF920F931F93CF93DF9380E00E9499
:100B2000A50480E0C82ED12CF601E958FB4F908136
:100B30009F7D11F08F5FF6CF90916F04811105C0FA
:100B400091113CC00E94E7132EC0913029F480E936
:100B500090E00E94D61302C00E94E713B090740484
:100B600092EEE92E92E0F92E00E010E00B15C8F4A9
:100B7000E801A60167E774E0C7010E9496190F5FBC
:100B80001F4F28E0E20EF11C892B81F7CC0FDD1FEF
:100B9000CA55DD4F888199819093730480937204C4
:100BA0000DC00E941B05DF91CF911F910F91FF9007
:100BB000EF90DF90CF90BF900C945204DF91CF91D3
:100BC0001F910F91FF90EF90DF90CF90BF9008950D
:100BD000CF93C82F809175048230B9F5C33441F0AA
:100BE000C43409F1C13471F581E00E94A5042AC022
:100BF0008091760490917104E091A402F091A50295
:100C00008917F0F48F5F809376048BE10995E0916A
:100C1000A402F091A5028BE50995E091A402F09160
:100C2000A50283E40EC080917604E091A402F091C5
:100C3000A502882329F081508093760488E001C0C2
:100C400087E0099510927504CFC0813021F4CB352F
:100C500011F482E0C7C01092750480EE8C0F8F35BE
:100C600008F047C04091760480917104481316C083
:100C7000E091A402F091A5028C2F0995E0917604F1
:100C800081E08E0F80937604F0E0E958FB4FC0833B
:100C9000809171048F5F80937104A6C08F5F8093F1
:100CA0007104481760F4A82FB0E0A958BB4F9D010C
:100CB00021503109F90190819C938150F2CF81E05C
:100CC000840F80937604E42FF0E0E958FB4FC08353
:100CD0000E948804C091760480917104C81708F0BE
:100CE00083C0E091A402F091A50288E00995CF5F4E
:100CF000F3CFCA3011F0CD30B1F4E091710481E04E
:100D00008E0F80937104F0E0E958FB4F10828091C0
:100D100076048F5F809376040E948505109271049B
:100D20001092760461C0CF3719F0C83009F057C06F
:100D300080917604882309F44BC090917104891343
:100D40001DC0E091A402F091A50288E00995E09110
:100D5000A402F091A50280E20995E091A402F0912D
:100D6000A50288E0099580917104815080937104F7
:100D70008091760481508093760436C09150909390
:100D80007104815080937604891740F4E82FF0E0D5
:100D9000E958FB4F218120838F5FF6CF0E948804A2
:100DA000E091A402F091A50280E20995C091760439
:100DB0008091710490E02C2F30E082179307A4F00B
:100DC000E091A402F091A50288E00995CF5FF0CFF1
:100DD000E091A402F091A50287E0CF910994CB3174
:100DE00019F481E080937504CF91089590E0E92F84
:100DF000F0E0E958FB4F2081203211F49F5FF7CFDC
:100E000020E02817A1F0E92FF0E0E958FB4F3081EE
:100E10003F7D11F09F5FF7CFE92FF0E0E958FB4FDE
:100E20003081303211F49F5FF7CF2F5FEACF892FE7
:100E300090E089589B4F0895CF93DF9300D0CDB7B2
:100E4000DEB70E94F6064AE050E0BE016F5F7F4FBA
:100E50000E9475180F900F90DF91CF910895CF9356
:100E6000DF9300D0CDB7DEB70E94F60640E150E038
:100E7000BE016F5F7F4F0E9475180F900F90DF913A
:100E8000CF91089584E495E00E94D61383E295E023
:100E90000E94D6138EEF94E00E94D61384ED94E066
:100EA0000E94D61383EA94E00E94D61387E994E067
:100EB0000E94D61381E694E00E94D6138FE394E05B
:100EC0000E94D61380E094E00E94D6138EEC93E04B
:100ED0000E94D6138CEA93E00E94D61388E893E030
:100EE0000E94D61383E793E00E94D61385E493E033
:100EF0000E94D6138FE193E00E94D6138CEF92E00C
:100F00000E94D61380ED92E00E94D61380EA92E010
:100F10000E94D6138CE792E00E94D6138FE492E0F1
:100F20000E94D61389E192E00E94D6138AEE91E0E6
:100F30000C94D61389EC91E00E94D6130C94F4041F
:100F40000E947A0E0E94F30F87E391E00E94D6136D
:100F50000C94F40481E00E941C0760936F040895D0
:100F60000F931F93CF93DF93CDB7DEB764970FB680
:100F7000F894DEBF0FBECDBF81E00E94F6068C0163
:100F800082E00E941C0783E00E94F606BC01F80183
:100F900080818C3679F4CE0101960E948F1944E14C
:100FA00050E064E670E0CE0101960E94C51984EC21
:100FB00091E013C0833779F4CE0101960E948F1916
:100FC00044E150E068E770E0CE0101960E94C51947
:100FD0008FEB91E002C080E891E00E94D6130E945E
:100FE000F40464960FB6F894DEBF0FBECDBFDF9158
:100FF000CF911F910F91089581E00E941C0782E01C
:101000000E941C070C94DC0DCF92DF92EF92FF92AE
:1010100081E00E942F076B017C0182E00E942F0774
:10102000F6016083FF90EF90DF90CF90089581E00C
:101030000E942F07FB0180811F928F931F928F9335
:101040008AE591E09F938F9381E08F930E949214A1
:101050008DB79EB707960FB6F8949EBF0FBE8DBF93
:101060000C94F4048F929F92AF92BF92CF92DF9232
:10107000EF92FF920F931F93CF93DF9381E00E9433
:101080002F07EB0182E00E942F077B0110E088E42C
:10109000C82E81E0D82E01E09EE4A92E91E0B92E61
:1010A00025E4822E21E0922EEC16FD0698F188812F
:1010B000111116C01F928F93CE0199279F938F9382
:1010C0001F92DF93BF92AF920F930E9492148DB73D
:1010D0009EB709960FB6F8949EBF0FBE8DBF0CC089
:1010E0001F928F93DF92CF920F930E9492140F90D2
:1010F0000F900F900F900F901F5F183049F49F9240
:101100008F920F930E9492140F900F900F9010E007
:101110002196CACF82E491E09F938F9381E08F93D1
:101120000E9492140F900F900F90DF91CF911F911A
:101130000F91FF90EF90DF90CF90BF90AF909F9076
:101140008F90089581E00E941C07609370041F92A5
:101150006F938FE391E09F938F9381E08F930E9431
:1011600092140F900F900F900F900F900C94F40426
:101170000E947A0E1F928F9387EE90E09F938F9339
:1011800081E08F930E9492140F900F900F900F9018
:101190000F90089581E00E941C0770936B05609387
:1011A0006A056115710581F41F921F928CE391E02D
:1011B0009F938F9381E08F930E9492140F900F90D2
:1011C0000F900F900F900895AB01BC016627772711
:1011D0008CE890E00E94DD1980916B058F938091DF
:1011E0006A058F9389E391E09F938F9381E08F93BA
:1011F0000E9492140F900F900F900F900F900C94EC
:10120000F40481E00E941C07862F0C948E0CBF9280
:10121000CF92DF92EF92FF920F931F93CF93DF93C2
:10122000C0E0D0E08DEFE82E80E0F82E01E098E0FD
:10123000C92E91E0D92EBC2E8C2F0E948E0C80914D
:101240006F04882321F080E191E00E94D61310E022
:10125000612F8B2D0E944D108823D9F180916F044E
:101260008823C1F01F921F93DF93CF93DF92CF9219
:101270000F930E9492140E94530F86E091E00E9407
:10128000D6138DB79EB707960FB6F8949EBF0FBEC4
:101290008DBF15C01F921F93DF93CF93FF92EF92E4
:1012A0000F930E9492140E94530F0E94E7138DB770
:1012B0009EB707960FB6F8949EBF0FBE8DBF809164
:1012C0006F04882321F08BEF90E00E94D6131F5FFC
:1012D000BFCF2196C330D10509F0ADCFDF91CF91BB
:1012E0001F910F91FF90EF90DF90CF90BF900C94E3
:1012F000F404EF92FF920F931F93CF93DF9300D0EC
:1013000000D0CDB7DEB780916F04882329F085E344
:1013100091E00E94D61302C00E94E71300E011E0A2
:101320008FE2E82E81E0F82E612F80E00E944D10C0
:101330008130B1F50F5F90916F04992399F00E946D
:101340003A150E94530F0E943215CE0101960E9459
:10135000A2110E9432150E94230F0E9436150E948E
:1013600032151EC01F920F93FF92EF928F930E942F
:1013700092140E94530F8BE291E00E94D613CE018B
:1013800001960E94A21187E291E00E94D6130E946A
:10139000230F0E94E7130F900F900F900F900F9064
:1013A0001F5F153109F680916F04882339F08CE1B5
:1013B00091E00E94D6130E94F40402C00E94E71339
:1013C0000E94F4040F900F900F900F90DF91CF9137
:1013D0001F910F91FF90EF9008950E94230F0C949E
:1013E000F4040E943B110C94F4040E94941088238E
:1013F00019F00E94530F0DC00E94530F82E191E03B
:101400009F938F9381E08F930E9492140F900F907F
:101410000F900C94F404CF92DF92EF92FF920F930F
:101420001F93CF93DF93CDB7DEB728970FB6F8940D
:10143000DEBF0FBECDBF81E00E941C07062FCE018C
:1014400001967C0112E06C01812F0E941C07F701BC
:1014500061937F011F5F1A30B9F78981882319F0E2
:10146000C6010E94C90F802F0E949B0F0E9407098E
:1014700028960FB6F894DEBF0FBECDBFDF91CF9197
:101480001F910F91FF90EF90DF90CF90089581E032
:101490000E941C07862F0E94F4100E94230F0C94B8
:1014A000F404CF9381E00E941C07C62F82E00E94C3
:1014B0001C078C2F0E949A128FE99FE00197F1F789
:1014C00000C000008C2F0E94F4100E94230FCF91C7
:1014D0000C94F404CF93DF930E94C512C0E08C2FCC
:1014E0000E948E0CD0E00E94B013882339F08D2F1B
:1014F0000E949B0F0E94CD12DF5FF5CFCF5FC330FC
:1015000071F7DF91CF910C94F4040C943D0DCF93BF
:1015100081E00E941C07C62F82E00E941C078C2FCE
:10152000CF910C94B20DCF92DF92EF92FF92CF93B6
:1015300081E00E941C07C62F82E00E941C076B01FD
:101540007C018C2F0E948E0C4098C6010E94380DA1
:10155000409ACF91FF90EF90DF90CF900895CF9376
:10156000DF931F92CDB7DEB781E00E941C0769832D
:101570000E94B80889810F90DF91CF910C94230EBF
:1015800081E00E941C071F926F9382ED90E09F9371
:101590008F9381E08F930E9492140E94B8080F905D
:1015A0000F900F900F900F900C94BA0ECF93DF9383
:1015B0001F92CDB7DEB781E00E941C071F926F9388
:1015C0008BEB90E09F938F9381E08F9369830E94D0
:1015D00092140E94B8086981862F0F900F900F9087
:1015E0000F900F900F90DF91CF910C94100F0F93ED
:1015F0001F930E94691520916A0530916B0589013E
:1016000020E030E060177107820793077CF080913B
:101610007004882359F00E94601581E080936E0465
:101620000E947A0E1F910F910C94F30F1F910F914E
:101630000895CF93DF931F92CDB7DEB780916E04EC
:10164000882381F010926E048AED91E00E94D613F7
:101650000E9479090E94520405C08981823549F4AB
:101660000E94B808CE0101960E9460178111F5CF43
:1016700018C0833548F4833489F40E94F61761E07A
:1016800081E00E94FA17E6CF833529F08A3531F4DC
:101690000E94EB04DFCF0E946A0AE4CF0E94E805B3
:1016A000E1CF0E94C904CACF0E943D1760E072ECEE
:1016B00081E090E00E94231787E597E10E94B21332
:1016C0000E94130487E597E10E944D040E94F217DF
:1016D0000E94F617EEE6F4E010821182128288EE84
:1016E00093E090936B0580936A050E94431567EF22
:1016F0007AE080E00E94551585E00E943E1583E265
:1017000084B98CEF8BB98FEF87B988B92D9862E4D3
:1017100077E080E091E00E9428046EE67CE085E0BE
:1017200091E00E9428046AE977E089E091E00E9454
:10173000280460EB77E08FE091E00E94280464E7E2
:101740007CE085E191E00E9428046CEF77E08BE17A
:1017500091E00E9428046AEA77E080E291E00E942A
:10176000280464E078E085E291E00E94280467E1C3
:1017700078E08AE291E00E94280462E378E08FE258
:1017800091E00E94280462EA78E084E391E00E94FC
:1017900028046AEC78E08BE391E00E94280463E976
:1017A0007AE084E491E00E9428046FEA7AE08AE417
:1017B00091E00E94280460EC7AE08FE491E00E94BE
:1017C000280466ED7AE084E591E00E94280465EF44
:1017D00079E08AE591E00E94280468EB78E08EE5E4
:1017E00091E00E94280467E079E084E691E00E949D
:1017F00028046DEE79E089E691E00E9428046BE010
:101800007AE08CE691E00E94280460EA77E081E7C4
:1018100091E00E94280469E779E087E791E00E945F
:10182000280461EF79E08CE791E00E94280461E0F0
:1018300079E081E891E00E94280467E47AE085E895
:1018400091E00E94280461E57AE088E891E00E9436
:1018500028046AE67AE08BE891E00E94280465E8B3
:101860007AE085E991E00E94280467E87AE082E95D
:1018700091E00E9428040E94E90C0E949A070E94AD
:1018800052040E94190B0F931F93CF93DF93CDB790
:10189000DEB764970FB6F894DEBF0FBECDBF8C01E4
:1018A00088E691E00E94D61344E150E0B801CE01F1
:1018B00001960E94A719CE0101960E94C81386E6E0
:1018C00091E00E94D61364960FB6F894DEBF0FBE67
:1018D000CDBFDF91CF911F910F91089588E790E0E0
:1018E0000E94430C0C94F40489E791E00E94D61303
:1018F00088E790E00E94430C8CE691E00E94D613AA
:1019000084E690E00E94430C0E9436150E94361532
:101910008AE691E00E94D6130C94F404CF938630AB
:1019200088F49BB1909380059AB19093810599B109
:10193000909383058E5F809382051F928F9383E03F
:1019400097E010C095B19093800594B19093810574
:1019500093B1909383058650809382051F928F9355
:101960008BEE96E09F938F9381E08F930E94921469
:101970000F900F900F900F900F90809181051F9204
:101980008F9387ED96E09F938F93C1E0CF930E9452
:101990009214809180051F928F9383EC96E09F9321
:1019A0008F93CF930E949214809182051F928F9300
:1019B0008FEA96E09F938F93CF930E9492148DB7F6
:1019C0009EB70F960FB6F8949EBF0FBE8DBFCF91F6
:1019D0000895ECE6F5E089E08E0F11928E13FDCFAD
:1019E000E5E7F5E088E08E0F11928E13FDCF409A67
:1019F000419A429A449A459A80E00E948E0C8FE860
:101A000090E00E94BF19909385058093840581E939
:101A100090E00E94BF19909387058093860583E923
:101A200090E00E94BF19909389058093880585E90D
:101A300090E00E94BF1990938B0580938A0587E9F7
:101A400090E00E94B71980938C0588E990E00E948D
:101A5000B71980938D0589E990E00E94B7198093AA
:101A60008E058AE990E00E94B71980938F0508954A
:101A7000019710F00000FCCF08951F93CF93DF93E0
:101A800080EA96E09F938F9311E01F930E94921437
:101A9000CCE6D5E0898D8F93888D8F938AE896E088
:101AA0009F938F931F930E9492148B8D8F938A8D97
:101AB0008F9384E796E09F938F931F930E949214D5
:101AC0008D8D8F938C8D8F938EE596E09F938F9362
:101AD0001F930E9492148F8D8F938E8D8F9388E425
:101AE00096E09F938F931F930E94921488A11F9258
:101AF0008F9382E396E09F938F931F930E9492149B
:101B000089A11F928F938CE196E09F938F931F93EF
:101B10000E9492148DB79EB781960FB6F8949EBF1F
:101B20000FBE8DBF8AA11F928F9386E096E09F9390
:101B30008F931F930E9492148BA11F928F9380EF1B
:101B400095E09F938F931F930E9492148DB79EB739
:101B50000A960FB6F8949EBF0FBE8DBFDF91CF914E
:101B60001F910895F89490E0FC013197E830F10559
:101B7000F8F4EC5CFF4F0C9455188FE890E002C02D
:101B800081E990E00E94E51913C083E990E0FACF63
:101B900085E990E0F7CF87E990E008C088E990E018
:101BA00005C089E990E002C08AE990E00E94CF195F
:101BB0000E94E90C789408950F931F93CF930CE63D
:101BC00015E0F80185891F928F938CED95E09F9326
:101BD0008F93C1E0CF930E9492148AB11F928F938A
:101BE00088EC95E09F938F93CF930E949214F80115
:101BF00084891F928F9384EB95E09F938F93CF936B
:101C00000E9492148BB11F928F9380EA95E09F936C
:101C10008F93CF930E949214F80186891F928F931D
:101C20008CE895E09F938F93CF930E9492148DB789
:101C30009EB749960FB6F8949EBF0FBE8DBFCF9149
:101C40001F910F9108951F93CF93DF93182F4398FF
:101C50009BB1C1E0D0E09E010090820502C0220F3E
:101C6000331F0A94E2F7822F809598239BB98AB19B
:101C7000282B2AB980918C0590E00E94380D112301
:101C800059F08AB10090820502C0CC0FDD1F0A9482
:101C9000E2F7C095C823CAB980918D0590E00E94F3
:101CA000380D439A2AB181E090E00090820502C08D
:101CB000880F991F0A94E2F7809582238AB9DF91F1
:101CC000CF911F91089590E041E050E0815068F07D
:101CD00079B19A010090820502C0220F331F0A9445
:101CE000E2F7272329B9920FF1CF81E0691708F0B5
:101CF00080E00895CF93DF9340982AB1C1E0D0E00F
:101D0000CE010090820502C0880F991F0A94E2F765
:101D1000922F982B9AB99BB1809589238BB980918A
:101D20008605909187050E94380D8AB10090820542
:101D300002C0CC0FDD1F0A94E2F7C095C823CAB9D0
:101D400080918A0590918B050E94380D409A65E03C
:101D50008AE00E94630EC82F409880918805909178
:101D600089050E94380D409A81E0C11180E0DF9121
:101D7000CF9108950F931F93CF93DF9341982BB189
:101D80000CE615E0C1E0D0E0CE01F801068802C003
:101D9000880F991F0A94E2F7982F909592239BB988
:101DA0009AB1892B8AB981E090E00E94380D8AB1FE
:101DB000F801068802C0CC0FDD1F0A94E2F7C09537
:101DC000C823CAB982A190E00E94380D419A62E00E
:101DD00084E00E94630EC82F4198F80183A190E02F
:101DE0000E94380D419A8C2FDF91CF911F910F9156
:101DF0000895CF93DF93F8944298D9E0C0E0D15092
:101E000049F00E94BA0E20E8829FC0011124C695B5
:101E1000C82BF5CF429A78948C2FDF91CF910895FB
:101E2000CF93DF93D82FF8944498C9E0C15031F094
:101E30008D2F81700E94230ED695F8CF449A789406
:101E4000DF91CF910895CF92DF92EF92FF920F939F
:101E50001F93CF938CE991E00E94C8138CE6C82EA3
:101E600085E0D82EC0E0F601E1906F01F12C00E092
:101E700010E020E240E063E08AE00E94F213C83004
:101E800021F08EE991E00E94C813CF5FC93059F765
:101E900080EA91E0CF911F910F91FF90EF90DF903A
:101EA000CF900C94C813AF92BF92CF92DF92EF9273
:101EB000FF921F93CF93DF9382EA91E00E94C813B1
:101EC000C0E0D0E089E8E82E85E0F82E11E095E842
:101ED000C92E95E0D92E27E8A22E25E0B22EFE01CC
:101EE000E459FA4F81851F928F93FF92EF921F93CF
:101EF0000E9492140F900F900F900F900F90C73088
:101F0000D10519F4BF92AF9202C0DF92CF921F9316
:101F10000E9492140F900F900F902196C830D10517
:101F2000F1F6DF91CF911F91FF90EF90DF90CF906E
:101F3000BF90AF900895FF920F931F93CF93DF93BD
:101F4000F894C0E0D0E03AE0F32E082F10E0FE0154
:101F5000E459FA4F809182059801F89E200D311DB9
:101F60001124C90123E0880F991F2A95E1F78C0FEE
:101F70009D1F618585569F4F0E94CF192196C830BD
:101F8000D10529F77894DF91CF911F910F91FF90A0
:101F90000895E5E7F5E09C01275F3F4FDC014D9197
:101FA000CD014193A217B307C9F708951F93CF93AB
:101FB000DF9380917505811106C08CECDF91CF9184
:101FC0001F910C94100F85E50E94100FC5E7D5E016
:101FD0001C2F185F89910E94100F1C13FBCFDF91FB
:101FE000CF911F9108958CEC0E94100F84E40C9403
:101FF000100F98E028E1362F382730FD02C0669593
:1020000003C062276695606886959150A1F7862F78
:1020100008958F929F92AF92BF92CF92DF92EF92EC
:10202000FF920F931F93CF93DF931F92CDB7DEB72D
:102030004C017B01FB011082C82E8C01D12C802F1A
:102040008C19841780F45801F7016081F80181919F
:102050008F0149830E94F90FF7018083F501808188
:10206000D80E4981ECCFF401E40FF11D9081F70106
:102070008081981303C081E0D11001C080E00F90EF
:10208000DF91CF911F910F91FF90EF90DF90CF9054
:10209000BF90AF909F908F900895CF92DF92EF9274
:1020A000FF920F931F93CF93DF931F92CDB7DEB7AD
:1020B000062F10E09AE0899F000D111D112483E086
:1020C000000F111F8A95E1F7E12CF12CC12CD12CC6
:1020D000045F1F4FC8018E0D9F1D81579F4F0E94A7
:1020E000B719F701E459FA4F8187C80ED11C8FEF59
:1020F000E81AF80A98E0E916F10461F7CD2849F0EA
:1021000047E0BE016F5F7F4F85E795E00E940910B1
:1021100001C080E00F90DF91CF911F910F91FF9050
:10212000EF90DF90CF900895FF920F931F93CF937E
:10213000DF931F92CDB7DEB719820E947A0E8CEC26
:102140000E94100F0E947A0E83E30E94100F05E791
:1021500015E088E0F82EF00E0E94F90EF801819348
:102160008F01FE12F9CF47E0BE016F5F7F4F85E719
:1021700095E00E9409100F90DF91CF911F910F9170
:10218000FF900895CF92DF92EF92FF921F93CF932B
:10219000DF931F92CDB7DEB7182F0E94D60F8EEBBC
:1021A0000E94100F8CE6C82E85E0D82E76018E2D69
:1021B0008C19811730F40E94F90EF70181937F0189
:1021C000F6CF19824FEF410FBE016F5F7F4F8CE654
:1021D00095E00E9409100F90DF91CF911F91FF9021
:1021E000EF90DF90CF900895FF920F931F93CF93BE
:1021F000DF931F92CDB7DEB7182F0E947A0E8CECBA
:102200000E94100F89EF90E00197F1F700C00000E5
:1022100088EB0E94100F812F0E94100F0E947A0EEF
:102220008CEC0E94100FE9EFF0E03197F1F700C05D
:1022300000008EEB0E94100F812F0E94100F0CE601
:1022400015E089E0F82EF00E0E94F90EF801819356
:102250008F01FE12F9CF198248E0BE016F5F7F4FF8
:102260008CE695E00E9409100F90DF91CF911F91AD
:102270000F91FF9008950E947A0E8CEC0E94100F2F
:1022800084E40E94100F89E698E10197F1F700C0FD
:1022900000000E947A0E8CEC0E94100F84EB0E94CA
:1022A000100F89E698E10197F1F700C0000080E087
:1022B0000E94F4100E94230F0C947A0EFF920F9349
:1022C0001F93CF93DF931F92CDB7DEB70E947A0E94
:1022D0000E94D60F89EF90E00197F1F700C000004F
:1022E00088EB0E94100F80E00E94100F0E947A0E6F
:1022F0000E94D60FE9EFF0E03197F1F700C000003F
:102300008EEB0E94100F80E00E94100F0CE615E08B
:1023100089E0F82EF00E0E94F90EF80181938F01EA
:10232000FE12F9CF198248E0BE016F5F7F4F8CE645
:1023300095E00E9409100F90DF91CF911F910F91AE
:10234000FF900895DF92EF92FF920F931F93CF9328
:10235000DF93EC0187EE93E0998388838FE097E227
:102360009B838A830E947A0E80917505803109F0E3
:102370007BC089E00E94C210D82E20916D0530E00C
:10238000322F222780916C05282B39832883809156
:102390006D053595279539832883409172058F3FC8
:1023A00019F54C3050F021E732E0429FC001439FC5
:1023B000900D11248C549D4154C02F5F3F4F3983A1
:1023C00028836091720541E752E0649FC001659FD8
:1023D000900D11248C53964F9B838A83232B09F0F5
:1023E00083C083E895E020C04D3090F12150310941
:1023F0003983288380916C052091720581111EC05C
:1024000041E752E0249FC001259F900D11248C5478
:102410009D419B838A8319821882809172058D3039
:1024200008F462C081E895E09F938F9381E08F93D9
:102430000E9492140F900F900F9056C04FE85DEFDE
:10244000249FC001259F900D1124845A9B4B09C0E5
:102450002FE83DEF429FC001439F900D1124845B04
:10246000924E9B838A8340C0883201F589E00E94A6
:10247000C210D82E80916D0590E0982F882720916A
:102480006C05822B34E0959587953A95E1F7998311
:10249000888380916C058F7041E752E0849F9001A2
:1024A000859F300D11243B832A831EC0863279F428
:1024B0000E945E118823B1F080916E0590E09983AF
:1024C000888380916D0590E09B838A830BC081E7B0
:1024D00095E09F938F9381E08F930E9492140F90C9
:1024E0000F900F90DD24D39489818F9388818F93EF
:1024F0008DE695E09F938F9381E08F930E949214D5
:10250000EA80FB800F2C000C000B110B20E340E055
:1025100064E08AE00E94F2130F900F900F900F90EA
:102520000F908D2DDF91CF911F910F91FF90EF9024
:10253000DF900895CF93DF93D82FC62F0E947A0E95
:102540008CEC0E94100F8EE40E94100F8D2F0E94C1
:10255000100F8C2F0E94100F81E08C0F0E94100F23
:1025600083E08C0F0E94100F84E08C0F0E94100FEC
:102570000E947A0E8CEC0E94100F88E40E94100FCB
:102580008D2FDF91CF910C94100FE5E7F5E088E0F7
:102590008E0F11928E13FDCF0895AF92BF92CF92FE
:1025A000DF92EF92FF921F93CF93DF93C0E0D0E0D2
:1025B0008BE5E82E85E0F82E11E097E5C92E95E031
:1025C000D92E29E5A22E25E0B22EFE01E459FA4FBC
:1025D00081851F928F93FF92EF921F930E94921416
:1025E0000F900F900F900F900F90C730D10519F4F6
:1025F000BF92AF9202C0DF92CF921F930E949214BB
:102600000F900F900F902196C830D105F1F6DF9111
:10261000CF911F91FF90EF90DF90CF90BF90AF9040
:102620000C94E713ACE6B5E09796EC9197978E275C
:10263000E82FF0E0EC55FE4F808197968C9308953B
:10264000FF920F931F93CF93DF9310929305809186
:102650009205811171C00E947A0EC82F811112C09B
:102660008EE595E09F938F9381E08F930E94921463
:102670001092900510929205109291050F900F9074
:102680000F9067C080EF0E94100FD1E010E0F12C96
:10269000C1E00E94BA0E082F0E94BA0E013019F450
:1026A0008130C1F43BC0212F30E008131DC0809160
:1026B0009005C81738F4F901E459FA4F81858D2344
:1026C00049F402C0C81731F000E0C93060F4C0938B
:1026D000910509C0E12FF0E0E459FA4F81858D2B77
:1026E000818701E009C0FC2EF901E459FA4F918578
:1026F0008D2F809589238187802F0E94230ECF5FA5
:10270000DD0F49F4E12FF0E0E459FA4F81850E9492
:1027100012131F5FD1E0183008F4BBCFC13460F052
:1027200080919305811108C0F0929005F1100CC0C2
:102730008FEF8093920508C0109290051092920539
:1027400010929105C0E005C0809175058823A1F322
:10275000CFEF8C2FDF91CF911F910F91FF900895B4
:102760000C9420139093D7038093D6030895CF93AE
:10277000C82F8A3031F4E091D603F091D7038DE071
:102780000995E091D603F091D7038C2FCF9109944E
:10279000CF93DF93009739F0EC018991882319F0EA
:1027A0000E94B713FACFDF91CF910895CF93DF93B3
:1027B000009751F0FC018491EF012196882321F0CC
:1027C0000E94B713FE01F7CFDF91CF9108958AE001
:1027D0000C94B7138F70E82FF0E0EE5DF84F849102
:1027E0000C94B7133F924F925F926F927F928F92A9
:1027F0009F92AF92BF92CF92DF92EF92FF920F9390
:102800001F93CF93DF93CDB7DEB7A0970FB6F894A1
:10281000DEBF0FBECDBF482EC62E822E442351F000
:1028200017FF08C066277727CB016E197F09800B39
:10283000910B02C0C801B70199249394411101C0C2
:10284000912CDD24DA94DC0CD91818A2512C612CBF
:10285000712CA30192010E943318FB01EF70FF2736
:10286000EE5DF84F64916F8FB901CA015E012EE1F0
:10287000A20EB11C3D2C3A942FEF3216D1F0611507
:1028800071058105910579F0A30192010E94331829
:10289000FB01EF70FF27EE5DF84F6491F501608357
:1028A000B901CA0102C0F5018082F1E0AF1AB10896
:1028B000E2CFCE014F968D199109992069F0FC0164
:1028C000319717FF02C02DE205C0EF28E02AE12A68
:1028D00039F02BE22083CF017C011C2D180F02C0A0
:1028E00020E2F8CF1E1531F0F70181917F010E949F
:1028F000B713F8CFA0960FB6F894DEBF0FBECDBFCA
:10290000DF91CF911F910F91FF90EF90DF90CF90CB
:10291000BF90AF909F908F907F906F905F904F90FF
:102920003F9008955F926F927F928F929F92AF92A5
:10293000BF92CF92DF92EF92FF920F931F93CF93AC
:10294000DF931F92CDB7DEB7EC89FD893E0126E10A
:10295000620E711C3AE0A32EB12C3B89332381F027
:102960008F010F5F1F4F8491853289F0882309F40E
:1029700066C00E94B713630178013601F701EDCFFD
:102980008081853259F08F010F5F1F4FEFCF7F019C
:1029900082E0E80EF11CF801849105C07F0122E07D
:1029A000E20EF11C81818436A1F0883761F0833614
:1029B00031F4F301808193012E5F3F4F39010E9472
:1029C000B7136301DACF20E1822E912C00E010E1F1
:1029D00005C09AE0892E912C00E117E2630132E0F4
:1029E000C30ED11CF301608071808436A1F477FEA0
:1029F0000FC07194619471088DE20E94B71308C0F2
:102A0000C801B5010E941F188B016230710518F0D2
:102A100060167106A8F3C301B8010E941F18582E52
:102A2000862F99830E94EA13652C9981792EC8011B
:102A3000B4010E941F188B01672B69F79ECF80E0BD
:102A400090E00F90DF91CF911F910F91FF90EF9049
:102A5000DF90CF90BF90AF909F908F907F906F90BE
:102A60005F90089580E297E00C94D6138EE197E092
:102A70000C94D6138CE197E00C94D61395B5987FFF
:102A8000892B85BD089582E00E943E1516BCEEE6B6
:102A9000F0E080818160808310929405109295050A
:102AA000109296051092970508958A3040F4E82F09
:102AB000F0E0EE0FFF1FE852FC4F71836083089532
:102AC0001092940510929505109296051092970514
:102AD0000895609194057091950580919605909167
:102AE000970508951F920F920FB60F9211242F93FE
:102AF0003F934F935F936F937F938F939F93AF9386
:102B0000BF93EF93FF938091940590919505A091C9
:102B10009605B09197050196A11DB11D809394056E
:102B200090939505A0939605B0939705809198058D
:102B300090919905A0919A05B0919B050196A11DD0
:102B4000B11D8093980590939905A0939A05B09331
:102B50009B058091D8039091D903892B29F0E091AE
:102B6000D803F091D9030995FF91EF91BF91AF91EF
:102B70009F918F917F916F915F914F913F912F9195
:102B80000F900FBE0F901F9018951F920F920FB6C7
:102B90000F9211242F933F934F935F936F937F93E3
:102BA0008F939F93AF93BF93EF93FF9380919C0577
:102BB00090919D05A0919E05B0919F050196A11D44
:102BC000B11D80939C0590939D05A0939E05B093A5
:102BD0009F058091E6039091E703892B29F0E0910E
:102BE000E603F091E7030995FF91EF91BF91AF9153
:102BF0009F918F917F916F915F914F913F912F9115
:102C00000F900FBE0F901F9018951F920F920FB646
:102C10000F9211242F933F934F935F936F937F9362
:102C20008F939F93AF93BF93EF93FF938091DA03BA
:102C30009091DB03892B29F0E091DA03F091DB031B
:102C40000995FF91EF91BF91AF919F918F917F91E6
:102C50006F915F914F913F912F910F900FBE0F9009
:102C60001F9018951F920F920FB60F9211242F9359
:102C70003F934F935F936F937F938F939F93AF9304
:102C8000BF93EF93FF938091DC039091DD03892B39
:102C900029F0E091DC03F091DD030995FF91EF91BC
:102CA000BF91AF919F918F917F916F915F914F9164
:102CB0003F912F910F900FBE0F901F9018951F926C
:102CC0000F920FB60F9211242F933F934F935F9360
:102CD0006F937F938F939F93AF93BF93EF93FF93E4
:102CE0008091E0039091E103892B29F0E091E003CA
:102CF000F091E1030995FF91EF91BF91AF919F9101
:102D00008F917F916F915F914F913F912F910F9094
:102D10000FBE0F901F9018951F920F920FB60F9233
:102D200011242F933F934F935F936F937F938F93D0
:102D30009F93AF93BF93EF93FF938091E2039091A2
:102D4000E303892B29F0E091E203F091E303099575
:102D5000FF91EF91BF91AF919F918F917F916F9173
:102D60005F914F913F912F910F900FBE0F901F9049
:102D700018951F920F920FB60F9211242F933F9325
:102D80004F935F936F937F938F939F93AF93BF9373
:102D9000EF93FF938091E4039091E503892B29F051
:102DA000E091E403F091E5030995FF91EF91BF9164
:102DB000AF919F918F917F916F915F914F913F91D3
:102DC0002F910F900FBE0F901F9018951F920F928A
:102DD0000FB60F9211242F933F934F935F936F93EE
:102DE0007F938F939F93AF93BF93EF93FF938091C4
:102DF000E8039091E903892B29F0E091E803F09131
:102E0000E9030995FF91EF91BF91AF919F918F9148
:102E10007F916F915F914F913F912F910F900FBED6
:102E20000F901F90189540E450E06EE274E081EA44
:102E300095E00E94C10340E450E06EEE73E08AEA40
:102E400095E00C94C10322E02093C00028E9209370
:102E5000C1009B01AC0183E0220F331F441F551FAB
:102E60008A95D1F760E074E284EF90E00E94331815
:102E700021502093C400789408950E941317109253
:102E8000ED031092EC0388ED8093C10060E072ECDA
:102E900081E090E00E9423178FEF8093A0051092AD
:102EA000A9051092B3051092B205789408959091F7
:102EB000C00095FFFCCF8093C6001092A005089536
:102EC000CF93DF932091A3053091A405232B71F0BC
:102ED0002091A5053091A605232B41F0EC0181EA54
:102EE00095E00E94CE0388838FEF01C080E0DF91E0
:102EF000CF9108951F920F920FB60F9211242F9326
:102F00003F934F935F936F937F938F939F93AF9371
:102F1000BF93EF93FF938091A905882379F0809167
:102F2000AE059091AF05892B39F08AEA95E00E94B1
:102F3000CE038093C60005C01092A9058FEF809341
:102F4000A005FF91EF91BF91AF919F918F917F91DC
:102F50006F915F914F913F912F910F900FBE0F9006
:102F60001F9018951F920F920FB60F9211242F9356
:102F70003F934F935F936F937F938F939F93AF9301
:102F8000BF93EF93FF938091C6002091EC033091A3
:102F9000ED03232B31F0E091EC03F091ED03099563
:102FA00010C0682F81EA95E00E94F203811109C0E8
:102FB0008091B2059091B30501969093B3058093EB
:102FC000B205FF91EF91BF91AF919F918F917F914A
:102FD0006F915F914F913F912F910F900FBE0F9086
:102FE0001F90189581E497E00C94D6138CE397E03A
:102FF0000C94D6131F926F931F928F9383E397E0E5
:103000009F938F9381E08F930E9492148DB79EB708
:1030100007960FB6F8949EBF0FBE8DBF0895DB01D3
:103020008F939F930E945B18BF91AF91A29F800DD9
:10303000911DA39F900DB29F900D11240895AA1B7E
:10304000BB1B51E107C0AA1FBB1FA617B70710F093
:10305000A61BB70B881F991F5A95A9F780959095C5
:10306000BC01CD010895A1E21A2EAA1BBB1BFD01D4
:103070000DC0AA1FBB1FEE1FFF1FA217B307E40757
:10308000F50720F0A21BB30BE40BF50B661F771FAF
:10309000881F991F1A9469F760957095809590958F
:1030A0009B01AC01BD01CF010895EE0FFF1F0590FC
:1030B000F491E02D09940E946618A59F900DB49F8D
:1030C000900DA49F800D911D11240895A29FB00121
:1030D000B39FC001A39F700D811D1124911DB29F4C
:1030E000700D811D1124911D0895A0E0B0E0EBE763
:1030F000F8E10C94EA195C016B017A016115710524
:1031000019F0FB0191838083E114F10429F0C701D8
:103110000297839708F0F1C0E5012196F50110812F
:10312000812F90E00E948619892B11F05E01F4CF67
:103130001D3229F42196F501118101E007C01B32EF
:1031400021F4E5012296F501118100E0E114F1047A
:1031500059F1F0E1EF16F10461F41033E1F48881E4
:103160008F7D883569F519812296026070E1E72E1E
:10317000F12C88E0E816F10439F12CF4F2E0EF16B6
:10318000F104C9F12AC08AE0E816F10479F0E0E11F
:10319000EE16F10411F550E1E52EF12C812C912C65
:1031A000A12C68E0B62E2CC01033C9F23AE0E32E11
:1031B000F12C4CEC842E982CA82C4CE0B42E20C082
:1031C00010E3E114F104A9F698E0E92EF12C812C2A
:1031D000912CA12C20E1B22E13C060E070E080E0C1
:1031E00090E897010F2C000C440B550B0E943318EC
:1031F00049015A0105C0812C912CA12C80E4B82EE4
:1032000060E020E030E0A90127010F2C000C6608E7
:1032100077081E01E0EDE10FEA3060F08FEB810FDF
:103220008A3110F4E9EC05C08FE9810F8A3128F565
:10323000E9EAE10F8E2F90E08E159F05F4F467FD0B
:1032400018C082169306A406B50690F0C301B20119
:103250000E940F189B01AC012E0F311D411D511D05
:10326000213031054105F0E85F0710F461E001C04D
:103270006FEF2196F1011081CCCF802F8170C114A6
:10328000D10471F0662329F02197F601D183C08320
:1032900007C001FF19C02297F601D183C08314C073
:1032A00067FF12C0811105C02FEF3FEF4FEF5FE7BF
:1032B00004C020E030E040E050E882E290E09093EB
:1032C000B5058093B40516C0882341F0509540950C
:1032D000309521953F4F4F4F5F4F0CC057FF0AC0AD
:1032E00082E290E09093B5058093B4052FEF3FEF15
:1032F0004FEF5FE7B901CA0104C060E070E080E011
:1033000090E0CDB7DEB7E2E10C94061A91110C946F
:10331000A419803219F089508550C8F70895FB012F
:10332000DC0101900D920020E1F70895FB01DC0122
:103330004150504030F08D910190801919F40020D7
:10334000B9F7881B990B0895992788270895DC0100
:10335000CB01FC01F999FECF06C0F2BDE1BDF89AA0
:10336000319600B40D9241505040B8F70895F99944
:10337000FECF92BD81BDF89A992780B50895A8E146
:10338000B0E042E050E00C94A919DC01CB0103C08D
:103390002D910E94D01941505040D0F70895262F0A
:1033A000F999FECF1FBA92BD81BD20BD0FB6F8942A
:1033B000FA9AF99A0FBE01960895242F0E94D01907
:1033C000252F0E94D0190C94E5190E94CF19272FA0
:1033D0000C94D0192F923F924F925F926F927F92EE
:1033E0008F929F92AF92BF92CF92DF92EF92FF9215
:1033F0000F931F93CF93DF93CDB7DEB7CA1BDB0BC1
:103400000FB6F894DEBF0FBECDBF09942A88398865
:1034100048885F846E847D848C849B84AA84B9846C
:10342000C884DF80EE80FD800C811B81AA81B98178
:10343000CE0FD11D0FB6F894DEBF0FBECDBFED018C
:063440000895F894FFCF8F
:1034460068656C700069646E006765746677007302
:103456006574736E00676574736E007465737400CB
:103466006A736F6E00706F6B65007065656B0064E4
:10347600756D700073747265616D00696E74657246
:1034860076616C0064656C617900776269740072BC
:1034960062697400776279746500726F6D00726597
:1034A600736574006C6F6164007370007361766598
:1034B6000073746172740074656D70006461746188
:1034C6000070696E007270007770007365617263D8
:1034D600680073657474696D696E67005B002C0023
:1034E6005D002200005EBCE2613FDD83C29C7E205F
:1034F600A3FD1F419DC3217FFCA2401E5F01E3BDCA
:103506003E6082DC237D9FC1421CFEA0E1BF5D03BD
:1035160080DE3C62BEE0025CDF81633D7C22C09EB1
:103526001D43A1FF4618FAA427799BC584DA38669D
:10353600E5BB5907DB856739BAE406581947A5FB89
:103546007826C49A653BD987045AB8E6A7F91B457D
:10355600C6987A24F8A6441A99C7257B3A6486D871
:103566005B05E7B98CD2306EEDB3510F4E10F2AC5D
:103576002F7193CD114FADF3702ECC92D38D6F3149
:10358600B2EC0E50AFF1134DCE90722C6D33D18F3D
:103596000C52B0EE326C8ED0530DEFB1F0AE4C1231
:1035A60091CF2D73CA947628ABF517490856B4EA1D
:1035B6006937D58B5709EBB536688AD495CB297709
:1035C600F4AA4816E9B7550B88D6346A2B7597C9FD
:1035D6004A14F6A8742AC896154BA9F7B6E80A54F1
:0435E600D7896B35E1
:00000001FF
