:100000000C943A030C9457030C9457030C94570325
:100010000C9457030C9457030C9457030C94EF154E
:100020000C9457030C94CE140C94C2150C946815C0
:100030000C9495150C9457030C940E150C943B15C9
:100040000C947B140C9457030C94BB160C9457031C
:100050000C9483160C9457030C9457030C94570379
:100060000C9457030C945703540D570D5C0D5F0D02
:10007000620D650D680D6B0D220022007D3C2F2561
:10008000643E003C25643E7B22636D64223A22007C
:10009000222C202264617461223A2000636F6D6D0E
:1000A000616E64206E6F7420666F756E64004552D9
:1000B000524F523A2000636D643E004F6E6557699F
:1000C0007265577269746542797465203D202564B4
:1000D0000A004F6E655769726552656164426974C2
:1000E000203D2025640A00746865726D5F72657337
:1000F00065742829203D2025640A005B25642C2591
:10010000642C005D0025642C2025642C20005D00FB
:100110005B25642C25642C005B0043524320457210
:10012000726F72005D00203A2000203A20002564A2
:100130002C2025642C20005D005B25642C25642C7C
:10014000005B0031002564002564002564000D0A71
:10015000000D0A0020307825780030782578257841
:100160002030782578005B25642C22307825782291
:100170005D00220022007D002C226C6F6361746997
:100180006F6E223A007B22534E223A002245525291
:100190004F52202D20496E76616C69642073796E10
:1001A000746178206C6162656C205B617C627C6448
:1001B0007C697C6C7C735D206465764E756D206C0B
:1001C0006162656C5F746578742200224F4B220077
:1001D000224F4B2200226F776972652031352E3114
:1001E000322E313222006F7774656D70222C2264BA
:1001F000617461223A007770202020202020202086
:1002000020202020203A2077726974652064617470
:100210006120746F2073706563696669656420701E
:100220006167650A00727020202020202020202095
:10023000202020203A207265616420737065636914
:1002400066696320706167652066726F6D20333860
:100250003234206465766963650A006461746120E4
:10026000202020202020202020203A207265616458
:1002700020646174612066726F6D203338323420DF
:100280006465766963650A0074656D7020202020BE
:10029000202020202020203A20726561642074658F
:1002A0006D7065726174757265730A007374617242
:1002B00074202020202020202020203A20737461E8
:1002C00072742074656D7065726174757265206DED
:1002D0006561737572656D656E740A00736176652C
:1002E00020202020202020202020203A207361760A
:1002F00065207363726174636870616420746F2039
:10030000656570726F6D0A007370202020202020B8
:10031000202020202020203A2073686F77207363EC
:100320007261746368207061640A006C6F6164209C
:10033000202020202020202020203A206C6F616483
:1003400020656570726F6D20636F6E74656E740AE0
:1003500000726F6D202020202020202020202020CF
:100360003A207265616420726F6D206F6620612093
:1003700073696E676C65206465766963650A000A57
:100380000A4F6E657769726520436F6D6D616E64AB
:10039000733A0A0073747265616D2020202020205A
:1003A00020202020203A20737461727420737472AC
:1003B00065616D696E670A00746573742020202082
:1003C0002020202020202020203A207465737420D3
:1003D00066756E6374696F6E0A00706F6B65205B83
:1003E0007265675D205B76616C5D203A2073657491
:1003F000732072656769737465722076616C7565C8
:1004000020746F205B76616C5D200A007065656BFF
:10041000205B7265675D202020202020203A20721A
:10042000657475726E73206465632C20686578202E
:10043000616E642062696E2076616C7565206F66FE
:100440002072656769737465720A0074657374203D
:100450002020202020202020202020203A207465E9
:1004600073742066756E6374696F6E0A0069646EDA
:1004700020202020202020202020202020203A2062
:100480007072696E7473206465766963652049448F
:1004900020616E642076657273696F6E20696E6686
:1004A0006F0A000A436F6D6D616E64733A0A005AF9
:1004B000202020202020202020202020202020203C
:1004C0003A20726573657420636F6D6D616E642090
:1004D0006E756D62657220746F207A65726F0A00A6
:1004E00053202020202020202020202020202020D9
:1004F000203A20706572666F726D2062696E61725B
:1005000079207365617263680A00522020202020E0
:1005100020202020202020202020203A2073656EDB
:10052000642072657365742070756C73650A00438E
:1005300020202020202020202020202020202020BB
:100540003A20636C6561722073637265656E0A00A0
:10055000496E7374616E7420636F6D6D616E647348
:100560003A0A00746865726D5F7265736574282954
:100570000A0025642E00224445565F4E4F545F46C4
:100580004F554E4422002D002D002E0022002564E0
:1005900000303820745F726561645F736C6F742023
:1005A000203A2025640A00303720745F7265616448
:1005B0005F73616D7020203A2025640A0030362078
:1005C000745F77726974655F736C6F74203A20256D
:1005D000640A00303520745F77726974655F6C6FF0
:1005E0007720203A2025640A00303420745F726539
:1005F0007365745F64656C61793A2025640A003024
:100600003320745F72657365745F72782020203ABE
:100610002025640A00303220745F72657365745F50
:1006200074782020203A2025640A00303120745F3D
:10063000636F6E76202020202020203A2025640A37
:10064000000A31576972652054696D696E670A0046
:100650005D00303132333435363738394142434426
:100660004546001B5B25643B256448001B5B324A02
:10067000001B630011241FBECFEFD8E0DEBFCDBF4B
:1006800012E0A0E0B1E0E8E5F2E302C005900D92CF
:10069000A43AB107D9F725E0A4EAB2E001C01D925F
:1006A000A63BB207E1F70E94230B0C942A190C9485
:1006B0000000FC018FB7F8947183608353834283F9
:1006C00017821682158214828FBF0895FC019FB78E
:1006D000F8944481558141155105C9F0268137812F
:1006E000A081B181A20FB31F8C912F5F3F4F378341
:1006F0002683628173812617370720F0261B370B6C
:1007000037832683415051095583448301C080E0DB
:100710009FBF0895FC01362F2FB7F894A481B581AF
:1007200062817381A617B70798F4868197818A0F33
:100730009B1F0E942817A081B181A80FB91F3C936D
:10074000848195810196958384832FBF8FEF0895CF
:100750002FBF80E0089510927504109271041092DA
:100760007604109273041092720410927404109222
:10077000D2031092D3031092D4031092D50308959C
:10078000EF92FF921F93CF93DF937B01109174043C
:10079000C12FD0E09E0143E0220F331F4A95E1F7BD
:1007A000BC01C9018E519D4F0E949818CC0FDD1FCE
:1007B000CA55DD4FF982E8821F5F10937404DF9100
:1007C000CF911F91FF90EF9008959093A502809391
:1007D000A4020895CF93DF9380916F048823E9F0FA
:1007E0008091D5038F938091D4038F938091D3030D
:1007F0008F938091D2038F9383E890E09F938F93A0
:1008000081E08F930E94A3138DB79EB707960FB612
:10081000F8949EBF0FBE8DBF10C0C6EBD0E0CE01D6
:10082000FE012491222349F02196FC018491E0915C
:10083000A402F091A5020995F2CFDF91CF9108951E
:100840001F93CF93DF93E091A402F091A5028DE076
:1008500009950E94EA0310917104C7E7D4E01C0FC8
:100860001C1739F0E091A402F091A5028991099535
:10087000F7CFDF91CF911F910895882319F0813030
:1008800059F00895809177048823D1F067E774E0E8
:1008900087EC94E00C94981867EC74E087E794E098
:1008A0000E949818E7E7F4E001900020E9F73197FB
:1008B000E757F440E0937104E09376040C9420042D
:1008C0000895E0917204F0917304309739F009951E
:1008D00010927304109272040C94EA0308958091AC
:1008E000D2039091D303A091D403B091D503019684
:1008F000A11DB11D8093D2039093D303A093D40381
:10090000B093D50308951092D2031092D30310929E
:10091000D4031092D503089580916F048823F9F0D1
:100920008091D5038F938091D4038F938091D303CB
:100930008F938091D2038F938CE790E09F938F9356
:1009400081E08F930E94A3130E94F8128DB79EB787
:1009500007960FB6F8949EBF0FBE8DBF02C00E94CF
:10096000F8120C946F04CF93DF9380916F04882367
:10097000E1F08091D5038F938091D4038F93809180
:10098000D3038F938091D2038F938AE790E09F9354
:100990008F9381E08F930E94A3138DB79EB7079624
:1009A0000FB6F8949EBF0FBE8DBFCEEAD0E0CE0149
:1009B000FE012491222349F02196FC018491E091CB
:1009C000A402F091A5020995F2CFC7E7D4E089917E
:1009D000982F9F7DE091A402F091A502992311F038
:1009E0000995F5CF8AE30995E091A402F091A5025B
:1009F00080E20995CCE9D0E0CE01FE0124912223CA
:100A000049F02196FC018491E091A402F091A502A5
:100A10000995F2CF80916F04882359F088E790E020
:100A20009F938F9381E08F930E94A3130F900F9059
:100A30000F90DF91CF910C948C04BF92CF92DF92F4
:100A4000EF92FF920F931F93CF93DF9380E00E946A
:100A50003D0480E0C82ED12CF601E958FB4F90816F
:100A60009F7D11F08F5FF6CF90916F04811105C0CB
:100A700091113CC00E94F8122EC0913029F480E9F7
:100A800090E00E94E71202C00E94F812B090740435
:100A900092EEE92E92E0F92E00E010E00B15C8F47A
:100AA000E801A60167E774E0C7010E949F180F5F85
:100AB0001F4F28E0E20EF11C892B81F7CC0FDD1FC0
:100AC000CA55DD4F88819981909373048093720495
:100AD0000DC00E94B304DF91CF911F910F91FF9041
:100AE000EF90DF90CF90BF900C94EA03DF91CF910D
:100AF0001F910F91FF90EF90DF90CF90BF900895DE
:100B0000CF93C82F809175048230B9F5C33441F07A
:100B1000C43409F1C13471F581E00E943D042AC05A
:100B20008091760490917104E091A402F091A50265
:100B30008917F0F48F5F809376048BE10995E0913B
:100B4000A402F091A5028BE50995E091A402F09131
:100B5000A50283E40EC080917604E091A402F09196
:100B6000A502882329F081508093760488E001C093
:100B700087E0099510927504CFC0813021F4CB3500
:100B800011F482E0C7C01092750480EE8C0F8F358F
:100B900008F047C04091760480917104481316C054
:100BA000E091A402F091A5028C2F0995E0917604C2
:100BB00081E08E0F80937604F0E0E958FB4FC0830C
:100BC000809171048F5F80937104A6C08F5F8093C2
:100BD0007104481760F4A82FB0E0A958BB4F9D01DD
:100BE00021503109F90190819C938150F2CF81E02D
:100BF000840F80937604E42FF0E0E958FB4FC08324
:100C00000E942004C091760480917104C81708F0F6
:100C100083C0E091A402F091A50288E00995CF5F1E
:100C2000F3CFCA3011F0CD30B1F4E091710481E01E
:100C30008E0F80937104F0E0E958FB4F1082809191
:100C400076048F5F809376040E941D0510927104D4
:100C50001092760461C0CF3719F0C83009F057C040
:100C600080917604882309F44BC090917104891314
:100C70001DC0E091A402F091A50288E00995E091E1
:100C8000A402F091A50280E20995E091A402F091FE
:100C9000A50288E0099580917104815080937104C8
:100CA0008091760481508093760436C09150909361
:100CB0007104815080937604891740F4E82FF0E0A6
:100CC000E958FB4F218120838F5FF6CF0E942004DB
:100CD000E091A402F091A50280E20995C09176040A
:100CE0008091710490E02C2F30E082179307A4F0DC
:100CF000E091A402F091A50288E00995CF5FF0CFC2
:100D0000E091A402F091A50287E0CF910994CB3144
:100D100019F481E080937504CF91089590E0E92F54
:100D2000F0E0E958FB4F2081203211F49F5FF7CFAC
:100D300020E02817A1F0E92FF0E0E958FB4F3081BF
:100D40003F7D11F09F5FF7CFE92FF0E0E958FB4FAF
:100D50003081303211F49F5FF7CF2F5FEACF892FB8
:100D600090E089589B4F0895CF93DF9300D0CDB783
:100D7000DEB70E948E064AE050E0BE016F5F7F4FF3
:100D80000E947E170F900F90DF91CF910895CF931F
:100D9000DF9300D0CDB7DEB70E948E0640E150E071
:100DA000BE016F5F7F4F0E947E170F900F90DF9103
:100DB000CF91089580E595E00E94E7128FE295E0DB
:100DC0000E94E7128AE095E00E94E71280EE94E02C
:100DD0000E94E7128FEA94E00E94E71283EA94E00F
:100DE0000E94E7128DE694E00E94E7128BE494E003
:100DF0000E94E7128CE094E00E94E7128AED93E0F3
:100E00000E94E71288EB93E00E94E71284E993E0E6
:100E10000E94E7128FE793E00E94E71281E593E0DA
:100E20000E94E7128BE293E00E94E71288E093E0D1
:100E30000E94E7128CED92E00E94E7128CEA92E0A9
:100E40000E94E71288E892E00E94E7128BE592E0A8
:100E50000E94E71285E292E00E94E71286EF91E09D
:100E60000C94E71285ED91E00E94E7120C948C043B
:100E70000E94CA0D0E943F0F83E491E00E94E71296
:100E80000C948C0481E00E94B40660936F04089572
:100E90000F931F93CF93DF93CDB7DEB764970FB651
:100EA000F894DEBF0FBECDBF81E00E948E068C019C
:100EB00082E00E94B40683E00E948E06BC01F80125
:100EC00080818C3679F4CE0101960E94981844E115
:100ED00050E064E670E0CE0101960E94CE1880EDED
:100EE00091E013C0833779F4CE0101960E949818DF
:100EF00044E150E068E770E0CE0101960E94CE1810
:100F00008BEC91E002C08CE891E00E94E7120E9415
:100F10008C0464960FB6F894DEBF0FBECDBFDF9190
:100F2000CF911F910F910895CF9381E00E94B40655
:100F3000C62F82E00E94B4068C2F0E94A30FCF918F
:100F40000C94A30ECF92DF92EF92FF9281E00E9469
:100F5000C7066B017C0182E00E94C706F601608330
:100F6000FF90EF90DF90CF90089581E00E94C70638
:100F7000FB0180811F928F931F928F9386E691E0F1
:100F80009F938F9381E08F930E94A3138DB79EB799
:100F900007960FB6F8949EBF0FBE8DBF0C948C04BD
:100FA0008F929F92AF92BF92CF92DF92EF92FF9279
:100FB0000F931F93CF93DF9381E00E94C706EB014D
:100FC00082E00E94C7067B0110E084E5C82E81E024
:100FD000D82E01E09AE5A92E91E0B92E21E5822EC6
:100FE00021E0922EEC16FD0698F18881111116C0B1
:100FF0001F928F93CE0199279F938F931F92DF9318
:10100000BF92AF920F930E94A3138DB79EB709961C
:101010000FB6F8949EBF0FBE8DBF0CC01F928F936A
:10102000DF92CF920F930E94A3130F900F900F9017
:101030000F900F901F5F183049F49F928F920F937B
:101040000E94A3130F900F900F9010E02196CACF2B
:101050008EE491E09F938F9381E08F930E94A3137E
:101060000F900F900F90DF91CF911F910F91FF90F4
:10107000EF90DF90CF90BF90AF909F908F900895AA
:1010800081E00E94B406609370041F926F938BE41A
:1010900091E09F938F9381E08F930E94A3130F9011
:1010A0000F900F900F900F900C948C040E94CA0D1B
:1010B0001F928F9387EE90E09F938F9381E08F93A1
:1010C0000E94A3130F900F900F900F900F90089510
:1010D00081E00E94B40670936B0560936A05611508
:1010E000710581F41F921F9288E491E09F938F9382
:1010F00081E08F930E94A3130F900F900F900F9099
:101100000F900895AB01BC01662777278CE890E02B
:101110000E94E61880916B058F9380916A058F93EA
:1011200085E491E09F938F9381E08F930E94A313B6
:101130000F900F900F900F900F900C948C0481E003
:101140000E94B406862F0C94B50C0E94730E0C946A
:101150008C049F92AF92BF92CF92DF92EF92FF9258
:101160000F931F93CF93DF9300D000D0CDB7DEB79E
:1011700000E010E08EE2C82E81E0D82EEE24E39449
:1011800099E3A92E91E0B92E902E80916F048823C7
:1011900021F081E491E00E94E712F12C6F2D892D5E
:1011A0000E94A30F8823F1F180916F04882381F0BE
:1011B0001F92FF921F930F93BF92AF92EF920E94E4
:1011C000A3130E94A30E87E391E00E94E7121BC0C5
:1011D0001F92FF921F930F93DF92CF92EF920E9484
:1011E000A3130E94A30E8AE291E00E94E712CE01AF
:1011F00001960E94F81086E291E00E94E7120E9498
:10120000730E0E94F8120FB6F894DEBF0FBECDBF6A
:1012100080916F04882321F084E291E00E94E7121C
:10122000F394BCCF0F5F1F4F0530110509F0ACCF11
:101230000E948C040F900F900F900F90DF91CF9130
:101240001F910F91FF90EF90DF90CF90BF90AF90E4
:101250009F900895BF92CF92DF92EF92FF920F93EB
:101260001F93CF93DF93C0E0D0E085E0E82E81E0CC
:10127000F82E01E090E1C92E91E0D92EBC2E80918C
:101280006F04882321F088E191E00E94E71210E0CA
:10129000612F8B2D0E94A30F8823D9F180916F04B9
:1012A0008823C1F01F921F93DF93CF93DF92CF92D9
:1012B0000F930E94A3130E94A30E8EE091E00E9460
:1012C000E7128DB79EB707960FB6F8949EBF0FBE74
:1012D0008DBF15C01F921F93DF93CF93FF92EF92A4
:1012E0000F930E94A3130E94A30E0E94F8128DB7C1
:1012F0009EB707960FB6F8949EBF0FBE8DBF809124
:101300006F04882321F083E091E00E94E7121F5FC1
:10131000BFCF2196C530D10509F0B0CFDF91CF9175
:101320001F910F91FF90EF90DF90CF90BF900C94A2
:101330008C040E9491100C948C040E94EA0F882364
:1013400019F00E94A30E0DC00E94A30E8AE191E045
:101350009F938F9381E08F930E94A3130F900F9020
:101360000F900C948C04CF92DF92EF92FF920F9328
:101370001F93CF93DF93CDB7DEB728970FB6F894BE
:10138000DEBF0FBECDBF81E00E94B406062FCE01A6
:1013900001967C0112E06C01812F0E94B406F701D6
:1013A00061937F011F5F1A30B9F78981882319F093
:1013B000C6010E94150F602F80E00E94EB0E0E9474
:1013C0002A0928960FB6F894DEBF0FBECDBFDF9175
:1013D000CF911F910F91FF90EF90DF90CF900895E4
:1013E00081E00E94B406862F0E944A100E94730E6C
:1013F0000C948C04CF9381E00E94B406C62F82E047
:101400000E94B4068C2F0E94F0118FE99FE0019793
:10141000F1F700C000008C2F0E944A100E94730E4A
:10142000CF910C948C04DF92EF92FF920F931F9355
:10143000CF93DF930E941B12C0E0D0E08BEFE82E29
:1014400080E0F82E01E0DC2E8C2F0E94B50C10E01D
:101450000E94C1128823D9F0612F8D2D0E94EB0EBE
:101460001F921F93DF93CF93FF92EF920F930E94EF
:10147000A3130E94A30E0E94F8121F5F8DB79EB7A0
:1014800007960FB6F8949EBF0FBE8DBFE1CF219691
:10149000C530D105C1F6DF91CF911F910F91FF901B
:1014A000EF90DF900C948C040C94D40CCF9381E0DB
:1014B0000E94B406C62F82E00E94B4068C2FCF9102
:1014C0000C94490DCF92DF92EF92FF92CF9381E07F
:1014D0000E94B406C62F82E00E94B4066B017C0114
:1014E0008C2F0E94B50C4098C6010E94CF0C409AE8
:1014F000CF91FF90EF90DF90CF900895CF93DF933F
:101500001F92CDB7DEB781E00E94B40669830E94C6
:10151000560889810F90DF91CF910C94730D81E073
:101520000E94B4061F926F9382ED90E09F938F9379
:1015300081E08F930E94A3130E9456080F900F9092
:101540000F900F900F900C940A0ECF93DF931F9281
:10155000CDB7DEB781E00E94B4061F926F938BEB8C
:1015600090E09F938F9381E08F9369830E94A313F0
:101570000E9456086981862F0F900F900F900F9050
:101580000F900F90DF91CF910C94600E0F931F93EB
:101590000E94721420916A0530916B05890120E048
:1015A00030E060177107820793077CF08091700428
:1015B000882359F00E94691481E080936E040E9490
:1015C000CA0D1F910F910C943F0F1F910F91089519
:1015D000CF93DF931F92CDB7DEB780916E0488233F
:1015E00081F010926E0486EE91E00E94E7120E9454
:1015F000A9080E94EA0305C08981823549F40E9446
:101600005608CE0101960E9469168111F5CF18C0C7
:10161000833548F4833489F40E94FF1661E081E049
:101620000E940317E6CF833529F08A3531F40E94F2
:101630008304DFCF0E94130AE4CF0E948005E1CF2C
:101640000E946104CACF0E94461660E072EC81E0FD
:1016500090E00E942C1680E696E10E94C3120E9440
:10166000AB0380E696E10E94E5030E94FB160E9410
:10167000FF16EEE6F4E010821182128288EE93E00B
:1016800090936B0580936A050E944C1466EC7AE097
:1016900080E00E945E1485E00E94471483E284B9D2
:1016A0008CEF8BB98FEF87B988B92D986AED76E00A
:1016B00080E091E00E94C0036DE37CE085E091E072
:1016C0000E94C00362E377E089E091E00E94C003DA
:1016D00068E477E08FE091E00E94C00363E47CE07F
:1016E00085E191E00E94C00364E977E08BE191E03D
:1016F0000E94C00362E477E080E291E00E94C003B0
:1017000062EA77E085E291E00E94C00365EB77E052
:101710008AE291E00E94C00360ED77E08FE291E001
:101720000E94C00360E478E084E391E00E94C0037B
:1017300068E678E08BE391E00E94C00362E67AE01D
:1017400084E491E00E94C0036EE77AE08AE491E0CD
:101750000E94C0036FE87AE08FE491E00E94C0032A
:1017600065EA7AE084E591E00E94C0036DE979E0E2
:101770008AE591E00E94C00366E578E08EE591E09D
:101780000E94C0036AE279E084E691E00E94C0030F
:1017900065EA78E089E691E00E94C00363EB79E0B6
:1017A0008CE691E00E94C00368E377E081E791E076
:1017B0000E94C00369EA78E087E791E00E94C003D5
:1017C00069E979E08CE791E00E94C0036FE978E075
:1017D00081E891E00E94C00360EF79E085E891E044
:1017E0000E94C0036AEF79E088E891E00E94C0039C
:1017F00063E17AE08BE891E00E94C00364E57AE05F
:1018000085E991E00E94C00366E57AE082E991E013
:101810000E94C0030E945D0C0E9432070E94EA03EE
:101820000E94E80A0F931F93CF93DF93CDB7DEB7E3
:1018300064970FB6F894DEBF0FBECDBF8C0184E76E
:1018400091E00E94E71244E150E0B801CE01019618
:101850000E94B018CE0101960E94D91282E791E051
:101860000E94E71264960FB6F894DEBF0FBECDBF9C
:10187000DF91CF911F910F91089588E790E00E942A
:10188000120C0C948C0485E891E00E94E71288E722
:1018900090E00E94120C88E791E00E94E71284E633
:1018A00090E00E94120C0E9443140E94431486E7A9
:1018B00091E00E94E7120C948C04ECE6F5E089E0DC
:1018C0008E0F11928E13FDCFE5E7F5E088E08E0FC5
:1018D00011928E13FDCF409A419A429A449A459AAA
:1018E0008BB1809380058AB18093810589B1809303
:1018F000830582E0809382058FE890E00E94C818FB
:10190000909385058093840581E990E00E94C81832
:10191000909387058093860583E990E00E94C8181C
:10192000909389058093880585E990E00E94C81806
:1019300090938B0580938A0587E990E00E94C018F8
:1019400080938C0588E990E00E94C01880938D05F3
:1019500089E990E00E94C01880938E058AE990E0A2
:101960000E94C01880938F050895863058F49BB16B
:10197000909380059AB19093810599B190938305D6
:101980008E5F0AC095B19093800594B190938105C4
:1019900093B19093830586508093820508950197B3
:1019A00010F00000FCCF08951F93CF93DF9381E4E4
:1019B00096E09F938F9311E01F930E94A313CCE6B0
:1019C000D5E0898D8F93888D8F938BE296E09F93DE
:1019D0008F931F930E94A3138B8D8F938A8D8F9368
:1019E00085E196E09F938F931F930E94A3138D8DA3
:1019F0008F938C8D8F938FEF95E09F938F931F9391
:101A00000E94A3138F8D8F938E8D8F9389EE95E017
:101A10009F938F931F930E94A31388A11F928F936C
:101A200083ED95E09F938F931F930E94A31389A149
:101A30001F928F938DEB95E09F938F931F930E943E
:101A4000A3138DB79EB781960FB6F8949EBF0FBEB5
:101A50008DBF8AA11F928F9387EA95E09F938F9302
:101A60001F930E94A3138BA11F928F9381E995E08E
:101A70009F938F931F930E94A3138DB79EB70A96CF
:101A80000FB6F8949EBF0FBE8DBFDF91CF911F910F
:101A90000895F89490E0FC013197E830F105F8F4EE
:101AA000EC5CFF4F0C945E178FE890E002C081E978
:101AB00090E00E94EE1813C083E990E0FACF85E928
:101AC00090E0F7CF87E990E008C088E990E005C092
:101AD00089E990E002C08AE990E00E94D8180E944B
:101AE0005D0C789408951F93CF93DF93182F43983C
:101AF0009BB1C1E0D0E09E010090820502C0220FA0
:101B0000331F0A94E2F7822F809598239BB98AB1FC
:101B1000282B2AB980918C0590E00E94CF0C1123CC
:101B200059F08AB10090820502C0CC0FDD1F0A94E3
:101B3000E2F7C095C823CAB980918D0590E00E9454
:101B4000CF0C439A2AB181E090E00090820502C058
:101B5000880F991F0A94E2F7809582238AB9DF9152
:101B6000CF911F91089590E041E050E0815068F0DE
:101B700079B19A010090820502C0220F331F0A94A6
:101B8000E2F7272329B9920FF1CF81E0691708F016
:101B900080E00895CF93DF9340982AB1C1E0D0E070
:101BA000CE010090820502C0880F991F0A94E2F7C7
:101BB000922F982B9AB99BB1809589238BB98091EC
:101BC0008605909187050E94CF0C8AB1009082050E
:101BD00002C0CC0FDD1F0A94E2F7C095C823CAB932
:101BE00080918A0590918B050E94CF0C409A65E008
:101BF0008AE00E94B30DC82F40988091880590918B
:101C000089050E94CF0C409A81E0C11180E0DF91EC
:101C1000CF9108950F931F93CF93DF9341982BB1EA
:101C20000CE615E0C1E0D0E0CE01F801068802C064
:101C3000880F991F0A94E2F7982F909592239BB9E9
:101C40009AB1892B8AB981E090E00E94CF0C8AB1C9
:101C5000F801068802C0CC0FDD1F0A94E2F7C09598
:101C6000C823CAB982A190E00E94CF0C419A61E0DA
:101C700082E00E94B30DC82F4198F80183A190E043
:101C80000E94CF0C419A8C2FDF91CF911F910F9121
:101C90000895CF93DF93F8944298D9E0C0E0D150F3
:101CA00049F00E940A0E20E8829FC0011124C695C7
:101CB000C82BF5CF429A78948C2FDF91CF9108955D
:101CC000CF93DF93D82FF8944498C9E0C15031F0F6
:101CD0008D2F81700E94730DD695F8CF449A789419
:101CE000DF91CF910895CF92DF92EF92FF920F9301
:101CF0001F93CF938CE991E00E94D9128CE6C82EF5
:101D000085E0D82EC0E0F601E1906F01F12C00E0F3
:101D100010E020E240E063E08AE00E940313C83054
:101D200021F08EE991E00E94D912CF5FC93059F7B6
:101D300080EA91E0CF911F910F91FF90EF90DF909B
:101D4000CF900C94D912AF92BF92CF92DF92EF92C4
:101D5000FF921F93CF93DF9382EA91E00E94D91202
:101D6000C0E0D0E08EE8E82E85E0F82E11E09AE899
:101D7000C92E95E0D92E2CE8A22E25E0B22EFE0128
:101D8000E459FA4F81851F928F93FF92EF921F9330
:101D90000E94A3130F900F900F900F900F90C730D9
:101DA000D10519F4BF92AF9202C0DF92CF921F9378
:101DB0000E94A3130F900F900F902196C830D10569
:101DC000F1F6DF91CF911F91FF90EF90DF90CF90D0
:101DD000BF90AF9008950F931F93CF93DF93F89424
:101DE000C62FD0E09AE0899FC00DD11D112483E059
:101DF000CC0FDD1F8A95E1F700E010E02C96F8018A
:101E0000E459FA4FCE01800F911F618581579F4F92
:101E10000E94D8180F5F1F4F0830110581F7789482
:101E2000DF91CF911F910F910895E5E7F5E09C01B7
:101E3000275F3F4FDC014D91CD014193A217B307BE
:101E4000C9F708951F93CF93DF9380917505811192
:101E500006C08CECDF91CF911F910C94600E85E54C
:101E60000E94600EC5E7D5E01C2F185F89910E9483
:101E7000600E1C13FBCFDF91CF911F910895CF937C
:101E8000C0E08C2F0E94B50C8CEC0E94600E84E4A4
:101E90000E94600ECF5FC530A1F7CF91089598E002
:101EA00028E1362F382730FD02C0669503C062272F
:101EB0006695606886959150A1F7862F08958F9258
:101EC0009F92AF92BF92CF92DF92EF92FF920F93C9
:101ED0001F93CF93DF931F92CDB7DEB74C017B01E9
:101EE000FB011082C82E8C01D12C802F8C198417F5
:101EF00080F45801F7016081F80181918F014983D5
:101F00000E944F0FF7018083F5018081D80E49812F
:101F1000ECCFF401E40FF11D9081F701808198135B
:101F200003C081E0D11001C080E00F90DF91CF911C
:101F30001F910F91FF90EF90DF90CF90BF90AF90E7
:101F40009F908F900895CF92DF92EF92FF920F9320
:101F50001F93CF93DF931F92CDB7DEB7062F10E00C
:101F60009AE0899F000D111D112483E0000F111FBD
:101F70008A95E1F7E12CF12CC12CD12C045F1F4F85
:101F8000C8018E0D9F1D81579F4F0E94C018F701F9
:101F9000E459FA4F8187C80ED11C8FEFE81AF80A6E
:101FA00098E0E916F10461F7CD2849F047E0BE0159
:101FB0006F5F7F4F85E795E00E945F0F01C080E073
:101FC0000F90DF91CF911F910F91FF90EF90DF90D5
:101FD000CF900895FF920F931F93CF93DF931F929B
:101FE000CDB7DEB719820E94CA0D8CEC0E94600E3C
:101FF0000E94CA0D83E30E94600E05E715E088E0A9
:10200000F82EF00E0E94490EF80181938F01FE1206
:10201000F9CF47E0BE016F5F7F4F85E795E00E94F3
:102020005F0F0F90DF91CF911F910F91FF90089557
:10203000CF92DF92EF92FF921F93CF93DF931F9285
:10204000CDB7DEB7182F0E94220F8EEB0E94600ED4
:102050008CE6C82E85E0D82E76018E2D8C1981173E
:1020600030F40E94490EF70181937F01F6CF198267
:102070004FEF410FBE016F5F7F4F8CE695E00E94EE
:102080005F0F0F90DF91CF911F91FF90EF90DF9046
:10209000CF900895FF920F931F93CF93DF931F92DA
:1020A000CDB7DEB7182F0E94CA0D8CEC0E94600ECF
:1020B00089EF90E00197F1F700C0000088EB0E94E3
:1020C000600E812F0E94600E0E94CA0D8CEC0E944F
:1020D000600EE9EFF0E03197F1F700C000008EEB01
:1020E0000E94600E812F0E94600E0CE615E089E0D0
:1020F000F82EF00E0E94490EF80181938F01FE1216
:10210000F9CF198248E0BE016F5F7F4F8CE695E002
:102110000E945F0F0F90DF91CF911F910F91FF9061
:1021200008950E94CA0D8CEC0E94600E84E40E9407
:10213000600E89E698E10197F1F700C000000E9467
:10214000CA0D8CEC0E94600E84EB0E94600E89E642
:1021500098E10197F1F700C0000080E00E944A106A
:102160000E94730E0C94CA0DFF920F931F93CF938E
:10217000DF931F92CDB7DEB70E94CA0D0E94220FD7
:1021800089EF90E00197F1F700C0000088EB0E9412
:10219000600E80E00E94600E0E94CA0D0E94220F15
:1021A000E9EFF0E03197F1F700C000008EEB0E94FC
:1021B000600E80E00E94600E0CE615E089E0F82ECB
:1021C000F00E0E94490EF80181938F01FE12F9CFA3
:1021D000198248E0BE016F5F7F4F8CE695E00E9458
:1021E0005F0F0F90DF91CF911F910F91FF90089596
:1021F000DF92EF92FF920F931F93CF93DF93EC0147
:1022000087EE93E0998388838FE097E29B838A83AC
:102210000E94CA0D80917505803109F07BC089E06C
:102220000E941810D82E20916D0530E0322F222701
:1022300080916C05282B3983288380916D05359515
:10224000279539832883409172058F3F19F54C30CB
:1022500050F021E732E0429FC001439F900D1124CE
:102260008C549D4154C02F5F3F4F39832883609128
:10227000720541E752E0649FC001659F900D1124F3
:102280008C53964F9B838A83232B09F083C088E865
:1022900095E020C04D3090F12150310939832883D9
:1022A00080916C052091720581111EC041E752E0BA
:1022B000249FC001259F900D11248C549D419B8328
:1022C0008A8319821882809172058D3008F462C069
:1022D00086E895E09F938F9381E08F930E94A313EC
:1022E0000F900F900F9056C04FE85DEF249FC001F4
:1022F000259F900D1124845A9B4B09C02FE83DEF78
:10230000429FC001439F900D1124845B924E9B839A
:102310008A8340C0883201F589E00E941810D82EC7
:1023200080916D0590E0982F882720916C05822B75
:1023300034E0959587953A95E1F799838883809164
:102340006C058F7041E752E0849F9001859F300DAE
:1023500011243B832A831EC0863279F40E94B41074
:102360008823B1F080916E0590E0998388838091F5
:102370006D0590E09B838A830BC086E795E09F9371
:102380008F9381E08F930E94A3130F900F900F9073
:10239000DD24D39489818F9388818F9382E795E0A0
:1023A0009F938F9381E08F930E94A313EA80FB8019
:1023B0000F2C000C000B110B20E340E064E08AE0DE
:1023C0000E9403130F900F900F900F900F908D2D80
:1023D000DF91CF911F910F91FF90EF90DF900895C3
:1023E000CF93DF93D82FC62F0E94CA0D8CEC0E948A
:1023F000600E8EE40E94600E8D2F0E94600E8C2F66
:102400000E94600E81E08C0F0E94600E83E08C0FB2
:102410000E94600E84E08C0F0E94600E0E94CA0D24
:102420008CEC0E94600E88E40E94600E8D2FDF917C
:10243000CF910C94600EE5E7F5E088E08E0F1192E5
:102440008E13FDCF0895ACE6B5E09796EC91979783
:102450008E27E82FF0E0EC55FE4F808197968C9305
:102460000895FF920F931F93CF93DF9310929305DC
:1024700080919205811171C00E94CA0DC82F8111EF
:1024800012C083E695E09F938F9381E08F930E9423
:10249000A3131092900510929205109291050F903F
:1024A0000F900F9067C080EF0E94600ED1E010E0A7
:1024B000F12CC1E00E940A0E082F0E940A0E013082
:1024C00019F48130C1F43BC0212F30E008131DC046
:1024D00080919005C81738F4F901E459FA4F8185C5
:1024E0008D2349F402C0C81731F000E0C93060F410
:1024F000C093910509C0E12FF0E0E459FA4F8185BE
:102500008D2B818701E009C0FC2EF901E459FA4FB7
:1025100091858D2F809589238187802F0E94730D4F
:10252000CF5FDD0F49F4E12FF0E0E459FA4F8185E8
:102530000E9423121F5FD1E0183008F4BBCFC134D2
:1025400060F080919305811108C0F0929005F11020
:102550000CC08FEF8093920508C0109290051092E6
:10256000920510929105C0E005C080917505882301
:10257000A1F3CFEF8C2FDF91CF911F910F91FF909F
:1025800008950C9431129093D7038093D603089545
:10259000CF93C82F8A3031F4E091D603F091D7035E
:1025A0008DE00995E091D603F091D7038C2FCF9160
:1025B0000994CF93DF93009739F0EC018991882338
:1025C00019F00E94C812FACFDF91CF910895CF93EE
:1025D000DF93009751F0FC018491EF01219688234D
:1025E00021F00E94C812FE01F7CFDF91CF9108952C
:1025F0008AE00C94C8128F70E82FF0E0EE5AF94F81
:1026000084910C94C8123F924F925F926F927F9286
:102610008F929F92AF92BF92CF92DF92EF92FF92F2
:102620000F931F93CF93DF93CDB7DEB7A0970FB66D
:10263000F894DEBF0FBECDBF482EC62E822E442397
:1026400051F017FF08C066277727CB016E197F0965
:10265000800B910B02C0C801B701992493944111DA
:1026600001C0912CDD24DA94DC0CD91818A2512C6D
:10267000612C712CA30192010E943C17FB01EF70A9
:10268000FF27EE5AF94F64916F8FB901CA015E01BD
:102690002EE1A20EB11C3D2C3A942FEF3216D1F050
:1026A000611571058105910579F0A30192010E94E0
:1026B0003C17FB01EF70FF27EE5AF94F6491F501CB
:1026C0006083B901CA0102C0F5018082F1E0AF1A4E
:1026D000B108E2CFCE014F968D199109992069F08A
:1026E000FC01319717FF02C02DE205C0EF28E02A58
:1026F000E12A39F02BE22083CF017C011C2D180F39
:1027000002C020E2F8CF1E1531F0F70181917F0160
:102710000E94C812F8CFA0960FB6F894DEBF0FBE85
:10272000CDBFDF91CF911F910F91FF90EF90DF9080
:10273000CF90BF90AF909F908F907F906F905F9061
:102740004F903F9008955F926F927F928F929F92E9
:10275000AF92BF92CF92DF92EF92FF920F931F93AF
:10276000CF93DF931F92CDB7DEB7EC89FD893E0191
:1027700026E1620E711C3AE0A32EB12C3B89332373
:1027800081F08F010F5F1F4F8491853289F088237C
:1027900009F466C00E94C812630178013601F7018E
:1027A000EDCF8081853259F08F010F5F1F4FEFCF42
:1027B0007F0182E0E80EF11CF801849105C07F01E1
:1027C00022E0E20EF11C81818436A1F0883761F0AD
:1027D000833631F4F301808193012E5F3F4F39013D
:1027E0000E94C8126301DACF20E1822E912C00E012
:1027F00010E105C09AE0892E912C00E117E26301F7
:1028000032E0C30ED11CF301608071808436A1F4E4
:1028100077FE0FC07194619471088DE20E94C81216
:1028200008C0C801B5010E9428178B0162307105EC
:1028300018F060167106A8F3C301B8010E942817AA
:10284000582E862F99830E94FB12652C9981792E30
:10285000C801B4010E9428178B01672B69F79ECF2E
:1028600080E090E00F90DF91CF911F910F91FF904A
:10287000EF90DF90CF90BF90AF909F908F907F9020
:102880006F905F90089580E596E00C94E71295B5FF
:10289000987F892B85BD089582E00E94471416BC5D
:1028A000EEE6F0E0808181608083109294051092C2
:1028B0009505109296051092970508958A3040F478
:1028C000E82FF0E0EE0FFF1FE852FC4F71836083AA
:1028D0000895109294051092950510929605109205
:1028E00097050895609194057091950580919605DE
:1028F0009091970508951F920F920FB60F92112491
:102900002F933F934F935F936F937F938F939F93F7
:10291000AF93BF93EF93FF938091940590919505AA
:10292000A0919605B09197050196A11DB11D8093C8
:10293000940590939505A0939605B0939705809183
:10294000980590919905A0919A05B0919B050196E3
:10295000A11DB11D8093980590939905A0939A05A8
:10296000B0939B058091D8039091D903892B29F0CE
:10297000E091D803F091D9030995FF91EF91BF91B0
:10298000AF919F918F917F916F915F914F913F9107
:102990002F910F900FBE0F901F9018951F920F92BE
:1029A0000FB60F9211242F933F934F935F936F9322
:1029B0007F938F939F93AF93BF93EF93FF938091F8
:1029C0009C0590919D05A0919E05B0919F05019653
:1029D000A11DB11D80939C0590939D05A0939E051C
:1029E000B0939F058091E6039091E703892B29F02E
:1029F000E091E603F091E7030995FF91EF91BF9114
:102A0000AF919F918F917F916F915F914F913F9186
:102A10002F910F900FBE0F901F9018951F920F923D
:102A20000FB60F9211242F933F934F935F936F93A1
:102A30007F938F939F93AF93BF93EF93FF93809177
:102A4000DA039091DB03892B29F0E091DA03F0910E
:102A5000DB030995FF91EF91BF91AF919F918F910A
:102A60007F916F915F914F913F912F910F900FBE8A
:102A70000F901F9018951F920F920FB60F9211246E
:102A80002F933F934F935F936F937F938F939F9376
:102A9000AF93BF93EF93FF938091DC039091DD039D
:102AA000892B29F0E091DC03F091DD030995FF917A
:102AB000EF91BF91AF919F918F917F916F915F91B6
:102AC0004F913F912F910F900FBE0F901F9018952F
:102AD0001F920F920FB60F9211242F933F934F9393
:102AE0005F936F937F938F939F93AF93BF93EF9376
:102AF000FF938091E0039091E103892B29F0E0910D
:102B0000E003F091E1030995FF91EF91BF91AF913F
:102B10009F918F917F916F915F914F913F912F91F5
:102B20000F900FBE0F901F9018951F920F920FB627
:102B30000F9211242F933F934F935F936F937F9343
:102B40008F939F93AF93BF93EF93FF938091E20393
:102B50009091E303892B29F0E091E203F091E303E4
:102B60000995FF91EF91BF91AF919F918F917F91C7
:102B70006F915F914F913F912F910F900FBE0F90EA
:102B80001F9018951F920F920FB60F9211242F933A
:102B90003F934F935F936F937F938F939F93AF93E5
:102BA000BF93EF93FF938091E4039091E503892B0A
:102BB00029F0E091E403F091E5030995FF91EF918D
:102BC000BF91AF919F918F917F916F915F914F9145
:102BD0003F912F910F900FBE0F901F9018951F924D
:102BE0000F920FB60F9211242F933F934F935F9341
:102BF0006F937F938F939F93AF93BF93EF93FF93C5
:102C00008091E8039091E903892B29F0E091E80392
:102C1000F091E9030995FF91EF91BF91AF919F91D9
:102C20008F917F916F915F914F913F912F910F9075
:102C30000FBE0F901F90189540E450E06EE274E0D4
:102C400081EA95E00E94590340E450E06EEE73E0A3
:102C50008AEA95E00C94590322E02093C00028E909
:102C60002093C1009B01AC0183E0220F331F441F5E
:102C7000551F8A95D1F760E074E284EF90E00E94DE
:102C80003C1721502093C400789408950E941C168C
:102C90001092ED031092EC0388ED8093C10060E088
:102CA00072EC81E090E00E942C168FEF8093A005DB
:102CB0001092A9051092B3051092B2057894089568
:102CC0009091C00095FFFCCF8093C6001092A005A4
:102CD0000895CF93DF932091A3053091A405232B72
:102CE00071F02091A5053091A605232B41F0EC0150
:102CF00081EA95E00E94660388838FEF01C080E03F
:102D0000DF91CF9108951F920F920FB60F92112469
:102D10002F933F934F935F936F937F938F939F93E3
:102D2000AF93BF93EF93FF938091A905882379F028
:102D30008091AE059091AF05892B39F08AEA95E034
:102D40000E9466038093C60005C01092A9058FEF0C
:102D50008093A005FF91EF91BF91AF919F918F91CB
:102D60007F916F915F914F913F912F910F900FBE87
:102D70000F901F9018951F920F920FB60F9211246B
:102D80002F933F934F935F936F937F938F939F9373
:102D9000AF93BF93EF93FF938091C6002091EC0314
:102DA0003091ED03232B31F0E091EC03F091ED0332
:102DB000099510C0682F81EA95E00E948A0381116D
:102DC00009C08091B2059091B30501969093B30527
:102DD0008093B205FF91EF91BF91AF919F918F9139
:102DE0007F916F915F914F913F912F910F900FBE07
:102DF0000F901F90189581E796E00C94E7128CE6EF
:102E000096E00C94E7121F926F931F928F9383E6C4
:102E100096E09F938F9381E08F930E94A3138DB7C9
:102E20009EB707960FB6F8949EBF0FBE8DBF08954C
:102E3000DB018F939F930E946417BF91AF91A29F74
:102E4000800D911DA39F900DB29F900D11240895A8
:102E5000AA1BBB1B51E107C0AA1FBB1FA617B707C0
:102E600010F0A61BB70B881F991F5A95A9F78095DC
:102E70009095BC01CD010895A1E21A2EAA1BBB1B9F
:102E8000FD010DC0AA1FBB1FEE1FFF1FA217B30736
:102E9000E407F50720F0A21BB30BE40BF50B661F4C
:102EA000771F881F991F1A9469F760957095809510
:102EB00090959B01AC01BD01CF010895EE0FFF1F5E
:102EC0000590F491E02D09940E946F17A59F900D35
:102ED000B49F900DA49F800D911D11240895A29F71
:102EE000B001B39FC001A39F700D811D1124911DDE
:102EF000B29F700D811D1124911D0895A0E0B0E0D6
:102F0000E4E8F7E10C94F3185C016B017A016115B8
:102F1000710519F0FB0191838083E114F10429F01C
:102F2000C7010297839708F0F1C0E5012196F501EA
:102F30001081812F90E00E948F18892B11F05E0183
:102F4000F4CF1D3229F42196F501118101E007C06B
:102F50001B3221F4E5012296F501118100E0E11414
:102F6000F10459F1F0E1EF16F10461F41033E1F4EA
:102F700088818F7D883569F519812296026070E11C
:102F8000E72EF12C88E0E816F10439F12CF4F2E098
:102F9000EF16F104C9F12AC08AE0E816F10479F0CD
:102FA000E0E1EE16F10411F550E1E52EF12C812C53
:102FB000912CA12C68E0B62E2CC01033C9F23AE057
:102FC000E32EF12C4CEC842E982CA82C4CE0B42E43
:102FD00020C010E3E114F104A9F698E0E92EF12CE9
:102FE000812C912CA12C20E1B22E13C060E070E066
:102FF00080E090E897010F2C000C440B550B0E94C9
:103000003C1749015A0105C0812C912CA12C80E468
:10301000B82E60E020E030E0A90127010F2C000C61
:10302000660877081E01E0EDE10FEA3060F08FEBF3
:10303000810F8A3110F4E9EC05C08FE9810F8A31E4
:1030400028F5E9EAE10F8E2F90E08E159F05F4F444
:1030500067FD18C082169306A406B50690F0C3015A
:10306000B2010E9418179B01AC012E0F311D411DAA
:10307000511D213031054105F0E85F0710F461E092
:1030800001C06FEF2196F1011081CCCF802F8170AC
:10309000C114D10471F0662329F02197F601D18380
:1030A000C08307C001FF19C02297F601D183C083F6
:1030B00014C067FF12C0811105C02FEF3FEF4FEF23
:1030C0005FE704C020E030E040E050E882E290E0BA
:1030D0009093B5058093B40516C0882341F05095B0
:1030E0004095309521953F4F4F4F5F4F0CC057FF94
:1030F0000AC082E290E09093B5058093B4052FEF6B
:103100003FEF4FEF5FE7B901CA0104C060E070E034
:1031100080E090E0CDB7DEB7E2E10C940F19911199
:103120000C94AD18803219F089508550C8F7089575
:10313000FB01DC0101900D920020E1F70895FB01F5
:10314000DC014150504030F08D910190801919F40C
:103150000020B9F7881B990B0895992788270895AF
:10316000DC01CB01FC01F999FECF06C0F2BDE1BD47
:10317000F89A319600B40D9241505040B8F7089536
:10318000F999FECF92BD81BDF89A992780B508952F
:10319000A8E1B0E042E050E00C94B218DC01CB01B1
:1031A00003C02D910E94D91841505040D0F7089586
:1031B000262FF999FECF1FBA92BD81BD20BD0FB653
:1031C000F894FA9AF99A0FBE01960895242F0E9456
:1031D000D918252F0E94D9180C94EE180E94D818DF
:1031E000272F0C94D9182F923F924F925F926F9293
:1031F0007F928F929F92AF92BF92CF92DF92EF9287
:10320000FF920F931F93CF93DF93CDB7DEB7CA1B07
:10321000DB0B0FB6F894DEBF0FBECDBF09942A8832
:10322000398848885F846E847D848C849B84AA84DA
:10323000B984C884DF80EE80FD800C811B81AA8167
:10324000B981CE0FD11D0FB6F894DEBF0FBECDBF32
:08325000ED010895F894FFCF91
:1032580068656C700069646E0067657466770073F2
:103268006574736E00676574736E007465737400BB
:103278006A736F6E00706F6B65007065656B0064D4
:10328800756D700073747265616D00696E74657236
:1032980076616C0064656C617900776269740072AC
:1032A80062697400776279746500726F6D00726587
:1032B800736574006C6F6164007370007361766588
:1032C8000073746172740074656D70006461746178
:1032D8000070696E007270007770007365617263C8
:1032E800680073657474696D696E67005B002C0013
:1032F8005D002200005EBCE2613FDD83C29C7E204F
:10330800A3FD1F419DC3217FFCA2401E5F01E3BDB9
:103318003E6082DC237D9FC1421CFEA0E1BF5D03AD
:1033280080DE3C62BEE0025CDF81633D7C22C09EA1
:103338001D43A1FF4618FAA427799BC584DA38668D
:10334800E5BB5907DB856739BAE406581947A5FB79
:103358007826C49A653BD987045AB8E6A7F91B456D
:10336800C6987A24F8A6441A99C7257B3A6486D861
:103378005B05E7B98CD2306EEDB3510F4E10F2AC4D
:103388002F7193CD114FADF3702ECC92D38D6F3139
:10339800B2EC0E50AFF1134DCE90722C6D33D18F2D
:1033A8000C52B0EE326C8ED0530DEFB1F0AE4C1221
:1033B80091CF2D73CA947628ABF517490856B4EA0D
:1033C8006937D58B5709EBB536688AD495CB2977F9
:1033D800F4AA4816E9B7550B88D6346A2B7597C9ED
:1033E8004A14F6A8742AC896154BA9F7B6E80A54E1
:0433F800D7896B35D1
:00000001FF
