:100000000C9480030C949D030C949D030C949D030D
:100010000C949D030C949D030C949D030C94DB168F
:100020000C949D030C94BA150C94AE160C945416B3
:100030000C9481160C949D030C94FA150C942716BD
:100040000C9467150C949D030C94A7170C949D03B6
:100050000C946F170C949D030C949D030C949D03BA
:100060000C949D030C949D03B00DB30DB80DBB0D06
:10007000BE0DC10DC40DC70D220022007D3C2F25F1
:10008000643E003C25643E7B22636D64223A22007C
:10009000222C202264617461223A2000636F6D6D0E
:1000A000616E64206E6F7420666F756E64004552D9
:1000B000524F523A2000636D643E004F6E6557699F
:1000C0007265577269746542797465203D202564B4
:1000D0000A004F6E655769726552656164426974C2
:1000E000203D2025640A00746865726D5F72657337
:1000F00065742829203D2025640A005B25642C2591
:10010000642C005D0025642C2025642C20005D00FB
:100110005B25642C25642C005B0043524320457210
:10012000726F72005D00203A2000203A20002564A2
:100130002C2025642C20005D005B25642C25642C7C
:10014000005B0031002564002564002564000D0A71
:10015000000D0A0020307825780030782578257841
:100160002030782578005B25642C22307825782291
:100170005D00220022007D002C226C6F6361746997
:100180006F6E223A007B22534E223A002245525291
:100190004F52202D20496E76616C69642073796E10
:1001A000746178206C6162656C205B617C627C6448
:1001B0007C697C6C7C735D206465764E756D206C0B
:1001C0006162656C5F746578742200224F4B220077
:1001D000224F4B2200226F776972652031352E3114
:1001E000322E313222006F7774656D70222C2264BA
:1001F000617461223A007770202020202020202086
:1002000020202020203A2077726974652064617470
:100210006120746F2073706563696669656420701E
:100220006167650A00727020202020202020202095
:10023000202020203A207265616420737065636914
:1002400066696320706167652066726F6D20333860
:100250003234206465766963650A006461746120E4
:10026000202020202020202020203A207265616458
:1002700020646174612066726F6D203338323420DF
:100280006465766963650A0074656D7020202020BE
:10029000202020202020203A20726561642074658F
:1002A0006D7065726174757265730A007374617242
:1002B00074202020202020202020203A20737461E8
:1002C00072742074656D7065726174757265206DED
:1002D0006561737572656D656E740A00736176652C
:1002E00020202020202020202020203A207361760A
:1002F00065207363726174636870616420746F2039
:10030000656570726F6D0A007370202020202020B8
:10031000202020202020203A2073686F77207363EC
:100320007261746368207061640A006C6F6164209C
:10033000202020202020202020203A206C6F616483
:1003400020656570726F6D20636F6E74656E740AE0
:1003500000726F6D202020202020202020202020CF
:100360003A207265616420726F6D206F6620612093
:1003700073696E676C65206465766963650A000A57
:100380000A4F6E657769726520436F6D6D616E64AB
:10039000733A0A0073747265616D2020202020205A
:1003A00020202020203A20737461727420737472AC
:1003B00065616D696E670A00746573742020202082
:1003C0002020202020202020203A207465737420D3
:1003D00066756E6374696F6E0A00706F6B65205B83
:1003E0007265675D205B76616C5D203A2073657491
:1003F000732072656769737465722076616C7565C8
:1004000020746F205B76616C5D200A007065656BFF
:10041000205B7265675D202020202020203A20721A
:10042000657475726E73206465632C20686578202E
:10043000616E642062696E2076616C7565206F66FE
:100440002072656769737465720A0074657374203D
:100450002020202020202020202020203A207465E9
:1004600073742066756E6374696F6E0A0069646EDA
:1004700020202020202020202020202020203A2062
:100480007072696E7473206465766963652049448F
:1004900020616E642076657273696F6E20696E6686
:1004A0006F0A000A436F6D6D616E64733A0A005AF9
:1004B000202020202020202020202020202020203C
:1004C0003A20726573657420636F6D6D616E642090
:1004D0006E756D62657220746F207A65726F0A00A6
:1004E00053202020202020202020202020202020D9
:1004F000203A20706572666F726D2062696E61725B
:1005000079207365617263680A00522020202020E0
:1005100020202020202020202020203A2073656EDB
:10052000642072657365742070756C73650A00438E
:1005300020202020202020202020202020202020BB
:100540003A20636C6561722073637265656E0A00A0
:10055000496E7374616E7420636F6D6D616E647348
:100560003A0A00746865726D5F7265736574282954
:100570000A0025642E00224445565F4E4F545F46C4
:100580004F554E4422002D002D002E0022002564E0
:100590000044532E746865726D5F70696E20203D53
:1005A0002025640A00504F5254442020202020204F
:1005B0002020203D2025640A0044532E7468657273
:1005C0006D5F70696E20203D2025640A00504F52F7
:1005D00054442020202020202020203D2025640A73
:1005E0000044532E746865726D5F706F7274203DA5
:1005F0002025640A0044445244202020202020204A
:100600002020203D2025640A0044532E7468657222
:100610006D5F64647220203D2025640A003038201C
:10062000745F726561645F736C6F7420203A20257B
:10063000640A00303720745F726561645F73616DB6
:100640007020203A2025640A00303620745F7772CB
:100650006974655F736C6F74203A2025640A0030FA
:100660003520745F77726974655F6C6F7720203A0C
:100670002025640A00303420745F72657365745FEE
:1006800064656C61793A2025640A00303320745F18
:1006900072657365745F72782020203A2025640AA1
:1006A00000303220745F72657365745F7478202047
:1006B000203A2025640A00303120745F636F6E7623
:1006C000202020202020203A2025640A000A3157CB
:1006D0006972652054696D696E670A005D0030318A
:1006E0003233343536373839414243444546001BAE
:1006F0005B25643B256448001B5B324A001B63009A
:1007000011241FBECFEFD8E0DEBFCDBF12E0A0E0C6
:10071000B1E0E0E3F4E302C005900D92AE3AB10718
:10072000D9F725E0AEEAB2E001C01D92A23FB207C0
:10073000E1F70E94790B0C94161A0C940000FC014E
:100740008FB7F89471836083538342831782168234
:10075000158214828FBF0895FC019FB7F8944481DD
:10076000558141155105C9F026813781A081B1819C
:10077000A20FB31F8C912F5F3F4F37832683628177
:1007800073812617370720F0261B370B3783268304
:10079000415051095583448301C080E09FBF0895B3
:1007A000FC01362F2FB7F894A481B5816281738143
:1007B000A617B70798F4868197818A0F9B1F0E941E
:1007C0001418A081B181A80FB91F3C938481958131
:1007D0000196958384832FBF8FEF08952FBF80E00C
:1007E00008951092B1041092AD041092B2041092C8
:1007F000AF041092AE041092B00410920E04109246
:100800000F0410921004109211040895EF92FF92B9
:100810001F93CF93DF937B011091B004C12FD0E0E1
:100820009E0143E0220F331F4A95E1F7BC01C90145
:100830008A509D4F0E948419CC0FDD1FC055DD4F9B
:10084000F982E8821F5F1093B004DF91CF911F916E
:10085000FF90EF9008959093AF028093AE020895B9
:10086000CF93DF938091AB048823E9F0809111044A
:100870008F93809110048F9380910F048F938091B8
:100880000E048F9383E890E09F938F9381E08F9382
:100890000E948F148DB79EB707960FB6F8949EBF2F
:1008A0000FBE8DBF10C0C6EBD0E0CE01FE0124917B
:1008B000222349F02196FC018491E091AE02F0914F
:1008C000AF020995F2CFDF91CF9108951F93CF9397
:1008D000DF93E091AE02F091AF028DE009950E94A6
:1008E00030041091AD04C3EBD4E01C0F1C1739F099
:1008F000E091AE02F091AF0289910995F7CFDF91B7
:10090000CF911F910895882319F0813059F00895EF
:100910008091B3048823D1F063EB74E083E095E029
:100920000C94841963E075E083EB94E00E948419D1
:10093000E3EBF4E001900020E9F73197E35BF4404A
:10094000E093AD04E093B2040C9466040895E09142
:10095000AE04F091AF04309739F009951092AF04CE
:100960001092AE040C943004089580910E0490917E
:100970000F04A0911004B09111040196A11DB11DA6
:1009800080930E0490930F04A0931004B09311046D
:10099000089510920E0410920F04109210041092F9
:1009A000110408958091AB048823F9F0809111041B
:1009B0008F93809110048F9380910F048F93809177
:1009C0000E048F938CE790E09F938F9381E08F9339
:1009D0000E948F140E94E4138DB79EB707960FB63E
:1009E000F8949EBF0FBE8DBF02C00E94E4130C940A
:1009F000B504CF93DF938091AB048823E1F080911D
:100A000011048F93809110048F9380910F048F9322
:100A100080910E048F938AE790E09F938F9381E0FB
:100A20008F930E948F148DB79EB707960FB6F894D8
:100A30009EBF0FBE8DBFCEEAD0E0CE01FE01249155
:100A4000222349F02196FC018491E091AE02F091BD
:100A5000AF020995F2CFC3EBD4E08991982F9F7D27
:100A6000E091AE02F091AF02992311F00995F5CF14
:100A70008AE30995E091AE02F091AF0280E2099518
:100A8000CCE9D0E0CE01FE012491222349F0219649
:100A9000FC018491E091AE02F091AF020995F2CF92
:100AA0008091AB04882359F088E790E09F938F935F
:100AB00081E08F930E948F140F900F900F90DF9121
:100AC000CF910C94D204BF92CF92DF92EF92FF921B
:100AD0000F931F93CF93DF9380E00E94830480E005
:100AE000C82ED12CF601ED54FB4F90819F7D11F063
:100AF0008F5FF6CF9091AB04811105C091113CC07E
:100B00000E94E4132EC0913029F480E990E00E9405
:100B1000D31302C00E94E413B090B00496EFE92E04
:100B200092E0F92E00E010E00B15C8F4E801A601F0
:100B300063EB74E0C7010E948B190F5F1F4F28E021
:100B4000E20EF11C892B81F7CC0FDD1FC055DD4F64
:100B5000888199819093AF048093AE040DC00E9468
:100B6000F904DF91CF911F910F91FF90EF90DF90EB
:100B7000CF90BF900C943004DF91CF911F910F91D3
:100B8000FF90EF90DF90CF90BF900895CF93C82F44
:100B90008091B1048230B9F5C33441F0C43409F115
:100BA000C13471F581E00E9483042AC08091B204AF
:100BB0009091AD04E091AE02F091AF028917F0F48C
:100BC0008F5F8093B2048BE10995E091AE02F091C2
:100BD000AF028BE50995E091AE02F091AF0283E49C
:100BE0000EC08091B204E091AE02F091AF02882372
:100BF00029F081508093B20488E001C087E0099514
:100C00001092B104CFC0813021F4CB3511F482E0D1
:100C1000C7C01092B10480EE8C0F8F3508F047C02A
:100C20004091B2048091AD04481316C0E091AE0229
:100C3000F091AF028C2F0995E091B20481E08E0F04
:100C40008093B204F0E0ED54FB4FC0838091AD047B
:100C50008F5F8093AD04A6C08F5F8093AD0448176B
:100C600060F4A82FB0E0AD54BB4F9D012150310975
:100C7000F90190819C938150F2CF81E0840F8093A1
:100C8000B204E42FF0E0ED54FB4FC0830E946604F1
:100C9000C091B2048091AD04C81708F083C0E09100
:100CA000AE02F091AF0288E00995CF5FF3CFCA3072
:100CB00011F0CD30B1F4E091AD0481E08E0F80935E
:100CC000AD04F0E0ED54FB4F10828091B2048F5FD1
:100CD0008093B2040E9463051092AD041092B20496
:100CE00061C0CF3719F0C83009F057C08091B20405
:100CF000882309F44BC09091AD0489131DC0E09185
:100D0000AE02F091AF0288E00995E091AE02F09159
:100D1000AF0280E20995E091AE02F091AF0288E067
:100D200009958091AD0481508093AD048091B20407
:100D300081508093B20436C091509093AD0481509D
:100D40008093B204891740F4E82FF0E0ED54FB4F94
:100D5000218120838F5FF6CF0E946604E091AE026E
:100D6000F091AF0280E20995C091B2048091AD0488
:100D700090E02C2F30E082179307A4F0E091AE02B0
:100D8000F091AF0288E00995CF5FF0CFE091AE021D
:100D9000F091AF0287E0CF910994CB3119F481E053
:100DA0008093B104CF91089590E0E92FF0E0ED54E5
:100DB000FB4F2081203211F49F5FF7CF20E02817EE
:100DC000A1F0E92FF0E0ED54FB4F30813F7D11F0B1
:100DD0009F5FF7CFE92FF0E0ED54FB4F30813032C9
:100DE00011F49F5FF7CF2F5FEACF892F90E08D54EA
:100DF0009B4F0895CF93DF9300D0CDB7DEB70E940D
:100E0000D4064AE050E0BE016F5F7F4F0E946A182F
:100E10000F900F90DF91CF910895CF93DF9300D083
:100E2000CDB7DEB70E94D40640E150E0BE016F5F4F
:100E30007F4F0E946A180F900F90DF91CF91089515
:100E400080E595E00E94D3138FE295E00E94D313D2
:100E50008AE095E00E94D31380EE94E00E94D313C1
:100E60008FEA94E00E94D31383EA94E00E94D313A4
:100E70008DE694E00E94D3138BE494E00E94D31398
:100E80008CE094E00E94D3138AED93E00E94D31388
:100E900088EB93E00E94D31384E993E00E94D3137C
:100EA0008FE793E00E94D31381E593E00E94D31370
:100EB0008BE293E00E94D31388E093E00E94D31367
:100EC0008CED92E00E94D3138CEA92E00E94D3133F
:100ED00088E892E00E94D3138BE592E00E94D3133E
:100EE00085E292E00E94D31386EF91E00C94D31335
:100EF00085ED91E00E94D3130C94D2040E94B40EAD
:100F00000E94291083E491E00E94D3130C94D20430
:100F100081E00E94FA066093AB0408950F931F933B
:100F2000CF93DF93CDB7DEB764970FB6F894DEBFEB
:100F30000FBECDBF81E00E94D4068C0182E00E94EA
:100F4000FA0683E00E94D406BC01F80180818C3649
:100F500079F4CE0101960E94841944E150E064E6E0
:100F600070E0CE0101960E94BA1980ED91E013C0A5
:100F7000833779F4CE0101960E94841944E150E050
:100F800068E770E0CE0101960E94BA198BEC91E0FF
:100F900002C08CE891E00E94D3130E94D2046496B0
:100FA0000FB6F894DEBF0FBECDBFDF91CF911F917A
:100FB0000F91089581E00E94FA0682E00E94FA06ED
:100FC0000C94CF0DCF92DF92EF92FF9281E00E94BE
:100FD0000D076B017C0182E00E940D07F601608322
:100FE000FF90EF90DF90CF90089581E00E940D0771
:100FF000FB0180811F928F931F928F9386E691E071
:101000009F938F9381E08F930E948F148DB79EB72B
:1010100007960FB6F8949EBF0FBE8DBF0C94D204F6
:101020008F929F92AF92BF92CF92DF92EF92FF92F8
:101030000F931F93CF93DF9381E00E940D07EB0185
:1010400082E00E940D077B0110E084E5C82E81E05C
:10105000D82E01E09AE5A92E91E0B92E21E5822E45
:1010600021E0922EEC16FD0698F18881111116C030
:101070001F928F93CE0199279F938F931F92DF9397
:10108000BF92AF920F930E948F148DB79EB70996AF
:101090000FB6F8949EBF0FBE8DBF0CC01F928F93EA
:1010A000DF92CF920F930E948F140F900F900F90AA
:1010B0000F900F901F5F183049F49F928F920F93FB
:1010C0000E948F140F900F900F9010E02196CACFBE
:1010D0008EE491E09F938F9381E08F930E948F1411
:1010E0000F900F900F90DF91CF911F910F91FF9074
:1010F000EF90DF90CF90BF90AF909F908F9008952A
:1011000081E00E94FA066093AC041F926F938BE417
:1011100091E09F938F9381E08F930E948F140F90A3
:101120000F900F900F900F900C94D2040E94B40E69
:101130001F928F9387EE90E09F938F9381E08F9320
:101140000E948F140F900F900F900F900F900895A2
:1011500081E00E94FA067093A7056093A6056115C9
:10116000710581F41F921F9288E491E09F938F9301
:1011700081E08F930E948F140F900F900F900F902B
:101180000F900895AB01BC01662777278CE890E0AB
:101190000E94D2198091A7058F938091A6058F9305
:1011A00085E491E09F938F9381E08F930E948F1449
:1011B0000F900F900F900F900F900C94D20481E03D
:1011C0000E94FA06862F0C94110D0E945D0F0C945C
:1011D000D2049F92AF92BF92CF92DF92EF92FF9292
:1011E0000F931F93CF93DF9300D000D0CDB7DEB71E
:1011F00000E010E08EE2C82E81E0D82EEE24E394C9
:1012000099E3A92E91E0B92E902E802F0E94110D06
:101210008091AB04882321F081E491E00E94D313F4
:10122000F12C6F2D892D0E948F108823F1F1809170
:10123000AB04882381F01F92FF921F930F93BF92FC
:10124000AF92EF920E948F140E948D0F87E391E07E
:101250000E94D3131BC01F92FF921F930F93DF9224
:10126000CF92EF920E948F140E948D0F8AE291E03C
:101270000E94D313CE0101960E94E41186E291E010
:101280000E94D3130E945D0F0E94E4130FB6F894DE
:10129000DEBF0FBECDBF8091AB04882321F084E276
:1012A00091E00E94D313F394BCCF0F5F1F4F053022
:1012B000110509F0A9CF0E94D2040F900F900F9052
:1012C0000F90DF91CF911F910F91FF90EF90DF90E2
:1012D000CF90BF90AF909F900895BF92CF92DF9232
:1012E000EF92FF920F931F93CF93DF93C0E0D0E074
:1012F00085E0E82E81E0F82E01E090E1C92E91E032
:10130000D92EBC2E8091AB04882321F088E191E096
:101310000E94D31310E0612F8B2D0E948F10882321
:10132000D9F18091AB048823C1F01F921F93DF9302
:10133000CF93DF92CF920F930E948F140E948D0F54
:101340008EE091E00E94D3138DB79EB707960FB63B
:10135000F8949EBF0FBE8DBF15C01F921F93DF93E1
:10136000CF93FF92EF920F930E948F140E948D0FE4
:101370000E94E4138DB79EB707960FB6F8949EBFF0
:101380000FBE8DBF8091AB04882321F083E091E0F4
:101390000E94D3131F5FBFCF2196C530D10509F03E
:1013A000B0CFDF91CF911F910F91FF90EF90DF9021
:1013B000CF90BF900C94D2040E947D110C94D20463
:1013C0000E94D610882319F00E948D0F0DC00E9434
:1013D0008D0F8AE191E09F938F9381E08F930E941C
:1013E0008F140F900F900F900C94D204CF92DF9235
:1013F000EF92FF920F931F93CF93DF93CDB7DEB79A
:1014000028970FB6F894DEBF0FBECDBF81E00E94D3
:10141000FA06062FCE0101967C0112E06C01812FA5
:101420000E94FA06F70161937F011F5F1A30B9F736
:101430008981882319F0C6010E94FF0F602F80E088
:101440000E94D50F0E946D0928960FB6F894DEBF52
:101450000FBECDBFDF91CF911F910F91FF90EF9005
:10146000DF90CF90089581E00E94FA06862F0E94B7
:1014700036110E945D0F0C94D204CF9381E00E943C
:10148000FA06C62F82E00E94FA068C2F0E94DC1218
:101490008FE99FE00197F1F700C000008C2F0E94B8
:1014A00036110E945D0FCF910C94D204CF93DF933D
:1014B0000E940713D0E0C0E06C2F8D2F0E94D50F43
:1014C000CF5FCA30C9F7DF5FD530A9F7DF91CF9181
:1014D0000895DF92EF92FF920F931F93CF93DF93C4
:1014E0000E940713C0E0D0E08BEFE82E80E0F82EDA
:1014F00001E0DC2E8C2F0E94110D10E00E94AD1334
:101500008823D9F0612F8D2D0E94D50F1F921F9334
:10151000DF93CF93FF92EF920F930E948F140E945C
:101520008D0F0E94E4131F5F8DB79EB707960FB60D
:10153000F8949EBF0FBE8DBFE1CF2196C530D10577
:10154000C1F6DF91CF911F910F91FF90EF90DF9047
:101550000C94D2040C94300DCF9381E00E94FA06D3
:10156000C62F82E00E94FA068C2FCF910C94A50D15
:10157000CF92DF92EF92FF92CF9381E00E94FA0622
:10158000C62F82E00E94FA066B017C018C2F0E941C
:10159000110D4098C6010E942B0D409ACF91FF90EB
:1015A000EF90DF90CF900895CF93DF931F92CDB748
:1015B000DEB781E00E94FA0669830E94960889815D
:1015C0000F90DF91CF910C945D0E81E00E94FA069E
:1015D0001F926F9382ED90E09F938F9381E08F93A2
:1015E0000E948F140E9496080F900F900F900F90FA
:1015F0000F900C94F40ECF93DF931F92CDB7DEB70C
:1016000081E00E94FA061F926F938BEB90E09F930C
:101610008F9381E08F9369830E948F140E949608B4
:101620006981862F0F900F900F900F900F900F9061
:10163000DF91CF910C944A0F0F931F930E945E1578
:101640002091A6053091A705890120E030E06017C0
:101650007107820793077CF08091AC04882359F0CE
:101660000E94551581E08093AA040E94B40E1F9138
:101670000F910C9429101F910F910895CF93DF9330
:101680001F92CDB7DEB78091AA04882381F0109213
:10169000AA0486EE91E00E94D3130E94E9080E94FA
:1016A000300405C08981823549F40E949608CE0134
:1016B00001960E9455178111F5CF18C0833548F463
:1016C000833489F40E94EB1761E081E00E94EF17F8
:1016D000E6CF833529F08A3531F40E94C904DFCF83
:1016E0000E94690AE4CF0E94C605E1CF0E94A704C8
:1016F000CACF0E94321760E072EC81E090E00E9455
:1017000018178CE497E10E94AF130E94F1038CE458
:1017100097E10E942B040E94E7170E94EB17EAEA68
:10172000F4E010821182128288EE93E09093A70574
:101730008093A6050E9438156CE17BE080E00E9452
:101740004A1585E00E94331583E284B98CEF8BB98A
:101750008FEF87B988B92D9860E277E080E091E05B
:101760000E94060469E97CE085E091E00E9406049D
:1017700068E777E089E091E00E9406046EE877E090
:101780008FE091E00E9406046FE97CE085E191E042
:101790000E9406046AED77E08BE191E00E94060466
:1017A00068E877E080E291E00E94060462EE77E06C
:1017B00085E291E00E94060465EF77E08AE291E01D
:1017C0000E94060460E178E08FE291E00E94060446
:1017D00060E878E084E391E00E94060468EA78E03B
:1017E0008BE391E00E94060468EB7AE084E491E0E8
:1017F0000E94060464ED7AE08AE491E00E94060407
:1018000065EE7AE08FE491E00E9406046BEF7AE0E7
:1018100084E591E00E94060460EE79E08AE691E0BA
:101820000E94060466E978E08AE591E00E940604D9
:101830006DE679E080E691E00E94060466E57AE0D4
:1018400085E691E00E94060465EE78E08EE691E080
:101850000E94060466EF79E081E791E00E940604A9
:101860006EE777E086E791E00E94060469EE78E093
:101870008CE791E00E9406046CED79E081E891E04C
:101880000E9406046FED78E086E891E00E9406046D
:1018900063E37AE08AE891E00E9406046DE37AE06F
:1018A0008DE891E00E94060469E67AE080E991E023
:1018B0000E9406046AEA7AE087E991E00E94060441
:1018C0006CEA7AE08EE991E00E9406040E94B90C6D
:1018D0000E9478070E9430040E943E0B0F931F93D2
:1018E000CF93DF93CDB7DEB764970FB6F894DEBF22
:1018F0000FBECDBF8C0184E791E00E94D31344E179
:1019000050E0B801CE0101960E949C19CE010196CB
:101910000E94C51382E791E00E94D31364960FB62C
:10192000F894DEBF0FBECDBFDF91CF911F910F9115
:10193000089588E790E00E946E0C0C94D20485E82C
:1019400091E00E94D31388E790E00E946E0C88E734
:1019500091E00E94D31384E690E00E946E0C0E94F6
:101960002F150E942F1586E791E00E94D3130C9447
:10197000D204E8EAF5E089E08E0F11928E13FDCFD4
:10198000E1EBF5E088E08E0F11928E13FDCF409AC7
:10199000419A429A449A459A8BB18093BC058AB188
:1019A0008093BD0589B18093BE0582E08093BF0519
:1019B0008FE890E00E94B4199093C1058093C00510
:1019C00081E990E00E94B4199093C3058093C20509
:1019D00083E990E00E94B4199093C5058093C405F3
:1019E00085E990E00E94B4199093C7058093C605DD
:1019F00087E990E00E94AC198093C80588E990E0DF
:101A00000E94AC198093C90589E990E00E94AC1945
:101A10008093CA058AE990E00E94AC198093CB05B7
:101A20000895863058F49BB19093BC059AB1909379
:101A3000BD0599B19093BE058E5F0AC095E2909363
:101A4000BC0594E29093BD0593E29093BE05865049
:101A50008093BF050895019710F00000FCCF089512
:101A60001F93CF93DF938DEC96E09F938F9311E0BC
:101A70001F930E948F14C8EAD5E0898D8F93888DBB
:101A80008F9387EB96E09F938F931F930E948F1401
:101A90008B8D8F938A8D8F9381EA96E09F938F939E
:101AA0001F930E948F148D8D8F938C8D8F938BE855
:101AB00096E09F938F931F930E948F148F8D8F9327
:101AC0008E8D8F9385E796E09F938F931F930E944F
:101AD0008F1488A11F928F938FE596E09F938F9329
:101AE0001F930E948F1489A11F928F9389E496E01F
:101AF0009F938F931F930E948F148DB79EB78196EB
:101B00000FB6F8949EBF0FBE8DBF8AA11F928F9310
:101B100083E396E09F938F931F930E948F148BA172
:101B20001F928F938DE196E09F938F931F930E9456
:101B30008F148DB79EB70A960FB6F8949EBF0FBE4E
:101B40008DBFDF91CF911F910895F89490E0FC0133
:101B50003197E830F105F8F4EC5CFF4F0C944A182B
:101B60008FE890E002C081E990E00E94DA1913C08A
:101B700083E990E0FACF85E990E0F7CF87E990E03C
:101B800008C088E990E005C089E990E002C08AE9D0
:101B900090E00E94C4190E94B90C789408950F93A4
:101BA0001F93CF93DF93C8EAD5E08D891F928F935F
:101BB00089E096E09F938F9311E01F930E948F140A
:101BC0008AB11F928F9385EF95E09F938F931F9318
:101BD0000E948F148C891F928F9381EE95E09F93C2
:101BE0008F931F930E948F148BB11F928F938DEC54
:101BF00095E09F938F931F930E948F148F891F925C
:101C00008F9389EB95E09F938F931F930E948F147E
:101C100089B11F928F9385EA95E09F938F931F93CD
:101C20000E948F148E891F928F9381E995E09F9374
:101C30008F931F930E948F14409801E010E0C80119
:101C40000F8802C0880F991F0A94E2F79D89982B8C
:101C50009D8B80959C8989238C8B8DB79EB78396AD
:101C60000FB6F8949EBF0FBE8DBF8A8D9B8D0E94CC
:101C70002B0DC8010F8802C0880F991F0A94E2F744
:101C800080959D8989238D8B8E8D9F8D0E942B0D34
:101C9000409A0F8802C0000F111F0A94E2F78E8944
:101CA00008230E8B40988C8D9D8D0E942B0D409AA1
:101CB000DF91CF911F910F9108951F93CF93DF93E1
:101CC000182F43989BB1C1E0D0E09E010090BF0562
:101CD00002C0220F331F0A94E2F7822F80959823C7
:101CE0009BB98AB1282B2AB98091C80590E00E943F
:101CF0002B0D112359F08AB10090BF0502C0CC0F03
:101D0000DD1F0A94E2F7C095C823CAB98091C905BE
:101D100090E00E942B0D439A2AB181E090E0009060
:101D2000BF0502C0880F991F0A94E2F780958223AD
:101D30008AB9DF91CF911F91089590E041E050E082
:101D4000815068F079B19A010090BF0502C0220F5E
:101D5000331F0A94E2F7272329B9920FF1CF81E0CC
:101D6000691708F080E00895CF93DF9340982AB177
:101D7000C1E0D0E0CE010090BF0502C0880F991FDE
:101D80000A94E2F7922F982B9AB99BB180958923F8
:101D90008BB98091C2059091C3050E942B0D8AB129
:101DA0000090BF0502C0CC0FDD1F0A94E2F7C0957A
:101DB000C823CAB98091C6059091C7050E942B0D12
:101DC000409A65E08AE00E949D0EC82F409880915D
:101DD000C4059091C5050E942B0D409A81E0C11168
:101DE00080E0DF91CF9108950F931F93CF93DF93FE
:101DF00041982BB108EA15E0C1E0D0E0CE01F8012E
:101E0000078802C0880F991F0A94E2F7982F9095CF
:101E100092239BB99AB1892B8AB981E090E00E9404
:101E20002B0D8AB1F801078802C0CC0FDD1F0A9480
:101E3000E2F7C095C823CAB982A190E00E942B0D99
:101E4000419A61E082E00E949D0EC82F4198F801FE
:101E500083A190E00E942B0D419A8C2FDF91CF91AE
:101E60001F910F910895CF93DF93F8944298D9E092
:101E7000C0E0D15049F00E94F40E20E8829FC001DA
:101E80001124C695C82BF5CF429A78948C2FDF91F8
:101E9000CF910895CF93DF93D82FF8944498C9E059
:101EA000C15031F08D2F81700E945D0ED695F8CF14
:101EB000449A7894DF91CF910895CF92DF92EF9278
:101EC000FF920F931F93CF9386EA91E00E94C51370
:101ED00088EAC82E85E0D82EC0E0F601E1906F01B7
:101EE000F12C00E010E020E240E063E08AE00E9494
:101EF000EF13C83021F088EA91E00E94C513CF5F4C
:101F0000C93059F78AEA91E0CF911F910F91FF9064
:101F1000EF90DF90CF900C94C513AF92BF92CF9209
:101F2000DF92EF92FF921F93CF93DF938CEA91E0C1
:101F30000E94C513C0E0D0E08EE8E82E85E0F82EC0
:101F400011E09AE8C92E95E0D92E2CE8A22E25E0C2
:101F5000B22EFE01E855FA4F81851F928F93FF92B2
:101F6000EF921F930E948F140F900F900F900F907D
:101F70000F90C730D10519F4BF92AF9202C0DF9223
:101F8000CF921F930E948F140F900F900F90219665
:101F9000C830D105F1F6DF91CF911F91FF90EF90FE
:101FA000DF90CF90BF90AF9008950F931F93CF9382
:101FB000DF93F894C62FD0E09AE0899FC00DD11D21
:101FC000112483E0CC0FDD1F8A95E1F700E010E0DB
:101FD0002C96F801E855FA4FCE01800F911F6185CC
:101FE00081579F4F0E94C4190F5F1F4F0830110582
:101FF00081F77894DF91CF911F910F910895E1EBD4
:10200000F5E09C01275F3F4FDC014D91CD014193ED
:10201000A217B307C9F708951F93CF93DF93809159
:10202000B105811106C08CECDF91CF911F910C940A
:102030004A0F85E50E944A0FC1EBD5E01C2F185FBF
:1020400089910E944A0F1C13FBCFDF91CF911F9102
:102050000895CF93C0E08C2F0E94110D0E94B40E02
:102060008CEC0E944A0F84E40E944A0FCF5FC53077
:1020700091F7CF91089598E028E1362F382730FD69
:1020800002C0669503C06227669560688695915088
:10209000A1F7862F08958F929F92AF92BF92CF9211
:1020A000DF92EF92FF920F931F93CF93DF931F92D4
:1020B000CDB7DEB74C017B01FB011082C82E8C012D
:1020C000D12C802F8C19841780F45801F70160817E
:1020D000F80181918F0149830E943B10F7018083B1
:1020E000F5018081D80E4981ECCFF401E40FF11D98
:1020F0009081F7018081981303C081E0D11001C065
:1021000080E00F90DF91CF911F910F91FF90EF90A2
:10211000DF90CF90BF90AF909F908F900895CF9217
:10212000DF92EF92FF920F931F93CF93DF931F9253
:10213000CDB7DEB7062F10E09AE0899F000D111D84
:10214000112483E0000F111F8A95E1F7E12CF12C97
:10215000C12CD12C045F1F4FC8018E0D9F1D8157CC
:102160009F4F0E94AC19F701E855FA4F8187C80EBE
:10217000D11C8FEFE81AF80A98E0E916F10461F72C
:10218000CD2849F047E0BE016F5F7F4F81EB95E0BE
:102190000E944B1001C080E00F90DF91CF911F9102
:1021A0000F91FF90EF90DF90CF900895FF920F93E3
:1021B0001F93CF93DF931F92CDB7DEB719820E9492
:1021C000B40E8CEC0E944A0F0E94B40E83E30E946E
:1021D0004A0F01EB15E088E0F82EF00E0E94330F55
:1021E000F80181938F01FE12F9CF47E0BE016F5FC6
:1021F0007F4F81EB95E00E944B100F90DF91CF91C4
:102200001F910F91FF900895CF92DF92EF92FF926E
:102210001F93CF93DF931F92CDB7DEB7182F0E9485
:102220000C108EEB0E944A0F88EAC82E85E0D82E4B
:1022300076018E2D8C19811730F40E94330FF7012F
:1022400081937F01F6CF19824FEF410FBE016F5F7F
:102250007F4F88EA95E00E944B100F90DF91CF915D
:102260001F91FF90EF90DF90CF900895FF920F9312
:102270001F93CF93DF931F92CDB7DEB7182F0E9425
:10228000B40E8CEC0E944A0F89EF90E00197F1F7B1
:1022900000C0000088EB0E944A0F812F0E944A0F65
:1022A0000E94B40E8CEC0E944A0FE9EFF0E03197E7
:1022B000F1F700C000008EEB0E944A0F812F0E94B0
:1022C0004A0F08EA15E089E0F82EF00E0E94330F5D
:1022D000F80181938F01FE12F9CF198248E0BE0107
:1022E0006F5F7F4F88EA95E00E944B100F90DF915F
:1022F000CF911F910F91FF9008950E94B40E8CEC26
:102300000E944A0F84E40E944A0F89E698E10197EF
:10231000F1F700C000000E94B40E8CEC0E944A0F3E
:1023200084EB0E944A0F89E698E10197F1F700C01B
:10233000000080E00E9436110E945D0F0C94B40EE4
:10234000FF920F931F93CF93DF931F92CDB7DEB70A
:102350000E94B40E0E940C1089EF90E00197F1F7F3
:1023600000C0000088EB0E944A0F80E00E944A0FE4
:102370000E94B40E0E940C10E9EFF0E03197F1F7E3
:1023800000C000008EEB0E944A0F80E00E944A0FBE
:1023900008EA15E089E0F82EF00E0E94330FF801EC
:1023A00081938F01FE12F9CF198248E0BE016F5F61
:1023B0007F4F88EA95E00E944B100F90DF91CF91FC
:1023C0001F910F91FF900895DF92EF92FF920F936C
:1023D0001F93CF93DF93EC0187EE93E0998388837B
:1023E0008FE097E29B838A830E94B40E8091B105AF
:1023F000803109F07BC089E00E940411D82E209121
:10240000A90530E0322F22278091A805282B398397
:1024100028838091A9053595279539832883409194
:10242000AE058F3F19F54C3050F021E732E0429F66
:10243000C001439F900D11248C549D4154C02F5FC7
:102440003F4F398328836091AE0541E752E0649F96
:10245000C001659F900D11248C53964F9B838A83F6
:10246000232B09F083C088E895E020C04D3090F11F
:1024700021503109398328838091A8052091AE0528
:1024800081111EC041E752E0249FC001259F900D9D
:1024900011248C549D419B838A83198218828091D8
:1024A000AE058D3008F462C086E895E09F938F9367
:1024B00081E08F930E948F140F900F900F9056C061
:1024C0004FE85DEF249FC001259F900D1124845A91
:1024D0009B4B09C02FE83DEF429FC001439F900DE9
:1024E0001124845B924E9B838A8340C0883201F51D
:1024F00089E00E940411D82E8091A90590E0982FC0
:1025000088272091A805822B34E0959587953A95E8
:10251000E1F7998388838091A8058F7041E752E0A5
:10252000849F9001859F300D11243B832A831EC018
:10253000863279F40E94A0118823B1F08091AA0517
:1025400090E0998388838091A90590E09B838A839A
:102550000BC086E795E09F938F9381E08F930E9455
:102560008F140F900F900F90DD24D39489818F9357
:1025700088818F9382E795E09F938F9381E08F937B
:102580000E948F14EA80FB800F2C000C000B110BB3
:1025900020E340E064E08AE00E94EF130F900F9088
:1025A0000F900F900F908D2DDF91CF911F910F9174
:1025B000FF90EF90DF900895CF93DF93D82FC62F31
:1025C0000E94B40E8CEC0E944A0F8EE40E944A0FC7
:1025D0008D2F0E944A0F8C2F0E944A0F81E08C0F92
:1025E0000E944A0F83E08C0F0E944A0F84E08C0FF8
:1025F0000E944A0F0E94B40E8CEC0E944A0F88E49D
:102600000E944A0F8D2FDF91CF910C944A0FE1EB7E
:10261000F5E088E08E0F11928E13FDCF0895A8EAA1
:10262000B5E09796EC9197978E27E82FF0E0E2556A
:10263000FE4F808197968C930895FF920F931F937E
:10264000CF93DF931092CF058091CE05811171C099
:102650000E94B40EC82F811112C083E695E09F93AB
:102660008F9381E08F930E948F141092CC0510926B
:10267000CE051092CD050F900F900F9067C080EFA0
:102680000E944A0FD1E010E0F12CC1E00E94F40E4C
:10269000082F0E94F40E013019F48130C1F43BC0C0
:1026A000212F30E008131DC08091CC05C81738F4E5
:1026B000F901E855FA4F81858D2349F402C0C81706
:1026C00031F000E0C93060F4C093CD0509C0E12FBE
:1026D000F0E0E855FA4F81858D2B818701E009C034
:1026E000FC2EF901E855FA4F91858D2F80958923AD
:1026F0008187802F0E945D0ECF5FDD0F49F4E12FAF
:10270000F0E0E855FA4F81850E940F131F5FD1E07A
:10271000183008F4BBCFC13460F08091CF0581112F
:1027200008C0F092CC05F1100CC08FEF8093CE055D
:1027300008C01092CC051092CE051092CD05C0E0D5
:1027400005C08091B1058823A1F3CFEF8C2FDF91D5
:10275000CF911F910F91FF9008950C941D139093AA
:102760001304809312040895CF93C82F8A3031F454
:10277000E0911204F09113048DE00995E0911204A8
:10278000F09113048C2FCF910994CF93DF9300978E
:1027900039F0EC018991882319F00E94B413FACF23
:1027A000DF91CF910895CF93DF93009751F0FC0113
:1027B0008491EF012196882321F00E94B413FE0139
:1027C000F7CFDF91CF9108958AE00C94B4138F7006
:1027D000E82FF0E0E252F94F84910C94B4133F9249
:1027E0004F925F926F927F928F929F92AF92BF9221
:1027F000CF92DF92EF92FF920F931F93CF93DF93CD
:10280000CDB7DEB7A0970FB6F894DEBF0FBECDBF31
:10281000482EC62E822E442351F017FF08C066278B
:102820007727CB016E197F09800B910B02C0C8017D
:10283000B70199249394411101C0912CDD24DA94BD
:10284000DC0CD91818A2512C612C712CA301920117
:102850000E942818FB01EF70FF27E252F94F6491A4
:102860006F8FB901CA015E012EE1A20EB11C3D2C91
:102870003A942FEF3216D1F061157105810591055B
:1028800079F0A30192010E942818FB01EF70FF2745
:10289000E252F94F6491F5016083B901CA0102C0A7
:1028A000F5018082F1E0AF1AB108E2CFCE014F9678
:1028B0008D199109992069F0FC01319717FF02C029
:1028C0002DE205C0EF28E02AE12A39F02BE220832F
:1028D000CF017C011C2D180F02C020E2F8CF1E157D
:1028E00031F0F70181917F010E94B413F8CFA096D7
:1028F0000FB6F894DEBF0FBECDBFDF91CF911F9111
:102900000F91FF90EF90DF90CF90BF90AF909F908E
:102910008F907F906F905F904F903F9008955F925F
:102920006F927F928F929F92AF92BF92CF92DF92DF
:10293000EF92FF920F931F93CF93DF931F92CDB728
:10294000DEB7EC89FD893E0126E1620E711C3AE09A
:10295000A32EB12C3B89332381F08F010F5F1F4FD2
:102960008491853289F0882309F466C00E94B413EB
:10297000630178013601F701EDCF8081853259F08E
:102980008F010F5F1F4FEFCF7F0182E0E80EF11C38
:10299000F801849105C07F0122E0E20EF11C8181E3
:1029A0008436A1F0883761F0833631F4F3018081F9
:1029B00093012E5F3F4F39010E94B4136301DACFB8
:1029C00020E1822E912C00E010E105C09AE0892ED2
:1029D000912C00E117E2630132E0C30ED11CF30138
:1029E000608071808436A1F477FE0FC07194619489
:1029F00071088DE20E94B41308C0C801B5010E949D
:102A000014188B016230710518F060167106A8F376
:102A1000C301B8010E941418582E862F99830E9472
:102A2000E713652C9981792EC801B4010E9414180E
:102A30008B01672B69F79ECF80E090E00F90DF91CC
:102A4000CF911F910F91FF90EF90DF90CF90BF90AB
:102A5000AF909F908F907F906F905F9008958CEDD6
:102A600096E00C94D31395B5987F892B85BD089576
:102A700082E00E94331516BCEEE6F0E080818160B2
:102A800080831092D0051092D1051092D205109239
:102A9000D30508958A3040F4E82FF0E0EE0FFF1FD1
:102AA000EC5EFB4F7183608308951092D005109205
:102AB000D1051092D2051092D30508956091D005EA
:102AC0007091D1058091D2059091D30508951F9200
:102AD0000F920FB60F9211242F933F934F935F9352
:102AE0006F937F938F939F93AF93BF93EF93FF93D6
:102AF0008091D0059091D105A091D205B091D305D8
:102B00000196A11DB11D8093D0059093D105A0938E
:102B1000D205B093D3058091D4059091D505A091AD
:102B2000D605B091D7050196A11DB11D8093D4059E
:102B30009093D505A093D605B093D7058091140442
:102B400090911504892B29F0E0911404F09115045B
:102B50000995FF91EF91BF91AF919F918F917F91D7
:102B60006F915F914F913F912F910F900FBE0F90FA
:102B70001F9018951F920F920FB60F9211242F934A
:102B80003F934F935F936F937F938F939F93AF93F5
:102B9000BF93EF93FF938091D8059091D905A091B1
:102BA000DA05B091DB050196A11DB11D8093D80512
:102BB0009093D905A093DA05B093DB0580912204A8
:102BC00090912304892B29F0E0912204F0912304B1
:102BD0000995FF91EF91BF91AF919F918F917F9157
:102BE0006F915F914F913F912F910F900FBE0F907A
:102BF0001F9018951F920F920FB60F9211242F93CA
:102C00003F934F935F936F937F938F939F93AF9374
:102C1000BF93EF93FF938091160490911704892B33
:102C200029F0E0911604F09117040995FF91EF91B6
:102C3000BF91AF919F918F917F916F915F914F91D4
:102C40003F912F910F900FBE0F901F9018951F92DC
:102C50000F920FB60F9211242F933F934F935F93D0
:102C60006F937F938F939F93AF93BF93EF93FF9354
:102C70008091180490911904892B29F0E09118048F
:102C8000F09119040995FF91EF91BF91AF919F9138
:102C90008F917F916F915F914F913F912F910F9005
:102CA0000FBE0F901F9018951F920F920FB60F92A4
:102CB00011242F933F934F935F936F937F938F9341
:102CC0009F93AF93BF93EF93FF9380911C049091D8
:102CD0001D04892B29F0E0911C04F0911D04099535
:102CE000FF91EF91BF91AF919F918F917F916F91E4
:102CF0005F914F913F912F910F900FBE0F901F90BA
:102D000018951F920F920FB60F9211242F933F9395
:102D10004F935F936F937F938F939F93AF93BF93E3
:102D2000EF93FF9380911E0490911F04892B29F04B
:102D3000E0911E04F0911F040995FF91EF91BF915E
:102D4000AF919F918F917F916F915F914F913F9143
:102D50002F910F900FBE0F901F9018951F920F92FA
:102D60000FB60F9211242F933F934F935F936F935E
:102D70007F938F939F93AF93BF93EF93FF93809134
:102D8000200490912104892B29F0E0912004F091F6
:102D900021040995FF91EF91BF91AF919F918F9180
:102DA0007F916F915F914F913F912F910F900FBE47
:102DB0000F901F9018951F920F920FB60F9211242B
:102DC0002F933F934F935F936F937F938F939F9333
:102DD000AF93BF93EF93FF938091240490912504C8
:102DE000892B29F0E0912404F09125040995FF91A5
:102DF000EF91BF91AF919F918F917F916F915F9173
:102E00004F913F912F910F900FBE0F901F901895EB
:102E100040E450E06AE674E08DED95E00E949F0387
:102E200040E450E06AE274E086EE95E00C949F0383
:102E300022E02093C00028E92093C1009B01AC014F
:102E400083E0220F331F441F551F8A95D1F760E09E
:102E500074E284EF90E00E94281821502093C4006F
:102E6000789408950E94081710922904109228045B
:102E700088ED8093C10060E072EC81E090E00E94F8
:102E800018178FEF8093DC051092E5051092EF057F
:102E90001092EE05789408959091C00095FFFCCFB4
:102EA0008093C6001092DC050895CF93DF932091A4
:102EB000DF053091E005232B71F02091E105309181
:102EC000E205232B41F0EC018DED95E00E94AC036F
:102ED00088838FEF01C080E0DF91CF9108951F922A
:102EE0000F920FB60F9211242F933F934F935F933E
:102EF0006F937F938F939F93AF93BF93EF93FF93C2
:102F00008091E505882379F08091EA059091EB05A1
:102F1000892B39F086EE95E00E94AC038093C600C1
:102F200005C01092E5058FEF8093DC05FF91EF91CE
:102F3000BF91AF919F918F917F916F915F914F91D1
:102F40003F912F910F900FBE0F901F9018951F92D9
:102F50000F920FB60F9211242F933F934F935F93CD
:102F60006F937F938F939F93AF93BF93EF93FF9351
:102F70008091C6002091280430912904232B31F040
:102F8000E0912804F0912904099510C0682F8DED77
:102F900095E00E94D003811109C08091EE059091C7
:102FA000EF0501969093EF058093EE05FF91EF9169
:102FB000BF91AF919F918F917F916F915F914F9151
:102FC0003F912F910F900FBE0F901F9018958DEF8E
:102FD00096E00C94D31388EF96E00C94D3131F92D1
:102FE0006F931F928F938FEE96E09F938F9381E064
:102FF0008F930E948F148DB79EB707960FB6F894E3
:103000009EBF0FBE8DBF0895DB018F939F930E94DB
:103010005018BF91AF91A29F800D911DA39F900D5D
:10302000B29F900D11240895AA1BBB1B51E107C04C
:10303000AA1FBB1FA617B70710F0A61BB70B881F48
:10304000991F5A95A9F780959095BC01CD010895D7
:10305000A1E21A2EAA1BBB1BFD010DC0AA1FBB1F9C
:10306000EE1FFF1FA217B307E407F50720F0A21B0E
:10307000B30BE40BF50B661F771F881F991F1A947B
:1030800069F760957095809590959B01AC01BD01A5
:10309000CF010895EE0FFF1F0590F491E02D0994E4
:1030A0000E945B18A59F900DB49F900DA49F800D6A
:1030B000911D11240895A29FB001B39FC001A39F49
:1030C000700D811D1124911DB29F700D811D112461
:1030D000911D0895A0E0B0E0E0E7F8E10C94DF195D
:1030E0005C016B017A016115710519F0FB01918397
:1030F0008083E114F10429F0C7010297839708F057
:10310000F1C0E5012196F5011081812F90E00E9428
:103110007B19892B11F05E01F4CF1D3229F4219621
:10312000F501118101E007C01B3221F4E50122966F
:10313000F501118100E0E114F10459F1F0E1EF161D
:10314000F10461F41033E1F488818F7D883569F5ED
:1031500019812296026070E1E72EF12C88E0E816D2
:10316000F10439F12CF4F2E0EF16F104C9F12AC0B0
:103170008AE0E816F10479F0E0E1EE16F10411F5C9
:1031800050E1E52EF12C812C912CA12C68E0B62E7B
:103190002CC01033C9F23AE0E32EF12C4CEC842E13
:1031A000982CA82C4CE0B42E20C010E3E114F104BC
:1031B000A9F698E0E92EF12C812C912CA12C20E18C
:1031C000B22E13C060E070E080E090E897010F2C11
:1031D000000C440B550B0E94281849015A0105C0E8
:1031E000812C912CA12C80E4B82E60E020E030E00E
:1031F000A90127010F2C000C660877081E01E0EDDD
:10320000E10FEA3060F08FEB810F8A3110F4E9ECC6
:1032100005C08FE9810F8A3128F5E9EAE10F8E2F89
:1032200090E08E159F05F4F467FD18C08216930692
:10323000A406B50690F0C301B2010E9404189B01D8
:10324000AC012E0F311D411D511D213031054105AD
:10325000F0E85F0710F461E001C06FEF2196F10123
:103260001081CCCF802F8170C114D10471F06623FE
:1032700029F02197F601D183C08307C001FF19C04F
:103280002297F601D183C08314C067FF12C0811159
:1032900005C02FEF3FEF4FEF5FE704C020E030E0C5
:1032A00040E050E882E290E09093F1058093F005D1
:1032B00016C0882341F050954095309521953F4F99
:1032C0004F4F5F4F0CC057FF0AC082E290E09093CF
:1032D000F1058093F0052FEF3FEF4FEF5FE7B90166
:1032E000CA0104C060E070E080E090E0CDB7DEB7D6
:1032F000E2E10C94FB1991110C949919803219F0A8
:1033000089508550C8F70895FB01DC0101900D92AA
:103310000020E1F70895FB01DC014150504030F0FE
:103320008D910190801919F40020B9F7881B990B31
:103330000895992788270895DC01CB01FC01F999AC
:10334000FECF06C0F2BDE1BDF89A319600B40D92F1
:1033500041505040B8F70895F999FECF92BD81BD14
:10336000F89A992780B50895A8E1B0E042E050E0CE
:103370000C949E19DC01CB0103C02D910E94C5194C
:1033800041505040D0F70895262FF999FECF1FBA2B
:1033900092BD81BD20BD0FB6F894FA9AF99A0FBE7E
:1033A00001960895242F0E94C519252F0E94C51942
:1033B0000C94DA190E94C419272F0C94C5192F9266
:1033C0003F924F925F926F927F928F929F92AF92B5
:1033D000BF92CF92DF92EF92FF920F931F93CF9302
:1033E000DF93CDB7DEB7CA1BDB0B0FB6F894DEBF99
:1033F0000FBECDBF09942A88398848885F846E84BF
:103400007D848C849B84AA84B984C884DF80EE8008
:10341000FD800C811B81AA81B981CE0FD11D0FB611
:10342000F894DEBF0FBECDBFED010895F894FFCF35
:1034300068656C700069646E006765746677007318
:103440006574736E00676574736E007465737400E1
:103450006A736F6E00706F6B65007065656B0064FA
:10346000756D700073747265616D00696E7465725C
:1034700076616C0064656C617900776269740072D2
:1034800062697400776279746500726573657400AF
:103490006C6F616400636C656172726F6D00737054
:1034A00000736176650073746172740074656D7089
:1034B00000646174610070696E0072700077700062
:1034C0007365617263680074696D696E6700736526
:1034D0007474696D65005B002C005D002200005E65
:1034E000BCE2613FDD83C29C7E20A3FD1F419DC3E2
:1034F000217FFCA2401E5F01E3BD3E6082DC237D94
:103500009FC1421CFEA0E1BF5D0380DE3C62BEE0C5
:10351000025CDF81633D7C22C09E1D43A1FF4618F3
:10352000FAA427799BC584DA3866E5BB5907DB85A1
:103530006739BAE406581947A5FB7826C49A653B53
:10354000D987045AB8E6A7F91B45C6987A24F8A685
:10355000441A99C7257B3A6486D85B05E7B98CD2B3
:10356000306EEDB3510F4E10F2AC2F7193CD114F61
:10357000ADF3702ECC92D38D6F31B2EC0E50AFF113
:10358000134DCE90722C6D33D18F0C52B0EE326C45
:103590008ED0530DEFB1F0AE4C1291CF2D73CA9473
:1035A0007628ABF517490856B4EA6937D58B570921
:1035B000EBB536688AD495CB2977F4AA4816E9B7D3
:1035C000550B88D6346A2B7597C94A14F6A8742A05
:0E35D000C896154BA9F7B6E80A54D7896B3593
:00000001FF
