:100000000C943F030C945C030C945C030C945C0311
:100010000C945C030C945C030C945C030C94D51856
:100020000C945C030C94B4170C94A8180C944E1800
:100030000C947B180C945C030C94F4170C9421180A
:100040000C9461170C945C030C94DD190C945C0304
:100050000C94A5190C945C030C945C030C945C0345
:100060000C945C030C945C03910E940E990E9C0E00
:100070009F0EA20EA50EA80E220022007D3C2F2569
:10008000643E003C25643E7B22636D64223A22007C
:10009000222C202264617461223A2000636F6D6D0E
:1000A000616E64206E6F7420666F756E64004552D9
:1000B000524F523A2000636D643E000A74686572C4
:1000C0006D5F7265736574203D2025640A005D00D4
:1000D00025642C2025642C20005D005D2C005B5DD8
:1000E000005B25642C005B00435243204572726F15
:1000F00072005B2230222C302C305D5D00203A20D3
:1001000000203A20002564203A20005B00310025C1
:10011000640025640025640031000D0A000D0A000A
:10012000203078257800307825782578203078259B
:1001300078005B25642C2230782578225D0022002F
:1001400022007D002C226C6F636174696F6E223A0D
:10015000007B22534E223A00224552524F52202D0C
:1001600020496E76616C69642073796E74617820C1
:100170006C6162656C205B617C627C647C697C6C18
:100180007C735D206465764E756D206C6162656C74
:100190005F746578742200224F4B2200224F4B225D
:1001A0000022006F776972652031352E31322E3191
:1001B00032002200777020202020202020202020C4
:1001C0002020203A20777269746520646174612070
:1001D000746F207370656369666965642070616718
:1001E000650A00727020202020202020202020205E
:1001F00020203A20726561642073706563696669C6
:100200006320706167652066726F6D203338323409
:10021000206465766963650A00646174612020204A
:1002200020202020202020203A2072656164206454
:100230006174612066726F6D2033383234206465DA
:10024000766963650A0074656D7020202020202087
:1002500020202020203A20726561642074656D7032
:1002600065726174757265730A00737461727420CB
:100270002020202020202020203A207374617274D6
:100280002074656D7065726174757265206D65614D
:10029000737572656D656E740A00736176652020F2
:1002A0002020202020202020203A20736176652005
:1002B0007363726174636870616420746F20656534
:1002C00070726F6D0A007370202020202020202083
:1002D00020202020203A2073686F7720736372619A
:1002E000746368207061640A006C6F616420202070
:1002F00020202020202020203A206C6F616420657F
:100300006570726F6D20636F6E74656E740A007233
:100310006F6D2020202020202020202020203A2027
:100320007265616420726F6D206F66206120736951
:100330006E676C65206465766963650A000A0A4F1A
:100340006E657769726520436F6D6D616E64733A97
:100350000A0073747265616D202020202020202007
:100360002020203A20737461727420737472656166
:100370006D696E670A007465737420202020202048
:10038000202020202020203A207465737420667578
:100390006E6374696F6E0A00706F6B65205B7265C7
:1003A000675D205B76616C5D203A20736574732015
:1003B00072656769737465722076616C7565207407
:1003C0006F205B76616C5D200A007065656B205B59
:1003D0007265675D202020202020203A20726574FD
:1003E00075726E73206465632C2068657820616E79
:1003F000642062696E2076616C7565206F6620727C
:10040000656769737465720A0074657374202020CF
:10041000202020202020202020203A207465737482
:100420002066756E6374696F6E0A0069646E2020C1
:100430002020202020202020202020203A20707200
:10044000696E747320646576696365204944206130
:100450006E642076657273696F6E20696E666F0ACE
:10046000000A436F6D6D616E64733A0A005A202072
:1004700020202020202020202020202020203A2062
:10048000726573657420636F6D6D616E64206E7547
:100490006D62657220746F207A65726F0A00532056
:1004A0002020202020202020202020202020203A32
:1004B00020706572666F726D2062696E617279205C
:1004C0007365617263680A0052202020202020207A
:1004D0002020202020202020203A2073656E6420D8
:1004E00072657365742070756C73650A0043202013
:1004F00020202020202020202020202020203A20E2
:10050000636C6561722073637265656E0A00496E83
:100510007374616E7420636F6D6D616E64733A0AFB
:10052000006F7774656D70222C2264617461223AC9
:10053000002E002200256400746865726D5F72658C
:1005400073657428290A0025642E00224445565FED
:100550004E4F545F464F554E4422002D002D003023
:100560003820745F726561645F736C6F7420203A29
:100570002025640A00303720745F726561645F7300
:10058000616D7020203A2025640A00303620745FA7
:1005900077726974655F736C6F74203A2025640A02
:1005A00000303520745F77726974655F6C6F7720F7
:1005B000203A2025640A00303420745F7265736528
:1005C000745F64656C61793A2025640A00303320D9
:1005D000745F72657365745F72782020203A2025FD
:1005E000640A00303220745F72657365745F7478DA
:1005F0002020203A2025640A00303120745F636F88
:100600006E76202020202020203A2025640A000A2F
:1006100031576972652054696D696E670A002E0052
:1006200022002564005B005D002C00303132333441
:100630003536373839414243444546000000010011
:1006400008002000400080000001000400000100BC
:1006500008004000000100041B5B25643B25644842
:10066000001B5B3F32356C001B5B3F323568001B63
:100670005B25646D001B5B324A001B630000112484
:100680001FBECFEFD8E0DEBFCDBF12E0A0E0B1E0EB
:10069000E4EBF8E302C005900D92A439B107D9F755
:1006A00015E0A4E9B2E001C01D92A73BB107E1F754
:1006B0000E94150B0C94581C0C940000FC018FB781
:1006C000F894718360835383428317821682158264
:1006D00014828FBF0895FC019FB7F894448155811F
:1006E00041155105C9F026813781A081B181A20F42
:1006F000B31F8C912F5F3F4F3783268362817381B5
:100700002617370720F0261B370B378326834150E7
:1007100051095583448301C080E09FBF0895FC01C7
:10072000AFB7F8942481358162177307A0F48681EE
:100730009781860F971F9783868342815381841701
:10074000950720F0841B950B97838683261B370B18
:100750003583248302C015821482AFBF0895FC0143
:10076000CB014FB7F89426813781820F931F6281A6
:1007700073810E946B1A0190F081E02DE80FF91F40
:1007800080814FBF0895CF93DF93FC01D62FCFB761
:10079000F89444815581628173814617570798F414
:1007A00086819781840F951F0E946B1AA081B18169
:1007B000A80FB91FDC93848195810196958384836A
:1007C000CFBF8FEF02C0CFBF80E0DF91CF91089500
:1007D000FC014FB7F89482819381248135814FBF0A
:1007E000821B930B08952FB7F894FC011582148295
:1007F0002FBF089510926504109261041092660450
:100800001092630410926204109264041092C20366
:100810001092C3031092C4031092C5030895FF926F
:100820000F931F93CF93DF938B01F0906404CF2D30
:10083000D0E09E0143E0220F331F4A95E1F7BC014F
:10084000C9018E529D4F0E94FD1BFE01EE0FFF1F3E
:10085000EA56FD4F11830083F394F0926404DF9114
:10086000CF911F910F91FF900895909395028093DF
:1008700094020895CF93DF9380915F04811103C0A8
:10088000C6EBD0E01DC08091C5038F938091C40357
:100890008F938091C3038F938091C2038F9383E8DA
:1008A00090E09F938F9381E08F930E949A148DB76D
:1008B0009EB707960FB6F8949EBF0FBE8DBF0EC0B1
:1008C000CE01FE012491222349F02196FC0184915E
:1008D000E0919402F09195020995F2CFDF91CF91CA
:1008E00008951F93CF93DF93E0919402F0919502C6
:1008F0008DE009950E943A0410916104C7E6D4E0A6
:100900001C0F1C1739F0E0919402F0919502899127
:100910000995F7CFDF91CF911F910895882319F0A2
:10092000813059F00895809167048823D1F067E6FB
:1009300074E087EB94E00C94FD1B67EB74E087E6B2
:1009400094E00E94FD1BE7E6F4E001900020E9F747
:100950003197E756F440E0936104E09366040C9409
:1009600071040895E0916204F0916304309739F0C6
:10097000099510926304109262040C943A0408954D
:100980008091C2039091C303A091C403B091C503A9
:100990000196A11DB11D8093C2039093C303A09340
:1009A000C403B093C50308951092C2031092C30309
:1009B0001092C4031092C503089580915F048823A8
:1009C000F9F08091C5038F938091C4038F93809138
:1009D000C3038F938091C2038F938CE790E09F9322
:1009E0008F9381E08F930E949A140E94CD138DB74C
:1009F0009EB707960FB6F8949EBF0FBE8DBF02C07C
:100A00000E94CD130C94C004CF93DF9380915F04B8
:100A10008823E1F08091C5038F938091C4038F9365
:100A20008091C3038F938091C2038F938AE790E0F4
:100A30009F938F9381E08F930E949A148DB79EB7F6
:100A400007960FB6F8949EBF0FBE8DBFCEEAD0E0DA
:100A5000CE01FE012491222349F02196FC018491CC
:100A6000E0919402F09195020995F2CFC7E6D4E0A7
:100A70008991982F9F7DE0919402F091950299239E
:100A800011F00995F5CF8AE30995E0919402F09170
:100A9000950280E20995CCE9D0E0CE01FE012491D7
:100AA000222349F02196FC018491E0919402F09177
:100AB00095020995F2CF80915F04882359F088E769
:100AC00090E09F938F9381E08F930E949A140F90F0
:100AD0000F900F90DF91CF910C94DD04BF92CF92D5
:100AE000DF92EF92FF920F931F93CF93DF9380E0FB
:100AF0000E948E0480E0E82EF12CF701E959FB4FAB
:100B000090819F7D11F08F5FF6CF90915F048111EE
:100B100005C0911139C00E94CD132BC0913029F42A
:100B200080E990E00E94BC1302C00E94CD13B090F7
:100B3000640402ED12E0C0E0D0E0CB15C0F46E0119
:100B4000A70167E674E0C8010E94041C2196085FB3
:100B50001F4F892B91F7F601EE0FFF1FEA56FD4F4D
:100B60008081918190936304809362040DC00E9400
:100B70000405DF91CF911F910F91FF90EF90DF90CF
:100B8000CF90BF900C943A04DF91CF911F910F91B9
:100B9000FF90EF90DF90CF90BF900895CF93C82F34
:100BA000809165048230B9F5C33441F0C43409F151
:100BB000C13471F581E00E948E042AC080916604E0
:100BC00090916104E0919402F09195028917F0F4FC
:100BD0008F5F809366048BE10995E0919402F09118
:100BE00095028BE50995E0919402F091950283E4DA
:100BF0000EC080916604E0919402F09195028823E2
:100C000029F081508093660488E001C087E009954F
:100C100010926504CDC0813021F4CB3511F482E00F
:100C2000C5C01092650480EE8C0F8F3508F045C06A
:100C30009091660480916104981316C0E09194022B
:100C4000F09195028C2F0995E091660481E08E0F5A
:100C500080936604F0E0E959FB4FC0838091610402
:100C60008F5F80936104A4C08F5F809361049817A5
:100C700050F4E82FF0E0E959FB4FDF0111972C9178
:100C800020838150F4CF81E0890F80936604E92F9F
:100C9000F0E0E959FB4FC0830E947104C0916604E3
:100CA00080916104C81708F083C0E0919402F0912C
:100CB000950288E00995CF5FF3CFCA3011F0CD30AF
:100CC000B1F4E091610481E08E0F80936104F0E063
:100CD000E959FB4F1082809166048F5F8093660410
:100CE0000E946E05109261041092660461C0CF37B5
:100CF00019F0C83009F057C080916604882309F4C0
:100D00004BC09091610489131DC0E0919402F09151
:100D1000950288E00995E0919402F091950280E2B5
:100D20000995E0919402F091950288E009958091EF
:100D300061048150809361048091660481508093A6
:100D4000660436C09150909361048150809366048C
:100D5000891740F4E82FF0E0E959FB4F2181208307
:100D60008F5FF6CF0E947104E0919402F09195029A
:100D700080E20995C09166042091610430E08C2FD7
:100D800090E028173907A4F0E0919402F0919502C1
:100D900088E00995CF5FF0CFE0919402F091950241
:100DA00087E0CF910994CB3119F481E080936504F9
:100DB000CF91089590E0E92FF0E0E959FB4F2081B1
:100DC000203211F49F5FF7CF20E02817A1F0E92F20
:100DD000F0E0E959FB4F30813F7D11F09F5FF7CF85
:100DE000E92FF0E0E959FB4F3081303211F49F5F79
:100DF000F7CF2F5FEACF892F90E089599B4F089555
:100E0000CF93DF9300D0CDB7DEB70E94DA064AE079
:100E100050E0BE016F5F7F4F0E94C11A0F900F908C
:100E2000DF91CF910895CF93DF9300D0CDB7DEB798
:100E30000E94DA0640E150E0BE016F5F7F4F0E94E2
:100E4000C11A0F900F90DF91CF91089581E00E9419
:100E5000000760935F0408958EE095E00E94BC1344
:100E60008DEE94E00E94BC1388EC94E00E94BC13C9
:100E70008EE994E00E94BC138DE694E00E94BC13BE
:100E800081E694E00E94BC138BE294E00E94BC13C4
:100E900089E094E00E94BC138AEC93E00E94BC13AA
:100EA00088E993E00E94BC1386E793E00E94BC139C
:100EB00082E593E00E94BC138DE393E00E94BC1393
:100EC0008FE093E00E94BC1389EE92E00E94BC1375
:100ED00086EC92E00E94BC138AE992E00E94BC1367
:100EE0008AE692E00E94BC1386E492E00E94BC1362
:100EF00089E192E00E94BC1383EE91E00E94BC1352
:100F000084EB91E00C94BC1382EB91E00E94BC1343
:100F100083EA91E00E94BC1381EA91E00E94BC1335
:100F20000C94DD040E94F20C0E94080F8DE091E009
:100F30000E94BC130C94DD040F931F93CF93DF9397
:100F4000CDB7DEB764970FB6F894DEBF0FBECDBF46
:100F500081E00E94DA068C0182E00E94000783E0B3
:100F60000E94DA06BC01F80180818C3679F4CE014A
:100F700001960E94FD1B44E150E064E670E0CE0162
:100F800001960E94301C8CE991E013C0833779F4FC
:100F9000CE0101960E94FD1B44E150E068E770E03D
:100FA000CE0101960E94301C87E991E002C088E5DD
:100FB00091E00E94BC130E94DD0464960FB6F89481
:100FC000DEBF0FBECDBFDF91CF911F910F9108956E
:100FD000CF9381E00E940007C62F82E00E940007A5
:100FE0008C2FCF910C94570FCF92DF92EF92FF92FC
:100FF00081E00E9413076B017C0182E00E941307CD
:10100000F6016083FF90EF90DF90CF90089581E02C
:101010000E941307FB0180811F928F931F928F9371
:1010200082E391E09F938F9381E08F930E949A14C3
:101030008DB79EB707960FB6F8949EBF0FBE8DBFB3
:101040000C94DD048F929F92AF92BF92CF92DF9269
:10105000EF92FF920F931F93CF93DF9381E00E9453
:101060001307EB0182E00E9413075B01912C00E261
:1010700011E08824839486E2E82E81E0F82E9DE139
:10108000C92E91E0D92EAC16BD06A0F18881911031
:1010900016C01F928F93CE0199279F938F931F9213
:1010A000DF93FF92EF928F920E949A148DB79EB7B2
:1010B00009960FB6F8949EBF0FBE8DBF0CC01F924D
:1010C0008F931F930F938F920E949A140F900F90FB
:1010D0000F900F900F90939498E0991209C0DF92AF
:1010E000CF928F920E949A140F900F900F90912C94
:1010F0002196C9CF8AE191E09F938F9381E08F93EE
:101100000E949A140F900F900F90DF91CF911F9132
:101110000F91FF90EF90DF90CF90BF90AF909F9096
:101120008F90089581E00E940007609360041F92F1
:101130006F9385E191E09F938F9381E08F930E945D
:101140009A140F900F900F900F900F900C94DD0455
:101150000E94F20C1F928F938BEB90E09F938F93E2
:1011600081E08F930E949A140F900F900F900F9030
:101170000F90089581E00E940007709367056093C7
:1011800066056115710581F41F921F9282E191E05D
:101190009F938F9381E08F930E949A140F900F90EA
:1011A0000F900F900F900895AB01BC016627772731
:1011B0008CE890E00E94481C809167058F93809195
:1011C00066058F938FE091E09F938F9381E08F93DB
:1011D0000E949A140F900F900F900F900F900C9404
:1011E000DD0481E00E940007862F0C94960C9F92EC
:1011F000AF92BF92CF92DF92EF92FF920F931F9325
:10120000CF93DF93C0E0D0E09924939400ED10E0F9
:1012100021EEE22E20E0F22E3BEDC32E30E0D32E65
:101220008C2F0E94960C80915F04882321F086EE1B
:1012300090E00E94BC13B12C80915F04882351F18F
:101240001F92BF92FF92EF929F920E949A148B2D51
:101250000E94570F0F900F900F900F900F908823C0
:1012600019F00E94C40D04C08EED90E00E94BC13E2
:1012700082E18B1548F0DF92CF929F920E949A14E0
:101280000F900F900F9004C089ED90E00E94BC1366
:10129000A12C1DC08B2D0E94570F8823B1F01F92E7
:1012A000BF92DF93CF931F930F939F920E949A1444
:1012B0000E94C40D0E94CD138DB79EB707960FB63E
:1012C000F8949EBF0FBE8DBFE3CFAA24A394809154
:1012D0005F04882321F08EEC90E00E94BC13B3944D
:1012E000AA2009F4A9CF2196C330D10509F098CFDF
:1012F000DF91CF911F910F91FF90EF90DF90CF90F2
:10130000BF90AF909F900C94DD04EF92FF920F93EB
:101310001F93CF93DF9300D000D0CDB7DEB780917D
:101320005F04882329F08BE091E00E94BC1302C087
:101330000E94CD13E12CFF24F39405E011E08F2DE2
:101340000E94570F8130B1F5E39490915F04992387
:1013500099F00E944E150E94C40D0E943C15CE01CA
:1013600001960E94F0100E943C150E94960D0E946A
:101370004A150E943C151EC01F92EF921F930F93B7
:101380008F930E949A140E94C40D81E091E00E9404
:10139000BC13CE0101960E94F0108DEF90E00E94E8
:1013A000BC130E94960D0E94CD130F900F900F90CA
:1013B0000F900F90F39485E1F812C1CF80915F04F4
:1013C000882329F082EF90E00E94BC1302C00E94A3
:1013D000CD130E94DD040F900F900F900F90DF91BE
:1013E000CF911F910F91FF90EF9008950E94960D5D
:1013F0000C94DD040E9486100C94DD040E94A40F5E
:10140000882319F00E94C40D0DC00E94C40D88EEFF
:1014100090E09F938F9381E08F930E949A140F9096
:101420000F900F900C94DD04DF92EF92FF920F93D8
:101430001F93CF93DF93CDB7DEB729970FB6F894FC
:10144000DEBF0FBECDBF81E00E940007F62E8E01E9
:101450000F5F1F4F22E0D02EE12E822F29870E949E
:101460000007F80161938F0129852F5F2A30A9F7C2
:101470008981882321F08D2D9E2D0E94E30E8F2DD2
:101480000E94B00E0E94F70829960FB6F894DEBFAE
:101490000FBECDBFDF91CF911F910F91FF90EF90C5
:1014A000DF90089581E00E940007862F0E9442107D
:1014B0000E94960D0C94DD04CF9381E00E940007FA
:1014C000C62F82E00E9400078C2F0E94E8118FE94E
:1014D0009FE00197F1F700C000008C2F0E9442109E
:1014E0000E94960DCF910C94DD04CF93DF930E9460
:1014F0001312C0E08C2F0E94960CD0E00E941513AE
:10150000882339F08D2F0E94B00E0E941B12DF5FDE
:10151000F5CFCF5FC33071F7DF91CF910C94DD042D
:101520001F93CF93DF9381E00E940007162F82E084
:101530000E94000735B1C1E0D0E001C0CC0F1A9580
:10154000EAF72C2F2095232325B9CB010E94990C73
:1015500085B18C2B85B9DF91CF911F9108950C94A3
:101560000B0ECF9381E00E940007C62F82E00E94FD
:1015700000078C2FCF910C94860E0F931F930E941F
:101580009F162091660530916705890120E030E0C3
:1015900060177107820793077CF0809160048823AD
:1015A00059F00E94961681E080935E040E94F20C2E
:1015B0001F910F910C94080F1F910F910895CF93D5
:1015C000DF931F92CDB7DEB780915E04882351F080
:1015D00010925E0481E295E00E94BC130E9485098E
:1015E0000E943A04CE0101960E945A198823D1F034
:1015F0008981823589F048F4833489F40E94211A64
:1016000061E081E00E94461AEBCF833529F08A35EC
:1016100031F40E94D404E4CF0E94A808E3CF0E94D2
:10162000CE05E0CF0E94B204CFCF0E94311960E016
:1016300072EC81E090E00E94171981E599E10E9427
:1016400069130E94FA0381E599E10E9435040E9422
:101650001D1A0E94211A10925E0410925F041092CB
:10166000600488EE93E090936705809366050E947E
:1016700096156DEB7AE080E00E94F61585E00E94F9
:10168000911583E284B98CEF8BB98FEF87B988B954
:101690002D986CE277E080E091E00E940F046EE10B
:1016A0007CE085E091E00E940F0464E877E089E047
:1016B00091E00E940F046CE977E08FE091E00E94D6
:1016C0000F0464E27CE085E191E00E940F0468EE83
:1016D00077E08BE191E00E940F0466E277E080E220
:1016E00091E00E940F0464EF77E085E291E00E94B0
:1016F0000F0467E078E08AE291E00E940F0462E262
:1017000078E08FE291E00E940F0462E978E084E3E0
:1017100091E00E940F046AEB78E08BE391E00E9475
:101720000F0460E97AE084E491E00E940F046EEF18
:1017300079E08AE491E00E940F0468EA78E08EE4A0
:1017400091E00E940F0467EF78E084E591E00E9449
:101750000F0466EF79E089E591E00E940F0464E1EF
:101760007AE08CE591E00E940F0462E977E081E67F
:1017700091E00E940F0465E879E087E691E00E941D
:101780000F046AEF79E08CE691E00E940F0461EFAC
:1017900078E081E791E00E940F0462E57AE085E756
:1017A00091E00E940F046CE57AE088E791E00E94E6
:1017B0000F0465E77AE08BE791E00E940F046FEA7F
:1017C0007AE085E891E00E940F0461EB7AE082E81C
:1017D00091E00E940F040E944A0C0E9484070E941C
:1017E0003A040E94DF0A0F931F93CF93DF93CDB784
:1017F000DEB764970FB6F894DEBF0FBECDBF8C0185
:1018000080E491E00E94BC1344E150E0B801CE01B5
:1018100001960E94121CCE0101960E947F138EE356
:1018200091E00E94BC1364960FB6F894DEBF0FBE21
:10183000CDBFDF91CF911F910F91089588E790E080
:101840000E94F30B0C94DD0481E591E00E94BC132F
:1018500088E790E00E94F30B84E491E00E94BC13BF
:1018600084E690E00E94F30B0E944A150E944A15FC
:1018700082E491E00E94BC130C94DD041092850078
:10188000109284001092570588E191E00E94BC13E9
:101890000C94DD04E8E6F5E0119285E0E137F80705
:1018A000D9F7E1E7F5E0119285E0E937F807D9F7D4
:1018B00010927C05409A419A429A8FE890E00E94EB
:1018C0002A1C90937E0580937D0581E990E00E941B
:1018D0002A1C9093800580937F0583E990E00E9405
:1018E0002A1C909382058093810585E990E00E94EF
:1018F0002A1C909384058093830587E990E00E94D9
:10190000221C8093850588E990E00E94221C809328
:10191000860589E990E00E94221C809387058AE968
:1019200090E00E94221C80938805089580937C0596
:101930000895019710F00000FCCF08951F93CF93F6
:10194000DF93182F85B1C1E0D0E09E0100907C05A7
:1019500002C0220F331F0A94E2F7922F909598232A
:1019600095B994B1922B94B98091850590E00E942D
:10197000990C112359F084B100907C0502C0CC0F62
:10198000DD1F0A94E2F7C095C823C4B9809186058B
:1019900090E00E94990C24B181E090E000907C05D9
:1019A00002C0880F991F0A94E2F78095822384B9B8
:1019B000DF91CF911F91089521E030E0815068F0D0
:1019C00093B1A90100907C0502C0440F551F0A94F1
:1019D000E2F7942393B9790FF1CF81E0761708F4F9
:1019E00080E008950F931F93CF93DF934098219A3F
:1019F00025B1CCE7D5E001E010E0C801088002C0C5
:101A0000880F991F0A94E2F7982F9095922395B921
:101A100094B1982B94B980917F05909180050E9494
:101A2000990C84B1088002C0000F111F0A94E2F7DC
:101A30000095082304B980918305909184050E9444
:101A4000990C409A65E08AE00E94DC0CC82F40980F
:101A500080918105909182050E94990C409A8C2F6B
:101A6000DF91CF911F910F9108950F931F93CF9303
:101A7000DF93419825B10CE715E081E090E0F80193
:101A8000008002C0880F991F0A94E2F7382F309522
:101A9000232325B994B1982B94B984B1832384B9B5
:101AA0008091870590E00E94990C419AC3B1D0E0E3
:101AB000F801008002C0D595C7950A94E2F7C1707D
:101AC000DD2741988091880590E00E94990C419A09
:101AD0008C2FDF91CF911F910F910895CF93DF93BA
:101AE000F8944298D9E0C0E0D15049F00E94350DF9
:101AF00020E8829FC0011124C695C82BF5CF429AD9
:101B000078948C2FDF91CF910895CF93DF93D82FC6
:101B1000F894C9E0C15031F08D2F81700E949E0C65
:101B2000D695F8CF7894DF91CF910895DF92EF9218
:101B3000FF920F931F93CF93DF938CE891E00E9465
:101B40007F13C8E6D5E0D12CE990F12C00E010E03D
:101B500020E240E063E08AE00E94FB1388E0D816B0
:101B600021F08EE891E00E947F13D39489E0D8128F
:101B7000EBCF80E991E0DF91CF911F910F91FF9022
:101B8000EF90DF900C947F13AF92BF92CF92DF92D1
:101B9000EF92FF920F931F93CF93DF9382E991E02F
:101BA0000E947F13C1E7D5E0B12C02E216E0AA241F
:101BB000A3948EE1E82E86E0F82E90E2C92E96E0FE
:101BC000D92E89911F928F931F930F93AF920E94EA
:101BD0009A140F900F900F900F900F9087E0B8120B
:101BE00003C0DF92CF9202C0FF92EF92AF920E94A9
:101BF0009A140F900F900F90B39488E0B812E1CF31
:101C0000DF91CF911F910F91FF90EF90DF90CF90D8
:101C1000BF90AF900895CF938FE096E09F938F93FE
:101C2000C1E0CF930E949A14EDE7F5E081818F9394
:101C300080818F9389EF95E09F938F93CF930E943C
:101C40009A14EFE7F5E081818F9380818F9383EE83
:101C500095E09F938F93CF930E949A14E1E8F5E06B
:101C600081818F9380818F938DEC95E09F938F93EB
:101C7000CF930E949A14E3E8F5E081818F938081ED
:101C80008F9387EB95E09F938F93CF930E949A1445
:101C9000809185051F928F9381EA95E09F938F93A2
:101CA000CF930E949A14809186051F928F938BE8A0
:101CB00095E09F938F93CF930E949A148DB79EB710
:101CC00081960FB6F8949EBF0FBE8DBF8091870599
:101CD0001F928F9385E795E09F938F93CF930E94F8
:101CE0009A14809188051F928F938FE595E09F93BA
:101CF0008F93CF930E949A148DB79EB70A960FB612
:101D0000F8949EBF0FBE8DBFCF910895F89490E0D8
:101D1000FC013197E830F105F8F4EC5CFF4F0C94CE
:101D2000A11A8FE890E002C081E990E00E94501C67
:101D300013C083E990E0FACF85E990E0F7CF87E917
:101D400090E008C088E990E005C089E990E002C011
:101D50008AE990E00E943A1C0E944A0C7894089507
:101D6000DF92EF92FF920F931F93CF93DF93F8943C
:101D700001E715E0C0E0D0E034E1D32EE82EF12CED
:101D8000F80161918F0180917C059701D89E200D0B
:101D9000311D1124C90123E0880F991F2A95E1F70D
:101DA0008C0F9D1F855C9E4F0E943A1C2196C83067
:101DB000D10531F77894DF91CF911F910F91FF906A
:101DC000EF90DF900895E1E7F5E0DC012D91CD0182
:101DD0002193B5E0EA37FB07C1F70895CF93DF936E
:101DE00080917105811105C08CECDF91CF910C942D
:101DF000850D85E50E94850DC1E7D5E089910E949A
:101E0000850D85E0C937D807C9F7DF91CF910895CF
:101E10008CEC0E94850D84E40C94850D98E028E1FB
:101E2000362F382730FD02C0669503C062276695BD
:101E3000606886959150A1F7862F0895AF92BF9262
:101E4000DF92EF92FF920F931F93CF93DF931F9236
:101E5000CDB7DEB77C018B01FB011082D82E5C016F
:101E60008A2D8D19841760F4F8016081F501819144
:101E70005F0149830E940E0FF80180834981F0CFF2
:101E8000F701E40FF11D9081F8018081981303C0E0
:101E900081E0911101C080E00F90DF91CF911F91FF
:101EA0000F91FF90EF90DF90BF90AF900895AF92A9
:101EB000BF92CF92DF92EF92FF920F931F93CF9337
:101EC000DF931F92CDB7DEB700917C0541E7A42ECA
:101ED00045E0B42E94E1099F80011124080F111DE3
:101EE00053E0000F111F5A95E1F7E12CF12CC12CA2
:101EF000D12C055C1E4FC8018E0D9F1D0E94221C17
:101F0000F50181935F01C80ED11CFFEFEF1AFF0AA4
:101F100088E0E816F10479F7CD2849F047E0BE01E2
:101F20006F5F7F4F81E795E00E941E0F01C080E048
:101F30000F90DF91CF911F910F91FF90EF90DF9065
:101F4000CF90BF90AF9008950F931F93CF93DF93DF
:101F50001F92CDB7DEB719820E94F20C8CEC0E9462
:101F6000850D0E94F20C83E30E94850D01E715E0C8
:101F70000E946E0DF80181938F01F5E009371F076C
:101F8000B9F747E0BE016F5F7F4F81E795E00E94A0
:101F90001E0F0F90DF91CF911F910F910895DF9247
:101FA000EF92FF920F931F93CF93DF931F92CDB7C2
:101FB000DEB7D82E0E94EE0E8EEB0E94850D68E6ED
:101FC000E62E65E0F62E8701802F8E198D1530F4F0
:101FD0000E946E0DF80181938F01F6CF19824FEFA9
:101FE0004D0DBE016F5F7F4F88E695E00E941E0F8A
:101FF0000F90DF91CF911F910F91FF90EF90DF90A5
:102000000895CF93DF93EB0127EE33E039832883E4
:102010002FE037E23B832A830E94570F811102C0D1
:1020200080E02DC00E94F20C0E94080F2FEF83EC7D
:1020300099E0215080409040E1F700C000000E94EC
:10204000F20C89E00E94CF0F882351F3209169059B
:1020500030E0322F222790916805292B359527955E
:102060003983288390916E054FE85DEF949F90012E
:10207000959F300D1124205F384D3B832A83DF91DB
:10208000CF9108950F931F93CF93DF931F92CDB7F6
:10209000DEB7182F0E94F20C8CEC0E94850D8FE9A0
:1020A0009FE00197F1F700C0000088EB0E94850DCA
:1020B000812F0E94850D0E94F20C8CEC0E94850DF0
:1020C000EFE9FFE03197F1F700C000008EEB0E94CE
:1020D000850D812F0E94850D08E615E00E946E0D8A
:1020E000F80181938F01F5E001371F07B9F71982D5
:1020F00048E0BE016F5F7F4F88E695E00E941E0FAB
:102100000F90DF91CF911F910F9108950E94F20CD3
:102110008CEC0E94850D84E40E94850D2FE788E3F6
:1021200091E0215080409040E1F700C000000E9403
:10213000F20C8CEC0E94850D84EB0E94850D2FE73C
:1021400088E391E0215080409040E1F700C000001A
:1021500080E00E9442100E94960D0C94F20C0F93A6
:102160001F93CF93DF931F92CDB7DEB70E94F20C7F
:102170000E94EE0E8FE99FE00197F1F700C000008A
:1021800088EB0E94850D80E00E94850D0E94F20C74
:102190000E94EE0EEFE9FFE03197F1F700C000007A
:1021A0008EEB0E94850D80E00E94850D08E615E00B
:1021B0000E946E0DF80181938F01F5E001371F0732
:1021C000B9F7198248E0BE016F5F7F4F88E695E05E
:1021D0000E941E0F0F90DF91CF911F910F910895D4
:1021E000DF92EF92FF920F931F93CF93DF93EC0157
:1021F00087EE93E0998388838FE097E29B838A83BD
:102200000E94F20C80917105803109F07BC089E059
:102210000E94CF0FD82E2091690530E0322F22275F
:1022200080916805282B398328838091690535952D
:1022300027953983288340916E058F3F29F54C30CF
:1022400050F021E732E0429FC001439F900D1124DE
:102250008C549D4176C02F5F3F4F39832883609116
:102260006E0541E752E0649FC001659F900D112407
:102270008C53964F9B838A83232B09F083C08DE573
:1022800095E09F938F9322C04D3090F121503109FA
:10229000398328838091680540916E0581111EC0A5
:1022A00021E732E0429FC001439F900D11248C54DE
:1022B0009D419B838A831982188280916E058D309F
:1022C00008F460C02BE535E03F932F9381E08F93B6
:1022D0000E949A140F900F900F9054C02FE83DEF7A
:1022E000429FC001439F900D1124845A9B4B29C0EB
:1022F0002FE83DEF429FC001439F900D1124845B66
:10230000924E1FC0883201F589E00E94CF0FD82E6F
:102310002091690530E0322F222780916805282B13
:10232000A4E035952795AA95E1F739832883409154
:1023300068054F7021E732E0429FC001439F900D36
:1023400011249B838A831EC0863279F40E94AF10C9
:102350008823B1F080916A0590E099838883809109
:10236000690590E09B838A830BC08BE495E09F9383
:102370008F9381E08F930E949A140F900F900F908B
:10238000DD24D39489818F9388818F9327E435E06E
:102390003F932F9381E08F930E949A14EA80FB80F1
:1023A0000027F7FC0095102F20E340E064E08AE06E
:1023B0000E94FB130F900F900F900F900F908D2D98
:1023C000DF91CF911F910F91FF90EF90DF900895D3
:1023D000CF93DF93D82FC62F0E94F20C8CEC0E9473
:1023E000850D8EE40E94850D8D2F0E94850D8C2F0A
:1023F0000E94850D81E08C0F0E94850D83E08C0F7B
:102400000E94850D84E08C0F0E94850D0E94F20CC5
:102410008CEC0E94850D88E40E94850D8D2FDF9144
:10242000CF910C94850DE8E5F5E0119285E0E0365A
:10243000F807D9F70895AF92BF92CF92DF92EF924B
:10244000FF920F931F93CF93DF93C8E5D5E0B12C94
:1024500005E315E0AA24A39481E3E82E85E0F82E95
:1024600093E3C92E95E0D92E89911F928F931F93E4
:102470000F93AF920E949A140F900F900F900F90AD
:102480000F9087E0B81203C0DF92CF9202C0FF9294
:10249000EF92AF920E949A140F900F900F90B39406
:1024A00088E0B812E1CFDF91CF911F910F91FF909B
:1024B000EF90DF90CF90BF90AF900C94CD13E09150
:1024C0006005E827F0E0EC56FE4F808180936005C0
:1024D0000895EF92FF920F931F93CF93DF931F9274
:1024E000CDB7DEB71092600580916405811180C080
:1024F0000E94F20C811112C088E395E09F938F93A4
:1025000081E08F930E949A141092650510926405E1
:10251000109263050F900F900F9070C080EF0E9493
:10252000850D11E000E0E12CFF24F3940E94350DAD
:1025300089830E94350D9981913019F48130C9F455
:1025400048C0202F30E0981324C080916505F8160C
:1025500038F4F901E85AFA4F8081812351F402C01E
:10256000F81639F090E088E08F1590F0F09263054E
:102570000FC0E02FF0E0DF01A85ABA4F8C91812BF9
:102580008C93E859FA4F8185812B818791E00FC0A8
:10259000EF2CF901E85AFA4F8081412F40958423AE
:1025A0008083F901E859FA4F818584238187892F37
:1025B0000E949E0CF394110F49F4E02FF0E0E85ACA
:1025C000FA4F80810E945F120F5F11E0083008F41B
:1025D000ADCFE0E4EF1560F480916005811108C093
:1025E000E0926505E1100CC081E08093640508C0AD
:1025F00010926505109264051092630580E005C095
:10260000809158058823A1F381E00F90DF91CF914D
:102610001F910F91FF90EF90089510926505109211
:102620006405109263050C9469120C946912FF9270
:102630000F931F93CF93DF93CDB7DEB728970FB6D5
:10264000F894DEBF0FBECDBFDE011196E8E5F5E0E0
:1026500081918D9385E0E036F807D1F7F09065051C
:10266000009164051091630580E4809365051092E4
:1026700064050E9469129E01275F3F4F882369F01D
:10268000A8E5B5E0FE01319691918D91981305C0B2
:10269000E217F307C9F781E001C080E0A8E5B5E0E3
:1026A000FE01319691919D93E217F307D9F7F092CD
:1026B0006505009364051093630528960FB6F8949A
:1026C000DEBF0FBECDBFDF91CF911F910F91FF9065
:1026D00008959093C7038093C6030895CF93C82F9E
:1026E0008A3031F4E091C603F091C7038DE009957B
:1026F000E091C603F091C7038C2FCF910994CF933B
:10270000DF93009739F0EC018991882319F00E943A
:102710006E13FACFDF91CF910895EF92FF920F934E
:102720001F93CF93DF937A010097F9F0FC01680FB4
:10273000791FEF01E617F70719F400E010E00FC06A
:10274000EF01219680818823C1F3FE01F2CF8881B9
:10275000882349F021960E946E130F5F1F4F0E15BC
:102760001F05A9F702C080E2F6CFDF91CF911F913C
:102770000F91FF90EF900895CF93DF93009751F062
:10278000FC018491EF012196882321F00E946E13B1
:10279000FE01F7CFDF91CF9108958AE00C946E137C
:1027A0008F70E82FF0E0E55DF94F84910C946E1383
:1027B000CF93C82F82958F700E94D0138C2FCF910A
:1027C0000C94D013CF93C82F892F0E94D8138C2F2D
:1027D000CF910C94D813CF92DF92EF92FF926B01BE
:1027E0007C01C7010E94E213C601FF90EF90DF90C9
:1027F000CF900C94E2133F924F925F926F927F9230
:102800008F929F92AF92BF92CF92DF92EF92FF9200
:102810000F931F93CF93DF93CDB7DEB7A0970FB67B
:10282000F894DEBF0FBECDBF882E762E622E4423D5
:1028300051F017FF08C066277727CB016E197F0973
:10284000800B910B02C0C801B7014424439441118D
:1028500001C0412C55245A94570C541818A2912C9D
:10286000A12CB12CA50194010E947F1AFB01EF70ED
:10287000FF27E55DF94F64916F8FB901CA016E01C1
:102880002EE1C20ED11C352C3A942FEF3216D1F026
:10289000611571058105910579F0A50194010E94EA
:1028A0007F1AFB01EF70FF27E55DF94F6491F60198
:1028B0006083B901CA0102C0F6016082F1E0CF1A5B
:1028C000D108E2CFCE014F9685199109442069F0D5
:1028D000FC01319717FF02C02DE205C0EF28E02A66
:1028E000E12A31F02BE22083CF018C01780E02C067
:1028F00020E2F9CF701631F0F80181918F010E942A
:102900006E13F8CFA0960FB6F894DEBF0FBECDBF02
:10291000DF91CF911F910F91FF90EF90DF90CF90BB
:10292000BF90AF909F908F907F906F905F904F90EF
:102930003F9008955F926F927F928F929F92AF9295
:10294000BF92CF92DF92EF92FF920F931F93CF939C
:10295000DF931F92CDB7DEB7EC89FD897E0126E1BA
:10296000E20EF11C3AE0832E912C3B89332381F057
:102970008F010F5F1F4F8491853289F0882309F4FE
:1029800068C00E946E13370168017301F601EDCF34
:102990008081853259F08F010F5F1F4FEFCF6F019C
:1029A00082E0C80ED11CF801849105C06F0122E0BD
:1029B000C20ED11C8181843659F0883799F0833654
:1029C00069F4F701808197012E5F3F4F790106C0BE
:1029D0002AE0A22EB12C00E117E209C00E946E137A
:1029E0003701D3CF90E1A92EB12C00E010E13701DF
:1029F00032E0630E711CF701E080F1808436A1F4AF
:102A0000F7FE0FC0F194E194F1088DE20E946E137D
:102A100008C0C801B4010E946B1A8B0162307105B5
:102A200018F0E016F106A8F3C701B8010E946B1A6E
:102A3000582E862F99830E94D013E52C9981F92E68
:102A4000C801B5010E946B1A8B016115710561F710
:102A50009CCF80E090E00F90DF91CF911F910F917C
:102A6000FF90EF90DF90CF90BF90AF909F908F90AE
:102A70007F906F905F90089589E296E00C94BC136C
:102A800090E070E0615071098617970711F00C947F
:102A90003C15089587E296E00C94BC1385E296E01D
:102AA0000C94BC130895813071F028F18230A1F0AC
:102AB000833009F580916E00877F80936E0080914E
:102AC0006E00826012C080916E00877F80936E00DE
:102AD00080916E008D7F09C080916E00877F80930A
:102AE0006E0080916E0082600EC080936E008091B7
:102AF0006E0081600DC080916E00877F80936E00B4
:102B000080916E008D7F80936E0080916E008E7F2D
:102B100080936E0080916E00826080936E00A99A0F
:102B2000089595B5987F982B95BD089582E00E94F1
:102B3000911516BCEEE6F0E08081816080831092F2
:102B40009505109296051092970510929805089594
:102B5000E1E8F0E09081987F982B9083089581E0E0
:102B60000E94A8151092850010928400EFE6F0E014
:102B70008081816080830895E1EBF0E09081987F0F
:102B8000982B9083089584E00E94BC151092B200A7
:102B9000E0E7F0E080818160808310929D051092D3
:102BA0009E0510929F051092A0050895E5B5E77067
:102BB000F0E0EE0FFF1FE45BF94F859194910895CB
:102BC000E0918100E770F0E0EE0FFF1FE45BF94F4A
:102BD000859194910895E091B100E770F0E0EE0FD7
:102BE000FF1FE45CF94F8591949108958A3040F479
:102BF000E82FF0E0EE0FFF1FE853FC4F7183608376
:102C000008958A3040F4E82FF0E0EE0FFF1FE853FC
:102C1000FC4F118210820895CF93C0E08C2F0E9448
:102C20000116CF5FCA30D1F70E9496150E94AF15EA
:102C30000E94C3157894CF910895CF92DF92EF92BE
:102C4000FF920F931F93CF93DF93EC0116B5109271
:102C5000990510929A0510929B0510929C050E946E
:102C6000D6159C0140E050E060E074E284EF90E013
:102C70000E947F1A6E01E12CF12C293B8DE8380768
:102C800086E048075105A0F4C131D74288F4C70156
:102C9000B6010E945B1A28EE33E040E050E00E944B
:102CA0007F1ADA01C901810F911DA11DB11D0FC04D
:102CB000CA01B90128EE33E040E050E00E947F1ADB
:102CC000C701B6010E945B1A9B01AC01EACF0091DB
:102CD000990510919A0520919B0530919C0566B548
:102CE000322F212F102F0027062B081719072A072C
:102CF0003B0798F44091990550919A0560919B0586
:102D000070919C0523B7217F23BF23B7216023BF88
:102D1000889523B72E7F23BFDACFDF91CF911F9104
:102D20000F91FF90EF90DF90CF900895109295054E
:102D3000109296051092970510929805089560914B
:102D40009505709196058091970590919805089545
:102D500010929D0510929E0510929F051092A0055D
:102D6000089560919D0570919E0580919F059091B9
:102D7000A0050895893049F4809180008260809395
:102D80008000809180008E7F0EC08A3021F4809177
:102D90008000826003C0809180008D7F80938000DE
:102DA0008091800081608093800010928900109251
:102DB000880010928B0010928A000895E0E8F0E0FD
:102DC00020812E7F2083208122602083E1E8F0E0B3
:102DD00020812860208320812061208390938700B8
:102DE00080938600109289001092880010928B00C8
:102DF00010928A000895E0E8F0E080818068808386
:102E000080818F7B80830895E0E8F0E0808180629C
:102E1000808380818F7E80830895E0E8F0E0808168
:102E20008F77808380818F7B80830895E0E8F0E056
:102E300080818F7D808380818F7E80830895E0E80C
:102E4000F0E080818D7F808380818E7F80830E94EF
:102E50000D170C941617909389008093880008959D
:102E600090938B0080938A000895E0EBF0E08081DE
:102E70008068808380818F7B808380818160808374
:102E8000808182608083E1EBF0E08081877F8083B6
:102E90000895E0EBF0E080818062808380818F7E06
:102EA00080830895E0EBF0E080818F7780838081DC
:102EB0008F7B808308958093B30008958093B4003E
:102EC00008951F920F920FB60F9211242F933F93E4
:102ED0004F935F936F937F938F939F93AF93BF9322
:102EE000EF93FF938091950590919605A09197059A
:102EF000B09198050196A11DB11D80939505909301
:102F00009605A0939705B0939805809199059091A7
:102F10009A05A0919B05B0919C050196A11DB11D3C
:102F20008093990590939A05A0939B05B0939C0577
:102F30008091C8039091C903892B29F0E091C803BF
:102F4000F091C9030995FF91EF91BF91AF919F91C6
:102F50008F917F916F915F914F913F912F910F9042
:102F60000FBE0F901F9018951F920F920FB60F92E1
:102F700011242F933F934F935F936F937F938F937E
:102F80009F93AF93BF93EF93FF9380919D05909193
:102F90009E05A0919F05B091A0050196A11DB11DB0
:102FA00080939D0590939E05A0939F05B093A005E7
:102FB0008091D6039091D703892B29F0E091D60315
:102FC000F091D7030995FF91EF91BF91AF919F9138
:102FD0008F917F916F915F914F913F912F910F90C2
:102FE0000FBE0F901F9018951F920F920FB60F9261
:102FF00011242F933F934F935F936F937F938F93FE
:103000009F93AF93BF93EF93FF938091CA039091E7
:10301000CB03892B29F0E091CA03F091CB030995EA
:10302000FF91EF91BF91AF919F918F917F916F91A0
:103030005F914F913F912F910F900FBE0F901F9076
:1030400018951F920F920FB60F9211242F933F9352
:103050004F935F936F937F938F939F93AF93BF93A0
:10306000EF93FF938091CC039091CD03892B29F0AE
:10307000E091CC03F091CD030995FF91EF91BF91C1
:10308000AF919F918F917F916F915F914F913F9100
:103090002F910F900FBE0F901F9018951F920F92B7
:1030A0000FB60F9211242F933F934F935F936F931B
:1030B0007F938F939F93AF93BF93EF93FF938091F1
:1030C000D0039091D103892B29F0E091D003F091A6
:1030D000D1030995FF91EF91BF91AF919F918F918E
:1030E0007F916F915F914F913F912F910F900FBE04
:1030F0000F901F9018951F920F920FB60F921124E8
:103100002F933F934F935F936F937F938F939F93EF
:10311000AF93BF93EF93FF938091D2039091D3032A
:10312000892B29F0E091D203F091D3030995FF9107
:10313000EF91BF91AF919F918F917F916F915F912F
:103140004F913F912F910F900FBE0F901F901895A8
:103150001F920F920FB60F9211242F933F934F930C
:103160005F936F937F938F939F93AF93BF93EF93EF
:10317000FF938091D4039091D503892B29F0E0919E
:10318000D403F091D5030995FF91EF91BF91AF91D1
:103190009F918F917F916F915F914F913F912F916F
:1031A0000F900FBE0F901F9018951F920F920FB6A1
:1031B0000F9211242F933F934F935F936F937F93BD
:1031C0008F939F93AF93BF93EF93FF938091D80317
:1031D0009091D903892B29F0E091D803F091D9037C
:1031E0000995FF91EF91BF91AF919F918F917F9141
:1031F0006F915F914F913F912F910F900FBE0F9064
:103200001F90189540E450E06EE174E082EA95E08A
:103210000E945E0340E450E06EED73E08BEA95E0BF
:103220000C945E039093DD038093DC0308959B016F
:10323000AC0182E08093C00088E98093C10083E004
:10324000220F331F441F551F8A95D1F760E074E2A7
:1032500084EF90E00E947F1A21502093C40078945C
:1032600008950E9402191092DD031092DC0388ED8C
:103270008093C10060E072EC81E090E00E94171939
:103280008FEF8093A1051092AA051092B4051092B9
:10329000B3057894089582EA95E008958BEA95E065
:1032A00008959091C00095FFFCCF8093C6001092C6
:1032B000A1050895CF93DF93EC018091A40590912F
:1032C000A505892B69F08091A6059091A705892B0A
:1032D00039F082EA95E00E946B0388838FEF01C08A
:1032E00080E0DF91CF910895CF93DF931F92CDB708
:1032F000DEB7CE0101960E945A19882319F0898100
:1033000090E002C08FEF9FEF0F90DF91CF91089573
:103310001092A7051092A605089581E02091A605B8
:103320003091A705232B09F080E081950895682F3F
:103330008BEA95E00C94C3038FEF8093AA058BEA88
:1033400095E00E946B030C9451191F920F920FB6D7
:103350000F9211242F933F934F935F936F937F931B
:103360008F939F93AF93BF93EF93FF938091AA05A1
:10337000882379F08091AF059091B005892B39F0C1
:103380008BEA95E00E946B038093C60005C0109203
:10339000AA058FEF8093A105FF91EF91BF91AF91A7
:1033A0009F918F917F916F915F914F913F912F915D
:1033B0000F900FBE0F901F9018951F920F920FB68F
:1033C0000F9211242F933F934F935F936F937F93AB
:1033D0008F939F93AF93BF93EF93FF938091C6001A
:1033E0002091DC033091DD03232B31F0E091DC03ED
:1033F000F091DD03099510C0682F82EA95E00E94E4
:10340000C303811109C08091B3059091B405019661
:103410009093B4058093B305FF91EF91BF91AF9165
:103420009F918F917F916F915F914F913F912F91DC
:103430000F900FBE0F901F9018958AE796E00C949E
:10344000BC1385E796E00C94BC131F928F938FE614
:1034500096E09F938F9381E08F930E949A140F9030
:103460000F900F900F900F900895882319F088E621
:1034700096E002C081E696E09F938F9381E08F9360
:103480000E949A140F900F900F9008951F926F93BF
:103490001F928F9388E596E09F938F9381E08F939F
:1034A0000E949A148DB79EB707960FB6F8949EBFE8
:1034B0000FBE8DBF0895DB018F939F930E94A71AC3
:1034C000BF91AF91A29F800D911DA39F900DB29FC0
:1034D000900D11240895AA1BBB1B51E107C0AA1F20
:1034E000BB1FA617B70710F0A61BB70B881F991FA5
:1034F0005A95A9F780959095BC01CD010895A1E258
:103500001A2EAA1BBB1BFD010DC0AA1FBB1FEE1F5D
:10351000FF1FA217B307E407F50720F0A21BB30BA8
:10352000E40BF50B661F771F881F991F1A9469F724
:1035300060957095809590959B01AC01BD01CF0180
:103540000895EE0FFF1F0590F491E02D09940E945D
:10355000B21AA59F900DB49F900DA49F800D911D50
:1035600011240895A29FB001B39FC001A39F700DC5
:10357000811D1124911DB29F700D811D1124911D7B
:1035800008952F923F925F926F927F928F929F92B7
:10359000AF92BF92CF92DF92EF92FF920F931F9361
:1035A000CF93DF938B01EA016115710521F0DB01F7
:1035B0008C9311969C93209739F09E0122503109EB
:1035C0002332310508F0FBC07C016701BFEFCB1A45
:1035D000DB0A5601F7016080862D90E00E94F51B02
:1035E000892B11F07601F1CFFDE26F120AC057016D
:1035F00082E0A80EB11CD70111966C9077247394C9
:103600000BC0BBE26B1207C05701E2E0AE0EB11C6B
:10361000D70111966C90712CCE018F7E892B89F485
:10362000B0E36B1222C0F50180818F7D883541F5B2
:103630006180F2E0AF0EB11C872D8260782EC0E170
:10364000D0E0C830D105F1F04CF4C230D10511F50D
:10365000C12CD12CE12CB0E4FB2E2FC0CA30D105F7
:1036600031F0C031D10521F115C0209751F7CAE0E2
:10367000D0E0ACECCA2EDC2CEC2CACE0FA2E1DC059
:103680002097F9F6C8E0D0E0C12CD12CE12CF0E174
:10369000FF2E13C060E070E080E090E89E014427B8
:1036A00037FD4095542F0E947F1A69017A0105C0A9
:1036B000C12CD12CE12CE8E0FE2EF50160E020E0E9
:1036C00030E0A9014E01AA2497FCA094BA2C1F0156
:1036D00070ED572E560CA9E0A51570F48FEB860DF2
:1036E0008A3118F499EC592E06C08FE9860D8A317B
:1036F00030F589EA582E560C852D90E08C179D07E1
:10370000F4F467FD18C0C216D306E406F50680F08F
:10371000C501B4010E945B1A9B01AC01250D311D4E
:10372000411D511D213031054105B0E85B0710F006
:103730006FEF01C061E03196D1016C90C8CF872D49
:1037400081700115110571F0662329F03197D801B8
:10375000ED93FC9307C071FE19C03297D801ED9329
:10376000FC9314C067FF12C0882329F020E030E0EA
:1037700040E050E804C02FEF3FEF4FEF5FE782E2F9
:1037800090E09093B6058093B50516C0882341F06C
:1037900050954095309521953F4F4F4F5F4F0CC04E
:1037A00057FF0AC082E290E09093B6058093B5057A
:1037B0002FEF3FEF4FEF5FE7B901CA0104C060E0B0
:1037C00070E080E090E0DF91CF911F910F91FF902A
:1037D000EF90DF90CF90BF90AF909F908F907F90B1
:1037E0006F905F903F902F90089591115EC080324E
:1037F00019F089508550D0F70895FB01DC01019044
:103800000D920020E1F70895FB01DC01415050408A
:1038100030F08D910190801919F40020B9F7881BC0
:10382000990B0895DC01CB01FC01F999FECF06C08C
:10383000F2BDE1BDF89A319600B40D92415050406E
:10384000B8F70895F999FECF92BD81BDF89A9927EE
:1038500080B50895A8E1B0E042E050E00C94141C5B
:10386000DC01CB0103C02D910E943B1C4150504014
:10387000D0F70895262FF999FECF1FBA92BD81BDCA
:1038800020BD0FB6F894FA9AF99A0FBE01960895E2
:10389000242F0E943B1C252F0E943B1C0C94501C83
:1038A0000E943A1C272F0C943B1C992788270895C7
:0438B000F894FFCFBA
:1038B40068656C700069646E006765746677007390
:1038C4006574736E00676574736E00746573740059
:1038D4006A736F6E00706F6B65007065656B006472
:1038E400756D700073747265616D00696E746572D4
:1038F40076616C0064656C617900726F6D0072654D
:10390400736574006C6F6164007370007361766535
:103914000073746172740074656D70006461746125
:103924000070696E00727000777000736561726375
:10393400680073657474696D696E67005B002C00C0
:103944005D002200005EBCE2613FDD83C29C7E20FC
:10395400A3FD1F419DC3217FFCA2401E5F01E3BD67
:103964003E6082DC237D9FC1421CFEA0E1BF5D035B
:1039740080DE3C62BEE0025CDF81633D7C22C09E4F
:103984001D43A1FF4618FAA427799BC584DA38663B
:10399400E5BB5907DB856739BAE406581947A5FB27
:1039A4007826C49A653BD987045AB8E6A7F91B451B
:1039B400C6987A24F8A6441A99C7257B3A6486D80F
:1039C4005B05E7B98CD2306EEDB3510F4E10F2ACFB
:1039D4002F7193CD114FADF3702ECC92D38D6F31E7
:1039E400B2EC0E50AFF1134DCE90722C6D33D18FDB
:1039F4000C52B0EE326C8ED0530DEFB1F0AE4C12CF
:103A040091CF2D73CA947628ABF517490856B4EABA
:103A14006937D58B5709EBB536688AD495CB2977A6
:103A2400F4AA4816E9B7550B88D6346A2B7597C99A
:103A34004A14F6A8742AC896154BA9F7B6E80A548E
:043A4400D7896B357E
:00000001FF
