:100000000C9422030C943F030C943F030C943F0385
:100010000C943F030C943F030C943F030C941D1568
:100020000C943F030C94FC130C94F0140C94961451
:100030000C94C3140C94270A0C943C140C9469146B
:100040000C94A9130C943F030C94E9150C943F03F2
:100050000C94B1150C943F030C943F030C943F0394
:100060000C943F030C943F03CC0DCF0DD40DD70D52
:10007000DA0DDD0DE00DE30D220022007D3C2F2581
:10008000643E003C25643E7B22636D64223A22007C
:10009000222C202264617461223A2000636F6D6D0E
:1000A000616E64206E6F7420666F756E64004552D9
:1000B000524F523A2000636D643E000A74686572C4
:1000C0006D5F7265736574203D2025640A000A0027
:1000D0005D005D005D2C005B5D005B25642C005BBA
:1000E00000435243204572726F72005B2230222C13
:1000F000302C305D5D00203A2000203A200025643D
:10010000203A20005B00310025640025640025644E
:10011000000D0A000D0A002030782578003078257F
:100120007825782030782578005B25642C2230787B
:100130002578225D00220022007D002C226C6F6356
:100140006174696F6E223A007B22534E223A00227C
:100150004552524F52202D20496E76616C696420C1
:1001600073796E746178206C6162656C205B617C70
:10017000627C647C697C6C7C735D206465764E7502
:100180006D206C6162656C5F746578742200224F2B
:100190004B2200224F4B220022006F7769726520AC
:1001A00031352E31322E313200220077702020205E
:1001B000202020202020202020203A2077726974DF
:1001C00065206461746120746F2073706563696673
:1001D00069656420706167650A00727020202020C4
:1001E0002020202020202020203A207265616420D9
:1001F0007370656369666963207061676520667204
:100200006F6D2033383234206465766963650A0087
:100210006461746120202020202020202020203AAA
:10022000207265616420646174612066726F6D2064
:1002300033383234206465766963650A0074656D0D
:100240007020202020202020202020203A207265AD
:1002500061642074656D7065726174757265730A8E
:100260000073746172742020202020202020202020
:100270003A2073746172742074656D706572617474
:10028000757265206D6561737572656D656E740A52
:10029000007361766520202020202020202020204F
:1002A0003A2073617665207363726174636870616C
:1002B0006420746F20656570726F6D0A0073702022
:1002C0002020202020202020202020203A20736879
:1002D0006F772073637261746368207061640A00D1
:1002E0006C6F616420202020202020202020203AD4
:1002F000206C6F616420656570726F6D20636F6E36
:1003000074656E740A00726F6D20202020202020FA
:1003100020202020203A207265616420726F6D20B9
:100320006F6620612073696E676C6520646576690D
:1003300063650A000A0A4F6E657769726520436F2C
:100340006D6D616E64733A0A0073747265616D203D
:10035000202020202020202020203A207374617249
:10036000742073747265616D696E670A00746573D9
:1003700074202020202020202020202020203A200F
:10038000746573742066756E6374696F6E0A0070AD
:100390006F6B65205B7265675D205B76616C5D20CD
:1003A0003A2073657473207265676973746572208F
:1003B00076616C756520746F205B76616C5D200AD8
:1003C000007065656B205B7265675D2020202020D2
:1003D00020203A2072657475726E73206465632CF8
:1003E0002068657820616E642062696E2076616C99
:1003F0007565206F662072656769737465720A009F
:1004000074657374202020202020202020202020AC
:10041000203A20746573742066756E6374696F6E1C
:100420000A0069646E202020202020202020202027
:100430002020203A207072696E747320646576699A
:10044000636520494420616E642076657273696F2C
:100450006E20696E666F0A000A436F6D6D616E648F
:10046000733A0A005A20202020202020202020201B
:1004700020202020203A20726573657420636F6D00
:100480006D616E64206E756D62657220746F207A86
:1004900065726F0A00532020202020202020202079
:1004A0002020202020203A20706572666F726D2017
:1004B00062696E617279207365617263680A0052C5
:1004C000202020202020202020202020202020202C
:1004D0003A2073656E642072657365742070756C64
:1004E00073650A0043202020202020202020202087
:1004F00020202020203A20636C6561722073637293
:1005000065656E0A00496E7374616E7420636F6D69
:100510006D616E64733A0A006F7774656D70222C9A
:100520002264617461223A002E0022002564007466
:100530006865726D5F726573657428290A002564A9
:100540002E00224445565F4E4F545F464F554E4451
:1005500022002D002D00303820745F726561645FC9
:10056000736C6F7420203A2025640A0030372074A1
:100570005F726561645F73616D7020203A2025644D
:100580000A00303620745F77726974655F736C6F30
:1005900074203A2025640A00303520745F77726930
:1005A00074655F6C6F7720203A2025640A00303430
:1005B00020745F72657365745F64656C61793A205D
:1005C00025640A00303320745F72657365745F724E
:1005D000782020203A2025640A00303220745F728F
:1005E000657365745F74782020203A2025640A00C2
:1005F000303120745F636F6E762020202020202011
:100600003A2025640A000A31576972652054696DE1
:10061000696E670A002E0022002564005B005D0001
:100620002C00303132333435363738394142434487
:100630004546001B5B25643B256448001B5B324A32
:10064000001B630011241FBECFEFD8E0DEBFCDBF7B
:1006500012E0A0E0B1E0E4EBF0E302C005900D92FF
:10066000A439B107D9F725E0A4E9B2E001C01D9291
:10067000A73BB207E1F70E94700A0C9458180C943B
:100680000000FC018FB7F894718360835383428329
:1006900017821682158214828FBF0895FC019FB7BE
:1006A000F8944481558141155105C9F0268137815F
:1006B000A081B181A20FB31F8C912F5F3F4F378371
:1006C0002683628173812617370720F0261B370B9C
:1006D00037832683415051095583448301C080E00C
:1006E0009FBF0895FC01362F2FB7F894A481B581E0
:1006F00062817381A617B70798F4868197818A0F64
:100700009B1F0E945616A081B181A80FB91F3C9370
:10071000848195810196958384832FBF8FEF0895FF
:100720002FBF80E00895109265041092610410922A
:100730006604109263041092620410926404109292
:10074000C2031092C3031092C4031092C50308950C
:10075000EF92FF921F93CF93DF937B01109164047C
:10076000C12FD0E09E0143E0220F331F4A95E1F7ED
:10077000BC01C9018E529D4F0E94C617CC0FDD1FD0
:10078000CA56DD4FF982E8821F5F10936404DF913F
:10079000CF911F91FF90EF900895909395028093D1
:1007A00094020895CF93DF9380915F048823E9F04A
:1007B0008091C5038F938091C4038F938091C3036D
:1007C0008F938091C2038F9383E890E09F938F93E0
:1007D00081E08F930E94C9128DB79EB707960FB61E
:1007E000F8949EBF0FBE8DBF10C0C6EBD0E0CE0107
:1007F000FE012491222349F02196FC018491E0918D
:100800009402F09195020995F2CFDF91CF9108956E
:100810001F93CF93DF93E0919402F09195028DE0C6
:1008200009950E94D20310916104C7E6D4E01C0F21
:100830001C1739F0E0919402F09195028991099585
:10084000F7CFDF91CF911F910895882319F0813060
:1008500059F00895809167048823D1F067E674E029
:1008600087EB94E00C94C61767EB74E087E694E09E
:100870000E94C617E7E6F4E001900020E9F73197FF
:10088000E756F440E0936104E09366040C94080496
:100890000895E0916204F0916304309739F009956E
:1008A00010926304109262040C94D2030895809114
:1008B000C2039091C303A091C403B091C5030196F4
:1008C000A11DB11D8093C2039093C303A093C403E1
:1008D000B093C50308951092C2031092C3031092FF
:1008E000C4031092C503089580915F048823F9F032
:1008F0008091C5038F938091C4038F938091C3032C
:100900008F938091C2038F938CE790E09F938F9396
:1009100081E08F930E94C9120E941E128DB79EB76C
:1009200007960FB6F8949EBF0FBE8DBF02C00E94FF
:100930001E120C945704CF93DF938091C5038F93BD
:100940008091C4038F938091C3038F938091C203DE
:100950008F938AE790E09F938F9381E08F930E941B
:10096000C9128DB79EB707960FB6F8949EBF0FBEFB
:100970008DBFCEEAD0E0CE01FE012491222349F0C2
:100980002196FC018491E0919402F09195020995E1
:10099000F2CFC7E6D4E08991982F9F7DE091940231
:1009A000F0919502992311F00995F5CF8AE3099505
:1009B000E0919402F091950280E20995CCE9D0E0B3
:1009C000CE01FE012491222349F02196FC0184915D
:1009D000E0919402F09195020995F2CF88E790E0BA
:1009E0009F938F9381E08F930E94C9120F900F9075
:1009F0000F90DF91CF910C947404BF92CF92DF924D
:100A0000EF92FF920F931F93CF93DF9380E00E94AA
:100A1000250480E0C82ED12CF601E959FB4F9081C6
:100A20009F7D11F08F5FF6CF811107C080915F0429
:100A3000811137C00E941E1229C080E990E00E94F7
:100A40000D12B090640492EDE92E92E0F92E00E0D0
:100A500010E00B15C8F4E801A60167E674E0C701D1
:100A60000E94CD170F5F1F4F28E0E20EF11C892B6B
:100A700081F7CC0FDD1FCA56DD4F88819981909395
:100A80006304809362040DC00E949B04DF91CF91A8
:100A90001F910F91FF90EF90DF90CF90BF900C943B
:100AA000D203DF91CF911F910F91FF90EF90DF90D4
:100AB000CF90BF900895CF93C82F80916504823066
:100AC000B9F5C33441F0C43409F1C13471F581E0A2
:100AD0000E9425042AC08091660490916104E091EF
:100AE0009402F09195028917F0F48F5F8093660469
:100AF0008BE10995E0919402F09195028BE50995BF
:100B0000E0919402F091950283E40EC08091660416
:100B1000E0919402F0919502882329F0815080930E
:100B2000660488E001C087E0099510926504CFC093
:100B3000813021F4CB3511F482E0C7C010926504F6
:100B400080EE8C0F8F3508F047C04091660480918D
:100B50006104481316C0E0919402F09195028C2F25
:100B60000995E091660481E08E0F80936604F0E0C1
:100B7000E959FB4FC083809161048F5F80936104CA
:100B8000A6C08F5F80936104481760F4A82FB0E07F
:100B9000A959BB4F9D0121503109F90190819C93C6
:100BA0008150F2CF81E0840F80936604E42FF0E05F
:100BB000E959FB4FC0830E940804C09166048091EC
:100BC0006104C81708F083C0E0919402F091950287
:100BD00088E00995CF5FF3CFCA3011F0CD30B1F482
:100BE000E091610481E08E0F80936104F0E0E959A7
:100BF000FB4F1082809166048F5F809366040E9491
:100C0000FD04109261041092660461C0CF3719F0A0
:100C1000C83009F057C080916604882309F44BC09E
:100C20009091610489131DC0E0919402F0919502A6
:100C300088E00995E0919402F091950280E209958F
:100C4000E0919402F091950288E009958091610409
:100C50008150809361048091660481508093660482
:100C600036C0915090936104815080936604891737
:100C700040F4E82FF0E0E959FB4F218120838F5F9A
:100C8000F6CF0E940804E0919402F091950280E270
:100C90000995C09166048091610490E02C2F30E0AA
:100CA00082179307A4F0E0919402F091950288E0F6
:100CB0000995CF5FF0CFE0919402F091950287E023
:100CC000CF910994CB3119F481E080936504CF91E1
:100CD000089590E0E92FF0E0E959FB4F20812032A0
:100CE00011F49F5FF7CF20E02817A1F0E92FF0E083
:100CF000E959FB4F30813F7D11F09F5FF7CFE92F1E
:100D0000F0E0E959FB4F3081303211F49F5FF7CFAB
:100D10002F5FEACF892F90E089599B4F0895CF9399
:100D2000DF9300D0CDB7DEB70E9469064AE050E0FD
:100D3000BE016F5F7F4F0E94AC160F900F90DF9146
:100D4000CF910895CF93DF9300D0CDB7DEB70E9447
:100D5000690640E150E0BE016F5F7F4F0E94AC1614
:100D60000F900F90DF91CF91089581E00E948F0640
:100D700060935F04089581E00E948F0682E00C94E6
:100D80008F0685E095E00E940D1284EE94E00E94AB
:100D90000D128FEB94E00E940D1285E994E00E9401
:100DA0000D1284E694E00E940D1288E594E00E9402
:100DB0000D1282E294E00E940D1280E094E00E9405
:100DC0000D1281EC93E00E940D128FE893E00E94D7
:100DD0000D128DE693E00E940D1289E493E00E94CB
:100DE0000D1284E393E00E940D1286E093E00E94CE
:100DF0000D1280EE92E00E940D128DEB92E00E94A7
:100E00000D1281E992E00E940D1281E692E00E94AB
:100E10000D128DE392E00E940D1280E192E00E949B
:100E20000D128AED91E00E940D128BEA91E00C9474
:100E30000D1289EA91E00E940D128AE991E00E9468
:100E40000D1288E991E00E940D120C9474040E9426
:100E50003C0C0E94370E86E091E00E940D120C942B
:100E600074040F931F93CF93DF93CDB7DEB76497CE
:100E70000FB6F894DEBF0FBECDBF81E00E946906B9
:100E80008C0182E00E948F0683E00E946906BC010B
:100E9000F80180818C3679F4CE0101960E94C61744
:100EA00044E150E064E670E0CE0101960E94FC1738
:100EB00083E991E013C0833779F4CE0101960E9453
:100EC000C61744E150E068E770E0CE0101960E9449
:100ED000FC178EE891E002C08FE491E00E940D12B1
:100EE0000E94740464960FB6F894DEBF0FBECDBFA7
:100EF000DF91CF911F910F910895CF92DF92EF92E2
:100F0000FF9281E00E94A2066B017C0182E00E94B8
:100F1000A206F6016083FF90EF90DF90CF900895D6
:100F200081E00E94A206FB0180811F928F931F9295
:100F30008F9389E291E09F938F9381E08F930E943A
:100F4000C9128DB79EB707960FB6F8949EBF0FBE15
:100F50008DBF0C9474048F929F92AF92BF92CF92E8
:100F6000DF92EF92FF920F931F93CF93DF9381E075
:100F70000E94A206EB0182E00E94A2067B0110E023
:100F800087E1C82E81E0D82E01E09DE1A92E91E0F5
:100F9000B92E24E1822E21E0922EEC16FD0698F166
:100FA0008881111116C01F928F93CE0199279F93AC
:100FB0008F931F92DF93BF92AF920F930E94C9123B
:100FC0008DB79EB709960FB6F8949EBF0FBE8DBF22
:100FD0000CC01F928F93DF92CF920F930E94C91281
:100FE0000F900F900F900F900F901F5F183049F4E3
:100FF0009F928F920F930E94C9120F900F900F90A3
:1010000010E02196CACF81E191E09F938F9381E018
:101010008F930E94C9120F900F900F90DF91CF9184
:101020001F910F91FF90EF90DF90CF90BF90AF9006
:101030009F908F90089581E00E948F0660936004D6
:101040001F926F938EE091E09F938F9381E08F9337
:101050000E94C9120F900F900F900F900F900C9458
:1010600074040E943C0C1F928F938BEB90E09F9333
:101070008F9381E08F930E94C9120F900F900F9071
:101080000F900F90089581E00E948F06709367057E
:10109000609366056115710581F41F921F928BE0C4
:1010A00091E09F938F9381E08F930E94C9120F90DC
:1010B0000F900F900F900F900895AB01BC01662721
:1010C00077278CE890E00E941418809167058F9331
:1010D000809166058F9388E091E09F938F9381E0E4
:1010E0008F930E94C9120F900F900F900F900F9046
:1010F0000C94740481E00E948F06862F0C94E00B00
:10110000CF92DF92FF920F931F93CF93DF938FEDD8
:1011100090E00E940D12C1E0D0E00AED10E0FF2443
:10112000F39484EDC82E80E0D82EDF93CF931F93E5
:101130000F93FF920E94C9128C2F0E94830E0F9072
:101140000F900F900F900F90882319F00E94040DBC
:1011500004C087ED90E00E940D12C331D10549F023
:10116000DF92CF92FF920E94C9120F900F900F90C2
:1011700004C082ED90E00E940D122196C431D10589
:10118000A1F680ED90E00E940D12DF91CF911F91AA
:101190000F91FF90DF90CF900C947404EF92FF9228
:1011A0000F931F93CF93DF9300D000D0CDB7DEB75E
:1011B00080915F04882329F084E091E00E940D1261
:1011C00002C00E941E1200E011E08EEFE82E80E0C7
:1011D000F82E812F0E94830E8130B1F50F5F909120
:1011E0005F04992399F00E9471130E94040D0E94DC
:1011F0006913CE0101960E94D00F0E9469130E94CC
:10120000D40C0E946D130E9469131EC01F920F938D
:10121000FF92EF928F930E94C9120E94040D8AEFF1
:1012200090E00E940D12CE0101960E94D00F86EF31
:1012300090E00E940D120E94D40C0E941E120F908A
:101240000F900F900F900F901F5F153111F6809146
:101250005F04882329F08BEE90E00E940D1202C0FB
:101260000E941E120E9474040F900F900F900F9016
:10127000DF91CF911F910F91FF90EF9008950E9401
:10128000D40C0C9474040E94690F0C9474040E9492
:10129000C20E882319F00E94040D0DC00E94040D97
:1012A00081EE90E09F938F9381E08F930E94C9120B
:1012B0000F900F900F900C947404CF92DF92EF92E6
:1012C000FF920F931F93CF93DF93CDB7DEB728978D
:1012D0000FB6F894DEBF0FBECDBF81E00E948F062F
:1012E000062FCE0101967C0112E06C01812F0E9435
:1012F0008F06F70161937F011F5F1A30B9F789816B
:10130000882319F0C6010E940D0E802F0E94EB0D5C
:101310000E94800828960FB6F894DEBF0FBECDBF9E
:10132000DF91CF911F910F91FF90EF90DF90CF90C1
:10133000089581E00E948F06862F0E94220F0E944E
:10134000D40C0C947404CF9381E00E948F06C62FB6
:1013500082E00E948F068C2F0E94C8108FE99FE0C8
:101360000197F1F700C000008C2F0E94220F0E940D
:10137000D40CCF910C947404CF930E94F3108EEC94
:1013800090E09F938F9381E08F930E94C9120F90FA
:101390000F900F90C0E00E94E711882339F0CF5FD3
:1013A0008C2F0E94EB0D0E94FB10F5CFCF9108957A
:1013B0001F93CF93DF9381E00E948F06162F82E068
:1013C0000E948F0625B1C1E0D0E001C0CC0F1A9574
:1013D000EAF73C2F3095232325B9CB010E94E30B7C
:1013E00085B1C82BC5B9DF91CF911F9108950C9499
:1013F0004C0DCF9381E00E948F06C62F82E00E94A1
:101400008F068C2FCF910C94C10D0F931F930E94C8
:10141000A0132091660530916705890120E030E036
:1014200060177107820793077CF08091600488231E
:1014300059F00E94971381E080935E040E943C0C57
:101440001F910F910C94370E1F910F9108951F92C9
:101450000F920FB60F9211248F93809157058F5FD3
:10146000809357058F910F900FBE0F901F90189586
:10147000CF93DF931F92CDB7DEB780915E048823B0
:1014800081F010925E0488E195E00E940D120E94A6
:10149000CE080E94D20305C08981823549F40E949A
:1014A0003108CE0101960E9497158111F5CF15C024
:1014B000833548F4833471F40E942D1661E081E095
:1014C0000E943116E6CF833551F38A3519F40E9414
:1014D0006B04DFCF0E945B05E4CF0E944904CDCFAF
:1014E0000E94741560E072EC81E090E00E945A1551
:1014F0008EE895E10E94E9110E9493038EE895E140
:101500000E94CD030E9429160E942D16EEE5F4E0FC
:10151000108281E08183128284E690E090936705D7
:10152000809366050E947A1365E07AE080E00E946D
:101530008C1385E00E94751383E284B98CEF8BB91C
:101540002D9861EC76E080E091E00E94A80366E7C8
:101550007BE085E091E00E94A80369E177E089E003
:1015600091E00E94A80361E377E08FE091E00E94A0
:10157000A8036CE77BE085E191E00E94A8036BEB98
:1015800076E08BE191E00E94A80365EB76E080E2D3
:1015900091E00E94A8036DE777E085E291E00E9468
:1015A000A80360E977E08AE291E00E94A8036BEA71
:1015B00077E08FE291E00E94A8036BE178E084E39A
:1015C00091E00E94A80363E478E08BE391E00E943D
:1015D000A80368ED79E084E491E00E94A80367E441
:1015E00079E08AE491E00E94A80361E378E08EE468
:1015F00091E00E94A80360E878E084E591E00E9411
:10160000A8036FE379E089E591E00E94A8036DE506
:1016100079E08CE591E00E94A80367E277E081E63B
:1016200091E00E94A8036EEC78E087E691E00E94CA
:10163000A80363E479E08CE691E00E94A8036AE7DE
:1016400078E081E791E00E94A80369E979E085E705
:1016500091E00E94A80363EA79E088E791E00E94A4
:10166000A8036CEB79E08BE791E00E94A80367EF99
:1016700079E085E891E00E94A80369EF79E082E8CB
:1016800091E00E94A8030E94960B0E9419070E94F5
:10169000D2030E94380A0F931F93CF93DF93CDB7E5
:1016A000DEB764970FB6F894DEBF0FBECDBF8C01D6
:1016B00087E391E00E940D1244E150E0B801CE01B1
:1016C00001960E94DE17CE0101960E94FF1185E36C
:1016D00091E00E940D1264960FB6F894DEBF0FBE23
:1016E000CDBFDF91CF911F910F91089588E790E0D2
:1016F0000E944B0B0C94740488E491E00E940D123C
:1017000088E790E00E944B0B8BE391E00E940D1262
:1017100084E690E00E944B0B0E946D130E946D13B3
:1017200089E391E00E940D120C947404E8E6F5E060
:1017300089E08E0F11928E13FDCFE1E7F5E088E08E
:101740008E0F11928E13FDCF10927C05219A8FE897
:1017500090E00E94F61790937E0580937D0581E9C5
:1017600090E00E94F6179093800580937F0583E9AF
:1017700090E00E94F617909382058093810585E999
:1017800090E00E94F617909384058093830587E983
:1017900090E00E94EE178093850588E990E00E9412
:1017A000EE178093860589E990E00E94EE178093FA
:1017B00087058AE990E00E94EE17809388050895D6
:1017C00080937C050895019710F00000FCCF0895E8
:1017D0001F93CF93DF93182F95B1C1E0D0E09E0106
:1017E00000907C0502C0220F331F0A94E2F7822F7B
:1017F0008095982395B984B1282B24B980918505CB
:1018000090E00E94E30B112359F084B100907C0515
:1018100002C0CC0FDD1F0A94E2F7C095C823C4B9FB
:101820008091860590E00E94E30B24B181E090E076
:1018300000907C0502C0880F991F0A94E2F78095FA
:10184000822384B9DF91CF911F91089541E050E048
:10185000815068F073B19A0100907C0502C0220F9C
:10186000331F0A94E2F7272323B9920FF1CF81E0C7
:10187000961708F480E008950F931F93CF93DF939A
:10188000219A25B108E615E0C1E0D0E0CE01F801CB
:10189000048802C0880F991F0A94E2F7982F909548
:1018A000922395B994B1892B84B98789908D0E9430
:1018B000E30B84B1F801048802C0CC0FDD1F0A9449
:1018C000E2F7C095C823C4B9838D948D0E94E30BC1
:1018D00065E08AE00E94260CC82FF801818D928D68
:1018E0000E94E30B8C2FDF91CF911F910F910895F0
:1018F0000F931F93CF93DF9325B108E615E081E0A6
:1019000090E0F801048802C0880F991F0A94E2F75A
:10191000382F3095932F922395B994B1892B84B9A0
:1019200084B1832384B9878D90E00E94E30B2998CA
:10193000C3B1D0E0F801048802C0D595C7950A94D8
:10194000E2F7C170DD27299A80A190E00E94E30BA5
:101950008C2FDF91CF911F910F910895CF93DF933B
:10196000F894D9E0C0E0D15049F00E94780C20E80A
:10197000829FC0011124C695C82BF5CF78948C2F77
:10198000DF91CF910895CF93DF93D82FF894C9E0DA
:10199000C15031F08D2F81700E94E80BD695F8CFA1
:1019A0007894DF91CF910895CF92DF92EF92FF92DA
:1019B0000F931F93CF938CE891E00E94FF1188E66C
:1019C000C82E85E0D82EC0E0F601E1906F01F12C21
:1019D00000E010E020E240E063E08AE00E9429128B
:1019E000C83021F08EE891E00E94FF11CF5FC9302E
:1019F00059F780E991E0CF911F910F91FF90EF90FF
:101A0000DF90CF900C94FF11AF92BF92CF92DF92F4
:101A1000EF92FF921F93CF93DF9382E991E00E94B0
:101A2000FF11C0E0D0E089E1E82E86E0F82E11E059
:101A300095E1C92E96E0D92E27E1A22E26E0B22EFE
:101A4000FE01E859FA4F81851F928F93FF92EF9222
:101A50001F930E94C9120F900F900F900F900F903C
:101A6000C730D10519F4BF92AF9202C0DF92CF9276
:101A70001F930E94C9120F900F900F902196C830AB
:101A8000D105F1F6DF91CF911F91FF90EF90DF909C
:101A9000CF90BF90AF9008951F93CF93DF9386E0D0
:101AA00096E09F938F9311E01F930E94C912C8E69E
:101AB000D5E08E898F938D898F9380EF95E09F93EA
:101AC0008F931F930E94C912888D8F938F898F9354
:101AD0008AED95E09F938F931F930E94C9128A8D80
:101AE0008F93898D8F9384EC95E09F938F931F93B1
:101AF0000E94C9128C8D8F938B8D8F938EEA95E007
:101B00009F938F931F930E94C9128D8D1F928F9365
:101B100088E995E09F938F931F930E94C9128E8D41
:101B20001F928F9382E895E09F938F931F930E945B
:101B3000C9128DB79EB781960FB6F8949EBF0FBE9F
:101B40008DBF8F8D1F928F938CE695E09F938F931F
:101B50001F930E94C91288A11F928F9386E595E07A
:101B60009F938F931F930E94C9128DB79EB70A96B9
:101B70000FB6F8949EBF0FBE8DBFDF91CF911F911E
:101B80000895F89490E0FC013197E830F105F8F4FD
:101B9000EC5CFF4F0C948C168FE890E002C081E95A
:101BA00090E00E941C1813C083E990E0FACF85E909
:101BB00090E0F7CF87E990E008C088E990E005C0A1
:101BC00089E990E002C08AE990E00E9406180E942C
:101BD000960B789408950F931F93CF93DF93F89407
:101BE00098E0899F80011124C0E0D0E0045F1F4F7E
:101BF000FE01E859FA4FC8018C0F9D1F618581577E
:101C00009F4F0E9406182196C830D10589F7789415
:101C1000DF91CF911F910F910895E1E7F5E09C01CD
:101C2000275F3F4FDC014D91CD014193A217B307D0
:101C3000C9F708951F93CF93DF93809171058111A8
:101C400006C08CECDF91CF911F910C94C30C85E5FD
:101C50000E94C30CC1E7D5E01C2F185F89910E9438
:101C6000C30C1C13FBCFDF91CF911F9108958CEC17
:101C70000E94C30C84E40C94C30C98E028E1362F36
:101C8000382730FD02C0669503C0622766956068FC
:101C900086959150A1F7862F0895AF92BF92DF925B
:101CA000EF92FF920F931F93CF93DF931F92CDB7C5
:101CB000DEB75C017B01FB011082D82E8C01802FE6
:101CC0008D19841760F4F7016081F80181918F010B
:101CD00049830E943D0EF70180834981F0CFF501D1
:101CE000E40FF11D81E02081F7019081291380E04C
:101CF0000F90DF91CF911F910F91FF90EF90DF90A8
:101D0000BF90AF900895CF92DF92EF92FF920F9322
:101D10001F93CF93DF931F92CDB7DEB728E0829F4A
:101D2000C001112400E010E0E12CF12C6C012CE04A
:101D3000C20ED11CC601800F911F81579F4F0E9478
:101D4000EE17F801E859FA4F8187E80EF11C0F5F92
:101D50001F4F0830110571F7EF2849F047E0BE0129
:101D60006F5F7F4F81E795E00E944D0E01C080E0DC
:101D70000F90DF91CF911F910F91FF90EF90DF9027
:101D8000CF900895FF920F931F93CF93DF931F92ED
:101D9000CDB7DEB719820E943C0C8CEC0E94C30CBC
:101DA0000E943C0C83E30E94C30C01E715E088E02D
:101DB000F82EF00E0E94AE0CF80181938F01FE12F6
:101DC000F9CF47E0BE016F5F7F4F81E795E00E944A
:101DD0004D0E0F90DF91CF911F910F91FF900895BD
:101DE000CF92DF92EF92FF921F93CF93DF931F92D8
:101DF000CDB7DEB7182F0E941A0E8EEB0E94C30CCF
:101E000088E6C82E85E0D82E76018E2D8C19811794
:101E100030F40E94AE0CF70181937F01F6CF198256
:101E20004FEF410FBE016F5F7F4F88E695E00E9444
:101E30004D0E0F90DF91CF911F91FF90EF90DF90AB
:101E4000CF900895FF920F931F93CF93DF931F922C
:101E5000CDB7DEB7182F0E943C0C8CEC0E94C30C4F
:101E600089EF90E00197F1F700C0000088EB0E9435
:101E7000C30C812F0E94C30C0E943C0C8CEC0E946E
:101E8000C30CE9EFF0E03197F1F700C000008EEBF2
:101E90000E94C30C812F0E94C30C08E615E089E064
:101EA000F82EF00E0E94AE0CF80181938F01FE1205
:101EB000F9CF198248E0BE016F5F7F4F88E695E059
:101EC0000E944D0E0F90DF91CF911F910F91FF90C7
:101ED00008950E943C0C8CEC0E94C30C84E40E9488
:101EE000C30C89E698E10197F1F700C000000E9459
:101EF0003C0C8CEC0E94C30C84EB0E94C30C89E662
:101F000098E10197F1F700C0000080E00E94220FE5
:101F10000E94D40C0C943C0CFF920F931F93CF9310
:101F2000DF931F92CDB7DEB70E943C0C0E941A0EC1
:101F300089EF90E00197F1F700C0000088EB0E9464
:101F4000C30C80E00E94C30C0E943C0C0E941A0E3D
:101F5000E9EFF0E03197F1F700C000008EEB0E944E
:101F6000C30C80E00E94C30C08E615E089E0F82E5F
:101F7000F00E0E94AE0CF80181938F01FE12F9CF92
:101F8000198248E0BE016F5F7F4F88E695E00E94AE
:101F90004D0E0F90DF91CF911F910F91FF900895FB
:101FA000DF92EF92FF920F931F93CF93DF93EC0199
:101FB00087EE93E0998388838FE097E29B838A83FF
:101FC0000E943C0C80917105803109F07BC089E052
:101FD0000E94F00ED82E2091690530E0322F222782
:101FE00080916805282B3983288380916905359570
:101FF00027953983288340916E058F3F19F54C3022
:1020000050F021E732E0429FC001439F900D112420
:102010008C549D4154C02F5F3F4F3983288360917A
:102020006E0541E752E0649FC001659F900D112449
:102030008C53964F9B838A83232B09F083C084E5BE
:1020400095E020C04D3090F121503109398328832B
:102050008091680520916E0581111EC041E752E014
:10206000249FC001259F900D11248C549D419B837A
:102070008A831982188280916E058D3008F462C0BF
:1020800082E595E09F938F9381E08F930E94C91220
:102090000F900F900F9056C04FE85DEF249FC00146
:1020A000259F900D1124845A9B4B09C02FE83DEFCA
:1020B000429FC001439F900D1124845B924E9B83ED
:1020C0008A8340C0883201F589E00E94F00ED82E44
:1020D0008091690590E0982F882720916805822BD0
:1020E00034E0959587953A95E1F7998388838091B7
:1020F00068058F7041E752E0849F9001859F300D05
:1021000011243B832A831EC0863279F40E948C0FEF
:102110008823B1F080916A0590E09983888380914B
:10212000690590E09B838A830BC082E495E09F93CE
:102130008F9381E08F930E94C9120F900F900F90A0
:10214000DD24D39489818F9388818F938EE395E0EA
:102150009F938F9381E08F930E94C912EA80FB8046
:102160000F2C000C000B110B20E340E064E08AE030
:102170000E9429120F900F900F900F900F908D2DAD
:10218000DF91CF911F910F91FF90EF90DF90089515
:10219000CF93DF93D82FC62F0E943C0C8CEC0E946B
:1021A000C30C8EE40E94C30C8D2F0E94C30C8C2F95
:1021B0000E94C30C81E08C0F0E94C30C83E08C0F43
:1021C0000E94C30C84E08C0F0E94C30C0E943C0C44
:1021D0008CEC0E94C30C88E40E94C30C8D2FDF910D
:1021E000CF910C94C30CE8E5F5E088E08E0F1192D6
:1021F0008E13FDCF0895AF92BF92CF92DF92EF92F0
:10220000FF920F931F93CF93DF9308E515E0C0E093
:102210008CE2E82E85E0F82ED1E098E2C92E95E018
:10222000D92E2AE2A22E25E0B22EF80181918F014B
:102230001F928F93FF92EF92DF930E94C9120F902B
:102240000F900F900F900F90C73019F4BF92AF927C
:1022500002C0DF92CF92DF930E94C9120F900F90BD
:102260000F90CF5FC83009F7DF91CF911F910F9189
:10227000FF90EF90DF90CF90BF90AF900C941E1224
:10228000E09160058E27E82FF0E0EC56FE4F80814C
:10229000809360050895FF920F931F93CF93DF9370
:1022A000109260058091640581117DC00E943C0CF4
:1022B000C82F811112C08FE295E09F938F9381E028
:1022C0008F930E94C91210926505109264051092B6
:1022D00063050F900F900F9073C080EF0E94C30CA6
:1022E000D1E010E0F12CC1E00E94780C082F0E9490
:1022F000780C013019F48130C1F447C0212F30E04F
:10230000081323C080916505C81738F4F901E85A0D
:10231000FA4F80818D2349F402C0C81731F000E0E4
:10232000C93090F4C09363050FC0E12FF0E0DF01E6
:10233000A85ABA4F8C918D2B8C93E859FA4F81850E
:102340008D2B818701E00FC0FC2EF901E85AFA4F6E
:1023500090818D2F809598239083F901E859FA4F49
:10236000918589238187802F0E94E80BCF5FDD0F45
:1023700049F4E12FF0E0E85AFA4F80810E944011C1
:102380001F5FD1E0183008F4AFCFC13460F0809106
:102390006005811108C0F0926505F1100CC081E064
:1023A0008093640508C01092650510926405109230
:1023B0006305C0E005C0809158058823A1F3C1E002
:1023C0008C2FDF91CF911F910F91FF9008950C9466
:1023D0004B119093C7038093C6030895CF93C82FE2
:1023E0008A3031F4E091C603F091C7038DE009957E
:1023F000E091C603F091C7038C2FCF910994CF933E
:10240000DF93009739F0EC018991882319F00E943D
:10241000EE11FACFDF91CF910895CF93DF9300971C
:1024200051F0FC018491EF012196882321F00E9454
:10243000EE11FE01F7CFDF91CF9108958AE00C9461
:10244000EE118F70E82FF0E0EE5DF94F84910C945F
:10245000EE113F924F925F926F927F928F929F9276
:10246000AF92BF92CF92DF92EF92FF920F931F93A2
:10247000CF93DF93CDB7DEB7A0970FB6F894DEBF4A
:102480000FBECDBF482EC62E822E442351F017FF1B
:1024900008C066277727CB016E197F09800B910B47
:1024A00002C0C801B70199249394411101C0912C35
:1024B000DD24DA94DC0CD91818A2512C612C712C73
:1024C000A30192010E946A16FB01EF70FF27EE5DE7
:1024D000F94F64916F8FB901CA015E012EE1A20E1E
:1024E000B11C3D2C3A942FEF3216D1F061157105D5
:1024F0008105910579F0A30192010E946A16FB0102
:10250000EF70FF27EE5DF94F6491F5016083B9012B
:10251000CA0102C0F5018082F1E0AF1AB108E2CF32
:10252000CE014F968D199109992069F0FC013197E0
:1025300017FF02C02DE205C0EF28E02AE12A39F09A
:102540002BE22083CF017C011C2D180F02C020E25A
:10255000F8CF1E1531F0F70181917F010E94EE1135
:10256000F8CFA0960FB6F894DEBF0FBECDBFDF91B7
:10257000CF911F910F91FF90EF90DF90CF90BF9080
:10258000AF909F908F907F906F905F904F903F9013
:1025900008955F926F927F928F929F92AF92BF92B7
:1025A000CF92DF92EF92FF920F931F93CF93DF931F
:1025B0001F92CDB7DEB7EC89FD893E0126E1620EA0
:1025C000711C3AE0A32EB12C3B89332381F08F019B
:1025D0000F5F1F4F8491853289F0882309F466C00C
:1025E0000E94EE11630178013601F701EDCF808181
:1025F000853259F08F010F5F1F4FEFCF7F0182E0CF
:10260000E80EF11CF801849105C07F0122E0E20E82
:10261000F11C81818436A1F0883761F0833631F472
:10262000F301808193012E5F3F4F39010E94EE112B
:102630006301DACF20E1822E912C00E010E105C089
:102640009AE0892E912C00E117E2630132E0C30E7B
:10265000D11CF301608071808436A1F477FE0FC035
:102660007194619471088DE20E94EE1108C0C80156
:10267000B5010E9456168B016230710518F0601684
:102680007106A8F3C301B8010E945616582E862F72
:1026900099830E942112652C9981792EC801B40179
:1026A0000E9456168B01672B69F79ECF80E090E061
:1026B0000F90DF91CF911F910F91FF90EF90DF90DE
:1026C000CF90BF90AF909F908F907F906F905F90D2
:1026D000089580E296E00C940D128EE196E00C9441
:1026E0000D128CE196E00C940D1295B5987F892B14
:1026F00085BD089582E00E94751316BCEEE6F0E0F9
:1027000080818160808310929505109296051092C9
:1027100097051092980508958A3040F4E82FF0E06C
:10272000EE0FFF1FE853FC4F7183608308951092F2
:1027300095051092960510929705109298050895A8
:1027400060919505709196058091970590919805F7
:1027500008951F920F920FB60F9211242F933F935B
:102760004F935F936F937F938F939F93AF93BF9399
:10277000EF93FF938091950590919605A091970511
:10278000B09198050196A11DB11D80939505909378
:102790009605A0939705B09398058091990590911F
:1027A0009A05A0919B05B0919C050196A11DB11DB4
:1027B0008093990590939A05A0939B05B0939C05EF
:1027C0008091C8039091C903892B29F0E091C80337
:1027D000F091C9030995FF91EF91BF91AF919F913E
:1027E0008F917F916F915F914F913F912F910F90BA
:1027F0000FBE0F901F9018951F920F920FB60F9259
:1028000011242F933F934F935F936F937F938F93F5
:102810009F93AF93BF93EF93FF9380919D0590910A
:102820009E05A0919F05B091A0050196A11DB11D27
:1028300080939D0590939E05A0939F05B093A0055E
:102840008091D6039091D703892B29F0E091D6038C
:10285000F091D7030995FF91EF91BF91AF919F91AF
:102860008F917F916F915F914F913F912F910F9039
:102870000FBE0F901F9018951F920F920FB60F92D8
:1028800011242F933F934F935F936F937F938F9375
:102890009F93AF93BF93EF93FF938091CA0390915F
:1028A000CB03892B29F0E091CA03F091CB03099562
:1028B000FF91EF91BF91AF919F918F917F916F9118
:1028C0005F914F913F912F910F900FBE0F901F90EE
:1028D00018951F920F920FB60F9211242F933F93CA
:1028E0004F935F936F937F938F939F93AF93BF9318
:1028F000EF93FF938091CC039091CD03892B29F026
:10290000E091CC03F091CD030995FF91EF91BF9138
:10291000AF919F918F917F916F915F914F913F9177
:102920002F910F900FBE0F901F9018951F920F922E
:102930000FB60F9211242F933F934F935F936F9392
:102940007F938F939F93AF93BF93EF93FF93809168
:10295000D0039091D103892B29F0E091D003F0911D
:10296000D1030995FF91EF91BF91AF919F918F9105
:102970007F916F915F914F913F912F910F900FBE7B
:102980000F901F9018951F920F920FB60F9211245F
:102990002F933F934F935F936F937F938F939F9367
:1029A000AF93BF93EF93FF938091D2039091D303A2
:1029B000892B29F0E091D203F091D3030995FF917F
:1029C000EF91BF91AF919F918F917F916F915F91A7
:1029D0004F913F912F910F900FBE0F901F90189520
:1029E0001F920F920FB60F9211242F933F934F9384
:1029F0005F936F937F938F939F93AF93BF93EF9367
:102A0000FF938091D4039091D503892B29F0E09115
:102A1000D403F091D5030995FF91EF91BF91AF9148
:102A20009F918F917F916F915F914F913F912F91E6
:102A30000F900FBE0F901F9018951F920F920FB618
:102A40000F9211242F933F934F935F936F937F9334
:102A50008F939F93AF93BF93EF93FF938091D8038E
:102A60009091D903892B29F0E091D803F091D903F3
:102A70000995FF91EF91BF91AF919F918F917F91B8
:102A80006F915F914F913F912F910F900FBE0F90DB
:102A90001F90189540E450E06EE174E082EA95E002
:102AA0000E94410340E450E06EED73E08BEA95E054
:102AB0000C94410322E02093C00028E92093C10038
:102AC0009B01AC0183E0220F331F441F551F8A95E1
:102AD000D1F760E074E284EF90E00E946A16215022
:102AE0002093C400789408950E944A151092DD0343
:102AF0001092DC0388ED8093C10060E072EC81E00D
:102B000090E00E945A158FEF8093A1051092AA05BC
:102B10001092B4051092B305789408959091C00076
:102B200095FFFCCF8093C6001092A1050895CF9326
:102B3000DF932091A4053091A505232B71F02091FE
:102B4000A6053091A705232B41F0EC0182EA95E020
:102B50000E944E0388838FEF01C080E0DF91CF9108
:102B600008951F920F920FB60F9211242F933F9347
:102B70004F935F936F937F938F939F93AF93BF9385
:102B8000EF93FF938091AA05882379F08091AF0598
:102B90009091B005892B39F08BEA95E00E944E03A5
:102BA0008093C60005C01092AA058FEF8093A105FF
:102BB000FF91EF91BF91AF919F918F917F916F9115
:102BC0005F914F913F912F910F900FBE0F901F90EB
:102BD00018951F920F920FB60F9211242F933F93C7
:102BE0004F935F936F937F938F939F93AF93BF9315
:102BF000EF93FF938091C6002091DC033091DD03B9
:102C0000232B31F0E091DC03F091DD03099510C036
:102C1000682F82EA95E00E947203811109C08091B9
:102C2000B3059091B40501969093B4058093B305D4
:102C3000FF91EF91BF91AF919F918F917F916F9194
:102C40005F914F913F912F910F900FBE0F901F906A
:102C5000189581E496E00C940D128CE396E00C94A8
:102C60000D121F926F931F928F9383E396E09F93B1
:102C70008F9381E08F930E94C9128DB79EB70796FC
:102C80000FB6F8949EBF0FBE8DBF0895DB018F93E2
:102C90009F930E949216BF91AF91A29F800D911DAC
:102CA000A39F900DB29F900D11240895AA1BBB1BEA
:102CB00051E107C0AA1FBB1FA617B70710F0A61B3C
:102CC000B70B881F991F5A95A9F780959095BC015D
:102CD000CD010895A1E21A2EAA1BBB1BFD010DC058
:102CE000AA1FBB1FEE1FFF1FA217B307E407F507BC
:102CF00020F0A21BB30BE40BF50B661F771F881F98
:102D0000991F1A9469F760957095809590959B012D
:102D1000AC01BD01CF010895EE0FFF1F0590F491A6
:102D2000E02D09940E949D16A59F900DB49F900DD3
:102D3000A49F800D911D11240895A29FB001B39FFF
:102D4000C001A39F700D811D1124911DB29F700DB4
:102D5000811D1124911D0895A0E0B0E0E2EBF6E1A1
:102D60000C9421185C016B017A016115710519F051
:102D7000FB0191838083E114F10429F0C7010297DC
:102D8000839708F0F1C0E5012196F5011081812FAC
:102D900090E00E94BD17892B11F05E01F4CF1D3227
:102DA00029F42196F501118101E007C01B3221F4BD
:102DB000E5012296F501118100E0E114F10459F1D9
:102DC000F0E1EF16F10461F41033E1F488818F7DB6
:102DD000883569F519812296026070E1E72EF12CA1
:102DE00088E0E816F10439F12CF4F2E0EF16F10472
:102DF000C9F12AC08AE0E816F10479F0E0E1EE16A4
:102E0000F10411F550E1E52EF12C812C912CA12C2F
:102E100068E0B62E2CC01033C9F23AE0E32EF12C54
:102E20004CEC842E982CA82C4CE0B42E20C010E33F
:102E3000E114F104A9F698E0E92EF12C812C912CF3
:102E4000A12C20E1B22E13C060E070E080E090E899
:102E500097010F2C000C440B550B0E946A16490178
:102E60005A0105C0812C912CA12C80E4B82E60E081
:102E700020E030E0A90127010F2C000C660877083C
:102E80001E01E0EDE10FEA3060F08FEB810F8A3137
:102E900010F4E9EC05C08FE9810F8A3128F5E9EAE1
:102EA000E10F8E2F90E08E159F05F4F467FD18C09A
:102EB00082169306A406B50690F0C301B2010E94E3
:102EC00046169B01AC012E0F311D411D511D2130B5
:102ED00031054105F0E85F0710F461E001C06FEFD4
:102EE0002196F1011081CCCF802F8170C114D104C3
:102EF00071F0662329F02197F601D183C08307C0C2
:102F000001FF19C02297F601D183C08314C067FF67
:102F100012C0811105C02FEF3FEF4FEF5FE704C0F4
:102F200020E030E040E050E882E290E09093B60587
:102F30008093B50516C0882341F050954095309593
:102F400021953F4F4F4F5F4F0CC057FF0AC082E2A1
:102F500090E09093B6058093B5052FEF3FEF4FEFCC
:102F60005FE7B901CA0104C060E070E080E090E072
:102F7000CDB7DEB7E2E10C943D1891110C94DB174C
:102F8000803219F089508550C8F70895FB01DC01A3
:102F900001900D920020E1F70895FB01DC01415002
:102FA000504030F08D910190801919F40020B9F74C
:102FB000881B990B0895992788270895DC01CB0178
:102FC000FC01F999FECF06C0F2BDE1BDF89A319639
:102FD00000B40D9241505040B8F70895F999FECFD2
:102FE00092BD81BDF89A992780B50895A8E1B0E017
:102FF00042E050E00C94E017DC01CB0103C02D91BE
:103000000E94071841505040D0F70895262FF99993
:10301000FECF1FBA92BD81BD20BD0FB6F894FA9ABB
:10302000F99A0FBE01960895242F0E940718252FA4
:103030000E9407180C941C180E940618272F0C9445
:1030400007182F923F924F925F926F927F928F92CA
:103050009F92AF92BF92CF92DF92EF92FF920F9327
:103060001F93CF93DF93CDB7DEB7CA1BDB0B0FB631
:10307000F894DEBF0FBECDBF09942A8839884888EE
:103080005F846E847D848C849B84AA84B984C88484
:10309000DF80EE80FD800C811B81AA81B981CE0F7B
:1030A000D11D0FB6F894DEBF0FBECDBFED01089560
:0430B000F894FFCFC2
:1030B40068656C700069646E006765746677007398
:1030C4006574736E00676574736E00746573740061
:1030D4006A736F6E00706F6B65007065656B00647A
:1030E400756D700073747265616D00696E746572DC
:1030F40076616C0064656C617900726F6D00726555
:10310400736574006C6F616400737000736176653D
:103114000073746172740074656D7000646174612D
:103124000070696E0072700077700073656172637D
:10313400680073657474696D696E67005B002C00C8
:103144005D002200005EBCE2613FDD83C29C7E2004
:10315400A3FD1F419DC3217FFCA2401E5F01E3BD6F
:103164003E6082DC237D9FC1421CFEA0E1BF5D0363
:1031740080DE3C62BEE0025CDF81633D7C22C09E57
:103184001D43A1FF4618FAA427799BC584DA386643
:10319400E5BB5907DB856739BAE406581947A5FB2F
:1031A4007826C49A653BD987045AB8E6A7F91B4523
:1031B400C6987A24F8A6441A99C7257B3A6486D817
:1031C4005B05E7B98CD2306EEDB3510F4E10F2AC03
:1031D4002F7193CD114FADF3702ECC92D38D6F31EF
:1031E400B2EC0E50AFF1134DCE90722C6D33D18FE3
:1031F4000C52B0EE326C8ED0530DEFB1F0AE4C12D7
:1032040091CF2D73CA947628ABF517490856B4EAC2
:103214006937D58B5709EBB536688AD495CB2977AE
:10322400F4AA4816E9B7550B88D6346A2B7597C9A2
:103234004A14F6A8742AC896154BA9F7B6E80A5496
:04324400D7896B3586
:00000001FF
