:100000000C94A9030C94C6030C94C6030C94C60369
:100010000C94C6030C94C6030C94C6030C94241BC6
:100020000C94C6030C94031A0C94F71A0C949D1AA2
:100030000C94CA1A0C94C6030C94431A0C94701AAC
:100040000C94B0190C94C6030C942C1C0C94C6038D
:100050000C94F41B0C94C6030C94C6030C94C603B6
:100060000C94C6030C94C603B90EBC0EC10EC40E8C
:10007000C70ECA0ECD0ED00E220022007D3C2F25C9
:10008000643E003C25643E7B22636D64223A22007C
:10009000222C202264617461223A2000636F6D6D0E
:1000A000616E64206E6F7420666F756E64004552D9
:1000B000524F523A2000636D643E004F6E6557699F
:1000C0007265577269746542797465203D202564B4
:1000D0000A004F6E655769726552656164426974C2
:1000E000203D2025640A00746865726D5F72657337
:1000F00065742829203D2025640A005B2D312C2DB4
:10010000315D5D0025642C25642C005D0025642C88
:1001100025642C005B005B005D0025642C202564B9
:100120002C20005D005B25642C25642C005B0043C3
:100130005243204572726F72005D00203A20002009
:100140003A200025642C2025642C20005D002564C5
:100150002C25642C005B005B0031002564002564C5
:10016000002564000D0A000D0A0020307825780073
:100170003078257825782030782578005B25642C28
:100180002230782578225D00220022007D002C227A
:100190006C6F636174696F6E223A007B22534E224A
:1001A0003A00224552524F52202D20496E76616C02
:1001B00069642073796E746178206C6162656C206B
:1001C0005B617C627C647C697C6C7C735D206465B3
:1001D000764E756D206C6162656C5F746578742213
:1001E00000224F4B2200224F4B2200226F77697270
:1001F000652031352E31322E313222006F77746511
:100200006D70222C2264617461223A007770202084
:1002100020202020202020202020203A20777269D2
:100220007465206461746120746F20737065636904
:100230006669656420706167650A0072702020201D
:10024000202020202020202020203A207265616478
:1002500020737065636966696320706167652066F5
:10026000726F6D2033383234206465766963650AB5
:100270000064617461202020202020202020202084
:100280003A207265616420646174612066726F6DEA
:100290002033383234206465766963650A007465FA
:1002A0006D7020202020202020202020203A207245
:1002B0006561642074656D706572617475726573D3
:1002C0000A007374617274202020202020202020D6
:1002D000203A2073746172742074656D7065726168
:1002E00074757265206D6561737572656D656E7488
:1002F0000A00736176652020202020202020202005
:10030000203A20736176652073637261746368704C
:10031000616420746F20656570726F6D0A00737080
:10032000202020202020202020202020203A207360
:10033000686F772073637261746368207061640A08
:10034000006C6F61642020202020202020202020AD
:100350003A206C6F616420656570726F6D20636F09
:100360006E74656E740A00726F6D2020202020204C
:100370002020202020203A207265616420726F6D59
:10038000206F6620612073696E676C6520646576F6
:100390006963650A000A0A4F6E65776972652043D2
:1003A0006F6D6D616E64733A0A0073747265616D8E
:1003B00020202020202020202020203A207374613B
:1003C00072742073747265616D696E670A0074657A
:1003D0007374202020202020202020202020203A5C
:1003E00020746573742066756E6374696F6E0A009D
:1003F000706F6B65205B7265675D205B76616C5D1D
:10040000203A20736574732072656769737465722E
:100410002076616C756520746F205B76616C5D2061
:100420000A007065656B205B7265675D2020202087
:100430002020203A2072657475726E7320646563A3
:100440002C2068657820616E642062696E20766178
:100450006C7565206F662072656769737465720AD2
:10046000007465737420202020202020202020206C
:1004700020203A20746573742066756E6374696F0A
:100480006E0A0069646E2020202020202020202079
:10049000202020203A207072696E74732064657683
:1004A00069636520494420616E64207665727369D2
:1004B0006F6E20696E666F0A000A436F6D6D616E24
:1004C00064733A0A005A2020202020202020202077
:1004D0002020202020203A20726573657420636FED
:1004E0006D6D616E64206E756D62657220746F2033
:1004F0007A65726F0A0053202020202020202020BF
:10050000202020202020203A20706572666F726DB6
:100510002062696E617279207365617263680A0096
:100520005220202020202020202020202020202099
:10053000203A2073656E642072657365742070754F
:100540006C73650A004320202020202020202020DA
:100550002020202020203A20636C65617220736384
:100560007265656E0A00496E7374616E7420636F04
:100570006D6D616E64733A0A002E002200256400DE
:10058000746865726D5F726573657428290A002549
:10059000642E00224445565F4E4F545F464F554EE1
:1005A0004422002D002D002E00220025640044531B
:1005B0002E746865726D5F70696E20203D20256421
:1005C0000A00504F52544420202020202020202078
:1005D0003D2025640A0044532E746865726D5F7077
:1005E000696E20203D2025640A00504F525444205B
:1005F00020202020202020203D2025640A00445374
:100600002E746865726D5F706F7274203D20256472
:100610000A00444452442020202020202020202072
:100620003D2025640A0044532E746865726D5F6432
:10063000647220203D2025640A00303820745F72E7
:100640006561645F736C6F7420203A2025640A0032
:10065000303720745F726561645F73616D70202054
:100660003A2025640A00303620745F777269746519
:100670005F736C6F74203A2025640A003035207453
:100680005F77726974655F6C6F7720203A2025640C
:100690000A00303420745F72657365745F64656C42
:1006A00061793A2025640A00303320745F726573E3
:1006B00065745F72782020203A2025640A00303269
:1006C00020745F72657365745F74782020203A200F
:1006D00025640A00303120745F636F6E762020201D
:1006E000202020203A2025640A000A3157697265CB
:1006F0002054696D696E670A005B005D002C003054
:100700003132333435363738394142434445460077
:1007100000000100080020004000800000010004EB
:100720000000010008004000000100041B5B25647C
:100730003B256448001B5B3F32356C001B5B3F323E
:100740003568001B5B25646D001B5B324A001B6330
:10075000000011241FBECFEFD8E0DEBFCDBF12E0F6
:10076000A0E0B1E0E2E5FDE302C005900D92AE3AF3
:10077000B107D9F715E0AEEAB2E001C01D92A43F7F
:10078000B107E1F70E94620C0C94A71E0C940000C4
:10079000FC018FB7F894718360835383428317827F
:1007A0001682158214828FBF0895FC019FB7F894BA
:1007B0004481558141155105C9F026813781A081B9
:1007C000B181A20FB31F8C912F5F3F4F37832683D8
:1007D000628173812617370720F0261B370B37837A
:1007E0002683415051095583448301C080E09FBF57
:1007F0000895FC01AFB7F89424813581621773071F
:10080000A0F486819781860F971F97838683428104
:1008100053818417950720F0841B950B978386835B
:10082000261B370B3583248302C015821482AFBF89
:100830000895FC01CB014FB7F89426813781820FD0
:10084000931F628173810E94BA1C0190F081E02D98
:10085000E80FF91F80814FBF0895CF93DF93FC010C
:10086000D62FCFB7F89444815581628173814617A2
:10087000570798F486819781840F951F0E94BA1CB0
:10088000A081B181A80FB91FDC9384819581019665
:1008900095838483CFBF8FEF02C0CFBF80E0DF910D
:1008A000CF910895FC014FB7F89482819381248100
:1008B00035814FBF821B930B08952FB7F894FC012D
:1008C000158214822FBF08951092B1041092AD04C6
:1008D0001092B2041092AF041092AE041092B004C1
:1008E00010920E0410920F04109210041092110432
:1008F0000895FF920F931F93CF93DF938B01F09096
:10090000B004CF2DD0E09E0143E0220F331F4A9563
:10091000E1F7BC01C9018A509D4F0E944C1EFE01A7
:10092000EE0FFF1FE055FD4F11830083F394F0920B
:10093000B004DF91CF911F910F91FF900895909394
:10094000AF028093AE020895CF93DF938091AB0402
:10095000811103C0C6EBD0E01DC0809111048F93BC
:10096000809110048F9380910F048F9380910E04D7
:100970008F9383E890E09F938F9381E08F930E9401
:10098000E9168DB79EB707960FB6F8949EBF0FBEB7
:100990008DBF0EC0CE01FE012491222349F0219685
:1009A000FC018491E091AE02F091AF020995F2CF83
:1009B000DF91CF9108951F93CF93DF93E091AE0223
:1009C000F091AF028DE009950E94A4041091AD044E
:1009D000C3EBD4E01C0F1C1739F0E091AE02F0918C
:1009E000AF0289910995F7CFDF91CF911F910895BB
:1009F000882319F0813059F008958091B304882339
:100A0000D1F063EB74E083E095E00C944C1E63E05E
:100A100075E083EB94E00E944C1EE3EBF4E0019060
:100A20000020E9F73197E35BF440E093AD04E093F5
:100A3000B2040C94DB040895E091AE04F091AF048D
:100A4000309739F009951092AF041092AE040C94CF
:100A5000A404089580910E0490910F04A0911004B5
:100A6000B09111040196A11DB11D80930E049093C5
:100A70000F04A0931004B0931104089510920E0473
:100A800010920F0410921004109211040895809196
:100A9000AB048823F9F0809111048F9380911004A6
:100AA0008F9380910F048F9380910E048F938CE726
:100AB00090E09F938F9381E08F930E94E9160E94AC
:100AC0001C168DB79EB707960FB6F8949EBF0FBE43
:100AD0008DBF02C00E941C160C942A05CF93DF9391
:100AE0008091AB048823E1F0809111048F93809171
:100AF00010048F9380910F048F9380910E048F9335
:100B00008AE790E09F938F9381E08F930E94E9168C
:100B10008DB79EB707960FB6F8949EBF0FBE8DBFD8
:100B2000CEEAD0E0CE01FE012491222349F02196A5
:100B3000FC018491E091AE02F091AF020995F2CFF1
:100B4000C3EBD4E08991982F9F7DE091AE02F091A4
:100B5000AF02992311F00995F5CF8AE30995E09149
:100B6000AE02F091AF0280E20995CCE9D0E0CE016F
:100B7000FE012491222349F02196FC018491E09109
:100B8000AE02F091AF020995F2CF8091AB048823B9
:100B900059F088E790E09F938F9381E08F930E94B4
:100BA000E9160F900F900F90DF91CF910C944705AD
:100BB000BF92CF92DF92EF92FF920F931F93CF934A
:100BC000DF9380E00E94F80480E0E82EF12CF7012A
:100BD000ED54FB4F90819F7D11F08F5FF6CF909188
:100BE000AB04811105C0911139C00E941C162BC0A5
:100BF000913029F480E990E00E940B1602C00E9417
:100C00001C16B090B00406EF12E0C0E0D0E0CB15A7
:100C1000C0F46E01A70163EB74E0C8010E94531E8B
:100C20002196085F1F4F892B91F7F601EE0FFF1FEA
:100C3000E055FD4F808191819093AF048093AE0485
:100C40000DC00E946E05DF91CF911F910F91FF9013
:100C5000EF90DF90CF90BF900C94A404DF91CF91E0
:100C60001F910F91FF90EF90DF90CF90BF9008956C
:100C7000CF93C82F8091B1048230B9F5C33441F0CD
:100C8000C43409F1C13471F581E00E94F8042AC02E
:100C90008091B2049091AD04E091AE02F091AF0268
:100CA0008917F0F48F5F8093B2048BE10995E0918E
:100CB000AE02F091AF028BE50995E091AE02F091A2
:100CC000AF0283E40EC08091B204E091AE02F091D5
:100CD000AF02882329F081508093B20488E001C0DC
:100CE00087E009951092B104CDC0813021F4CB3555
:100CF00011F482E0C5C01092B10480EE8C0F8F35E4
:100D000008F045C09091B2048091AD04981316C0CC
:100D1000E091AE02F091AF028C2F0995E091B20400
:100D200081E08E0F8093B204F0E0ED54FB4FC0835E
:100D30008091AD048F5F8093AD04A4C08F5F8093DA
:100D4000AD04981750F4E82FF0E0ED54FB4FDF01AD
:100D500011972C9120838150F4CF81E0890F8093EB
:100D6000B204E92FF0E0ED54FB4FC0830E94DB0496
:100D7000C091B2048091AD04C81708F083C0E0911F
:100D8000AE02F091AF0288E00995CF5FF3CFCA3091
:100D900011F0CD30B1F4E091AD0481E08E0F80937D
:100DA000AD04F0E0ED54FB4F10828091B2048F5FF0
:100DB0008093B2040E94D8051092AD041092B20440
:100DC00061C0CF3719F0C83009F057C08091B20424
:100DD000882309F44BC09091AD0489131DC0E091A4
:100DE000AE02F091AF0288E00995E091AE02F09179
:100DF000AF0280E20995E091AE02F091AF0288E087
:100E000009958091AD0481508093AD048091B20426
:100E100081508093B20436C091509093AD048150BC
:100E20008093B204891740F4E82FF0E0ED54FB4FB3
:100E3000218120838F5FF6CF0E94DB04E091AE0218
:100E4000F091AF0280E20995C091B2042091AD0407
:100E500030E08C2F90E028173907A4F0E091AE0223
:100E6000F091AF0288E00995CF5FF0CFE091AE023C
:100E7000F091AF0287E0CF910994CB3119F481E072
:100E80008093B104CF91089590E0E92FF0E0ED5404
:100E9000FB4F2081203211F49F5FF7CF20E028170D
:100EA000A1F0E92FF0E0ED54FB4F30813F7D11F0D0
:100EB0009F5FF7CFE92FF0E0ED54FB4F30813032E8
:100EC00011F49F5FF7CF2F5FEACF892F90E08D5409
:100ED0009B4F0895CF93DF9300D0CDB7DEB70E942C
:100EE00044074AE050E0BE016F5F7F4F0E94101D33
:100EF0000F900F90DF91CF910895CF93DF9300D0A3
:100F0000CDB7DEB70E94440740E150E0BE016F5FFD
:100F10007F4F0E94101D0F900F90DF91CF91089589
:100F200086E695E00E940B1685E495E00E940B167C
:100F300080E295E00E940B1686EF94E00E940B166B
:100F400085EC94E00E940B1689EB94E00E940B164E
:100F500083E894E00E940B1681E694E00E940B1651
:100F600082E294E00E940B1680EF93E00E940B1641
:100F70008EEC93E00E940B168AEA93E00E940B1617
:100F800085E993E00E940B1687E693E00E940B161A
:100F900081E493E00E940B168EE193E00E940B1611
:100FA00082EF92E00E940B1682EC92E00E940B16F8
:100FB0008EE992E00E940B1681E792E00E940B16E8
:100FC0008BE392E00E940B168CE092E00C940B16DF
:100FD0008BEE91E00E940B160C9447050E94E30FE4
:100FE0000E94541189E591E00E940B160C9447056C
:100FF00081E00E946A076093AB04089581E00E943B
:101000006A07862F0C94140E0F931F93CF93DF93D0
:10101000CDB7DEB764970FB6F894DEBF0FBECDBF75
:1010200081E00E9444078C0182E00E946A0783E00D
:101030000E944407BC01F80180818C3679F4CE010E
:1010400001960E944C1E44E150E068E770E0CE013A
:1010500001960E947F1E86EE91E013C0833779F4DB
:10106000CE0101960E944C1E44E150E06CE870E015
:10107000CE0101960E947F1E81EE91E002C082EABD
:1010800091E00E940B160E94470564960FB6F894F3
:10109000DEBF0FBECDBFDF91CF911F910F9108959D
:1010A0000C94D80ECF92DF92EF92FF9281E00E94D3
:1010B0007D076B017C0182E00E947D07F601608361
:1010C000FF90EF90DF90CF90089581E00E947D0720
:1010D000FB0180811F928F931F928F938CE791E089
:1010E0009F938F9381E08F930E94E9168DB79EB7EF
:1010F00007960FB6F8949EBF0FBE8DBF0C944705A0
:101100008F929F92AF92BF92CF92DF92EF92FF9217
:101110000F931F93CF93DF9381E00E947D07EB0134
:1011200082E00E947D075B01912C0AE611E0882491
:10113000839480E7E82E81E0F82E97E6C92E91E0AF
:10114000D92EAC16BD06A0F18881911016C01F9251
:101150008F93CE0199279F938F931F92DF93FF92D6
:10116000EF928F920E94E9168DB79EB709960FB63F
:10117000F8949EBF0FBE8DBF0CC01F928F931F931C
:101180000F938F920E94E9160F900F900F900F907F
:101190000F90939498E0991209C0DF92CF928F92AA
:1011A0000E94E9160F900F900F90912C2196C9CFB5
:1011B00084E691E09F938F9381E08F930E94E916DC
:1011C0000F900F900F90DF91CF911F910F91FF9093
:1011D000EF90DF90CF90BF90AF909F908F90089549
:1011E00081E00E946A076093AC041F926F9381E6CE
:1011F00091E09F938F9381E08F930E94E9160F9067
:101200000F900F900F900F900C9447050E94E30FE2
:101210001F928F9387EE90E09F938F9381E08F933F
:101220000E94E9160F900F900F900F900F90089565
:1012300081E00E946A077093A9056093A805611573
:10124000710581F41F921F928EE591E09F938F9319
:1012500081E08F930E94E9160F900F900F900F90EE
:101260000F900895AB01BC016627772780EA90E0D4
:101270000E94971E8091A9058F938091A8058F9356
:101280008BE591E09F938F9381E08F930E94E91605
:101290000F900F900F900F900F900C944705BF92F6
:1012A000CF92DF92EF92FF920F931F93CF93DF9332
:1012B000C0E0D0E00AE111E0CC24C39425E2E22EA4
:1012C00021E0F22EBC2E8091AB04882321F08DE228
:1012D00091E00E940B16D12C6D2D8B2D0E94BA111E
:1012E0008823D9F18091AB048823C1F01F92DF924B
:1012F000DF93CF93FF92EF92CF920E94E9160E9464
:10130000B81083E291E00E940B168DB79EB7079646
:101310000FB6F8949EBF0FBE8DBF15C01F92DF920F
:10132000DF93CF931F930F93CF920E94E9160E94F1
:10133000B8100E941C168DB79EB707960FB6F8948A
:101340009EBF0FBE8DBF8091AB04882321F088E142
:1013500091E00E940B16D394BFCF2196C530D105E2
:1013600009F0B0CFDF91CF911F910F91FF90EF90D7
:10137000DF90CF90BF900C9447057F928F929F9201
:10138000AF92BF92CF92DF92EF92FF920F931F9393
:10139000CF93DF9300D000D0CDB7DEB78091AB0400
:1013A000882329F087E591E00E940B1602C00E9475
:1013B0001C1600E010E0A12C33E4E32E31E0F32E04
:1013C000882483944EE4C42E41E0D42E702E802FC6
:1013D0000E94140EBA2C9B2C9A18692D872D0E94FE
:1013E000BA11882309F459C08091AB04882301F114
:1013F00085E591E00E940B160E94B8100E948B17A1
:10140000CE0101960E9455130E948B171F929F9246
:101410001F930F93DF92CF928F920E94E9160E9442
:101420008B170E948A108CE491E00E940B161BC05F
:101430001F929F921F930F93FF92EF928F920E94A1
:10144000E9160E94B8108FE391E00E940B16CE01BE
:1014500001960E9455138BE391E00E940B160E94A7
:101460008A100E941C160FB6F894DEBF0FBECDBFC7
:10147000B3948091AB04882309F4ADCF2091A605E5
:101480003091A7054B2D552747FD5095421753071F
:1014900008F0A1CF0E948B179ECF0F5F1F4F053022
:1014A000110511F0AB2C92CF8091AB04882321F071
:1014B00089E391E00E940B160E9447050F900F9060
:1014C0000F900F90DF91CF911F910F91FF90EF90B0
:1014D000DF90CF90BF90AF909F908F907F900895B6
:1014E0000E948A100C9447050E94EB120C94470549
:1014F0000E940612882319F00E94B8100DC00E94A5
:10150000B8108FE291E09F938F9381E08F930E94B8
:10151000E9160F900F900F900C944705DF92EF9211
:10152000FF920F931F93CF93DF93CDB7DEB7299729
:101530000FB6F894DEBF0FBECDBF81E00E946A07F0
:10154000F62E8E010F5F1F4F22E0D02EE12E822F4C
:1015500029870E946A07F80161938F0129852F5F0F
:101560002A30A9F78981882321F08D2D9E2D0E9494
:101570002F116F2D80E00E94FF100E944F092996C5
:101580000FB6F894DEBF0FBECDBFDF91CF911F9194
:101590000F91FF90EF90DF90089581E00E946A071D
:1015A000862F0E94A7120E948A100C944705CF93A1
:1015B00081E00E946A07C62F82E00E946A078C2F92
:1015C0000E944D148FE99FE00197F1F700C00000E1
:1015D0008C2F0E94A7120E948A10CF910C9447056D
:1015E000CF93DF930E947814D0E0C0E06C2F8D2F52
:1015F0000E94FF10CF5FCA30C9F7DF5FD530A9F76F
:10160000DF91CF910895BF92CF92DF92EF92FF9238
:101610000F931F93CF93DF930E9478141092A70526
:101620001092A6058091AB04882329F086E191E011
:101630000E940B1602C00E941C16C0E0D0E004E01D
:1016400011E0CC24C3945DE0E52E51E0F52EBC2ED4
:101650008C2F0E94140ED12C0E946415882309F44B
:101660004CC06D2D8B2D0E94FF108091AB04882300
:10167000E1F084E191E00E940B161F92DF92DF936C
:10168000CF93FF92EF92CF920E94E9160E94B8107A
:101690008BE091E00E940B168DB79EB707960FB6B0
:1016A000F8949EBF0FBE8DBF15C01F92DF92DF93CF
:1016B000CF931F930F93CF920E94E9160E94B81008
:1016C0000E941C168DB79EB707960FB6F8949EBF62
:1016D0000FBE8DBFD3942091A6053091A7052F5F33
:1016E0003F4F3093A7052093A6058091AB04882334
:1016F00009F4B2CF0E948B17AFCF2196C530D10528
:1017000009F0A5CF8091AB04882321F08BEF90E006
:101710000E940B16DF91CF911F910F91FF90EF90D8
:10172000DF90CF90BF900C9447050C94330ECF936D
:1017300081E00E946A07C62F82E00E946A078C2F10
:10174000CF910C94AE0ECF92DF92EF92FF92CF9397
:1017500081E00E946A07C62F82E00E946A076B013F
:101760007C018C2F0E94140E4098C6010E942E0E00
:10177000409ACF91FF90EF90DF90CF900895CF9354
:10178000DF931F92CDB7DEB781E00E946A076983BD
:101790000E94060989810F90DF91CF910C948C0FE4
:1017A00081E00E946A071F926F9382ED90E09F9301
:1017B0008F9381E08F930E94E9160E9406090F9093
:1017C0000F900F900F900F900C942210CF93DF93F7
:1017D0001F92CDB7DEB781E00E946A071F926F9318
:1017E0002BEB30E03F932F9381E08F9369830E942E
:1017F000E9160E9406096981862F0F900F900F90BD
:101800000F900F900F90DF91CF910C9477100F9362
:101810001F930E94EE182091A8053091A905890117
:1018200020E030E060177107820793077CF0809119
:10183000AC04882359F00E94E51881E08093AA0443
:101840000E94E30F1F910F910C9454111F910F915F
:101850000895CF93DF931F92CDB7DEB78091AA048E
:10186000882351F01092AA048CEF91E00E940B168D
:101870000E94BD090E94A404CE0101960E94A91BEA
:101880008823E9F08981823589F048F48334A1F412
:101890000E94701C61E081E00E94951CEBCF8335B3
:1018A00041F08A3549F40E943E05E4CF0E940609C2
:1018B000E3CF0E94030BE0CF0E943806DDCF0E94E9
:1018C0001C05CCCF0E94801B60E072EC81E090E0B0
:1018D0000E94661B80EA9BE10E94B8150E94640486
:1018E00080EA9BE10E949F040E946C1C0E94701C75
:1018F0001092AA0481E08093AB041092AC0488EEAD
:1019000093E09093A9058093A8050E94E51767E0EE
:101910007CE080E00E94451885E00E94E01783E2A9
:1019200084B98CEF8BB98FEF87B988B92D9860E9AE
:1019300077E080E091E00E9479046CE97DE085E049
:1019400091E00E94790468EE77E089E091E00E94DE
:10195000790464E078E08FE091E00E94790462EA23
:101960007DE085E191E00E94790460E578E08BE11B
:1019700091E00E94790468EF77E080E291E00E94B4
:10198000790462E578E085E291E00E94790465E6F9
:1019900078E08AE291E00E94790460E878E08FE2E2
:1019A00091E00E94790460EF78E084E391E00E9486
:1019B000790468E179E08BE391E00E94790463EABD
:1019C0007BE084E491E00E9479046FEB7BE08AE4A1
:1019D00091E00E94790460ED7BE08FE491E00E9449
:1019E000790466EE7BE084E591E00E94790468E783
:1019F0007AE08AE691E00E94790466E079E08AE57F
:101A000091E00E9479046FE479E080E691E00E9421
:101A1000790460EF7AE085E691E00E94790460E75E
:101A20007AE08EE691E00E9479046EE87AE081E740
:101A300091E00E9479046EEE77E086E791E00E94E3
:101A400079046DEB79E08CE791E00E94790464E71A
:101A50007AE081E891E00E9479046EEF77E086E811
:101A600091E00E9479046DEC7AE08AE891E00E94AE
:101A7000790467ED7AE08DE891E00E94790463E0F3
:101A80007BE080E991E00E94790465E97BE087E9E9
:101A900091E00E94790467E97BE08EE991E00E9481
:101AA0007904C0E08C2F0E94140ED0E06D2F8C2F93
:101AB0000E94BA11882361F0DF5F2091A605309162
:101AC000A7052F5F3F4F3093A7052093A605EECFC4
:101AD000CF5FC53039F70E94BC0D0E94A4040E945C
:101AE000290C0F931F93CF93DF93CDB7DEB7649785
:101AF0000FB6F894DEBF0FBECDBF8C018AE891E02F
:101B00000E940B1644E150E0B801CE0101960E94FC
:101B1000611ECE0101960E94CE1588E891E00E94D8
:101B20000B1664960FB6F894DEBF0FBECDBFDF91E3
:101B3000CF911F910F91089580E090E00E94710D68
:101B40000C9447058BE991E00E940B168CE890E01D
:101B50000E94710D8EE891E00E940B1688E790E0DC
:101B60000E94710D0E9499170E9499178CE891E0CC
:101B70000E940B160C944705EAEAF5E0119285E005
:101B8000E33BF807D9F7E3EBF5E0119285E0EB3B97
:101B9000F807D9F7409A419A429A449A459A8BB1EC
:101BA0008093BE058AB18093BF0589B18093C0053B
:101BB00082E08093C10583EA90E00E94791E9093B1
:101BC000C3058093C20585EA90E00E94791E909338
:101BD000C5058093C40587EA90E00E94791E909322
:101BE000C7058093C60589EA90E00E94791E90930C
:101BF000C9058093C8058BEA90E00E94711E80930E
:101C0000CA058CEA90E00E94711E8093CB058DEA94
:101C100090E00E94711E8093CC058EEA90E00E94B5
:101C2000711E8093CD050895863058F49BB1909332
:101C3000BE059AB19093BF0599B19093C0058E5F90
:101C40000AC095E29093BE0594E29093BF0593E29B
:101C50009093C00586508093C1050895019710F0B8
:101C60000000FCCF0895CF938AEE96E09F938F9368
:101C7000C1E0CF930E94E916E2ECF5E081818F93F9
:101C800080818F9384ED96E09F938F93CF930E94F2
:101C9000E916E4ECF5E081818F9380818F938EEBE0
:101CA00096E09F938F93CF930E94E916E6ECF5E0C0
:101CB00081818F9380818F9388EA96E09F938F93A1
:101CC000CF930E94E916E8ECF5E081818F93808143
:101CD0008F9382E996E09F938F93CF930E94E916AA
:101CE0008091CA051F928F938CE796E09F938F9304
:101CF000CF930E94E9168091CB051F928F9386E6C1
:101D000096E09F938F93CF930E94E9168DB79EB76D
:101D100081960FB6F8949EBF0FBE8DBF8091CC0503
:101D20001F928F9380E596E09F938F93CF930E94AD
:101D3000E9168091CD051F928F938AE396E09F93D9
:101D40008F93CF930E94E9168DB79EB70A960FB670
:101D5000F8949EBF0FBE8DBFCF910895F89490E088
:101D6000FC013197E830F105F8F4EC5CFF4F0C947E
:101D7000F01C83EA90E002C085EA90E00E949F1E7A
:101D800013C087EA90E0FACF89EA90E0F7CF8BEAB8
:101D900090E008C08CEA90E005C08DEA90E002C0B7
:101DA0008EEA90E00E94891E0E94BC0D78940895EE
:101DB000AF92BF92CF92DF92EF92FF920F931F9359
:101DC000CF93DF93CFEBD5E088811F928F9386E28C
:101DD00096E09F938F93FF24F394FF920E94E9165D
:101DE0008AB11F928F9382E196E09F938F93FF9227
:101DF0000E94E9168EEBA82E85E0B82EF5018081B1
:101E00001F928F938EEF95E09F938F93FF920E9486
:101E1000E9168BB11F928F938AEE95E09F938F9373
:101E2000FF920E94E91601EC15E0F80180811F92F3
:101E30008F9386ED95E09F938F93FF920E94E91612
:101E400089B11F928F9382EC95E09F938F93FF92BD
:101E50000E94E91690ECC92E95E0D92EF6018081FA
:101E60001F928F938EEA95E09F938F93FF920E942B
:101E7000E9164098EE24E394F12CC701F8010080A4
:101E800002C0880F991F0A94E2F79881982B9883D3
:101E90008095F5019081892380838DB79EB78396C5
:101EA0000FB6F8949EBF0FBE8DBF8091C405909170
:101EB000C5050E942E0EC701F801008002C0880FE0
:101EC000991F0A94E2F780959881892388838091ED
:101ED000C8059091C9050E942E0E409AF801008015
:101EE00002C0EE0CFF1C0A94E2F7F60180818E21FD
:101EF000808340988091C6059091C7050E942E0E60
:101F0000409ADF91CF911F910F91FF90EF90DF905A
:101F1000CF90BF90AF9008951F93CF93DF93182F6A
:101F200043988BB1C1E0D0E09E010090C10502C092
:101F3000220F331F0A94E2F7922F909598239BB9B2
:101F40009AB1922B9AB98091CA0590E00E942E0E08
:101F5000112359F08AB10090C10502C0CC0FDD1FDA
:101F60000A94E2F7C095C823CAB98091CB0590E0E6
:101F70000E942E0E439A2AB181E090E00090C105A4
:101F800002C0880F991F0A94E2F7809582238AB9CC
:101F9000DF91CF911F91089570E021E030E08150F2
:101FA00068F099B1A9010090C10502C0440F551F06
:101FB0000A94E2F7942399B9790FF1CF81E067177A
:101FC00008F080E00895CF93DF9340982AB1C1E0F4
:101FD000D0E0CE010090C10502C0880F991F0A947D
:101FE000E2F7282B2AB99BB1809589238BB9809180
:101FF000C4059091C5050E942E0E8AB10090C105BE
:1020000002C0CC0FDD1F0A94E2F7C095C823CAB9FD
:102010008091C8059091C9050E942E0E409A65E0F6
:102020008AE00E94CC0FC82F40988091C6059091FD
:10203000C7050E942E0E409A81E0C11180E0DF9119
:10204000CF9108950F931F93CF93DF9341982BB1B6
:10205000C1ECD5E001E010E0C801088002C0880FA3
:10206000991F0A94E2F7982F909592239BB99AB101
:10207000982B9AB981E090E00E942E0E8AB10880D8
:1020800002C0000F111F0A94E2F7009508230AB955
:102090008091CC0590E00E942E0E419A61E082E092
:1020A0000E94CC0FC82F41988091CD0590E00E94EE
:1020B0002E0E419A8C2FDF91CF911F910F91089591
:1020C000CF93DF93F8944298D9E0C0E0D15049F023
:1020D0000E94221020E8829FC0011124C695C82BBF
:1020E000F5CF429A78948C2FDF91CF910895CF93BA
:1020F000DF93D82FF8944498C9E0C15031F08D2F68
:1021000081700E948C0FD695F8CF449A7894DF9115
:10211000CF910895DF92EF92FF920F931F93CF9389
:10212000DF9386EA91E00E94CE15CAEAD5E0D12C71
:10213000E990F12C00E010E020E240E063E08AE06A
:102140000E944A1688E0D81621F088EA91E00E94A1
:10215000CE15D39489E0D812EBCF8AEA91E0DF91D3
:10216000CF911F910F91FF90EF90DF900C94CE15BF
:10217000AF92BF92CF92DF92EF92FF920F931F9395
:10218000CF93DF938CEA91E00E94CE15C3EBD5E0AC
:10219000B12C0BEA15E0AA24A39437EAE32E35E02C
:1021A000F32E49EAC42E45E0D42E89911F928F93D5
:1021B0001F930F93AF920E94E9160F900F900F900C
:1021C0000F900F9087E0B81203C0DF92CF9202C049
:1021D000FF92EF92AF920E94E9160F900F900F902E
:1021E000B39488E0B812E1CFDF91CF911F910F91A6
:1021F000FF90EF90DF90CF90BF90AF900895EF9257
:10220000FF920F931F93CF93DF93F89453EBE52E38
:1022100055E0F52EC62FD0E09AE0899FC00DD11D64
:10222000112463E0CC0FDD1F6A95E1F700E010E0B8
:10223000C155DF4FF70161917F01CE01800F911FE2
:102240000E94891E0F5F1F4F0830110599F778947F
:10225000DF91CF911F910F91FF90EF900895E3EBE5
:10226000F5E0DC012D91CD012193B5E0EC3BFB07BE
:10227000C1F70895CF93DF938091B305811105C015
:102280008CECDF91CF910C94771085E50E9477104C
:10229000C3EBD5E089910E94771085E0CB3BD8074E
:1022A000C9F7DF91CF910895CF93C0E08C2F0E94A2
:1022B000140E0E94E30F8CEC0E94771084E40E94BD
:1022C0007710CF5FC53091F7CF91089598E028E15E
:1022D000362F382730FD02C0669503C06227669509
:1022E000606886959150A1F7862F08958F929F92EE
:1022F000AF92BF92CF92DF92EF92FF920F931F9314
:10230000CF93DF931F92CDB7DEB77C018B01FB012A
:102310001082A82E4C01B12C882D8A19841780F4C4
:102320006401F8016081F40181914F0149830E94A9
:102330006611F8018083F6018081B80E4981ECCFE7
:10234000F701E40FF11D9081F8018081981303C01B
:1023500081E0B11001C080E00F90DF91CF911F911B
:102360000F91FF90EF90DF90CF90BF90AF909F9034
:102370008F900895AF92BF92CF92DF92EF92FF922B
:102380000F931F93CF93DF931F92CDB7DEB773EBFD
:10239000A72E75E0B72E062F10E09AE0899F000D5A
:1023A000111D1124E3E0000F111FEA95E1F7E12C64
:1023B000F12CC12CD12C01551F4FC8018E0D9F1D32
:1023C0000E94711EF50181935F01C80ED11CFFEFC1
:1023D000EF1AFF0A88E0E816F10479F7CD2849F0F2
:1023E00047E0BE016F5F7F4F83EB95E00E9476115F
:1023F00001C080E00F90DF91CF911F910F91FF906E
:10240000EF90DF90CF90BF90AF9008950F931F9300
:10241000CF93DF931F92CDB7DEB719820E94E30FEF
:102420008CEC0E9477100E94E30F83E30E947710E8
:1024300003EB15E00E946010F80181938F01F5E035
:102440000B3B1F07B9F747E0BE016F5F7F4F83EB80
:1024500095E00E9476110F90DF91CF911F910F911F
:102460000895DF92EF92FF920F931F93CF93DF9324
:102470001F92CDB7DEB7D82E0E943A118EEB0E9484
:102480007710FAEAEF2EF5E0FF2E8701802F8E19E4
:102490008D1530F40E946010F80181938F01F6CF02
:1024A00019824FEF4D0DBE016F5F7F4F8AEA95E0B5
:1024B0000E9476110F90DF91CF911F910F91FF90A5
:1024C000EF90DF900895CF93DF93EB0127EE33E099
:1024D000398328832FE037E23B832A83682F80915A
:1024E000C1050E94BA11811102C080E02DC00E9476
:1024F000E30F0E9454112FEF8EE994E221508040A7
:102500009040E1F700C000000E94E30F89E00E94C4
:102510003112882351F32091AB0530E0322F22276E
:102520009091AA05292B3595279539832883909179
:10253000B0054FE85DEF949F9001959F300D1124F9
:10254000205F384D3B832A83DF91CF9108950F930D
:102550001F93CF93DF931F92CDB7DEB7182F0E9442
:10256000E30F8CEC0E9477108FE99FE00197F1F761
:1025700000C0000088EB0E947710812F0E94771026
:102580000E94E30F8CEC0E947710EFE9FFE0319797
:10259000F1F700C000008EEB0E947710812F0E949F
:1025A00077100AEA15E00E946010F80181938F010C
:1025B000F5E0033B1F07B9F7198248E0BE016F5FE2
:1025C0007F4F8AEA95E00E9476110F90DF91CF91BC
:1025D0001F910F9108950E94E30F8CEC0E947710D9
:1025E00084E40E9477102FE788E391E02150804037
:1025F0009040E1F700C000000E94E30F8CEC0E94C5
:10260000771084EB0E9477102FE788E391E0215048
:1026100080409040E1F700C0000080E00E94A712D7
:102620000E948A100C94E30F0F931F93CF93DF93B4
:102630001F92CDB7DEB70E94E30F0E943A118FE9D7
:102640009FE00197F1F700C0000088EB0E9477102F
:1026500080E00E9477100E94E30F0E943A11EFE998
:10266000FFE03197F1F700C000008EEB0E94771079
:1026700080E00E9477100AEA15E00E946010F801DD
:1026800081938F01F5E0033B1F07B9F7198248E0FA
:10269000BE016F5F7F4F8AEA95E00E9476110F902E
:1026A000DF91CF911F910F910895DF92EF92FF92EA
:1026B0000F931F93CF93DF93EC0187EE93E0998301
:1026C00088838FE097E29B838A830E94E30F809147
:1026D000B305803109F07BC089E00E943112D82E09
:1026E0002091AB0530E0322F22278091AA05282BBC
:1026F000398328838091AB053595279539832883C5
:102700004091B0058F3F29F54C3050F021E732E081
:10271000429FC001439F900D11248C549D4176C06F
:102720002F5F3F4F398328836091B00541E752E026
:10273000649FC001659F900D11248C53964F9B831D
:102740008A83232B09F083C085EA95E09F938F93BA
:1027500022C04D3090F12150310939832883809176
:10276000AA054091B00581111EC021E732E0429FC9
:10277000C001439F900D11248C549D419B838A83FB
:10278000198218828091B0058D3008F460C023EA68
:1027900035E03F932F9381E08F930E94E9160F90CD
:1027A0000F900F9054C02FE83DEF429FC001439F10
:1027B000900D1124845A9B4B29C02FE83DEF429F76
:1027C000C001439F900D1124845B924E1FC088323C
:1027D00001F589E00E943112D82E2091AB0530E03E
:1027E000322F22278091AA05282B04E035952795C2
:1027F0000A95E1F7398328834091AA054F7021E7B4
:1028000032E0429FC001439F900D11249B838A8335
:102810001EC0863279F40E9414138823B1F080918F
:10282000AC0590E0998388838091AB0590E09B8311
:102830008A830BC083E995E09F938F9381E08F9308
:102840000E94E9160F900F900F90DD24D394898198
:102850008F9388818F932FE835E03F932F9381E00A
:102860008F930E94E916EA80FB800027F7FC009511
:10287000102F20E340E064E08AE00E944A160F90A7
:102880000F900F900F900F908D2DDF91CF911F9192
:102890000F91FF90EF90DF900895CF93DF93D82FA3
:1028A000C62F0E94E30F8CEC0E9477108EE40E94EA
:1028B00077108D2F0E9477108C2F0E94771081E067
:1028C0008C0F0E94771083E08C0F0E94771084E0B9
:1028D0008C0F0E9477100E94E30F8CEC0E947710FF
:1028E00088E40E9477108D2FDF91CF910C947710A0
:1028F000E3EBF5E0119285E0EB3BF807D9F708959B
:10290000AF92BF92CF92DF92EF92FF920F931F93FD
:10291000CF93DF93C3EBD5E0B12C0DE715E0AA24EC
:10292000A39429E7E22E25E0F22E3BE7C32E35E003
:10293000D32E89911F928F931F930F93AF920E9472
:10294000E9160F900F900F900F900F9087E0B8123C
:1029500003C0DF92CF9202C0FF92EF92AF920E942B
:10296000E9160F900F900F90B39488E0B812E1CF62
:10297000DF91CF911F910F91FF90EF90DF90CF905B
:10298000BF90AF900C941C16A1EDB5E0EC91E82738
:10299000F0E0E255FE4F80818C930895FF920F93F3
:1029A0001F93CF93DF931092D1058091D0058111B1
:1029B00070C00E94E30F811112C080E895E09F93E0
:1029C0008F9381E08F930E94E9161092CE051092AA
:1029D000D0051092CF050F900F900F9060C080EF40
:1029E0000E947710D1E010E0F12CC1E00E9422108B
:1029F000082F0E942210013019F48130C1F43BC02D
:102A0000212F30E008131DC08091CE05C81738F47F
:102A1000F901E655FA4F81858D2349F402C0C817A4
:102A200031F000E0C93060F4C093CF0509C0E12F58
:102A3000F0E0E655FA4F81858D2B818701E009C0D2
:102A4000FC2EF901E655FA4F81859D2F909589233B
:102A50008187802F0E948C0FCF5FDD0F49F4E12F1B
:102A6000F0E0E655FA4F81850E94C4141F5FD1E063
:102A7000183008F4BBCFC13460F08091D1058111CA
:102A800008C0F092CE05F1100CC08FEF8093D005F6
:102A900008C01092CE051092D0051092CF0580E0AC
:102AA00005C08091B3058823A1F38FEFDF91CF910B
:102AB0001F910F91FF9008951092CE051092D005AE
:102AC0001092CF050C94CE140C94CE14FF920F9359
:102AD0001F93CF93DF93CDB7DEB728970FB6F89447
:102AE000DEBF0FBECDBFDE011196E3EBF5E08191B5
:102AF0008D9385E0EB3BF807D1F7F090CE05009180
:102B0000D0051091CF0580E48093CE051092D005BA
:102B10000E94CE149E01275F3F4F882369F0A3EBEC
:102B2000B5E0FE01319691918D91981305C0E217A1
:102B3000F307C9F78FEF01C080E0A3EBB5E0FE011A
:102B4000319691919D93E217F307D9F7F092CE0554
:102B50000093D0051093CF0528960FB6F894DEBFEA
:102B60000FBECDBFDF91CF911F910F91FF900895C0
:102B700090931304809312040895CF93C82F8A3042
:102B800031F4E0911204F09113048DE00995E09185
:102B90001204F09113048C2FCF910994CF93DF93FB
:102BA000009739F0EC018991882319F00E94BD1536
:102BB000FACFDF91CF910895EF92FF920F931F9379
:102BC000CF93DF937A010097F9F0FC01680F791F2A
:102BD000EF01E617F70719F400E010E00FC0EF016E
:102BE000219680818823C1F3FE01F2CF888188235A
:102BF00049F021960E94BD150F5F1F4F0E151F054E
:102C0000A9F702C080E2F6CFDF91CF911F910F911B
:102C1000FF90EF900895CF93DF93009751F0FC0160
:102C20008491EF012196882321F00E94BD15FE01B9
:102C3000F7CFDF91CF9108958AE00C94BD158F7086
:102C4000E82FF0E0E150F94F84910C94BD15CF933B
:102C5000C82F82958F700E941F168C2FCF910C94D5
:102C60001F16CF93C82F892F0E9427168C2FCF9124
:102C70000C942716CF92DF92EF92FF926B017C01AA
:102C8000C7010E943116C601FF90EF90DF90CF90F0
:102C90000C9431163F924F925F926F927F928F9277
:102CA0009F92AF92BF92CF92DF92EF92FF920F93DB
:102CB0001F93CF93DF93CDB7DEB7A0970FB6F894ED
:102CC000DEBF0FBECDBF882E762E622E442351F07C
:102CD00017FF08C066277727CB016E197F09800B85
:102CE000910B02C0C801B70144244394411101C0B3
:102CF000412C55245A94570C541818A2912CA12CED
:102D0000B12CA50194010E94CE1CFB01EF70FF279E
:102D1000E150F94F64916F8FB901CA016E012EE144
:102D2000C20ED11C352C3A942FEF3216D1F061151A
:102D300071058105910579F0A50194010E94CE1CD1
:102D4000FB01EF70FF27E150F94F6491F6016083BA
:102D5000B901CA0102C0F6016082F1E0CF1AD108C0
:102D6000E2CFCE014F9685199109442069F0FC010C
:102D7000319717FF02C02DE205C0EF28E02AE12AB3
:102D800031F02BE22083CF018C01780E02C020E2CB
:102D9000F9CF701631F0F80181918F010E94BD15B5
:102DA000F8CFA0960FB6F894DEBF0FBECDBFDF916F
:102DB000CF911F910F91FF90EF90DF90CF90BF9038
:102DC000AF909F908F907F906F905F904F903F90CB
:102DD00008955F926F927F928F929F92AF92BF926F
:102DE000CF92DF92EF92FF920F931F93CF93DF93D7
:102DF0001F92CDB7DEB7EC89FD897E0126E1E20E98
:102E0000F11C3AE0832E912C3B89332381F08F0112
:102E10000F5F1F4F8491853289F0882309F468C0C1
:102E20000E94BD15370168017301F601EDCF808165
:102E3000853259F08F010F5F1F4FEFCF6F0182E096
:102E4000C80ED11CF801849105C06F0122E0C20EAA
:102E5000D11C8181843659F0883799F0833669F422
:102E6000F701808197012E5F3F4F790106C02AE06C
:102E7000A22EB12C00E117E209C00E94BD15370156
:102E8000D3CF90E1A92EB12C00E010E1370132E060
:102E9000630E711CF701E080F1808436A1F4F7FE27
:102EA0000FC0F194E194F1088DE20E94BD1508C0B5
:102EB000C801B4010E94BA1C8B016230710518F080
:102EC000E016F106A8F3C701B8010E94BA1C582EFB
:102ED000862F99830E941F16E52C9981F92EC8012F
:102EE000B5010E94BA1C8B016115710561F79CCF79
:102EF00080E090E00F90DF91CF911F910F91FF90B4
:102F0000EF90DF90CF90BF90AF909F908F907F9089
:102F10006F905F9008958DEF96E00C940B1690E003
:102F200070E0615071098617970711F00C948B17A8
:102F300008958BEF96E00C940B1689EF96E00C94B5
:102F40000B160895813071F028F18230A1F08330A2
:102F500009F580916E00877F80936E0080916E00EE
:102F6000826012C080916E00877F80936E00809196
:102F70006E008D7F09C080916E00877F80936E0008
:102F800080916E0082600EC080936E0080916E0012
:102F900081600DC080916E00877F80936E0080916C
:102FA0006E008D7F80936E0080916E008E7F809387
:102FB0006E0080916E00826080936E00A99A0895E1
:102FC00095B5987F982B95BD089582E00E94E017F3
:102FD00016BCEEE6F0E08081816080831092D2051D
:102FE0001092D3051092D4051092D5050895E1E80A
:102FF000F0E09081987F982B9083089581E00E9463
:10300000F7171092850010928400EFE6F0E08081BF
:10301000816080830895E1EBF0E09081987F982BA8
:103020009083089584E00E940B181092B200E0E7AC
:10303000F0E08081816080831092DA051092DB05D8
:103040001092DC051092DD050895E5B5E770F0E01B
:10305000EE0FFF1FE05EF84F859194910895E09187
:103060008100E770F0E0EE0FFF1FE05EF84F859102
:1030700094910895E091B100E770F0E0EE0FFF1F2A
:10308000E05FF84F8591949108958A3040F4E82FDD
:10309000F0E0EE0FFF1FEC5EFB4F7183608308953D
:1030A0008A3040F4E82FF0E0EE0FFF1FEC5EFB4F9C
:1030B000118210820895CF93C0E08C2F0E94501887
:1030C000CF5FCA30D1F70E94E5170E94FE170E9419
:1030D00012187894CF910895CF92DF92EF92FF92D9
:1030E0000F931F93CF93DF93EC0116B51092D60583
:1030F0001092D7051092D8051092D9050E94251874
:103100009C0140E050E060E074E284EF90E00E94B7
:10311000CE1C6E01E12CF12C293B8DE8380786E0AE
:1031200048075105A0F4C131D74288F4C701B60160
:103130000E94AA1C28EE33E040E050E00E94CE1C22
:10314000DA01C901810F911DA11DB11D0FC0CA0176
:10315000B90128EE33E040E050E00E94CE1CC701E8
:10316000B6010E94AA1C9B01AC01EACF0091D605D2
:103170001091D7052091D8053091D90566B5322F29
:10318000212F102F0027062B081719072A073B07A6
:1031900098F44091D6055091D7056091D80570916B
:1031A000D90523B7217F23BF23B7216023BF88958B
:1031B00023B72E7F23BFDACFDF91CF911F910F91DD
:1031C000FF90EF90DF90CF9008951092D20510926B
:1031D000D3051092D4051092D50508956091D205BB
:1031E0007091D3058091D4059091D50508951092E2
:1031F000DA051092DB051092DC051092DD050895CA
:103200006091DA057091DB058091DC059091DD0518
:103210000895893049F48091800082608093800015
:10322000809180008E7F0EC08A3021F480918000D2
:10323000826003C0809180008D7F809380008091A8
:103240008000816080938000109289001092880035
:1032500010928B0010928A000895E0E8F0E020813F
:103260002E7F2083208122602083E1E8F0E020810E
:1032700028602083208120612083909387008093A1
:103280008600109289001092880010928B00109294
:103290008A000895E0E8F0E0808180688083808182
:1032A0008F7B80830895E0E8F0E0808180628083F6
:1032B00080818F7E80830895E0E8F0E080818F77C1
:1032C000808380818F7B80830895E0E8F0E08081B7
:1032D0008F7D808380818F7E80830895E0E8F0E099
:1032E00080818D7F808380818E7F80830E945C19A6
:1032F0000C946519909389008093880008959093A9
:103300008B0080938A000895E0EBF0E08081806874
:10331000808380818F7B80838081816080838081B6
:1033200082608083E1EBF0E08081877F8083089575
:10333000E0EBF0E080818062808380818F7E8083FB
:103340000895E0EBF0E080818F77808380818F7B30
:10335000808308958093B30008958093B400089506
:103360001F920F920FB60F9211242F933F934F93FA
:103370005F936F937F938F939F93AF93BF93EF93DD
:10338000FF938091D2059091D305A091D405B0917F
:10339000D5050196A11DB11D8093D2059093D3054B
:1033A000A093D405B093D5058091D6059091D7050B
:1033B000A091D805B091D9050196A11DB11D8093AA
:1033C000D6059093D705A093D805B093D9058091E1
:1033D000140490911504892B29F0E0911404F091C4
:1033E00015040995FF91EF91BF91AF919F918F9136
:1033F0007F916F915F914F913F912F910F900FBEF1
:103400000F901F9018951F920F920FB60F921124D4
:103410002F933F934F935F936F937F938F939F93DC
:10342000AF93BF93EF93FF938091DA059091DB0503
:10343000A091DC05B091DD050196A11DB11D809321
:10344000DA059093DB05A093DC05B093DD05809150
:10345000220490912304892B29F0E0912204F09119
:1034600023040995FF91EF91BF91AF919F918F91A7
:103470007F916F915F914F913F912F910F900FBE70
:103480000F901F9018951F920F920FB60F92112454
:103490002F933F934F935F936F937F938F939F935C
:1034A000AF93BF93EF93FF9380911604909117040D
:1034B000892B29F0E0911604F09117040995FF91EA
:1034C000EF91BF91AF919F918F917F916F915F919C
:1034D0004F913F912F910F900FBE0F901F90189515
:1034E0001F920F920FB60F9211242F933F934F9379
:1034F0005F936F937F938F939F93AF93BF93EF935C
:10350000FF938091180490911904892B29F0E09180
:103510001804F09119040995FF91EF91BF91AF91B3
:103520009F918F917F916F915F914F913F912F91DB
:103530000F900FBE0F901F9018951F920F920FB60D
:103540000F9211242F933F934F935F936F937F9329
:103550008F939F93AF93BF93EF93FF9380911C043E
:1035600090911D04892B29F0E0911C04F0911D0419
:103570000995FF91EF91BF91AF919F918F917F91AD
:103580006F915F914F913F912F910F900FBE0F90D0
:103590001F9018951F920F920FB60F9211242F9320
:1035A0003F934F935F936F937F938F939F93AF93CB
:1035B000BF93EF93FF9380911E0490911F04892B7A
:1035C00029F0E0911E04F0911F040995FF91EF91FD
:1035D000BF91AF919F918F917F916F915F914F912B
:1035E0003F912F910F900FBE0F901F9018951F9233
:1035F0000F920FB60F9211242F933F934F935F9327
:103600006F937F938F939F93AF93BF93EF93FF93AA
:103610008091200490912104892B29F0E0912004CD
:10362000F09121040995FF91EF91BF91AF919F9186
:103630008F917F916F915F914F913F912F910F905B
:103640000FBE0F901F9018951F920F920FB60F92FA
:1036500011242F933F934F935F936F937F938F9397
:103660009F93AF93BF93EF93FF9380912404909126
:103670002504892B29F0E0912404F0912504099573
:10368000FF91EF91BF91AF919F918F917F916F913A
:103690005F914F913F912F910F900FBE0F901F9010
:1036A000189540E450E06AE674E08FED95E00E94E2
:1036B000C80340E450E06AE274E088EE95E00C94C0
:1036C000C803909329048093280408959B01AC01BA
:1036D00082E08093C00088E98093C10083E0220FDC
:1036E000331F441F551F8A95D1F760E074E284EFC1
:1036F00090E00E94CE1C21502093C400789408953D
:103700000E94511B109229041092280488ED809386
:10371000C10060E072EC81E090E00E94661B8FEFD8
:103720008093DE051092E7051092F1051092F005E6
:10373000789408958FED95E0089588EE95E00895CA
:103740009091C00095FFFCCF8093C6001092DE05DB
:103750000895CF93DF93EC018091E1059091E2050C
:10376000892B69F08091E3059091E405892B39F06C
:103770008FED95E00E94D50388838FEF01C080E034
:10378000DF91CF910895CF93DF931F92CDB7DEB72E
:10379000CE0101960E94A91B882319F0898190E02F
:1037A00002C08FEF9FEF0F90DF91CF91089510929D
:1037B000E4051092E305089581E02091E30530913E
:1037C000E405232B09F080E081950895682F88EEA9
:1037D00095E00C942D048FEF8093E70588EE95E03B
:1037E0000E94D5030C94A01B1F920F920FB60F924C
:1037F00011242F933F934F935F936F937F938F93F6
:103800009F93AF93BF93EF93FF938091E705882336
:1038100079F08091EC059091ED05892B39F088EED7
:1038200095E00E94D5038093C60005C01092E7057D
:103830008FEF8093DE05FF91EF91BF91AF919F9144
:103840008F917F916F915F914F913F912F910F9049
:103850000FBE0F901F9018951F920F920FB60F92E8
:1038600011242F933F934F935F936F937F938F9385
:103870009F93AF93BF93EF93FF938091C6002091E6
:10388000280430912904232B31F0E0912804F09191
:103890002904099510C0682F8FED95E00E942D0432
:1038A000811109C08091F0059091F10501969093E6
:1038B000F1058093F005FF91EF91BF91AF919F913A
:1038C0008F917F916F915F914F913F912F910F90C9
:1038D0000FBE0F901F9018958EE497E00C940B1676
:1038E00089E497E00C940B161F928F9383E497E082
:1038F0009F938F9381E08F930E94E9160F900F9012
:103900000F900F900F900895882319F08CE397E0A3
:1039100002C085E397E09F938F9381E08F930E948D
:10392000E9160F900F900F9008951F926F931F92BA
:103930008F938CE297E09F938F9381E08F930E9407
:10394000E9168DB79EB707960FB6F8949EBF0FBEC7
:103950008DBF0895DB018F939F930E94F61CBF914A
:10396000AF91A29F800D911DA39F900DB29F900DCE
:1039700011240895AA1BBB1B51E107C0AA1FBB1F3E
:10398000A617B70710F0A61BB70B881F991F5A95EB
:10399000A9F780959095BC01CD010895A1E21A2E5A
:1039A000AA1BBB1BFD010DC0AA1FBB1FEE1FFF1FE3
:1039B000A217B307E407F50720F0A21BB30BE40B33
:1039C000F50B661F771F881F991F1A9469F760957A
:1039D0007095809590959B01AC01BD01CF01089534
:1039E000EE0FFF1F0590F491E02D09940E94011D38
:1039F000A59F900DB49F900DA49F800D911D112443
:103A00000895A29FB001B39FC001A39F700D811DB7
:103A10001124911DB29F700D811D1124911D0895D7
:103A20002F923F925F926F927F928F929F92AF926E
:103A3000BF92CF92DF92EF92FF920F931F93CF939B
:103A4000DF938B01EA016115710521F0DB018C9395
:103A500011969C93209739F09E0122503109233210
:103A6000310508F0FBC07C016701BFEFCB1ADB0A10
:103A70005601F7016080862D90E00E94441E892B3C
:103A800011F07601F1CFFDE26F120AC0570182E01A
:103A9000A80EB11CD70111966C90772473940BC0BB
:103AA000BBE26B1207C05701E2E0AE0EB11CD701BA
:103AB00011966C90712CCE018F7E892B89F4B0E326
:103AC0006B1222C0F50180818F7D883541F56180C0
:103AD000F2E0AF0EB11C872D8260782EC0E1D0E0FD
:103AE000C830D105F1F04CF4C230D10511F5C12C2C
:103AF000D12CE12CB0E4FB2E2FC0CA30D10531F01F
:103B0000C031D10521F115C0209751F7CAE0D0E0AE
:103B1000ACECCA2EDC2CEC2CACE0FA2E1DC02097AD
:103B2000F9F6C8E0D0E0C12CD12CE12CF0E1FF2E59
:103B300013C060E070E080E090E89E01442737FD0C
:103B40004095542F0E94CE1C69017A0105C0C12CFA
:103B5000D12CE12CE8E0FE2EF50160E020E030E021
:103B6000A9014E01AA2497FCA094BA2C1F0170ED64
:103B7000572E560CA9E0A51570F48FEB860D8A31EF
:103B800018F499EC592E06C08FE9860D8A3130F56C
:103B900089EA582E560C852D90E08C179D07F4F479
:103BA00067FD18C0C216D306E406F50680F0C5010D
:103BB000B4010E94AA1C9B01AC01250D311D411DC1
:103BC000511D213031054105B0E85B0710F06FEF62
:103BD00001C061E03196D1016C90C8CF872D817012
:103BE0000115110571F0662329F03197D801ED9385
:103BF000FC9307C071FE19C03297D801ED93FC9376
:103C000014C067FF12C0882329F020E030E040E0B4
:103C100050E804C02FEF3FEF4FEF5FE782E290E004
:103C20009093F3058093F20516C0882341F05095D8
:103C30004095309521953F4F4F4F5F4F0CC057FF38
:103C40000AC082E290E09093F3058093F2052FEF93
:103C50003FEF4FEF5FE7B901CA0104C060E070E0D9
:103C600080E090E0DF91CF911F910F91FF90EF9056
:103C7000DF90CF90BF90AF909F908F907F906F908C
:103C80005F903F902F90089591115EC0803219F09F
:103C900089508550D0F70895FB01DC0101900D9209
:103CA0000020E1F70895FB01DC014150504030F065
:103CB0008D910190801919F40020B9F7881B990B98
:103CC0000895DC01CB01FC01F999FECF06C0F2BDDD
:103CD000E1BDF89A319600B40D9241505040B8F7CA
:103CE0000895F999FECF92BD81BDF89A992780B5C4
:103CF0000895A8E1B0E042E050E00C94631EDC01BE
:103D0000CB0103C02D910E948A1E41505040D0F734
:103D10000895262FF999FECF1FBA92BD81BD20BD0F
:103D20000FB6F894FA9AF99A0FBE01960895242FC7
:103D30000E948A1E252F0E948A1E0C949F1E0E949C
:103D4000891E272F0C948A1E992788270895F89496
:023D5000FFCFA3
:103D520068656C700069646E0067657466770073ED
:103D62006574736E00676574736E007465737400B6
:103D72006A736F6E00706F6B65007065656B0064CF
:103D8200756D700073747265616D00696E74657231
:103D920076616C0064656C617900776269740072A7
:103DA2006269740077627974650072657365740084
:103DB2006C6F616400636C656172726F6D00737029
:103DC20000736176650073746172740074656D705E
:103DD20000646174610070696E0072700077700037
:103DE2007365617263680074696D696E67007365FB
:103DF2007474696D65005B002C005D002200005E3A
:103E0200BCE2613FDD83C29C7E20A3FD1F419DC3B6
:103E1200217FFCA2401E5F01E3BD3E6082DC237D68
:103E22009FC1421CFEA0E1BF5D0380DE3C62BEE09A
:103E3200025CDF81633D7C22C09E1D43A1FF4618C8
:103E4200FAA427799BC584DA3866E5BB5907DB8576
:103E52006739BAE406581947A5FB7826C49A653B28
:103E6200D987045AB8E6A7F91B45C6987A24F8A65A
:103E7200441A99C7257B3A6486D85B05E7B98CD288
:103E8200306EEDB3510F4E10F2AC2F7193CD114F36
:103E9200ADF3702ECC92D38D6F31B2EC0E50AFF1E8
:103EA200134DCE90722C6D33D18F0C52B0EE326C1A
:103EB2008ED0530DEFB1F0AE4C1291CF2D73CA9448
:103EC2007628ABF517490856B4EA6937D58B5709F6
:103ED200EBB536688AD495CB2977F4AA4816E9B7A8
:103EE200550B88D6346A2B7597C94A14F6A8742ADA
:0E3EF200C896154BA9F7B6E80A54D7896B3568
:00000001FF
