:100000000C9426030C9443030C9443030C94430375
:100010000C9443030C9443030C9443030C948715F2
:100020000C9443030C9466140C945A150C9400150C
:100030000C942D150C9443030C94A6140C94D31417
:100040000C9413140C9443030C9453160C94430314
:100050000C941B160C9443030C9443030C9443031D
:100060000C9443030C9443031E0E210E260E290EFE
:100070002C0E2F0E320E350E220022007D3C2F2535
:10008000643E003C25643E7B22636D64223A22007C
:10009000222C202264617461223A2000636F6D6D0E
:1000A000616E64206E6F7420666F756E64004552D9
:1000B000524F523A2000636D643E000A74686572C4
:1000C0006D5F7265736574203D2025640A005D00D4
:1000D00025642C2025642C20005D005D2C005B5DD8
:1000E000005B25642C005B00435243204572726F15
:1000F00072005B2230222C302C305D5D00203A20D3
:1001000000203A20002564203A20005B00310025C1
:1001100064002564002564000D0A000D0A002030EB
:100120007825780030782578257820307825780073
:100130005B25642C2230782578225D002200220085
:100140007D002C226C6F636174696F6E223A007BB4
:1001500022534E223A00224552524F52202D20491E
:100160006E76616C69642073796E746178206C615D
:1001700062656C205B617C627C647C697C6C7C73F6
:100180005D206465764E756D206C6162656C5F7490
:100190006578742200224F4B2200224F4B2200220E
:1001A000006F776972652031352E31322E31320081
:1001B00022007770202020202020202020202020B6
:1001C000203A207772697465206461746120746FCD
:1001D0002073706563696669656420706167650A8C
:1001E000007270202020202020202020202020208D
:1001F0003A20726561642073706563696669632083
:10020000706167652066726F6D2033383234206408
:1002100065766963650A006461746120202020208E
:100220002020202020203A207265616420646174BF
:10023000612066726F6D20333832342064657669D0
:1002400063650A0074656D70202020202020202026
:100250002020203A20726561642074656D7065729B
:100260006174757265730A00737461727420202062
:10027000202020202020203A207374617274207482
:10028000656D7065726174757265206D65617375F9
:1002900072656D656E740A0073617665202020209A
:1002A000202020202020203A20736176652073636F
:1002B000726174636870616420746F206565707228
:1002C0006F6D0A0073702020202020202020202025
:1002D0002020203A2073686F772073637261746303
:1002E00068207061640A006C6F6164202020202007
:1002F0002020202020203A206C6F616420656570EA
:10030000726F6D20636F6E74656E740A00726F6D2C
:100310002020202020202020202020203A2072652C
:10032000616420726F6D206F6620612073696E6753
:100330006C65206465766963650A000A0A4F6E651C
:100340007769726520436F6D6D616E64733A0A0060
:1003500073747265616D20202020202020202020D1
:10036000203A2073746172742073747265616D69D0
:100370006E670A00746573742020202020202020DE
:1003800020202020203A20746573742066756E63E7
:1003900074696F6E0A00706F6B65205B7265675DD4
:1003A000205B76616C5D203A207365747320726502
:1003B0006769737465722076616C756520746F204F
:1003C0005B76616C5D200A007065656B205B726511
:1003D000675D202020202020203A207265747572ED
:1003E0006E73206465632C2068657820616E6420DC
:1003F00062696E2076616C7565206F662072656734
:1004000069737465720A007465737420202020205B
:1004100020202020202020203A207465737420663C
:10042000756E6374696F6E0A0069646E2020202007
:10043000202020202020202020203A207072696E69
:1004400074732064657669636520494420616E6435
:100450002076657273696F6E20696E666F0A000A96
:10046000436F6D6D616E64733A0A005A202020203C
:100470002020202020202020202020203A207265CB
:1004800073657420636F6D6D616E64206E756D624F
:10049000657220746F207A65726F0A0053202020E5
:1004A000202020202020202020202020203A2070E2
:1004B0006572666F726D2062696E61727920736514
:1004C000617263680A005220202020202020202012
:1004D000202020202020203A2073656E6420726541
:1004E0007365742070756C73650A004320202020AA
:1004F0002020202020202020202020203A20636C53
:100500006561722073637265656E0A00496E73746B
:10051000616E7420636F6D6D616E64733A0A006F73
:100520007774656D70222C2264617461223A002E0A
:10053000002200256400746865726D5F72657365E2
:100540007428290A0025642E00224445565F4E4F28
:10055000545F464F554E4422002D002D0030382068
:10056000745F726561645F736C6F7420203A20253C
:10057000640A00303720745F726561645F73616D77
:100580007020203A2025640A00303620745F77728C
:100590006974655F736C6F74203A2025640A0030BB
:1005A0003520745F77726974655F6C6F7720203ACD
:1005B0002025640A00303420745F72657365745FAF
:1005C00064656C61793A2025640A00303320745FD9
:1005D00072657365745F72782020203A2025640A62
:1005E00000303220745F72657365745F7478202008
:1005F000203A2025640A00303120745F636F6E76E4
:10060000202020202020203A2025640A000A31578B
:100610006972652054696D696E670A002E002200B8
:100620002564005B005D002C0030313233343536F8
:10063000373839414243444546001B5B25643B251E
:100640006448001B5B324A001B63000011241FBE7C
:10065000CFEFD8E0DEBFCDBF12E0A0E0B1E0E8E828
:10066000F1E302C005900D92A439B107D9F725E056
:10067000A4E9B2E001C01D92A73BB207E1F70E94D6
:10068000B60A0C94C2180C940000FC018FB7F894C1
:10069000718360835383428317821682158214828A
:1006A0008FBF0895FC019FB7F8944481558141158F
:1006B0005105C9F026813781A081B181A20FB31FF6
:1006C0008C912F5F3F4F378326836281738126177A
:1006D000370720F0261B370B3783268341505109FB
:1006E0005583448301C080E09FBF0895FC01362FED
:1006F0002FB7F894A481B58162817381A617B707DB
:1007000098F4868197818A0F9B1F0E94C016A08152
:10071000B181A80FB91F3C9384819581019695837F
:1007200084832FBF8FEF08952FBF80E0089510922C
:100730006504109261041092660410926304109292
:100740006204109264041092C2031092C3031092C8
:10075000C4031092C5030895EF92FF921F93CF93A5
:10076000DF937B0110916404C12FD0E09E0143E030
:10077000220F331F4A95E1F7BC01C9018E529D4FEC
:100780000E943018CC0FDD1FCA56DD4FF982E88277
:100790001F5F10936404DF91CF911F91FF90EF9042
:1007A000089590939502809394020895CF93DF93D8
:1007B00080915F048823E9F08091C5038F93809135
:1007C000C4038F938091C3038F938091C2038F934F
:1007D00083E890E09F938F9381E08F930E9433137F
:1007E0008DB79EB707960FB6F8949EBF0FBE8DBF0C
:1007F00010C0C6EBD0E0CE01FE012491222349F0C7
:100800002196FC018491E0919402F0919502099562
:10081000F2CFDF91CF9108951F93CF93DF93E091B3
:100820009402F09195028DE009950E94D6031091F3
:100830006104C7E6D4E01C0F1C1739F0E091940264
:10084000F091950289910995F7CFDF91CF911F9192
:100850000895882319F0813059F008958091670434
:100860008823D1F067E674E087EB94E00C943018AD
:1008700067EB74E087E694E00E943018E7E6F4E066
:1008800001900020E9F73197E756F440E0936104C6
:10089000E09366040C940C040895E0916204F091D6
:1008A0006304309739F00995109263041092620442
:1008B0000C94D60308958091C2039091C303A09134
:1008C000C403B091C5030196A11DB11D8093C2035D
:1008D0009093C303A093C403B093C50308951092EB
:1008E000C2031092C3031092C4031092C50308956B
:1008F00080915F048823F9F08091C5038F938091E4
:10090000C4038F938091C3038F938091C2038F930D
:100910008CE790E09F938F9381E08F930E94331335
:100920000E9488128DB79EB707960FB6F8949EBFA7
:100930000FBE8DBF02C00E9488120C945B04CF933F
:10094000DF9380915F048823E1F08091C5038F934A
:100950008091C4038F938091C3038F938091C203CE
:100960008F938AE790E09F938F9381E08F930E940B
:1009700033138DB79EB707960FB6F8949EBF0FBE80
:100980008DBFCEEAD0E0CE01FE012491222349F0B2
:100990002196FC018491E0919402F09195020995D1
:1009A000F2CFC7E6D4E08991982F9F7DE091940221
:1009B000F0919502992311F00995F5CF8AE30995F5
:1009C000E0919402F091950280E20995CCE9D0E0A3
:1009D000CE01FE012491222349F02196FC0184914D
:1009E000E0919402F09195020995F2CF80915F0415
:1009F000882359F088E790E09F938F9381E08F934D
:100A00000E9433130F900F900F90DF91CF910C94B1
:100A10007804BF92CF92DF92EF92FF920F931F93D1
:100A2000CF93DF9380E00E94290480E0C82ED12C70
:100A3000F601E959FB4F90819F7D11F08F5FF6CF52
:100A400090915F04811105C091113CC00E948812F1
:100A50002EC0913029F480E990E00E94771202C004
:100A60000E948812B090640492EDE92E92E0F92E73
:100A700000E010E00B15C8F4E801A60167E674E099
:100A8000C7010E9437180F5F1F4F28E0E20EF11CCC
:100A9000892B81F7CC0FDD1FCA56DD4F88819981E4
:100AA00090936304809362040DC00E949F04DF91C1
:100AB000CF911F910F91FF90EF90DF90CF90BF905B
:100AC0000C94D603DF91CF911F910F91FF90EF907F
:100AD000DF90CF90BF900895CF93C82F8091650489
:100AE0008230B9F5C33441F0C43409F1C13471F531
:100AF00081E00E9429042AC08091660490916104DB
:100B0000E0919402F09195028917F0F48F5F809341
:100B100066048BE10995E0919402F09195028BE5D2
:100B20000995E0919402F091950283E40EC08091C2
:100B30006604E0919402F0919502882329F0815097
:100B40008093660488E001C087E0099510926504EF
:100B5000CFC0813021F4CB3511F482E0C7C01092B0
:100B6000650480EE8C0F8F3508F047C04091660415
:100B700080916104481316C0E0919402F0919502AF
:100B80008C2F0995E091660481E08E0F80936604B6
:100B9000F0E0E959FB4FC083809161048F5F80933F
:100BA0006104A6C08F5F80936104481760F4A82F8A
:100BB000B0E0A959BB4F9D0121503109F901908145
:100BC0009C938150F2CF81E0840F80936604E42FE0
:100BD000F0E0E959FB4FC0830E940C04C091660409
:100BE00080916104C81708F083C0E0919402F091ED
:100BF000950288E00995CF5FF3CFCA3011F0CD3070
:100C0000B1F4E091610481E08E0F80936104F0E023
:100C1000E959FB4F1082809166048F5F80936604D0
:100C20000E940905109261041092660461C0CF37DA
:100C300019F0C83009F057C080916604882309F480
:100C40004BC09091610489131DC0E0919402F09112
:100C5000950288E00995E0919402F091950280E276
:100C60000995E0919402F091950288E009958091B0
:100C70006104815080936104809166048150809367
:100C8000660436C09150909361048150809366044D
:100C9000891740F4E82FF0E0E959FB4F21812083C8
:100CA0008F5FF6CF0E940C04E0919402F0919502C0
:100CB00080E20995C09166048091610490E02C2F38
:100CC00030E082179307A4F0E0919402F09195022E
:100CD00088E00995CF5FF0CFE0919402F091950202
:100CE00087E0CF910994CB3119F481E080936504BA
:100CF000CF91089590E0E92FF0E0E959FB4F208172
:100D0000203211F49F5FF7CF20E02817A1F0E92FE0
:100D1000F0E0E959FB4F30813F7D11F09F5FF7CF45
:100D2000E92FF0E0E959FB4F3081303211F49F5F39
:100D3000F7CF2F5FEACF892F90E089599B4F089515
:100D4000CF93DF9300D0CDB7DEB70E947A064AE09A
:100D500050E0BE016F5F7F4F0E9416170F900F90FB
:100D6000DF91CF910895CF93DF9300D0CDB7DEB759
:100D70000E947A0640E150E0BE016F5F7F4F0E9403
:100D800016170F900F90DF91CF91089581E00E9488
:100D9000A00660935F0408958CE095E00E947712AE
:100DA0008BEE94E00E94771286EC94E00E9477121A
:100DB0008CE994E00E9477128BE694E00E9477120F
:100DC0008FE594E00E94771289E294E00E94771206
:100DD00087E094E00E94771288EC93E00E947712FB
:100DE00086E993E00E94771284E793E00E947712ED
:100DF00080E593E00E9477128BE393E00E947712E4
:100E00008DE093E00E94771287EE92E00E947712C5
:100E100084EC92E00E94771288E992E00E947712B7
:100E200088E692E00E94771284E492E00E947712B2
:100E300087E192E00E94771281EE91E00E947712A2
:100E400082EB91E00C94771280EB91E00E94771294
:100E500081EA91E00E9477128FE991E00E94771277
:100E60000C9478040E94860C0E94950E8DE091E00F
:100E70000E9477120C9478040F931F93CF93DF9303
:100E8000CDB7DEB764970FB6F894DEBF0FBECDBF07
:100E900081E00E947A068C0182E00E94A00683E035
:100EA0000E947A06BC01F80180818C3679F4CE016B
:100EB00001960E94301844E150E064E670E0CE01F3
:100EC00001960E9466188AE991E013C0833779F48D
:100ED000CE0101960E94301844E150E068E770E0CE
:100EE000CE0101960E94661885E991E002C086E570
:100EF00091E00E9477120E94780464960FB6F894ED
:100F0000DEBF0FBECDBFDF91CF911F910F9108952E
:100F1000CF9381E00E94A006C62F82E00E94A00627
:100F20008C2FCF910C94E40ECF92DF92EF92FF9230
:100F300081E00E94B3066B017C0182E00E94B3064F
:100F4000F6016083FF90EF90DF90CF90089581E0ED
:100F50000E94B306FB0180811F928F931F928F9393
:100F600080E391E09F938F9381E08F930E943313EE
:100F70008DB79EB707960FB6F8949EBF0FBE8DBF74
:100F80000C9478048F929F92AF92BF92CF92DF928F
:100F9000EF92FF920F931F93CF93DF9381E00E9414
:100FA000B306EB0182E00E94B3067B0110E08EE104
:100FB000C82E81E0D82E01E094E2A92E91E0B92E4E
:100FC0002BE1822E21E0922EEC16FD0698F188810D
:100FD000111116C01F928F93CE0199279F938F9363
:100FE0001F92DF93BF92AF920F930E9433138DB77E
:100FF0009EB709960FB6F8949EBF0FBE8DBF0CC06A
:101000001F928F93DF92CF920F930E9433130F9012
:101010000F900F900F900F901F5F183049F49F9220
:101020008F920F930E9433130F900F900F9010E048
:101030002196CACF88E191E09F938F9381E08F93AF
:101040000E9433130F900F900F90DF91CF911F915B
:101050000F91FF90EF90DF90CF90BF90AF909F9057
:101060008F90089581E00E94A006609360041F9213
:101070006F9385E191E09F938F9381E08F930E941E
:1010800033130F900F900F900F900F900C947804E3
:101090000E94860C1F928F938BEB90E09F938F930F
:1010A00081E08F930E9433130F900F900F900F9059
:1010B0000F90089581E00E94A006709367056093E9
:1010C00066056115710581F41F921F9282E191E01E
:1010D0009F938F9381E08F930E9433130F900F9013
:1010E0000F900F900F900895AB01BC0166277727F2
:1010F0008CE890E00E947E18809167058F93809124
:1011000066058F938FE091E09F938F9381E08F939B
:101110000E9433130F900F900F900F900F900C942C
:10112000780481E00E94A006862F0C942A0C8F92EE
:101130009F92AF92BF92CF92DF92FF920F931F9335
:10114000CF93DF9300E010E0FF24F39480EDC82EEE
:1011500080E0D82E91EEA92E90E0B92E2BED822EB4
:1011600020E0922E802F0E942A0C80915F04882319
:1011700021F086EE90E00E947712C1E080915F043A
:10118000882349F11F92CF93BF92AF92FF920E94A2
:1011900033138C2F0E94E40E0F900F900F900F903E
:1011A0000F90882319F00E94560D04C08EED90E038
:1011B0000E947712C33148F49F928F92FF920E944F
:1011C00033130F900F900F9004C089ED90E00E94B0
:1011D0007712D0E01CC08C2F0E94E40E8823B1F05F
:1011E0001F92CF931F930F93DF92CF92FF920E9493
:1011F00033130E94560D0E9488128DB79EB7079632
:101200000FB6F8949EBF0FBE8DBFE3CFD1E08091A3
:101210005F04882321F08EEC90E00E947712CF5F6C
:10122000DD2309F4ABCF0F5F1F4F0330110509F029
:1012300099CFDF91CF911F910F91FF90DF90CF90C9
:10124000BF90AF909F908F900C947804EF92FF9294
:101250000F931F93CF93DF9300D000D0CDB7DEB7AD
:1012600080915F04882329F08BE091E00E9477123F
:1012700002C00E94881200E011E085E0E82E81E0C3
:10128000F82E812F0E94E40E8130B1F50F5F90910E
:101290005F04992399F00E94DB130E94560D0E946F
:1012A000D313CE0101960E943A100E94D3130E94DC
:1012B000260D0E94D7130E94D3131EC01F920F93B6
:1012C000FF92EF928F930E9433130E94560D81E09C
:1012D00091E00E947712CE0101960E943A108DEFA4
:1012E00090E00E9477120E94260D0E9488120F90B3
:1012F0000F900F900F900F901F5F153111F6809196
:101300005F04882329F082EF90E00E94771202C0E8
:101310000E9488120E9478040F900F900F900F90F7
:10132000DF91CF911F910F91FF90EF9008950E9450
:10133000260D0C9478040E94D30F0C9478040E941C
:101340002C0F882319F00E94560D0DC00E94560DD7
:1013500088EE90E09F938F9381E08F930E943313E8
:101360000F900F900F900C947804CF92DF92EF9231
:10137000FF920F931F93CF93DF93CDB7DEB72897DC
:101380000FB6F894DEBF0FBECDBF81E00E94A0066D
:10139000062FCE0101967C0112E06C01812F0E9484
:1013A000A006F70161937F011F5F1A30B9F78981A9
:1013B000882319F0C6010E946B0E802F0E943D0EFB
:1013C0000E94970828960FB6F894DEBF0FBECDBFD7
:1013D000DF91CF911F910F91FF90EF90DF90CF9011
:1013E000089581E00E94A006862F0E948C0F0E9423
:1013F000260D0C947804CF9381E00E94A006C62F9E
:1014000082E00E94A0068C2F0E9432118FE99FE09B
:101410000197F1F700C000008C2F0E948C0F0E94F2
:10142000260DCF910C947804CF93DF930E945D1129
:10143000C0E0D0E08C2F0E942A0C0E945112882319
:1014400039F0DF5F8D2F0E943D0E0E946511F5CFB0
:10145000CF5FC33079F7DF91CF910C9478041F935D
:10146000CF93DF9381E00E94A006162F82E00E94B6
:10147000A00625B1C1E0D0E001C0CC0F1A95EAF773
:101480003C2F3095232325B9CB010E942D0C85B12B
:10149000C82BC5B9DF91CF911F9108950C949E0D73
:1014A000CF9381E00E94A006C62F82E00E94A00692
:1014B0008C2FCF910C94130E0F931F930E940A143C
:1014C0002091660530916705890120E030E06017C2
:1014D0007107820793077CF080916004882359F09C
:1014E0000E94011481E080935E040E94860C1F918B
:1014F0000F910C94950E1F910F910895CF93DF9348
:101500001F92CDB7DEB780915E04882381F01092E0
:101510005E048FE195E00E9477120E9426090E94E6
:10152000D60305C08981823549F40E944808CE015E
:1015300001960E9401168111F5CF15C0833548F43C
:10154000833471F40E94971661E081E00E949B163B
:10155000E6CF833551F38A3519F40E946F04DFCF4B
:101560000E946C05E4CF0E944D04CDCF0E94DE1591
:1015700060E072EC81E090E00E94C41588EF95E194
:101580000E9453120E94970388EF95E10E94D103B5
:101590000E9493160E949716EEE5F4E010821182E5
:1015A000128288EE93E090936705809366050E940F
:1015B000E4136CE57AE080E00E94F61385E00E9477
:1015C000DF1383E284B98CEF8BB98FEF87B988B9C9
:1015D0002D986CEC76E080E091E00E94AC036EEB1D
:1015E0007BE085E091E00E94AC0364E277E089E073
:1015F00091E00E94AC036CE377E08FE091E00E9401
:10160000AC0364EC7BE085E191E00E94AC0368E808
:1016100077E08BE191E00E94AC0366EC76E080E23B
:1016200091E00E94AC0364E977E085E291E00E94DA
:10163000AC0367EA77E08AE291E00E94AC0362ECD7
:1016400077E08FE291E00E94AC0362E378E084E30C
:1016500091E00E94AC036AE578E08BE391E00E94A0
:10166000AC036FE27AE084E491E00E94AC036FE99E
:1016700079E08AE491E00E94AC0368E478E08EE4CB
:1016800091E00E94AC0367E978E084E591E00E9474
:10169000AC0367E979E089E591E00E94AC0365EB72
:1016A00079E08CE591E00E94AC0362E377E081E6AB
:1016B00091E00E94AC0366E279E087E691E00E9447
:1016C000AC036BE979E08CE691E00E94AC0361E940
:1016D00078E081E791E00E94AC0361EF79E085E773
:1016E00091E00E94AC036BEF79E088E791E00E9403
:1016F000AC0364E17AE08BE791E00E94AC036EE416
:101700007AE085E891E00E94AC0360E57AE082E847
:1017100091E00E94AC030E94DE0B0E9424070E940D
:10172000D6030E947E0A0F931F93CF93DF93CDB70A
:10173000DEB764970FB6F894DEBF0FBECDBF8C0145
:101740008EE391E00E94771244E150E0B801CE01AF
:1017500001960E944818CE0101960E9469128CE3FE
:1017600091E00E94771264960FB6F894DEBF0FBE28
:10177000CDBFDF91CF911F910F91089588E790E041
:101780000E94930B0C9478048FE491E00E947712EE
:1017900088E790E00E94930B82E491E00E94771228
:1017A00084E690E00E94930B0E94D7130E94D71307
:1017B00080E491E00E9477120C947804E8E6F5E06A
:1017C00089E08E0F11928E13FDCFE1E7F5E088E0FE
:1017D0008E0F11928E13FDCF10927C05409A419A84
:1017E000429A8FE890E00E94601890937E05809363
:1017F0007D0581E990E00E946018909380058093B8
:101800007F0583E990E00E946018909382058093A1
:10181000810585E990E00E9460189093840580938B
:10182000830587E990E00E9458188093850588E930
:1018300090E00E9458188093860589E990E00E9404
:101840005818809387058AE990E00E945818809381
:101850008805089580937C050895019710F0000095
:10186000FCCF08951F93CF93DF93182F95B1C1E05C
:10187000D0E09E0100907C0502C0220F331F0A9425
:10188000E2F7822F8095982395B984B1282B24B94B
:101890008091850590E00E942D0C112359F084B1B0
:1018A00000907C0502C0CC0FDD1F0A94E2F7C095C2
:1018B000C823C4B98091860590E00E942D0C24B104
:1018C00081E090E000907C0502C0880F991F0A9487
:1018D000E2F78095822384B9DF91CF911F9108951B
:1018E00041E050E0815068F073B19A0100907C05AE
:1018F00002C0220F331F0A94E2F7272323B9920F65
:10190000F1CF81E0961708F480E008950F931F93BC
:10191000CF93DF934098219A25B108E615E0C1E006
:10192000D0E0CE01F801048802C0880F991F0A9404
:10193000E2F7982F9095922395B994B1892B84B9A9
:101940008789908D0E942D0C84B1F801048802C013
:10195000CC0FDD1F0A94E2F7C095C823C4B9838D6C
:10196000948D0E942D0C409A65E08AE00E94700CD4
:10197000C82F4098F801818D928D0E942D0C409ABD
:101980008C2FDF91CF911F910F9108950F931F938B
:10199000CF93DF93419825B108E615E081E090E010
:1019A000F801048802C0880F991F0A94E2F7382FC3
:1019B0003095932F922395B994B1892B84B984B132
:1019C000832384B9878D90E00E942D0C419AC3B186
:1019D000D0E0F801048802C0D595C7950A94E2F7D3
:1019E000C170DD27419880A190E00E942D0C419AA2
:1019F0008C2FDF91CF911F910F910895CF93DF939B
:101A0000F8944298D9E0C0E0D15049F00E94C60C49
:101A100020E8829FC0011124C695C82BF5CF429AB9
:101A200078948C2FDF91CF910895CF93DF93D82FA7
:101A3000F894C9E0C15031F08D2F81700E94320CB2
:101A4000D695F8CF7894DF91CF910895CF92DF9219
:101A5000EF92FF920F931F93CF938CE891E00E9437
:101A6000691288E6C82E85E0D82EC0E0F601E19024
:101A70006F01F12C00E010E020E240E063E08AE03A
:101A80000E949312C83021F08EE891E00E94691202
:101A9000CF5FC93059F780E991E0CF911F910F9145
:101AA000FF90EF90DF90CF900C946912AF92BF92AD
:101AB000CF92DF92EF92FF921F93CF93DF9382E951
:101AC00091E00E946912C0E0D0E080E2E82E86E05A
:101AD000F82E11E09CE1C92E96E0D92E2EE1A22E1F
:101AE00026E0B22EFE01E859FA4F81851F928F93AE
:101AF000FF92EF921F930E9433130F900F900F905D
:101B00000F900F90C730D10519F4BF92AF9202C069
:101B1000DF92CF921F930E9433130F900F900F907C
:101B20002196C830D105F1F6DF91CF911F91FF903A
:101B3000EF90DF90CF90BF90AF9008951F93CF9319
:101B4000DF938DE096E09F938F9311E01F930E94A7
:101B50003313C8E6D5E08E898F938D898F9387EFF5
:101B600095E09F938F931F930E943313888D8F93DB
:101B70008F898F9381EE95E09F938F931F930E949F
:101B800033138A8D8F93898D8F938BEC95E09F9380
:101B90008F931F930E9433138C8D8F938B8D8F9314
:101BA00085EB95E09F938F931F930E9433138D8D48
:101BB0001F928F938FE995E09F938F931F930E94BD
:101BC00033138E8D1F928F9389E895E09F938F93A7
:101BD0001F930E9433138DB79EB781960FB6F8946A
:101BE0009EBF0FBE8DBF8F8D1F928F9383E795E0B1
:101BF0009F938F931F930E94331388A11F928F93FB
:101C00008DE595E09F938F931F930E9433138DB7BB
:101C10009EB70A960FB6F8949EBF0FBE8DBFDF9198
:101C2000CF911F910895F89490E0FC013197E8302E
:101C3000F105F8F4EC5CFF4F0C94F6168FE890E099
:101C400002C081E990E00E94861813C083E990E009
:101C5000FACF85E990E0F7CF87E990E008C088E9FE
:101C600090E005C089E990E002C08AE990E00E9416
:101C700070180E94DE0B78940895FF920F931F93C3
:101C8000CF93DF93F894C0E0D0E034E1F32E082F37
:101C900010E0FE01E859FA4F80917C059801F89E0A
:101CA000200D311D1124C90123E0880F991F2A95A9
:101CB000E1F78C0F9D1F6185855C9E4F0E94701817
:101CC0002196C830D10529F77894DF91CF911F91E3
:101CD0000F91FF900895E1E7F5E09C01275F3F4FEA
:101CE000DC014D91CD014193A217B307C9F70895C7
:101CF0001F93CF93DF9380917105811106C08CEC07
:101D0000DF91CF911F910C94150D85E50E94150D63
:101D1000C1E7D5E01C2F185F89910E94150D1C1397
:101D2000FBCFDF91CF911F9108958CEC0E94150D90
:101D300084E40C94150D98E028E1362F382730FD07
:101D400002C0669503C062276695606886959150CB
:101D5000A1F7862F0895AF92BF92DF92EF92FF9284
:101D60000F931F93CF93DF931F92CDB7DEB75C0124
:101D70007B01FB011082D82E8C01802F8D198417D6
:101D800060F4F7016081F80181918F0149830E941D
:101D90009B0EF70180834981F0CFF501E40FF11D1F
:101DA0009081F7018081981303C081E0911101C0F7
:101DB00080E00F90DF91CF911F910F91FF90EF90F6
:101DC000DF90BF90AF900895CF92DF92EF92FF9295
:101DD0000F931F93CF93DF931F92CDB7DEB7009180
:101DE0007C0594E1099F80011124080F111D83E0F7
:101DF000000F111F8A95E1F7E12CF12CC12CD12C99
:101E000004551F4FC8018E0D9F1D81579F4F0E9483
:101E10005818F701E859FA4F8187C80ED11C8FEF87
:101E2000E81AF80A98E0E916F10461F7CD2849F0BC
:101E300047E0BE016F5F7F4F81E795E00E94AB0EE8
:101E400001C080E00F90DF91CF911F910F91FF9023
:101E5000EF90DF90CF900895FF920F931F93CF9351
:101E6000DF931F92CDB7DEB719820E94860C8CECEF
:101E70000E94150D0E94860C83E30E94150D01E758
:101E800015E088E0F82EF00E0E94FE0CF801819318
:101E90008F01FE12F9CF47E0BE016F5F7F4F81E7F0
:101EA00095E00E94AB0E0F90DF91CF911F910F91A3
:101EB000FF900895CF92DF92EF92FF921F93CF93FE
:101EC000DF931F92CDB7DEB7182F0E94780E8EEBEE
:101ED0000E94150D88E6C82E85E0D82E76018E2D3D
:101EE0008C19811730F40E94FE0CF70181937F0159
:101EF000F6CF19824FEF410FBE016F5F7F4F88E62B
:101F000095E00E94AB0E0F90DF91CF911F91FF9053
:101F1000EF90DF90CF900895FF920F931F93CF9390
:101F2000DF931F92CDB7DEB7182F0E94860C8CEC82
:101F30000E94150D89EF90E00197F1F700C00000B5
:101F400088EB0E94150D812F0E94150D0E94860CB2
:101F50008CEC0E94150DE9EFF0E03197F1F700C02D
:101F600000008EEB0E94150D812F0E94150D08E6D2
:101F700015E089E0F82EF00E0E94FE0CF801819326
:101F80008F01FE12F9CF198248E0BE016F5F7F4FCB
:101F900088E695E00E94AB0E0F90DF91CF911F91E4
:101FA0000F91FF9008950E94860C8CEC0E94150DF5
:101FB00084E40E94150D89E698E10197F1F700C0CD
:101FC00000000E94860C8CEC0E94150D84EB0E9490
:101FD000150D89E698E10197F1F700C0000080E057
:101FE0000E948C0F0E94260D0C94860CFF920F937A
:101FF0001F93CF93DF931F92CDB7DEB70E94860C5D
:102000000E94780E89EF90E00197F1F700C0000080
:1020100088EB0E94150D80E00E94150D0E94860C31
:102020000E94780EE9EFF0E03197F1F700C0000070
:102030008EEB0E94150D80E00E94150D08E615E05C
:1020400089E0F82EF00E0E94FE0CF80181938F01BA
:10205000FE12F9CF198248E0BE016F5F7F4F88E61C
:1020600095E00E94AB0E0F90DF91CF911F910F91E1
:10207000FF900895DF92EF92FF920F931F93CF93FB
:10208000DF93EC0187EE93E0998388838FE097E2FA
:102090009B838A830E94860C80917105803109F0B0
:1020A0007BC089E00E945A0FD82E2091690530E04C
:1020B000322F222780916805282B3983288380912D
:1020C0006905359527953983288340916E058F3FA3
:1020D00019F54C3050F021E732E0429FC001439F98
:1020E000900D11248C549D4154C02F5F3F4F398374
:1020F000288360916E0541E752E0649FC001659FAF
:10210000900D11248C53964F9B838A83232B09F0C7
:1021100083C08BE595E020C04D3090F1215031090E
:10212000398328838091680520916E0581111EC036
:1021300041E752E0249FC001259F900D11248C544B
:102140009D419B838A831982188280916E058D3010
:1021500008F462C089E595E09F938F9381E08F93A7
:102160000E9433130F900F900F9056C04FE85DEF11
:10217000249FC001259F900D1124845A9B4B09C0B8
:102180002FE83DEF429FC001439F900D1124845BD7
:10219000924E9B838A8340C0883201F589E00E9479
:1021A0005A0FD82E8091690590E0982F88272091AA
:1021B0006805822B34E0959587953A95E1F79983E8
:1021C0008883809168058F7041E752E0849F900179
:1021D000859F300D11243B832A831EC0863279F4FB
:1021E0000E94F60F8823B1F080916A0590E09983F0
:1021F00088838091690590E09B838A830BC089E482
:1022000095E09F938F9381E08F930E9433130F90FB
:102210000F900F90DD24D39489818F9388818F93C1
:1022200085E495E09F938F9381E08F930E94331311
:10223000EA80FB800F2C000C000B110B20E340E028
:1022400064E08AE00E9493120F900F900F900F901D
:102250000F908D2DDF91CF911F910F91FF90EF90F7
:10226000DF900895CF93DF93D82FC62F0E94860C5E
:102270008CEC0E94150D8EE40E94150D8D2F0E948E
:10228000150D8C2F0E94150D81E08C0F0E94150DED
:1022900083E08C0F0E94150D84E08C0F0E94150DB9
:1022A0000E94860C8CEC0E94150D88E40E94150D8E
:1022B0008D2FDF91CF910C94150DE8E5F5E088E0C6
:1022C0008E0F11928E13FDCF0895AF92BF92CF92D1
:1022D000DF92EF92FF920F931F93CF93DF9308E566
:1022E00015E0C0E083E3E82E85E0F82ED1E09FE220
:1022F000C92E95E0D92E21E3A22E25E0B22EF801B9
:1023000081918F011F928F93FF92EF92DF930E9432
:1023100033130F900F900F900F900F90C73019F458
:10232000BF92AF9202C0DF92CF92DF930E9433132D
:102330000F900F900F90CF5FC83009F7DF91CF91CA
:102340001F910F91FF90EF90DF90CF90BF90AF90D3
:102350000C948812E09160058E27E82FF0E0EC568F
:10236000FE4F8081809360050895FF920F931F9325
:10237000CF93DF93109260058091640581117DC039
:102380000E94860CC82F811112C086E395E09F93AE
:102390008F9381E08F930E94331310926505109202
:1023A0006405109263050F900F900F9073C080EF3B
:1023B0000E94150DD1E010E0F12CC1E00E94C60C86
:1023C000082F0E94C60C013019F48130C1F447C0B7
:1023D000212F30E0081323C080916505C81738F419
:1023E000F901E85AFA4F80818D2349F402C0C817D9
:1023F00031F000E0C93090F4C09363050FC0E12FC5
:10240000F0E0DF01A85ABA4F8C918D2B8C93E859DC
:10241000FA4F81858D2B818701E00FC0FC2EF901D9
:10242000E85AFA4F90818D2F809598239083F90177
:10243000E859FA4F918589238187802F0E94320CB9
:10244000CF5FDD0F49F4E12FF0E0E85AFA4F8081C9
:102450000E94AA111F5FD1E0183008F4AFCFC13439
:1024600060F080916005811108C0F0926505F1105F
:102470000CC081E08093640508C01092650510923D
:10248000640510926305C0E005C08091580588235B
:10249000A1F3C1E08C2FDF91CF911F910F91FF909D
:1024A00008950C94B5119093C7038093C6030895C3
:1024B000CF93C82F8A3031F4E091C603F091C7035F
:1024C0008DE00995E091C603F091C7038C2FCF9161
:1024D0000994CF93DF93009739F0EC018991882319
:1024E00019F00E945812FACFDF91CF910895CF933F
:1024F000DF93009751F0FC018491EF01219688232E
:1025000021F00E945812FE01F7CFDF91CF9108957C
:102510008AE00C9458128F70E82FF0E0E75DF94FD5
:1025200084910C9458123F924F925F926F927F92D7
:102530008F929F92AF92BF92CF92DF92EF92FF92D3
:102540000F931F93CF93DF93CDB7DEB7A0970FB64E
:10255000F894DEBF0FBECDBF482EC62E822E442378
:1025600051F017FF08C066277727CB016E197F0946
:10257000800B910B02C0C801B701992493944111BB
:1025800001C0912CDD24DA94DC0CD91818A2512C4E
:10259000612C712CA30192010E94D416FB01EF70F3
:1025A000FF27E75DF94F64916F8FB901CA015E01A2
:1025B0002EE1A20EB11C3D2C3A942FEF3216D1F031
:1025C000611571058105910579F0A30192010E94C1
:1025D000D416FB01EF70FF27E75DF94F6491F50119
:1025E0006083B901CA0102C0F5018082F1E0AF1A2F
:1025F000B108E2CFCE014F968D199109992069F06B
:10260000FC01319717FF02C02DE205C0EF28E02A38
:10261000E12A39F02BE22083CF017C011C2D180F19
:1026200002C020E2F8CF1E1531F0F70181917F0141
:102630000E945812F8CFA0960FB6F894DEBF0FBED6
:10264000CDBFDF91CF911F910F91FF90EF90DF9061
:10265000CF90BF90AF909F908F907F906F905F9042
:102660004F903F9008955F926F927F928F929F92CA
:10267000AF92BF92CF92DF92EF92FF920F931F9390
:10268000CF93DF931F92CDB7DEB7EC89FD893E0172
:1026900026E1620E711C3AE0A32EB12C3B89332354
:1026A00081F08F010F5F1F4F8491853289F088235D
:1026B00009F466C00E945812630178013601F701DF
:1026C000EDCF8081853259F08F010F5F1F4FEFCF23
:1026D0007F0182E0E80EF11CF801849105C07F01C2
:1026E00022E0E20EF11C81818436A1F0883761F08E
:1026F000833631F4F301808193012E5F3F4F39011E
:102700000E9458126301DACF20E1822E912C00E062
:1027100010E105C09AE0892E912C00E117E26301D7
:1027200032E0C30ED11CF301608071808436A1F4C5
:1027300077FE0FC07194619471088DE20E94581267
:1027400008C0C801B5010E94C0168B016230710536
:1027500018F060167106A8F3C301B8010E94C016F4
:10276000582E862F99830E948B12652C9981792E81
:10277000C801B4010E94C0168B01672B69F79ECF78
:1027800080E090E00F90DF91CF911F910F91FF902B
:10279000EF90DF90CF90BF90AF909F908F907F9001
:1027A0006F905F90089587E296E00C94771285E22F
:1027B00096E00C94771283E296E00C94771295B52C
:1027C000987F892B85BD089582E00E94DF1316BC97
:1027D000EEE6F0E080818160808310929505109292
:1027E0009605109297051092980508958A3040F446
:1027F000E82FF0E0EE0FFF1FE853FC4F718360837A
:1028000008951092950510929605109297051092D2
:1028100098050895609195057091960580919705AA
:102820009091980508951F920F920FB60F92112460
:102830002F933F934F935F936F937F938F939F93C8
:10284000AF93BF93EF93FF93809195059091960579
:10285000A0919705B09198050196A11DB11D809397
:10286000950590939605A0939705B0939805809150
:10287000990590919A05A0919B05B0919C050196B0
:10288000A11DB11D8093990590939A05A0939B0576
:10289000B0939C058091C8039091C903892B29F0BE
:1028A000E091C803F091C9030995FF91EF91BF91A1
:1028B000AF919F918F917F916F915F914F913F91D8
:1028C0002F910F900FBE0F901F9018951F920F928F
:1028D0000FB60F9211242F933F934F935F936F93F3
:1028E0007F938F939F93AF93BF93EF93FF938091C9
:1028F0009D0590919E05A0919F05B091A005019620
:10290000A11DB11D80939D0590939E05A0939F05E9
:10291000B093A0058091D6039091D703892B29F01D
:10292000E091D603F091D7030995FF91EF91BF9104
:10293000AF919F918F917F916F915F914F913F9157
:102940002F910F900FBE0F901F9018951F920F920E
:102950000FB60F9211242F933F934F935F936F9372
:102960007F938F939F93AF93BF93EF93FF93809148
:10297000CA039091CB03892B29F0E091CA03F0910F
:10298000CB030995FF91EF91BF91AF919F918F91EB
:102990007F916F915F914F913F912F910F900FBE5B
:1029A0000F901F9018951F920F920FB60F9211243F
:1029B0002F933F934F935F936F937F938F939F9347
:1029C000AF93BF93EF93FF938091CC039091CD038E
:1029D000892B29F0E091CC03F091CD030995FF916B
:1029E000EF91BF91AF919F918F917F916F915F9187
:1029F0004F913F912F910F900FBE0F901F90189500
:102A00001F920F920FB60F9211242F933F934F9363
:102A10005F936F937F938F939F93AF93BF93EF9346
:102A2000FF938091D0039091D103892B29F0E091FD
:102A3000D003F091D1030995FF91EF91BF91AF9130
:102A40009F918F917F916F915F914F913F912F91C6
:102A50000F900FBE0F901F9018951F920F920FB6F8
:102A60000F9211242F933F934F935F936F937F9314
:102A70008F939F93AF93BF93EF93FF938091D20374
:102A80009091D303892B29F0E091D203F091D303E5
:102A90000995FF91EF91BF91AF919F918F917F9198
:102AA0006F915F914F913F912F910F900FBE0F90BB
:102AB0001F9018951F920F920FB60F9211242F930B
:102AC0003F934F935F936F937F938F939F93AF93B6
:102AD000BF93EF93FF938091D4039091D503892BFB
:102AE00029F0E091D403F091D5030995FF91EF917E
:102AF000BF91AF919F918F917F916F915F914F9116
:102B00003F912F910F900FBE0F901F9018951F921D
:102B10000F920FB60F9211242F933F934F935F9311
:102B20006F937F938F939F93AF93BF93EF93FF9395
:102B30008091D8039091D903892B29F0E091D80393
:102B4000F091D9030995FF91EF91BF91AF919F91BA
:102B50008F917F916F915F914F913F912F910F9046
:102B60000FBE0F901F90189540E450E06EE174E0A6
:102B700082EA95E00E94450340E450E06EED73E088
:102B80008BEA95E00C94450322E02093C00028E9ED
:102B90002093C1009B01AC0183E0220F331F441F2F
:102BA000551F8A95D1F760E074E284EF90E00E94AF
:102BB000D41621502093C400789408950E94B4152F
:102BC0001092DD031092DC0388ED8093C10060E079
:102BD00072EC81E090E00E94C4158FEF8093A10514
:102BE0001092AA051092B4051092B3057894089536
:102BF0009091C00095FFFCCF8093C6001092A10574
:102C00000895CF93DF932091A4053091A505232B40
:102C100071F02091A6053091A705232B41F0EC011E
:102C200082EA95E00E94520388838FEF01C080E022
:102C3000DF91CF9108951F920F920FB60F9211243A
:102C40002F933F934F935F936F937F938F939F93B4
:102C5000AF93BF93EF93FF938091AA05882379F0F8
:102C60008091AF059091B005892B39F08BEA95E002
:102C70000E9452038093C60005C01092AA058FEFF0
:102C80008093A105FF91EF91BF91AF919F918F919B
:102C90007F916F915F914F913F912F910F900FBE58
:102CA0000F901F9018951F920F920FB60F9211243C
:102CB0002F933F934F935F936F937F938F939F9344
:102CC000AF93BF93EF93FF938091C6002091DC03F5
:102CD0003091DD03232B31F0E091DC03F091DD0333
:102CE000099510C0682F82EA95E00E947603811151
:102CF00009C08091B3059091B40501969093B405F5
:102D00008093B305FF91EF91BF91AF919F918F9108
:102D10007F916F915F914F913F912F910F900FBED7
:102D20000F901F90189588E496E00C94771283E436
:102D300096E00C9477121F926F931F928F938AE301
:102D400096E09F938F9381E08F930E9433138DB70A
:102D50009EB707960FB6F8949EBF0FBE8DBF08951D
:102D6000DB018F939F930E94FC16BF91AF91A29FAE
:102D7000800D911DA39F900DB29F900D1124089579
:102D8000AA1BBB1B51E107C0AA1FBB1FA617B70791
:102D900010F0A61BB70B881F991F5A95A9F78095AD
:102DA0009095BC01CD010895A1E21A2EAA1BBB1B70
:102DB000FD010DC0AA1FBB1FEE1FFF1FA217B30707
:102DC000E407F50720F0A21BB30BE40BF50B661F1D
:102DD000771F881F991F1A9469F7609570958095E1
:102DE00090959B01AC01BD01CF010895EE0FFF1F2F
:102DF0000590F491E02D09940E940717A59F900D6E
:102E0000B49F900DA49F800D911D11240895A29F41
:102E1000B001B39FC001A39F700D811D1124911DAE
:102E2000B29F700D811D1124911D0895A0E0B0E0A6
:102E3000ECE1F7E10C948B185C016B017A016115F0
:102E4000710519F0FB0191838083E114F10429F0ED
:102E5000C7010297839708F0F1C0E5012196F501BB
:102E60001081812F90E00E942718892B11F05E01BC
:102E7000F4CF1D3229F42196F501118101E007C03C
:102E80001B3221F4E5012296F501118100E0E114E5
:102E9000F10459F1F0E1EF16F10461F41033E1F4BB
:102EA00088818F7D883569F519812296026070E1ED
:102EB000E72EF12C88E0E816F10439F12CF4F2E069
:102EC000EF16F104C9F12AC08AE0E816F10479F09E
:102ED000E0E1EE16F10411F550E1E52EF12C812C24
:102EE000912CA12C68E0B62E2CC01033C9F23AE028
:102EF000E32EF12C4CEC842E982CA82C4CE0B42E14
:102F000020C010E3E114F104A9F698E0E92EF12CB9
:102F1000812C912CA12C20E1B22E13C060E070E036
:102F200080E090E897010F2C000C440B550B0E9499
:102F3000D41649015A0105C0812C912CA12C80E4A2
:102F4000B82E60E020E030E0A90127010F2C000C32
:102F5000660877081E01E0EDE10FEA3060F08FEBC4
:102F6000810F8A3110F4E9EC05C08FE9810F8A31B5
:102F700028F5E9EAE10F8E2F90E08E159F05F4F415
:102F800067FD18C082169306A406B50690F0C3012B
:102F9000B2010E94B0169B01AC012E0F311D411DE4
:102FA000511D213031054105F0E85F0710F461E063
:102FB00001C06FEF2196F1011081CCCF802F81707D
:102FC000C114D10471F0662329F02197F601D18351
:102FD000C08307C001FF19C02297F601D183C083C7
:102FE00014C067FF12C0811105C02FEF3FEF4FEFF4
:102FF0005FE704C020E030E040E050E882E290E08B
:103000009093B6058093B50516C0882341F050957E
:103010004095309521953F4F4F4F5F4F0CC057FF64
:103020000AC082E290E09093B6058093B5052FEF39
:103030003FEF4FEF5FE7B901CA0104C060E070E005
:1030400080E090E0CDB7DEB7E2E10C94A7189111D3
:103050000C944518803219F089508550C8F70895AE
:10306000FB01DC0101900D920020E1F70895FB01C6
:10307000DC014150504030F08D910190801919F4DD
:103080000020B9F7881B990B089599278827089580
:10309000DC01CB01FC01F999FECF06C0F2BDE1BD18
:1030A000F89A319600B40D9241505040B8F7089507
:1030B000F999FECF92BD81BDF89A992780B5089500
:1030C000A8E1B0E042E050E00C944A18DC01CB01EA
:1030D00003C02D910E94711841505040D0F70895BF
:1030E000262FF999FECF1FBA92BD81BD20BD0FB624
:1030F000F894FA9AF99A0FBE01960895242F0E9427
:103100007118252F0E9471180C9486180E9470184F
:10311000272F0C9471182F923F924F925F926F92CB
:103120007F928F929F92AF92BF92CF92DF92EF9257
:10313000FF920F931F93CF93DF93CDB7DEB7CA1BD8
:10314000DB0B0FB6F894DEBF0FBECDBF09942A8803
:10315000398848885F846E847D848C849B84AA84AB
:10316000B984C884DF80EE80FD800C811B81AA8138
:10317000B981CE0FD11D0FB6F894DEBF0FBECDBF03
:08318000ED010895F894FFCF62
:1031880068656C700069646E0067657466770073C3
:103198006574736E00676574736E0074657374008C
:1031A8006A736F6E00706F6B65007065656B0064A5
:1031B800756D700073747265616D00696E74657207
:1031C80076616C0064656C617900726F6D00726580
:1031D800736574006C6F6164007370007361766569
:1031E8000073746172740074656D70006461746159
:1031F8000070696E007270007770007365617263A9
:10320800680073657474696D696E67005B002C00F3
:103218005D002200005EBCE2613FDD83C29C7E202F
:10322800A3FD1F419DC3217FFCA2401E5F01E3BD9A
:103238003E6082DC237D9FC1421CFEA0E1BF5D038E
:1032480080DE3C62BEE0025CDF81633D7C22C09E82
:103258001D43A1FF4618FAA427799BC584DA38666E
:10326800E5BB5907DB856739BAE406581947A5FB5A
:103278007826C49A653BD987045AB8E6A7F91B454E
:10328800C6987A24F8A6441A99C7257B3A6486D842
:103298005B05E7B98CD2306EEDB3510F4E10F2AC2E
:1032A8002F7193CD114FADF3702ECC92D38D6F311A
:1032B800B2EC0E50AFF1134DCE90722C6D33D18F0E
:1032C8000C52B0EE326C8ED0530DEFB1F0AE4C1202
:1032D80091CF2D73CA947628ABF517490856B4EAEE
:1032E8006937D58B5709EBB536688AD495CB2977DA
:1032F800F4AA4816E9B7550B88D6346A2B7597C9CE
:103308004A14F6A8742AC896154BA9F7B6E80A54C1
:04331800D7896B35B1
:00000001FF
